:020000040800F2
:1000000000000520190D00083515000837150008F7
:10001000391500083B1500083D15000800000000D8
:10002000000000000000000000000000718D0008CA
:100030003F15000800000000118E0008758E0008B2
:10004000690D0008690D0008690D0008690D0008B8
:10005000690D0008690D0008690D0008690D0008A8
:10006000690D0008690D0008690D0008690D000898
:10007000690D0008690D0008690D0008690D000888
:10008000690D0008690D0008690D0008690D000878
:10009000690D0008690D0008690D0008690D000868
:1000A000690D0008690D0008690D0008690D000858
:1000B000690D0008690D0008690D0008690D000848
:1000C000690D0008690D0008690D0008690D000838
:1000D000690D0008690D000841150008690D000848
:1000E000690D0008690D0008690D0008690D000818
:1000F000690D0008690D0008690D0008690D000808
:10010000690D0008690D0008690D0008690D0008F7
:100110004D150008591500087D150008690D0008E7
:10012000690D0008690D0008690D0008690D0008D7
:10013000690D0008690D0008690D0008690D0008C7
:10014000690D0008690D0008690D0008690D0008B7
:10015000690D0008690D0008690D0008690D0008A7
:10016000690D0008690D0008690D0008690D000897
:10017000690D0008690D0008690D0008690D000887
:10018000690D0008690D0008651500087115000863
:10019000690D0008690D0008690D0008690D000867
:1001A000690D0008690D0008690D0008690D000857
:1001B000690D0008690D0008690D0008690D000847
:0801C000690D0008690D00083B
:1001D00081F0004102E000BF83F0004330B54FEAF8
:1001E00041044FEA430594EA050F08BF90EA020F65
:1001F0001FBF54EA000C55EA020C7FEA645C7FEAF8
:10020000655C00F0E2804FEA5454D4EB5555B8BF1A
:100210006D420CDD2C4480EA020281EA030382EA8B
:10022000000083EA010180EA020281EA0303362D1D
:1002300088BF30BD11F0004F4FEA01314FF4801CF0
:100240004CEA113102D0404261EB410113F0004F02
:100250004FEA03334CEA133302D0524263EB4303B9
:1002600094EA050F00F0A780A4F10104D5F1200E57
:100270000DDB02FA0EFC22FA05F2801841F10001B2
:1002800003FA0EF2801843FA05F359410EE0A5F186
:1002900020050EF1200E012A03FA0EFC28BF4CF0B7
:1002A000020C43FA05F3C01851EBE37101F000456D
:1002B00007D54FF0000EDCF1000C7EEB00006EEB7A
:1002C0000101B1F5801F1BD3B1F5001F0CD3490804
:1002D0005FEA30004FEA3C0C04F101044FEA44525B
:1002E00012F5800F80F09A80BCF1004F08BF5FEAE2
:1002F000500C50F1000041EB045141EA050130BDC2
:100300005FEA4C0C404141EB0101013C28BFB1F5D3
:10031000801FE9D291F0000F04BF01460020B1FA1E
:1003200081F308BF2033A3F10B03B3F120020CDAF1
:100330000C3208DD02F1140CC2F10C0201FA0CF0CF
:1003400021FA02F10CE002F11402D8BFC2F1200C34
:1003500001FA02F120FA0CFCDCBF41EA0C019040EA
:10036000E41AA2BF01EB0451294330BD6FEA040433
:100370001F3C1CDA0C340EDC04F11404C4F120021E
:1003800020FA04F001FA02F340EA030021FA04F330
:1003900045EA030130BDC4F10C04C4F1200220FA87
:1003A00002F001FA04F340EA0300294630BD21FAC5
:1003B00004F0294630BD94F0000F83F4801306BF8B
:1003C00081F480110134013D4EE77FEA645C18BF7F
:1003D0007FEA655C29D094EA050F08BF90EA020F16
:1003E00005D054EA000C04BF1946104630BD91EA0E
:1003F000030F1EBF0021002030BD5FEA545C05D111
:100400004000494128BF41F0004130BD14F580044F
:100410003CBF01F5801130BD01F0004545F0FE41C3
:1004200041F470014FF0000030BD7FEA645C1ABFF8
:10043000194610467FEA655C1CBF0B46024650EA2F
:10044000013406BF52EA033591EA030F41F400215B
:1004500030BD00BF90F0000F04BF0021704730B5E1
:100460004FF4806404F132044FF000054FF00001B6
:1004700050E700BF90F0000F04BF0021704730B577
:100480004FF4806404F1320410F0004548BF40424C
:100490004FF000013EE700BF42004FEAE2014FEAA1
:1004A00031014FEA02701FBF12F07F4393F07F4F7C
:1004B00081F06051704732F07F4208BF704793F07F
:1004C0007F4F04BF41F40021704730B54FF4607492
:1004D00001F0004521F000411CE700BF50EA010295
:1004E00008BF704730B54FF000050AE050EA01023E
:1004F00008BF704730B511F0004502D5404261EBAE
:1005000041014FF4806404F132045FEA915C3FF4EE
:10051000D8AE4FF003025FEADC0C18BF03325FEA8B
:10052000DC0C18BF033202EBDC02C2F1200300FA3C
:1005300003FC20FA02F001FA03FE40EA0E0021FA61
:1005400002F11444BDE600BF70B54FF0FF0C4CF44F
:10055000E06C1CEA11541DBF1CEA135594EA0C0F01
:1005600095EA0C0F00F0DEF82C4481EA030621EA3C
:100570004C5123EA4C5350EA013518BF52EA033577
:1005800041F4801143F4801338D0A0FB02CE4FF029
:100590000005E1FB02E506F00042E0FB03E54FF059
:1005A0000006E1FB03569CF0000F18BF4EF0010E51
:1005B000A4F1FF04B6F5007F64F5407404D25FEA4D
:1005C0004E0E6D4146EB060642EAC62141EA555100
:1005D0004FEAC52040EA5E504FEACE2EB4F1FD0C42
:1005E00088BFBCF5E06F1ED8BEF1004F08BF5FEAC0
:1005F000500E50F1000041EB045170BD06F0004672
:1006000046EA010140EA020081EA0301B4EB5C041E
:10061000C2BFD4EB0C0541EA045170BD41F4801116
:100620004FF0000E013C00F3AB8014F1360FDEBF3B
:10063000002001F0004170BDC4F10004203C35DA17
:100640000C341BDC04F11404C4F1200500FA05F39A
:1006500020FA04F001FA05F240EA020001F000423B
:1006600021F0004110EBD37021FA04F642EB0601B1
:100670005EEA430E08BF20EAD37070BDC4F10C04DB
:10068000C4F1200500FA04F320FA05F001FA04F29F
:1006900040EA020001F0004110EBD37041F100018B
:1006A0005EEA430E08BF20EAD37070BDC4F1200596
:1006B00000FA05F24EEA020E20FA04F301FA05F2FE
:1006C00043EA020321FA04F001F0004121FA04F2A6
:1006D00020EA020000EBD3705EEA430E08BF20EA76
:1006E000D37070BD94F0000F0FD101F000464000B0
:1006F00041EB010111F4801F08BF013CF7D041EA32
:10070000060195F0000F18BF704703F00046520035
:1007100043EB030313F4801F08BF013DF7D043EA06
:100720000603704794EA0C0F0CEA135518BF95EABC
:100730000C0F0CD050EA410618BF52EA4306D1D143
:1007400081EA030101F000414FF0000070BD50EA62
:10075000410606BF1046194652EA430619D094EAEC
:100760000C0F02D150EA013613D195EA0C0F05D1D6
:1007700052EA03361CBF104619460AD181EA03012A
:1007800001F0004141F0FE4141F470014FF00000E2
:1007900070BD41F0FE4141F4780170BD70B54FF07D
:1007A000FF0C4CF4E06C1CEA11541DBF1CEA1355FD
:1007B00094EA0C0F95EA0C0F00F0A7F8A4EB0504DF
:1007C00081EA030E52EA03354FEA013100F08880D6
:1007D0004FEA03334FF0805545EA131343EA12639F
:1007E0004FEA022245EA111545EA10654FEA002654
:1007F0000EF000419D4208BF964244F1FD0404F50D
:10080000407402D25B084FEA3202B61A65EB030568
:100810005B084FEA32024FF480104FF4002CB6EB25
:10082000020E75EB030E22BFB61A754640EA0C00A5
:100830005B084FEA3202B6EB020E75EB030E22BFE5
:10084000B61A754640EA5C005B084FEA3202B6EB26
:10085000020E75EB030E22BFB61A754640EA9C00E5
:100860005B084FEA3202B6EB020E75EB030E22BFB5
:10087000B61A754640EADC0055EA060E18D04FEA73
:10088000051545EA16754FEA06164FEAC30343EA13
:1008900052734FEAC2025FEA1C1CC0D111F4801FE0
:1008A0000BD141EA00014FF000004FF0004CB6E7D9
:1008B00011F4801F04BF01430020B4F1FD0C88BF78
:1008C000BCF5E06F3FF6AFAEB5EB030C04BFB6EB83
:1008D000020C5FEA500C50F1000041EB045170BD76
:1008E0000EF0004E4EEA113114EB5C04C2BFD4EBA3
:1008F0000C0541EA045170BD41F480114FF0000E27
:10090000013C90E645EA060E8DE60CEA135594EAA2
:100910000C0F08BF95EA0C0F3FF43BAF94EA0C0FA5
:100920000AD150EA01347FF434AF95EA0C0F7FF41A
:1009300025AF104619462CE795EA0C0F06D152EA6E
:1009400003353FF4FDAE1046194622E750EA410652
:1009500018BF52EA43067FF4C5AE50EA41047FF463
:100960000DAF52EA43057FF4EBAE12E74FF0FF3CC8
:1009700006E000BF4FF0010C02E000BF4FF0010C99
:100980004DF804CD4FEA410C7FEA6C5C4FEA430C12
:1009900018BF7FEA6C5C1BD001B050EA410C0CBF61
:1009A00052EA430C91EA030F02BF90EA020F0020C3
:1009B000704710F1000F91EA030F58BF994208BF2A
:1009C00090422CBFD8176FEAE37040F001007047E7
:1009D0004FEA410C7FEA6C5C02D150EA013C07D13E
:1009E0004FEA430C7FEA6C5CD6D152EA033CD3D089
:1009F0005DF8040B704700BF8446104662468C4683
:100A00001946634600E000BF01B5FFF7B7FF0028B5
:100A100048BF10F1000F01BD4DF808EDFFF7F4FFDE
:100A20000CBF012000205DF808FB00BF4DF808ED69
:100A3000FFF7EAFF34BF012000205DF808FB00BF8C
:100A40004DF808EDFFF7E0FF94BF012000205DF8AE
:100A500008FB00BF4DF808EDFFF7CEFF94BF012063
:100A600000205DF808FB00BF4DF808EDFFF7C4FF5C
:100A700034BF012000205DF808FB00BF4A0011D2FE
:100A800012F5001211D20DD56FF47873B3EB6252E8
:100A90000ED44FEAC12343F0004343EA505323FAF4
:100AA00002F070474FF00000704750EA013002D169
:100AB0004FF0FF3070474FF00000704753B94AB90C
:100AC000002908BF00281CBF4FF0FF314FF0FF3056
:100AD00000F00CB8ADF1080C6DE904CE08F088FA0E
:100AE000DDF804E0DDE9022304B07047704700BF81
:100AF00010F8012B11F8013B012A28BF9A42F7D0C8
:100B0000D01A7047034613F8012B002AFBD1181A9C
:100B100001387047000000000000000000000000E5
:100B200001F0FF01102A2BDB10F0070F08D010F89E
:100B3000013B013A8B422DD010F0070F42B3F6D1A2
:100B4000F0B441EA012141EA014122F007047FF0BB
:100B500000070023F0E80256083C85EA010586EA12
:100B6000010685FA47F5A3FA87F586FA47F6A5FA4E
:100B700087F68EB9EED1F0BC01F0FF0102F007025A
:100B800032B110F8013B013A83EA010313B1F8D105
:100B90000020704701387047002D06BF35460338E6
:100BA000073815F0010F07D1013015F4807F02BF1F
:100BB000013015F4C03F0130F0BC0138704700BF70
:100BC0004FEA410C7FEA6C5C02D150EA013C0AD149
:100BD0004FEA430C7FEA6C5C02D152EA033C02D13B
:100BE0004FF0000070474FF0010070474FEA41029C
:100BF000B2F1E04324BFB3F5001CDCF1FE5C0DD97B
:100C000001F0004C4FEAC0024CEA5070B2F1004FC4
:100C100040EB830008BF20F00100704711F0804FC7
:100C200021D113F13872BCBF01F00040704741F48C
:100C300080114FEA5252C2F11802C2F1200C10FA90
:100C40000CF320FA02F018BF40F001004FEAC12374
:100C50004FEAD32303FA0CFC40EA0C0023FA02F318
:100C60004FEA4303CCE77FEA625307D150EA0133EE
:100C70001EBF4FF0FE4040F44000704701F00040BE
:100C800040F0FE4040F40000704700BF0348044BB2
:100C9000834202D0034B03B118477047E4010020A0
:100CA000E4010020000000000548064B1B1AD90F84
:100CB00001EBA301491002D0034B03B11847704761
:100CC000E4010020E40100200000000010B5064C03
:100CD000237843B9FFF7DAFF044B13B10448AFF3AD
:100CE00000800123237010BDE401002000000000FB
:100CF00044D6000808B5054B1BB105490548AFF3BC
:100D00000080BDE80840FFF7CFBF00BF0000000033
:100D1000E801002044D60008DFF834D00D480E4921
:100D20000E4A002302E0D458C4500433C4188C4245
:100D3000F9D30B4A0B4C002301E013600432A242AA
:100D4000FBD300F08DFC09F0A7FB00F061F8FEE793
:100D50000000052000000020E401002098E80008C1
:100D6000E4010020389D0020FEE7000010B594B09B
:100D70001022002102240AA809F0CCFA1422002132
:100D800003A809F0C7FA204B012104201A6C42F095
:100D900080521A641B6C03F080530193019B1B4B20
:100DA0001A6842F440421A601B6803F440430293FD
:100DB000029B4FF48033CDE908134FF48003CDE953
:100DC0000E43D823CDE9100308A8CDE9124404F05E
:100DD000DBFF08B172B6FEE704F09EFF08B172B601
:100DE000FEE70F234FF4A0520590072103A8CDE999
:100DF00003344FF48053CDE9062305F0ADF908B173
:100E000072B6FEE714B010BD00380240007000401A
:100E10001FB500211022684609F07CFA04F0F8FDA5
:100E2000012300226846ADF8003048F21F73CDE977
:100E3000012340F20113039304F008FE042004F0A0
:100E4000F5FD04F063FDFFF791FF00F023F800F0DB
:100E50009DF800F0B9F800F0F3F800F0D3F800F0D6
:100E60000DF900F029F900F045F900F061F907F0FB
:100E700079FD00F05DF807F08FFDFEE70268034B97
:100E80009A4201D104F04EBD704700BF00100040EF
:100E900072B6FEE7214B00211A6B42F0800200B5CA
:100EA0008BB01A631A6B06A802F080020192019AB5
:100EB0001A6B42F002021A631A6B02F002020292EB
:100EC000029A1A6B42F001021A631A6B02F00102D5
:100ED0000392039A1A6B42F008021A6310221B6BEA
:100EE00003F008030493049B09F014FA40F20B1377
:100EF00005A90B4805930123079304F023FE102254
:100F0000002106A809F006FA4FF4806305A90448F9
:100F1000059304F017FE0BB05DF804FB00380240A7
:100F2000000C024008B54FF47A7007F0A7FDFAE70D
:100F300008B501F0BBFA00F075FC0B4A00210B4824
:100F400007F04AFD0A4B0B4A002118600A4807F0D7
:100F500043FD0A4B0A4A002118600A4807F03CFD8D
:100F6000094B186008BD00BFA0DF0008250F00086E
:100F7000080200207CDF0008112100080402002084
:100F800058DF0008952400080002002008B50C492D
:100F90004FF4E1320B4B08460B600023C1E90123FB
:100FA0000C224B62C1E90333C1E90523C1E90733D0
:100FB00006F0FBF918B1BDE80840FFF769BF08BDAE
:100FC0003C0500200010014008B50C494FF4E13207
:100FD0000B4B08460B600023C1E901230C224B6236
:100FE000C1E90333C1E90523C1E9073306F0DDF99F
:100FF00018B1BDE80840FFF74BBF08BDB40400209E
:101000000014014008B50C494FF416520B4B08462A
:101010000B600023C1E901230C224B62C1E90333B9
:10102000C1E90523C1E9073306F0BFF918B1BDE8EE
:101030000840FFF72DBF08BDC40500200044004054
:1010400008B50C494FF4E1320B4B08460B60002306
:10105000C1E901230C224B62C1E90333C1E9052335
:10106000C1E9073306F0A1F918B1BDE80840FFF760
:101070000FBF08BD2C0400200048004008B50C49F3
:101080004FF4E1320B4B08460B600023C1E901230A
:101090000C224B62C1E90333C1E90523C1E90733DF
:1010A00006F083F918B1BDE80840FFF7F1BE08BDAE
:1010B000A4030020004C004008B50C494FF4E13275
:1010C0000B4B08460B600023C1E901230C224B6245
:1010D000C1E90333C1E90523C1E9073306F065F926
:1010E00018B1BDE80840FFF7D3BE08BD1C030020BF
:1010F0000050004008B50C494FF416520B4B0846FF
:101100000B600023C1E901230C224B62C1E90333C8
:10111000C1E90523C1E9073306F047F918B1BDE875
:101120000840FFF7B5BE08BD9402002000780040DB
:1011300008B50C494FF416520B4B08460B600023C0
:10114000C1E901230C224B62C1E90333C1E9052344
:10115000C1E9073306F029F918B1BDE80840FFF7E7
:1011600097BE08BD0C020020007C004030B5D9B00D
:1011700004461422002111A809F0CCF88422002191
:1011800016A809F0C7F82368A14A93422BD140233F
:1011900016A8169305F0BCF808B1FFF779FE9D4B31
:1011A0004FF4C06100205A6C42F010025A645A6C2D
:1011B00002F010020192019A1A6B42F001021A63C6
:1011C0001B6B03F001030293029B0223CDE9111371
:1011D000032311A9CDE9130307238F48159304F0C6
:1011E000B1FC59B030BD8D4A934229D14FF4006310
:1011F00016A8169305F08CF808B1FFF749FE854B49
:101200004FF0C00E11A986485A6C42F020025A6471
:101210005A6C02F020020392039A1A6B42F0040205
:101220001A6300221B6B03F004030493049B022344
:10123000CDE911E30323CDE9132308231593CEE76A
:10124000784A934232D1802316A8169305F060F8AD
:1012500008B1FFF71DFE6F4B4FF0600C002411A981
:101260001A6C714842F400321A641A6C02F40032AB
:101270000592059A1A6B42F008021A631B6B03F081
:1012800008030693069B0223CDE911C30323CDE98E
:1012900013430723159304F055FC2620224605210D
:1012A00004F076FB262004F0A5FB9AE75F4A934200
:1012B00029D14FF4807316A8169305F029F808B1C8
:1012C000FFF7E6FD534B4FF44064002511A91A6C5B
:1012D000574842F480221A641A6C02F48022079262
:1012E000079A1A6B42F002021A631B6B03F00203A7
:1012F0003793379B0223CDE911430323CDE91353E1
:10130000072315936BE74B4A934236D18022002185
:1013100038A808F0FFFF4FF4007337A8379304F0A4
:10132000F7FF08B1FFF7B4FD3A4B4FF440600024DB
:1013300011A91A6C42F400221A641A6C02F40022F9
:101340000892089A1A6B42F004021A631B6B03F0AE
:1013500004030993099B0223CDE9110303233048B9
:10136000CDE913430823159304F0ECFB3420224607
:10137000062104F00DFB342095E72F4A93425DD1FE
:101380008022002138A808F0C5FF4FF4806337A8F9
:10139000379304F0BDFF08B1FFF77AFD1D4B4FF402
:1013A0008051002408251A6C1D4842F480121A64EA
:1013B0001A6C02F480120A920A9A1A6B42F0040222
:1013C0001A631A6B02F004020B920B9A1A6B42F02A
:1013D00008021A631B6B159503F008030C930C9B12
:1013E0000223CDE91113032311A9CDE9134304F01E
:1013F000A9FB042311A90C481193159504F0A2FB35
:1014000035202246062104F0C3FA35204BE700BF01
:10141000001001400038024000000240001401406A
:101420000008024000440040000C02400048004018
:1014300000040240004C004000500040394A9342F2
:1014400036D18022002138A808F064FF4FF4805381
:1014500037A8379304F05CFF08B1FFF719FD324B52
:10146000002411A931481A6C42F080421A641A6CA7
:1014700002F080420D920D9A1A6B42F010021A632C
:101480004FF4C0721B6B03F010030E930E9B0223EC
:10149000CDE911230323CDE913430823159304F069
:1014A00051FB52202246052104F072FA5220FAE63E
:1014B0001F4A93427FF495AE8022002138A808F09D
:1014C00029FF4FF4005337A8379304F021FF08B1E8
:1014D000FFF7DEFC144B002411A914481A6C42F0EB
:1014E00000421A641A6C02F000420F920F9A1A6BB3
:1014F00042F010021A6302221B6B03F010031093D8
:10150000109B0323CDE91132CDE913430823159332
:1015100004F018FB53202246062104F039FA532028
:10152000C1E600BF007800400038024000100240D1
:10153000007C0040FEE7FEE7FEE7FEE7FEE77047BF
:10154000014805F00FBB00BFC4050020014805F0AD
:1015500009BB00BFA4030020014805F003BB00BF86
:101560001C030020014805F0FDBA00BF94020020D2
:10157000014805F0F7BA00BF0C020020014805F051
:1015800097B900BF4C0600200D4B82B00F216FF0C1
:1015900001001A6C42F080521A641A6C02F08052F8
:1015A0000092009A5A6C42F480425A6400225B6CAA
:1015B00003F480430193019B02B004F0E9B900BF3A
:1015C00000380240214B1A6C42F0100230B589B04D
:1015D0001A641B6C054601A903A803F010030293CB
:1015E000029B04F077FE069B4BBB04F053FE184AA7
:1015F000184B136040F2E733D360174BB0FBF3F3A3
:10160000013B10465360002313619360936105F022
:1016100043FA044680B90E4805F008F9044658B963
:10162000362004F0E7F90F2D0DD822462946362042
:1016300004F0AEF9094B1D60204609B030BD04F03E
:1016400029FE4000D3E70124F6E700BF003802403E
:101650004C0600200010004040420F001400002003
:10166000034AD2F8883043F47003C2F888307047D8
:1016700000ED00E030B585B088B10B4B1C6884B13B
:101680000FC88DE80F00094B694620461B6803937D
:1016900000231A4606F0C3F8431E5842584105B0CD
:1016A00030BD2046FBE700BFA8060020AC060020A6
:1016B000074B70B51D6804464DB1FFF723FA21466C
:1016C00082B264232846BDE8704005F0EEBD70BDCF
:1016D0001C070020000000002DE9F04F2DED028BCB
:1016E000B0EE408A83B08A46064610EE100AFEF736
:1016F000D3FEB5EEC08ABAF1000F04460D460CBF0A
:101700004FF0010B4FF0640BF1EE10FA44BF0246AC
:1017100001F10043584643BF274F14461D46274F4B
:10172000FEF798FE02460B468046894620A1D1E985
:101730000001FFF733F822462B46FFF78BF940B93B
:101740001F49304603B0BDEC028BBDE8F04F08F0F6
:10175000CABE22462B4640464946FEF7F5FE194BC7
:101760000022FEF73BFDFFF789F9144B002808BF64
:101770001F46BAF1000F10D0134A1821B0FBFBF33B
:101780000BFB1300CDE900303B46304608F048FD26
:1017900003B0BDEC028BBDE8F08F00903B460B4AD6
:1017A0001821304608F03CFDF2E700BFAFF300809F
:1017B00000000070FCFFEF418DD6000812D7000832
:1017C0008FD600080000E03F97D60008A3D6000897
:1017D000F8B5054608B90020F8BD0F4E3368002B58
:1017E000F9D00E4F4FF0FF322946306806F035F938
:1017F00001280446EFD107F0CDFA3B68EA689A4227
:1018000007D1074B1C7003F017FD07F0E7FA2046DD
:10181000E2E707F0E3FAE5E7A8060020AC060020BF
:101820000400002008B500226121042005F0CEFF4D
:10183000044B002210211860042005F0C7FF024B62
:10184000186008BDB0060020A8060020064A074917
:10185000106000220A8006490A7006490A7010B119
:10186000012205F02DBE70471C070020B60600209F
:10187000B4060020180700202DE9F04100239AB09B
:10188000304E00933368002B3FD083423DD12E4A27
:101890002E4D13682C78013313602D4B1F780D2FBC
:1018A00001D00A2F3CD12B4FB7F80080B8F1000FC0
:1018B00000D1A4B1602200210DF1050008F02AFD3D
:1018C000424625490DF105008DF8044008F013FE4D
:1018D000224B1868E0B9224A1368013313600023D1
:1018E0001D4A3B802B70137001221949306805F0A6
:1018F000E7FD009B4BB14FF0E0234FF08052C3F85F
:10190000042DBFF34F8FBFF36F8F1AB0BDE8F08186
:1019100000236A4601A906F03CF80128DBD1DEE786
:10192000002CE1D10B490C4A08885E2805D8431CDD
:1019300017549BB20B80D454D6E701230C8014704B
:101940002B70D1E71C070020A4060020B40600205D
:1019500018070020B6060020B8060020B0060020B8
:101960009C0600200C4B1B6810B48BB183420FD136
:1019700000220A4908240A8009490A7019680C6281
:10198000C3F88420012207495DF8044B05F098BD97
:101990005DF8044B704700BF1C070020B60600200E
:1019A000B4060020180700202DE98048ADF57F7DA2
:1019B0002BAC01F0B7F8904B18680028F9D014222E
:1019C000214606F04AF80128F3D122AD1022002169
:1019D000284608F09FFC26783EB1884A884813685C
:1019E00001331360FFF764FEE2E786490DF1AD00B5
:1019F00008F0AAFC04460028DAD0834A8349136819
:101A000001331360FFF774F8E8B97E4908F09CFCD5
:101A1000044620B1794A136801331360E9E007F006
:101A2000B9F97B4A13680133136003F0FFFB01F03F
:101A30009DFA784B186810B1214605F026FE07F094
:101A4000CDF97548CEE775492046FFF751F80028D3
:101A500040F0C2806B4908F077FC04460028D9D1D9
:101A600003F042FF022144A86D4DFFF735FE03F05D
:101A700055FB02214AA8FFF72FFE6A4B022150A80E
:101A800093ED000AFFF728FE674B022156A893ED5D
:101A9000000AFFF721FE654B21465CA893ED000A82
:101AA000FFF71AFE624B214662A893ED000AFFF78A
:101AB00013FE604B1B78002B00F087805E4B5F4C61
:101AC0001B785F4A072B08BF14464FF4FA7003F0E7
:101AD000C9FE5C4B5C4A002818BF1A462B78DBB263
:101AE0001E921993594B187801F004F8584B1A902C
:101AF0001B78DBB21B93574B187801F0BBFB564B9E
:101B00001C901B78DBB21D93544B187801F0BEFB80
:101B1000534B0546187800F0F9FF064601F02CFA01
:101B2000504B0746187802F025F94F4B804693F842
:101B300000904E4B5FFA89F993F800A003F086FB02
:101B40004B4B83465FFA8AFA187801F017FE494A30
:101B50002190107801F01EFE47492090087802F08D
:101B600063F81F904548007802F06AF8219B1F999E
:101B7000209A169068A815914FF416711492404A55
:101B8000CDE912B31D9B0B931C9B0A931B9B0993DE
:101B90001A9B0893199B079362AB06935CAB059362
:101BA00056AB049350AB03934AAB029344AB0193FF
:101BB0001E9B00932346CDE9109ACDE90E78CDE91E
:101BC0000C5608F02DFB68A80CE72B782D4C2E4AFC
:101BD000CF2B88BF144678E72C492046FEF788FFB4
:101BE000002840F0B280074908F0AEFB0546002807
:101BF00050D02748F6E600BFB00600209C06002023
:101C0000FCD6000810D70008A006002013D7000853
:101C1000AC060020A806002025D700082FD7000812
:101C200098060020580800205408002020080020B2
:101C30001C080020040000205E080020B2D6000826
:101C4000A9D60008C5D60008CCD600086207002037
:101C500060070020B5070020B4070020B30700206C
:101C6000B2070020C1070020C20700205D08002045
:101C7000B8070020B7070020C00700200700002099
:101C800036D70008C0D60008BAD6000812DB000814
:101C900018D7000844AC26AF204600F057FF07F0E5
:101CA00079F89A4BDFF8E4C21E78BCE80F000FC742
:101CB000DCF800303B6007F091F8449B9448499968
:101CC000479A1C93469B0078459F489C9DF8298124
:101CD0009DF82AA19DF82BB19DF828911B9119938D
:101CE0001A9200F013FF1A9A199B1B9906920097FB
:101CF000884ACDF80CA0884FCDE90906CDE90794B4
:101D0000CDE904B3CDE901811C9BDC2168A826AC98
:101D100008F086FA68A8FFF7CBFCEBB29E4201D927
:101D2000052D01D17D485DE654F8043BDC217C4A59
:101D300068A800937B4B002D08BF3B46013508F097
:101D40006FFA68A8FFF7B4FCE7E777492046FEF78B
:101D5000CFFE38B9754908F0F7FA00287FF45AAE7B
:101D600073483FE673492046FEF7C2FE78B96F49D3
:101D700008F0EAFA00287FF44DAE0A2328462B70BB
:101D8000FFF778FC08B96C482CE66C482AE66C49E9
:101D90002046FEF7ADFE70B9644908F0D5FA002878
:101DA0007FF438AE0D2328462B70FFF763FC002824
:101DB000E9D0644816E664492046FEF799FE20B152
:101DC00062492046FEF794FED0B95849002008F039
:101DD000BBFA00287FF41EAE20465B49FEF788FE62
:101DE0000028284614BF0C240B242C70FFF742FC5B
:101DF0000028C8D05648574B0B2C18BF1846F1E5A1
:101E000055492046FEF774FE20B154492046FEF79E
:101E10006FFED0B94549002008F096FA00287FF4FB
:101E2000F9AD20464C49FEF763FE0028284614BF52
:101E30000F240E242C70FFF71DFC0028A3D0484867
:101E4000484B0E2C18BF1846CCE547492046FEF7F4
:101E50004FFE70B9354908F077FA00287FF4DAAD03
:101E6000102328462B70FFF705FC00288BD03F4835
:101E7000B8E53F492046FEF73BFE2C4907460028BF
:101E800040F0868008F060FA04462849384608F099
:101E90005BFA064654B348B368AF394608F020F8F9
:101EA000689BB0EE408A9E4220D01B78F3B9B5EE15
:101EB000C00AF1EE10FA19DDDFED2E7AB4EEE70A72
:101EC000F1EE10FA12D82C492046FEF711FE30B17F
:101ED0002A492046FEF70CFE40B9B1EE488A134964
:101EE000002085ED028A08F02FFA28B1244A2548FF
:101EF00013680133136075E5092328462B70FFF73B
:101F0000B9FB00283FF43FAF1F486BE548070020AE
:101F10006107002086D8000812D7000840DA0008C0
:101F200010D90008D4D6000818D9000810D7000826
:101F30001DD9000823DA000828DA000839DA000879
:101F400043DA000849DA000854DA000859DA0008D0
:101F5000D6D60008E0D600085CDA000861DA00088E
:101F6000E8D60008F2D6000866DA00086DDA000844
:101F700079DA00080000B4437DDA00087EDA000850
:101F80009C06002081DA00088DDA00084C0700204A
:101F9000002008F0D9F9534907462046FEF7A8FD6E
:101FA00000286AD050492046FEF7A2FD002866D0DE
:101FB0004E492046FEF79CFD002862D04C49204641
:101FC000FEF796FD00285ED04A492046FEF790FDB8
:101FD00000285AD048492046FEF78AFD002856D0EE
:101FE00046492046FEF784FD002852D04449204649
:101FF000FEF77EFD00287FF40DAD0824002F3FF48E
:1020000009AD3B78002B3FF405AD7A1E12F8013F75
:10201000002B40D1002E3FF4FDAC68AE0A223360A5
:102020003846314608F02EF8336893F80080B8F14E
:10203000000F7FF4EFAC421E42F20F739A423FF65C
:10204000E9AC686040462F4908F07EF9631F0746F7
:10205000032B25D900287FF4DDAC2A49002008F0A5
:1020600073F900287FF4D6AC28462C70FFF702FBEA
:1020700000283FF488AE2448B4E40124BEE70224DB
:10208000BCE70324BAE70424B8E70524B6E706242E
:10209000B4E70724B2E7303B0126092BB6D9B9E4EF
:1020A00000283FF423AF3146C6F8008007F018FF40
:1020B00033689F423FF41AAF1B78002B7FF416AFB2
:1020C000B5EEC00AF1EE10FA7FF710AFDFED0F7A30
:1020D000B4EEE70AF1EE10FA3FF608AF85ED020A1A
:1020E000BBE700BF45DF000826DA000857DA000822
:1020F00047DA000896DA000899DA00089CDA000846
:102100009FDA000810D70008A2DA00080000B442E5
:102110002DE9F04FA64B00264FF00109A54DA64C26
:1021200085B0A64F85F800901E7026703E7001F0B5
:1021300087FEA349A34802F0F7FF642006F09EFC47
:10214000A14801F091FD49463046DFF890A200F029
:1021500011FAB04214BF05224A463A7003F008FA59
:10216000934BCF28207088BF4FF0000883F8009071
:1021700098BF4FF001082E70944E6846FFF728FB79
:102180000028FAD0B8F1000F0BD19DF800300A2BCF
:1021900009D003F0EDF9CF2803D9207085F800802D
:1021A000EBE74FF001088A4B1B7823B100232B701B
:1021B00004232370E1E79DF80030A3F10E02012A09
:1021C00003D90A2B01D000F0D1FE9DF80030A3F115
:1021D0000902072A00F2BF80DFE802F004B86C733E
:1021E0008E0D0DA69DED020A03F044F8CF28207055
:1021F00040F2AE803DE00E2B0BD100F0C3FE0A286A
:1022000043D8DFE800F0A3A309090D4225172734BE
:10221000340000F0A1FFF2E76E4B1878C0B2E5E79A
:102220006D4B1B78072BDAB201D9E52320E06B4B0D
:10223000985CDBE76A4B1A78022A01D1E72317E0A2
:102240001A78032A01D1E12312E01B78072BECD086
:10225000E2230DE0634B1A78022AF4D01A78032A9D
:1022600001D1E42304E01B78042BF1D1E6E7E3235A
:10227000237002F0EBFF00286AD19DF800300A2B92
:1022800000F0E58000232B7077E7574B1A78022A7D
:10229000D9D01A78032ADBD01A78052AD8D01A7830
:1022A000062AD5D01A78072ABFD01B78082B21D14F
:1022B000E623DDE700F030FB0728B6D81AF8000067
:1022C00094E701F0C7FA082814D801A353F820F0C6
:1022D0004D2300084D230008472200085122000822
:1022E000F522000851220008512200082B22000884
:1022F000B1220008E823BBE701F01AF90728A7D8A4
:1023000001A353F820F000BF4D2300084D2300081F
:102310003D220008472200085122000851220008EF
:10232000512200082B22000801F094FD04288FD8C8
:1023300001A353F820F000BF4D2300084D230008EF
:1023400047220008632200083D220008042323706E
:102350000023337091E7013B072B6CD8DFE803F0D3
:1023600004700B1920585D649FED262A9FED271AF3
:102370009FED1E0A05E09FED212A9FED211A9FED9A
:102380001C0ADFED1A1A0198F0EE610A02F06EFFE6
:102390002CE79FED1A2A9FED1A1A9FED160AF0E717
:1023A0009DED020A9FED152A9FED131AE9E700BF84
:1023B0009906002004000020980600202007002035
:1023C000C40500202C040020B40400205E08002076
:1023D0005D080020AE070020B2070020DCDF000807
:1023E000B0070020AF070020B10700200000000068
:1023F0000000B4420000B4C2000096430000E6436F
:102400000000B44300000244000034430000A04335
:102410009DED020AB1EE400AC4E71FED050ADDEDAD
:10242000027A30EE670ABDE71FED090ADDED027A98
:1024300030EE670AEEE71FED0F2A1FED0F1A97E740
:102440001FED102A1FED0F1A1FED110A99E74FF02B
:102450000109022043F698224946387085F8009019
:1024600000F0B2F890B901F029FC0323834643F64B
:102470009822494648463B7000F0A6F830B904233C
:102480001BF0FD0F3B7003D12370FBE605233B706F
:10249000E223F9E710B504460348FFF7D7F92046D1
:1024A000BDE81040FFF780BA1C03002008B50648BD
:1024B00000F040F8054800F031F900F07DFBBDE880
:1024C000084000F00FBA00BF94020020A4030020CF
:1024D00010B5044603F0B0F9204600F073F9204629
:1024E000FFF7CAF9204600F09DF82046BDE81040ED
:1024F00000F08CBB10B5044603F0BEF8204600F097
:10250000A7F92046FFF72EFA204600F0DFF8204614
:10251000BDE8104000F022BC0023034A1370034AB8
:102520001370034A1370704723070020220700200E
:10253000210700200A4BFF2210B51860094B0A4CF6
:102540001A70022300222370084B1A70FFF7E4FF71
:1025500028B10122064904F0B3FF00B9207010BD74
:102560003007002006000020050000202007002082
:102570002C07002037B5104A0346104C106828B9C4
:10258000012323702078C0B203B030BD0C4AFF2570
:102590008DF80510090A15700A4A8DF80430642375
:1025A000009207228DF80610694604F07EFE08B1FD
:1025B0000223E6E72070E5E7300700200500002051
:1025C0000600002055550506F8B5134B064614467F
:1025D0001B6803B11AB9114B01221A7003E0FFF70F
:1025E000C9FF18B10D4B1878C0B2F8BD03F0A6F9B9
:1025F0000B4F054603F0A2F9431BA34202D3074B3E
:102600000322EAE73B78B34202D1044B0022E4E71D
:102610000A2006F033FAEDE730070020050000201D
:1026200006000020224A0346106810B500283DD05D
:1026300098423BD11F4A204B11781B78032932D88E
:10264000DFE801F0020C121C552B01D1012313709D
:1026500001221949BDE8104004F032BF552B01D1C9
:102660000223F4E70023F2E7991E07291BD8134938
:102670000B700021124B19700323E8E710490C7806
:10268000621CD2B20A700F490B550C4B1C78631EAA
:10269000DBB29A42DCD3052C05D10B78082B02D192
:1026A0004A78094B1A70FFF737FFD1E710BD00BF1A
:1026B00030070020210700202C07002023070020DE
:1026C0002207002024070020060000200A4A116883
:1026D00008B579B181420DD1FFF71EFF0B680822C2
:1026E0001A6200230122C1F884300449BDE8084081
:1026F00004F0E6BE08BD00BF300700202C07002014
:102700000023034A1370034A1370034A137070477F
:1027100037070020360700203807002008B5094B8E
:10272000094A186000231370084A1370084A13708E
:10273000FFF7E6FF28B101220349BDE8084004F095
:10274000BFBE08BD44070020400700203507002019
:1027500034070020114A034613B51068D0B1012B8D
:1027600016D0022B16D132230D4A0DF107018DF838
:10277000073000230B4C13702370FFF7C1FF642355
:10278000012204F092FD38B90123237002B010BD7C
:102790003123E9E70120F9E70220F7E744070020A9
:1027A0003507002034070020EFF3108272B6044B87
:1027B000002118781970C0B202B962B6704700BF24
:1027C000350700201B4A38B503461068002830D072
:1027D00098422ED1184B1C780D2C14D0174B0A2C74
:1027E0001A7816D16AB9164B1978012909D1154BF7
:1027F0001B78312B05D1144B1C7814B1134C21706C
:102800001A70FFF77DFF01220B49BDE8384004F044
:1028100057BE002AF7D10A4D2978062995BF4B1CCF
:102820000122DBB21A709FBF2B70064D6C54EA5424
:10283000E9E738BD440700204007002036070020A4
:102840003707002038070020340700203507002014
:102850000A4A116808B579B181420DD1FFF750FFDE
:102860000B6808221A6200230122C1F8843004494F
:10287000BDE8084004F024BE08BD00BF44070020A6
:1028800040070020074B187000F0FB03032B064B9A
:1028900004D0012804D108221A7070470722FBE7F0
:1028A0000922F9E7610700206207002002280B4A8D
:1028B0004FF0030310B50ED113700346084C43F6D6
:1028C000982201212370FFF77FFE002814BF052303
:1028D0000423237010BD05211170EFE7620700206B
:1028E000200700200023074AC2E90033C2E902336F
:1028F0001361054A1370054A1370054A1370054A9F
:10290000137070474C070020480700206207002022
:1029100061070020600700202DE9F04F00236F4A77
:102920006F4D85B0DFF8C4812B70137098F80020CC
:102930006C4C042A04D92B700623002023700EE06F
:1029400001F00AFA98F800300746C3F105039842EF
:1029500088BFDFB237B9052009232870237005B07E
:10296000BDE8F08FDFF88891012699F8003023B197
:102970002E70082301202370F1E7267000F0A4FADE
:1029800038B1012818BF062005B0BDE8F04FFFF7A9
:1029900079BF3046FFF78AFF064608B1042338E0C6
:1029A00099F8003013B101232B70E2E798F800305A
:1029B00001204A4A0133DBB213704FF00203237047
:1029C000FFF7C8FE30B14FF0020302202B7009233D
:1029D0002370C4E702F0B2FF42F20F7B824602F09E
:1029E000ADFFA0EB0A00584501D90320CCE799F8C8
:1029F0000030002B6CD1FFF7D7FE18B9012006F08C
:102A00003DF8ECE700F0C4F80220FFF74FFF042385
:102A100020B12B70092304202370A0E7237042F219
:102A20000F7B02F08BFF824602F088FFA0EB0A00CA
:102A300058450BD94FF0070A0120FFF737FF002850
:102A4000ACD1BAF1000F36D050469DE799F800306E
:102A500003F0FF01002B3DD103A80391019100F089
:102A6000BDF8D8B1039B98F800C01F4801995FFAE0
:102A700081FEF4450DD8019301F020F9019B8246B7
:102A800080B1BAF1020F14BF4FF0050A4FF0010AEE
:102A9000D2E750F8042B01319342E8D1012005F030
:102AA000EDFFC1E798F800100F4A481C42F82130AA
:102AB00088F80000C0E799F80030002B7FF473AF6E
:102AC0000136F3B29F423FF66BAF85F800A033E7C3
:102AD000012059E74FF0010AAEE700BF6007002070
:102AE00061070020620700204C07002048070020F3
:102AF0005D08002009289ABF024B53F820000248C5
:102B0000704700BF04E00008A7DA000807289ABF52
:102B1000024B53F820000248704700BFE4DF000872
:102B2000A7DA000810B5EFF3108472B60548D0F8A4
:102B30008030202B03D10122034904F0C1FC04B9E9
:102B400062B610BD0C020020AC070020F0B50646AE
:102B5000B8B1EFF3108772B60A4D04460FCD0FC41B
:102B6000094B95E807001B7884E80700B376074B0C
:102B7000D3F88030A3F1220253425341F37607B9D0
:102B800062B6F0BD88070020A40700200C020020D8
:102B9000EFF3108272B6002304490B6004490B70F6
:102BA00004490B7002B962B6704700BFA807002045
:102BB000A40700206807002008B5064A002306483D
:102BC0001370FFF7E5FF01220249BDE8084004F059
:102BD00077BC00BFAC0700200C020020034610B5F4
:102BE00078B1EFF3108472B6064A117801F0FF0055
:102BF00029B105490120096819600023137004B93F
:102C000062B610BDA4070020A8070020F8B578B16F
:102C1000494B98420CD1494C236801332360484BFF
:102C20001D786576D0F884601EB1D0F88430A3603A
:102C3000F8BD02F083FE434A434913681060C31A8B
:102C4000642B88BF0E700A7852B9012D28D0042D4C
:102C500026D001223A493848BDE8F84004F030BC9B
:102C6000012A16D16B1EDBB21B2B10D802FA03F31C
:102C700036481840A0B903F00903003B18BF0123F0
:102C80000B70334B1D70636801336360E1E7002311
:102C9000F6E7032A04D1202D02D000230B70F2E7BF
:102CA000501C2B4BC0B29D5401280870D1D95A78C2
:102CB0009042CED100201F4605465FFA80FC624557
:102CC00007D8FF2D0BD063680133636000230B70BE
:102CD000BFE717F801CB01308CEA0505EDE7E068A6
:102CE0000130E060187920760028EFD118780128AB
:102CF00004D19878A128E9D10C2A07E00428E5D16D
:102D000098780228F8D00428E0D11C2ADED10722C6
:102D1000985C01320B2A40EA0626F9D166612369E4
:102D2000013323610B4B1A78002ACFD10A4A16606F
:102D300001221A70CAE700BF0C0200208807002099
:102D4000AC070020640700206807002080082008E6
:102D500069070020A4070020A807002010B5A0B133
:102D60000A4B984211D1D0F88420094B9A60FFF7A2
:102D70000FFF0368082207491A6200230122C0F8E6
:102D80008430BDE8104004F09BBB10BD0C02002055
:102D900088070020AC0700209FED071A10B5F0EE61
:102DA000410AB0EE410A02F08DF9044608B101F083
:102DB00005FA204610BD00BF000000002DE9F04FCD
:102DC0002DED028B85B08246019102F0B7FD804661
:102DD0004FF4FA7002F046FD38B9FFF7DDFF04202A
:102DE00005B0BDEC028BBDE8F08F0027DFF8D4B052
:102DF000DFED328A3E4602F0A1FD4FF480710446B9
:102E00002F4802F083FF012102902D4802F07EFF3F
:102E1000022181462A4802F079FF08210546284808
:102E200002F074FF9BF80010024629B1FFF7B4FFCF
:102E300000283ED10120D3E7019B3BB1A4EB080160
:102E4000514503D3FFF7A8FF0220C9E74FF4FA70FA
:102E5000039202F007FD0028BFD0029B5BB345EA56
:102E60000905039AEDB275B92AB3002F08BF2646AB
:102E7000FFF792FFE8B9A41B312CB1D80127142029
:102E800005F0FCFDB7E7B3EE098A002AFBEE097AEC
:102E900008FE278AB3EE090A01F0DCFDF0EE480ACD
:102EA000B0EE401AB0EE680A02F00CF907460028AE
:102EB000E5D0032094E7B3EE098AEBE700000000B9
:102EC000000C02405D080020012141F28830FFF72C
:102ED00075BF00210846FFF771BF000008B5054B1C
:102EE0001B782BB902F0B2F9003818BF012008BDD9
:102EF0000120FCE75D0800209FED071A08B5F0EE01
:102F0000410AB0EE410A02F0DDF818B1BDE8084010
:102F100001F054B908BD00BF0000000010B5044620
:102F2000FFF7EAFF044B002220461A701722034BDA
:102F30001A70034B1C7010BDAD070020B5070020B0
:102F4000B307002008B5FFF7D7FF054B00221A7022
:102F50001622044B1A700122034B1A7008BD00BFE1
:102F6000AD070020B5070020B3070020014B002269
:102F70001A707047AD070020014B1878704700BFEA
:102F8000AD0700202DE9F74F674B0024674D1C70FB
:102F9000674B2C70DFF8B0811C70DFF8B091654B87
:102FA000DFF8ACA1DFF8ACB1634F644E1C7088F859
:102FB000004089F800408AF800408BF800403C70DF
:102FC000E3B25B4A1370631E042B04D8DFE803F0FE
:102FD0000E101214160001232B70FFF77FFF78B13B
:102FE000FFF7B0FF012003B0BDE8F08F0223F3E745
:102FF0000A23F1E70C23EFE70323EDE70423EBE7D4
:103000003378062B18D8DFE803F004192B39604613
:103010005300DFED4B1A96ED031AF0EE610A96EDC0
:10302000020A706802F01EF9387002F00FF90028E9
:10303000D6D13B78CF2B60D902200CE096ED020A66
:1030400002F018F9387002F001F90028C8D13B7875
:10305000CF2B52D9032003B0BDE8F04FFFF75EBF7E
:10306000FFF75AFC88F8000098F80030012BB7D021
:1030700098F80030002B40D00420ECE700F0EAFB89
:1030800089F8000099F80030012BA9D099F8003098
:103090009BB30520DFE700F04BFA8AF800009AF8AE
:1030A0000030012B9CD09AF8003033B30720D2E7D0
:1030B00000F0D0FE8BF800009BF80030012B8FD081
:1030C0009BF80030CBB10820C5E71E4B032201213D
:1030D000307C1A7040F6B832FFF776FA0190FFF7AD
:1030E000FDFE00287FF47CAF019A164B1AB1052231
:1030F00006201A70AFE704221A70FFF7EFFE0028CF
:103100007FF46EAF01341436062C7FF459AF019072
:10311000FFF7F2FE15230198034A2B70054B187038
:10312000012313705FE700BFAD070020B507002043
:10313000B4070020B3070020AE070020B8E0000865
:103140000000000020070020B2070020B107002087
:10315000B0070020AF0700202DE9F84FDFF8048109
:103160002DED028B98F8003033B90920BDEC028BAD
:10317000BDE8F84FFFF7D2BEFFF7B0FE04460028C7
:10318000F3D1DFF8E490324FDFF8E0B0DFF8E0A0F1
:10319000304E9FED318A89F800003870E3B28AF82A
:1031A00000309BF864304BBB9BED1B0A0523DFED21
:1031B0002B1A30EE080ADBF86800F0EE610A9BED8E
:1031C0001C1A3370B4EEC80AF1EE10FAC4BFDFED7A
:1031D000247A30EE670A02F045F8387002F036F8CB
:1031E00038B10125FFF7AEFE2846BDEC028BBDE8E5
:1031F000F88F3B78CF2B17D90220B7E7012B11D1DD
:103200009BED1B0A0623B1EE400A337002F032F840
:10321000387002F01BF80028E3D13B78CF2B03D99C
:103220000320A3E70A20A1E7FFF758FE0546002880
:10323000D7D10134ABF1140B062CAFD1FFF75CFEF4
:10324000044B072288F800501A7089F80050CBE729
:10325000AE070020B5070020000034430000000046
:103260000000B443AD070020B3070020B8E0000819
:10327000B407002017289ABF024B53F820000248D9
:10328000704700BF58E00008A7DA00080A289ABF74
:10329000024B53F820000248704700BF2CE00008A2
:1032A000A7DA0008D02807D0E12805D0CF2894BF9E
:1032B000002001208000704703207047024B1878DF
:1032C000003818BF012070475D0800200238024B0B
:1032D000C0B2185C704700BFDCE1000870B50E4E4C
:1032E000337813B10124204670BD0121FFF742F964
:1032F000044678B902F022FB054602F01FFB431B8F
:10330000B3F5FA7FEFD23378002BEBD10A2005F02A
:10331000B5FBF2E70524E6E75D08002008B5FFF7F6
:1033200043FA10B10120014B187008BDB607002008
:103330009FED061A08B5F0EE410AB0EE410A01F021
:10334000C1FE10B100F03AFF042008BD00000000EB
:1033500038B5FFF7EDFF00BB134C2378A3B901206C
:10336000FFF7F8F9D8B902F0E9FA054602F0E6FAF3
:10337000431BB3F57A7F237803D303F0FF0023B117
:1033800000E01BB1FFF7D4FF022038BDFFF70CFAB5
:1033900038B9012005F072FBE8E70320F5E70420C7
:1033A000F3E70120F1E700BF5D080020F8B51D4EEE
:1033B0000C461D4F30703B780BB10220F8BDDFED9D
:1033C0001B1A5A209FED1A1AF0EE610A9FED190A96
:1033D00001F048FF054601F039FF0028EDD12846ED
:1033E000FFF760FF032819D0B0B9FFF7A1FF98B924
:1033F0003B78002BE1D13470FFF7AAFF431E032B6B
:103400000ED801A252F823F0BD330008BB330008E8
:1034100019340008BD3300080320CFE70520CDE7AD
:103420000020CBE7B80700205D0800200000000066
:103430000000204200003443054B1870054B10B9C2
:1034400020221A70704701280CBF21222222F8E79F
:10345000B7070020B807002008B5064B1B7803F01B
:10346000FF002BB1FFF764FF002814BF04200120E8
:1034700008BD00BF5D080020104BDFED111A9FED65
:10348000111AF0EE610A9FED100A10B51870752040
:1034900001F0E8FE044601F0D9FE50B92046FFF7DE
:1034A00001FF38B9FFF744FF28B9BDE81040FFF726
:1034B000D3BF012010BD0420FCE700BFB8070020E7
:1034C00000000000000020420000344308B5084B13
:1034D0001B784BB944F620620121FFF775F828B933
:1034E000BDE80840FFF7B8BF012008BD0520FCE794
:1034F0005D08002038B50C4D14462970FFF7E6FF33
:1035000070B92C70FFF7A8FF50B9084800F056FBBF
:10351000042804D028B9BDE83840FFF79DBF01203A
:1035200038BD0620FCE700BFB8070020BD32000808
:103530002DE9F7430023884D884C2B70237000F051
:103540006BFB18B90620222320700CE001262E7098
:10355000FFF7BFFC04280ED8DFE800F00F030D0BC7
:103560000900212326702B7003B0BDE8F0830320EF
:10357000E9E70420E7E70220E5E718230B202B709A
:10358000FFF7ACFE044668B919232B70FFF7E0FE85
:1035900001280DD11D221C210C20FFF7ABFF044692
:1035A000002836D0204603B0BDE8F043FFF744BF03
:1035B00078B3FFF78BFE04460028F3D10B230820D5
:1035C0002B70FFF78BFE0028EDD1654E654FDFF8BD
:1035D000A881002C3AD163000C33DBB22B70FFF7CB
:1035E000B7FE012803467ED1142213210920FFF7DC
:1035F00081FF0028D7D10134042CEAD117230720FA
:103600002B70FFF763FF0028CDD11620FFF734FFA2
:103610006DE01B211A20FFF7C9FE012813D11D22DE
:103620001C210C20FFF766FF04460028BAD11E2398
:103630000A202B70FFF74AFF04460028B2D11F2052
:10364000FFF71AFFB7E70028F1D0B2E7012C13D03B
:10365000022C0CBF0F2311232B7000238DF8073091
:1036600033703B7853B1022318F8030000289AD135
:10367000032CB0D11223B1E70D23EDE70120FFF7B2
:1036800069F860BBDFED381A0DF1070237495A209F
:10369000F0EE610A9FED361A9FED360A01F0DCFD6F
:1036A000814601F0D3FD0028DDD14846FFF7FAFD41
:1036B000032816D008B10323D6E7FFF739FE002808
:1036C000F9D13B78002BCED19DF807302BB9337858
:1036D000003B18BF0123DBB2C6E70123FBE704234D
:1036E000C2E70523C0E7002885D0FFF7EFFD0028DB
:1036F0007FF459AF022305202B70FFF7EFFD002860
:103700007FF451AF03232B70FFF722FE01281BD15A
:10371000062205211046FFF7EDFE00287FF443AF97
:1037200007210420FFF742FE012812D106220521BD
:103730001046FFF7DFFE00287FF435AF0A23002094
:103740002B70FFF7C3FE2EE70028E9D0FFF7BEFD80
:1037500029E70028F2D0F9E7B8070020B7070020D2
:10376000B60700205D080020000000001D3300089F
:103770000000204200003443E2E1000822289ABF02
:10378000024B53F820000248704700BF50E1000888
:10379000A7DA000807289ABF024B53F82000024816
:1037A000704700BF30E10008A7DA0008024B187824
:1037B000003818BF012070475D0800209FED071AF0
:1037C00010B5F0EE410AB0EE410A01F07BFC044670
:1037D00008B100F0F3FC204610BD00BF000000005F
:1037E00010B50446FFF7EAFF4FF4FA7002F03AF81A
:1037F00008B101F06FFC204610BD00000A4B10B567
:103800001B7803F0FF0423B10124FFF7D7FF204604
:1038100010BD4FF4FA7002F025F80028F7D1022409
:10382000FFF7CCFFF3E700BF5D08002010B502F002
:1038300085F8044602F082F8031B4F2B01D90020C3
:1038400010BDFFF7DBFF0028FAD1142005F016F9B0
:10385000F0E700002DE9F0474FF4FA702DED048BEE
:1038600002F000F838B90224FFF7A8FF2046BDECAB
:10387000048BBDE8F0874FF0000802F05FF841F2DA
:103880008739064647469FED7C8A02F057F8054681
:10389000FFF7B4FF044628B9AB1B4B4505D90424F8
:1038A000FFF78CFFFFF78AFFE0E74FF48061734872
:1038B00002F02CFA30B9B8F1000F14D0ED1B1D2D19
:1038C00019D84446B3EE090A01F0C4F8FBEE090A20
:1038D000B0EE401AB0EE480A01F0F4FB30B1032418
:1038E000FFF76CFFDEE72F460124EBE71420A0462C
:1038F00005F0C4F8C9E7FFF761FF002840F0B98080
:10390000FFF794FF04460028B0D103205C4D01214D
:103910002870FEF72FFE044610B105242C70A5E791
:1039200002F00CF8574F064602F008F8831BB3F577
:103930007A7F24D304232B70002C97D101F0D4FF7D
:10394000DFED517A514E072430EE278A01F0F6FF61
:10395000814601203470FEF7FDFE0746002849D15C
:10396000DFED4B8A9FED449ADFED4A9AFFF746FF61
:1039700088B1BDEC048BBDE8F047FFF731BF3B7861
:103980001BB9142005F07AF8CEE74446D2E7A9EB3C
:103990000A098144EAE701F0D1FF43F69723A0EB3F
:1039A0000900984201D90920E3E701F09DFFB4EE38
:1039B000C08AF1EE10FA4CD9032F3BD8FEF7F4FE83
:1039C000C0B301F0BBFF8246FFF7F8FE60BBFFF714
:1039D0002DFF044650B9022344F620620121042041
:1039E0002B70FEF7F1FD38B105242C7001F0A6FF15
:1039F000002CCCD02046BCE7274800F0DFF8042894
:103A000016D098B9042301372B70FFB21D4B1B78D9
:103A100003F0FF0463B9042FE8D00120FEF79AFEFB
:103A2000041E18BF0724E1E70324DFE70624DDE7CF
:103A30004446DBE7B0EE681AF0EE490AB0EE690AD8
:103A400001F040FB08B1032093E7142005F016F8BD
:103A50008CE7FFF7B3FE0028F5D1FFF7E7FE044639
:103A6000002886D1B0EE480A01F04CFB04233370E5
:103A7000FCE60324FAE600BF00000000000C024050
:103A8000200700205D0800200000B0435E080020F1
:103A900000004442000078C2AD37000838B50E4D32
:103AA0000E4C2B78012B04D0012323702078C0B258
:103AB00038BD4FF4A0630022642100F043FC0038BD
:103AC00018BF012040002070237813B902232B7007
:103AD000ECE70323FBE700BFC0070020070000203E
:103AE00038B5094D094C30B903232B7001232370DD
:103AF0002078C0B238BD00F0DFFB054B4FF45272A6
:103B00001A6000232B70F2E7C00700200700002096
:103B1000BC07002008B500F0E1FB0038064B18BFD9
:103B20000120400018701A78002A044A14BF0321AB
:103B300001211170187808BD07000020C00700207F
:103B40000020FFF7ABBF00002DE9F843184D0446F5
:103B50002B78022B06D0174B01221A701878C0B2AE
:103B6000BDE8F88301F0EAFEDFF84C80074640F23A
:103B7000DB5901F0E3FEC61B3CB1A04728B100F0C1
:103B8000C7FB04220B4B2A70E7E7D8F800309E42AF
:103B900004D3012300222B70064BDEE74E4503D9E8
:103BA00000F0B6FB0322EDE70A2004F067FFE0E730
:103BB000C007002007000020BC07002010B5044605
:103BC000FFF7BEFF20B92046BDE81040FFF7BCBF9D
:103BD00010BD10B504460120FFF760FF20B9204654
:103BE000BDE81040FFF7B0BF10BD000008B500F001
:103BF0008FFB0038064B18BF0120400018701A7860
:103C0000002A044A14BF032101211170187808BD4D
:103C100007000020C0070020024B1878431E5842BE
:103C200058417047C007002004289ABF024B53F840
:103C300020000248704700BFFCE10008A7DA000836
:103C400004289ABF024B53F820000248704700BF77
:103C5000E8E10008A7DA0008024B1878003818BF1E
:103C6000012070475D08002038B5114A0023114C2F
:103C70001370114D237003232B70FFF731FF10B920
:103C8000FFF748FF28B104280BD003280CBF0520FC
:103C9000042028702B7833B1052323702878C0B214
:103CA00038BD0220F5E7C82004F0E8FE0123F4E760
:103CB000C2070020C107002008000020F8B5224DEF
:103CC000224C2B78012B0BD02B78032B08D02B7890
:103CD000042B14BF0323012323702078C0B2F8BD46
:103CE0001B4E3378052B03D904232B700123F3E7F4
:103CF000FFF7B2FF18B106232B700223ECE702276F
:103D000014482F70FFF75AFF28B1042811D0032858
:103D10000CBF052004202070237863B93378013369
:103D2000DBB233703378052B94BF032304232B704D
:103D3000D3E73846EFE72378022B01D10623F6E7D5
:103D4000FFF754FF0523F2E7C10700200800002019
:103D5000C2070020593C0008054B1A78052A04D8F0
:103D60001878C0F10600C0B270470020704700BF4D
:103D7000C207002006289ABF024B53F820000248D1
:103D8000704700BF10E20008A7DA0008024B18785D
:103D9000003818BF012070475D08002038B5044680
:103DA000FFF7F4FF60B9094D022344F620620121B8
:103DB00020462B70FEF708FC18B1052306202B7057
:103DC00038BDBDE83840FFF7E1BF00BF2007002045
:103DD00008B5FFF7DBFF08B1012008BD0448FFF775
:103DE000F8FE0428F8D0002818BF0720F5E700BF28
:103DF0008D3D000810B50246FFF7C8FF08B101204D
:103E000010BDDFED0D1A10469FED0C1AF0EE610AA1
:103E100001F028FA044601F019FA0028EFD1E12C4C
:103E200005D0E42C05D0042C18BF0520E8E70220BB
:103E3000E6E70320E4E700BF000000000000B44311
:103E40000023024A1370024A13707047C40700200F
:103E5000C3070020F8B500237F4E804D3370012347
:103E60009FED7F0A2B7001F005FA0446074601F02A
:103E7000EDF9002840F0DD80E12C00F0C580E42C55
:103E800000F0CF80042C40F0CE8002232B70FFF78F
:103E90007DFF002840F0CD80FFF716F8012800F0E4
:103EA000C880042800F0B080002840F0AE800323D2
:103EB0009FED6C0A32202B70FFF79CFF0446002810
:103EC00040F0B5809FED660AC8202F70FFF792FF83
:103ED0000446002840F0AB800D20FFF75FFF04464A
:103EE000002840F0A4800E20FFF758FF0446002869
:103EF00040F09D80FFF76CFF0446002840F097805B
:103F000005239FED570AC8202B70FFF773FF044667
:103F1000002840F08C800E20FFF740FF0446002868
:103F200040F085800D20FFF739FF044600287ED140
:103F3000FFF74EFF0446002879D106239FED480A7B
:103F4000C8202B70FFF756FF044600286FD10E20C3
:103F5000FFF724FF0446002869D10D20FFF71EFF5C
:103F60000446002863D1FFF733FF044600285ED1E2
:103F700007230F202B70FFF711FF0446002856D1AE
:103F80000D20FFF70BFF0446002850D1FFF720FF5C
:103F9000044600284BD108239FED330AC8202B701C
:103FA000FFF728FF0446002841D10F20FFF7F6FE57
:103FB0000446E0BB0D20FFF7F1FE0446B8BBFFF757
:103FC00007FF044698BB09239FED270AC8202B70E2
:103FD000FFF710FF044650BB0F20FFF7DFFE04463B
:103FE00028BB0D20FFF7DAFE044600BBFFF7F0FE0A
:103FF00001281ED0C8B90A2204212A701B4A307039
:1040000011703078C0B2F8BD02249FED171AF0EE9F
:10401000410AB0EE410A01F055F80C232B703470C0
:1040200018E00324F1E70524EFE70724EDE7012C6E
:10403000EBD19FED0D1AF0EE410AB0EE410A01F00E
:1040400041F8FFF7D3FD094B04221A700B232B70A4
:10405000012333703078D5E7C3070020C407002060
:10406000000034430000B44200000000200700209C
:104070000F4B70B50446186815460E4E18B901244A
:104080003470204670BD0A466423214603F00DF9C2
:104090000446307038B9084A13680133136015B10B
:1040A00001F04CFC2860022001F04EFCE9E700BF63
:1040B000D4070020CC070020D0070020F32307B549
:1040C0008DF8013040F2AB1300220621ADF802302A
:1040D00046F601338DF800006846ADF80430FFF76E
:1040E000C7FF03B05DF804FB13B5002A94B24FF08C
:1040F0000A028DF80000BCBF644281F0010103FB9D
:1041000002F26846B8BFA4B28DF8021008219442AA
:104110004FF0000288BF03EB83038DF8052084BFB6
:104120005B009CB2F6238DF80130230A8DF8044021
:104130008DF8033046F60133ADF80630FFF798FFEF
:1041400002B010BD08B5064B064A18600023136084
:10415000054A137001F0F2FB044B186008BD00BF64
:10416000D4070020D0070020CC070020C80700207B
:10417000F7B50220FFF7A2FF06460120FFF79EFFDA
:1041800007460320FFF79AFF3E4305460420FFF74A
:1041900095FF044635430421074B00222C430DEBC9
:1041A00001000193FFF764FF2043C0B2003818BF3D
:1041B000012003B0F0BD00BF00FF666B07B5074AE2
:1041C000052110681279009068468DF80420044A91
:1041D000FFF74EFF03B05DF804FB00BF60D6000898
:1041E000C807002037B50D46044610B9012003B0BA
:1041F00030BD0029FAD00B46B0F900200121022081
:10420000FFF772FF01460028F0D12B46B4F90220D7
:104210000120FFF769FF0028E8D101212B46B4F9FE
:1042200004200320FFF760FF01460028DED12B4663
:10423000B4F906200420FFF757FF0028D6D1042147
:10424000034B044A0DEB01000193FFF711FFCEE78A
:1042500000FF666BC807002038B50D4B04460A46C0
:104260000C4D186818B901242C70204638BD214621
:10427000642303F01AF8044628700028F5D1064A92
:10428000022013680133136001F05EFBEDE700BF0D
:10429000DC07002009000020D807002007B5042112
:1042A000044B0DEB01000193FFF7D6FF03B05DF85F
:1042B00004FB00BF00FF666B054B00221860B0FADC
:1042C00080F0044B40091A60034B1870704700BF20
:1042D000DC070020D8070020090000200A4B07B5A2
:1042E000186806219B8800906846ADF80430FFF7F7
:1042F000B3FF28B1054B1878C0B203B05DF804FBDA
:10430000FFF7CCFFF9E700BF7BDD000809000020C4
:1043100007B50A4A052110681279009068468DF8A1
:104320000420FFF799FF28B1054B1878C0B203B0FD
:104330005DF804FBFFF7B2FFF9E700BF82DD00087C
:104340000900002001281FB501D801B12BB91A4B73
:10435000012201201A7004B010BD0A246143B1F596
:10436000803FF4D28DF805201A0E8DF80200080A5D
:104370008DF806201A0C5BBA4FF605548DF8030031
:104380006846ADF808304FF480738DF804100D21A5
:10439000ADF80A306B23ADF800408DF807208DF89A
:1043A0000C30FFF759FF18B1034B1878C0B2D2E7B1
:1043B000FFF774FFCFE700BF0900002098B170EE4F
:1043C000607A30EE200A37EEC17A77EE817A80ED9E
:1043D000007A30EE017A30EE410AC0ED037A80EDCA
:1043E000017A80ED020A7047F0EE404A002861D061
:1043F000B5EEC00AF1EE10FA5CD990ED006AD0ED8E
:10440000016AB5EEC06AF1EE10FAF5EEC06A4CBF73
:10441000B1EE467AB0EE467AF1EE10FA4CBFF1EE0C
:10442000667AF0EE667AB4EEE77AF1EE10FA54BFEF
:10443000F0EE475AF0EE675A90ED027AB5EEC07A88
:10444000F1EE10FA4CBFF1EE477AF0EE477AF4EE57
:10445000E75AF1EE10FA54BFB0EE655AB0EE675A63
:10446000D0ED037AF5EEC07AF1EE10FA4CBFF1EE22
:10447000675AF0EE675AB4EEE55AF1EE10FA58BFFB
:10448000F0EE455AB4EEE50AF1EE10FA12D584EEDC
:10449000A50A26EE006A66EE806A27EE007A67EECD
:1044A000807A80ED006AC0ED016A80ED027AC0ED8D
:1044B000037A7047B7EE000A704700000023064AEF
:1044C00000211360054A1360054A1170054A136004
:1044D000054A1360704700BF00080020FC07002059
:1044E000F50700205808002054080020134B1B78C3
:1044F00013B3134B134A93ED006A134B1349D3EDD7
:10450000007A134BD1ED006A93ED007A114BD3ED95
:10451000005A136867EEA57A1060C31A46EE077A50
:104520009FED0D7A67EE877A07EE103AB8EE477A7C
:1045300047EE876AC1ED006A704700BFE4070020BC
:1045400040080020E00700203C0800202008002050
:10455000F0070020EC070020FCAD803B5D4B2DE90F
:10456000F0412DED068B1B78B0EE408A05465A4F80
:104570005A4E13B15A4B1B784BB99FED5A0A87ED2F
:10458000000A86ED000ABDEC068BBDE8F081EFF372
:10459000108872B6544BD3ED008A01F0A5F978EE7D
:1045A000C08A01F0ADF90446B8F1000F00D162B63F
:1045B000DFED4EAA002D00F08280B2EE009A9FED52
:1045C0004CAADFED4C9AB5EEC08A4B4AF5EE007A64
:1045D0004A491378F1EE10FA494D48BFB1EE488AC6
:1045E00028EE278A002B71D00B689C4228D0E31A52
:1045F000581EC7286AD807EE903A424B9FED426A90
:10460000D3ED006AF8EEE77A95ED007A78EEE66A87
:1046100066EE866A86EEA76A76EE476A9FED3B6A8B
:1046200037EE866AC7EE865AF0EE477A46EEA57AEE
:10463000344BC5ED007AC3ED008A01230C60137082
:1046400001F07CF9001BF5EEC08ADFED316AC82865
:1046500084BF00232B60F1EE10FA4CBFF1EE687AB4
:10466000F0EE687AF4EE6A7ADFED1E7AF1EE10FA77
:10467000B4EEC98A98BFF0EE678AD5ED007AF1EE04
:1046800010FAB0EE687A54BFB0EE490AB0EE480AAC
:1046900007EEA67A67EE8A7A47EE297AF4EEC07AB8
:1046A000F1EE10FA08DCB1EE400AF4EEC07AF1EE59
:1046B00010FA58BFB0EE670AC7ED008A61E7B0EEA6
:1046C0006AAADFED149A9FED149A7CE7DFED057A74
:1046D000AEE700BF4C080020580800205408002016
:1046E000F407002000000000500800209A99193EAD
:1046F0009A99593F33333340F5070020F8070020DB
:10470000FC0700200008002000007A44000020423E
:10471000CDCC4C3DCDCCEC3F6666A640B5EE400A14
:1047200030B5F1EE10FA05462DED028BB0EE618A40
:1047300087B038D1F5EE400AF1EE10FA40F0008172
:10474000B5EE401AF1EE10FA4ED1FFF737FD0446F0
:1047500010BB7E4B1868FFF7C9FE00237C4A13602C
:104760007C4A13607C4A13607C4A13607C4A136065
:104770007C4A13607C4A13607C4A13607C4A136055
:104780007C4A13604FF07E537B4A13604DB920463C
:1047900007B0BDEC028B30BDFFF710FD0028D8D06C
:1047A000F5E72B60F3E7B5EEC00AF1EE10FA40F141
:1047B000C780B1EE407AF5EEC00AF1EE10FA4CBFB8
:1047C000F1EE607AF0EE607AB4EEE77AF1EE10FA8C
:1047D0000AD59FED6A7AF4EEC77AF1EE10FAC4BFFB
:1047E000DFED677A21EE271A02A8B1EE411AFFF732
:1047F000E5FDB0EE480A02A8002D00F0A480FFF706
:10480000F3FD85ED000AB2EE045A9DED026A544BA9
:10481000F6EE005ADDED036ABCEEC88A83ED006A4D
:1048200026EE056A4D4B68469DED047AB5EEC06AEA
:10483000C3ED006A66EE856A4B4BDDED057AF1EE5D
:1048400010FA83ED007AF5EEC06A464B27EE057A42
:10485000A8BF36EE256AC3ED007AB8BF36EE656AAA
:1048600067EE857AF1EE10FAB5EEC07ABDEEC66A53
:10487000ACBF76EEA56A76EEE56AF1EE10FA16EEBA
:10488000103AF5EEC07AFDEEE66AADF80030ACBF46
:1048900037EE257A37EE657AF1EE10FA16EE903A99
:1048A000BDEEC77AADF80230ACBF77EEA57A77EEF1
:1048B000E57A17EE103AFDEEE77AADF8043017EE20
:1048C000903AADF8063018EE103A99B2FFF78AFC2C
:1048D000044600287FF45BAF1C4B1868FFF706FE08
:1048E000BDF90050BDF90230BDF90400EA18BDF968
:1048F00006109FED247A5B1B02440A4407EE902ABF
:10490000154AF8EEE77AC7EE876AC2ED006AC21868
:104910001B1A521A0B4407EE902A0E4AF8EEE77A59
:10492000C7EE876A07EE903A094BF8EEE77AC2EDD8
:10493000006ADFED156A87EEA67A83ED007A26E736
:10494000B0EE407A37E7FFF74FFD5CE7C80700207D
:10495000E8070020EC070020F00700202C080020CA
:1049600030080020240800202808002034080020F7
:1049700038080020540800200C00002017B7D13858
:104980003333333F00002042000020C2154B10B5E6
:104990002DED028B1A7802F0FF00A2B19FED128A72
:1049A0000020DFED121AB0EE481A1870F0EE480A37
:1049B0000F4CB0EE480AFFF7B1FE38B1FFF7FEFB2F
:1049C000E22302202370BDEC028B10BD094B0120B5
:1049D000187004232370084B83ED008A074B83ED86
:1049E000008AF0E75D080020000000000000E643B8
:1049F0005E0800205C0800203808002034080020F1
:104A000010B52DED028B9FED0E8A0446DFED0D1AD9
:104A10000020B0EE481AF0EE480AB0EE480AFFF760
:104A20007DFEFFF7CBFB084B084A1C7082ED008A25
:104A3000074A82ED008A1878BDEC028B10BD00BFDA
:104A4000000000000000E6435E0800203808002057
:104A5000340800200020FFF781BD00002DE9F04F51
:104A60002DED108B89B0F0EE609AB0EE41CA09EEE0
:104A7000100AF0EE618A1646F0EE42CA01910AB1C0
:104A800000231370DFED937A934CB4EEE70AF1EE56
:104A900010FA2FDB9FED91BAB4EECB0AF1EE10FACB
:104AA00028D89FED8FAA20EE0A0AC0EE0BAAB0EE1E
:104AB0006A0A07F0D3FDB0EE408AB0EE6A0A07F04A
:104AC00005FEF8EE497A9FED877A20EE279A28EEC8
:104AD000278A29EE079A28EE078A29EE090A08EEA6
:104AE000080A07F099FDB5EEC00AF0EE40BAF1EE03
:104AF00010FA09D8E32323702078C4B2204609B005
:104B0000BDEC108BBDE8F08FC8EE00AA9FED76DA01
:104B100089EE008AF5EEC0AAF1EE10FA4CBFB1EEB4
:104B20006AEAB0EE6AEAB4EECDEAF1EE10FA55DDCB
:104B3000B5EEC08AF1EE10FA4CBFF1EE487AF0EE15
:104B4000487AF4EECD7AF1EE10FACCBF06230523B5
:104B5000F5EEC0BA4FF07E5BCDF818B0F1EE10FA6A
:104B600039DD68EE087A4AEEAA7AF4EECD7AF1EEF3
:104B700010FA30D9F5EEC09AF1EE10FA2BDB9FED6A
:104B80005BFAB4EECFCAF1EE10FA24DBDFED587A0F
:104B9000B4EEE7CAF1EE10FA1DD8F5EEC0CAF1EE98
:104BA00010FA18DDF4EEEC9AF1EE10FA13D8F4EEE8
:104BB000EC8AF1EE10FA0ED8F5EEC08AF1EE10FA9A
:104BC00009DBF4EECC9AF1EE10FA04DCB4EEE8CA9C
:104BD000F1EE10FA04D5E323237055E00523B7E77F
:104BE000444AF0EE6A0AB0EE480A237092ED009A49
:104BF00007F010FD20EE0B0A3F4B9FED40BADFF8A7
:104C00002491C0EE0A7ADFF820813D4FDFED3DFAB6
:104C1000B3EE04AAF0EE4BDAF0EE4AEAC3ED007A06
:104C2000394BC3ED00AA394B83ED008A384BC9EDEF
:104C3000009AC8ED009AC7F800B083ED00BA354B72
:104C4000C3ED00BA00F07AFEB4EECB8A324BF1EE3F
:104C5000487A324A18600546F1EE10FA4FF0010327
:104C60008246137058BFF0EE487ACDED037A00F01B
:104C700065FE431B00900293CDF81CB0FFF736FC95
:104C8000FFF784FE054610B12078C4B2E8E0019B2E
:104C9000002B4BD09847002848D09FED188A284613
:104CA000DFED1F1AB0EE481AF0EE480AB0EE480ADF
:104CB000FFF734FD40B1FFF781FAE223237089ED5D
:104CC000008A88ED008ADFE70EB1012333700423E8
:104CD000F4E700BF000034C35E0800200000344346
:104CE000DA0F4940B81E853F17B7D138CDCCCC3D3F
:104CF000FFFF7F7FE807002044080020000000003D
:104D00000C00002000007A44400800203C080020ED
:104D1000200800201C080020E0070020E4070020F5
:104D20000000E6433808002034080020D04BF6EE9F
:104D3000006AD3ED007A7BEEE77AF4EEE67AF1EEE4
:104D400010FA40F24981B2EE047A9FEDCA6A28EE69
:104D5000A80AB4EEC7AAF1EE10FAF4EECD8A3AFE34
:104D6000077A37EE0AAAF1EE10FA87EE867A0ED8A5
:104D7000DFEDC17AB0EE676A0AEE2E6AB4EEC67A4B
:104D8000F1EE10FA74DD37EE677A9FEDBC0ADFEDC5
:104D9000BC7A27EEA76ACDED047ACDED056A26EE42
:104DA0000A6A06EE0A0A37EEA76A06EE070A07F055
:104DB00033FCDDED047A0AEE670AF4EEC08AF1EE08
:104DC00010FAB5EEC0BA38FE800AF1EE10FA60D8DB
:104DD000AC4BF4EEEE8ADDED056AD3ED007AAA4B1A
:104DE000F1EE10FA93ED007A28EE077A0AEEA77A30
:104DF00078FEAE7A77EE677A67EEA67ADFEDA36A81
:104E0000F4EEE67AF1EE10FA35D5F4EECF7AF1EE63
:104E100010FA32DCDDED027A9FED9D7AB8EE67AADA
:104E20009C4D2B782AEE077AC7EE2F7A77EEA97A77
:104E3000B4EEE7CAF1EE10FA48BFF0EE4C7AF4EEA9
:104E4000C07AF1EE10FA70FE279A002B40D04FF492
:104E5000FA7000F007FDD8BBE120FFF7D1FD044652
:104E600000F06CFDFFF742FB00238B4A137045E610
:104E7000DFED8A7A8DE7F0EE667A77EE276AB4EE98
:104E8000E60AF1EE10FAC5D8F0EE47DAB0EE67BAEE
:104E900000E0BFDD7DEE8B7A77EEC07AF5EEC07A6A
:104EA000F1EE10FA11D93BEE0B7AF4EEC77AF1EE7F
:104EB00010FAAFD5B1EE007A67EEA77A2BEE077A3B
:104EC00087EE870A3DEEC00AA4E7B0EE6D0AA1E7BF
:104ED0002B78B3B3DDED037AB0EE690AB4EEE7EAFE
:104EE000F1EE10FA4CBF01200020FFF737FBB4EEC3
:104EF000C90ADFED6B7AF1EE10FA2AEE27AACAEEA4
:104F00002F7A35DD77EE897AB4EEE70AF1EE10FA02
:104F100037FE800AB5EE009A624B29EE899AB4EE0C
:104F2000C09AF1EE10FA48BFB0EE490AB1EE499AC4
:104F3000B4EEC90AF1EE10FA58BFB0EE409A83ED14
:104F4000009A00F0FBFC584B0546F0EE6C1A93ED0E
:104F5000000AB0EE491A554B07A829EE800AD3ED96
:104F6000000A69EEA00AFFF7D9FB58B1E22074E706
:104F700079EE677AB4EEE70AF1EE10FA48BFB0EEC8
:104F8000670AC7E700F0DAFC079BC9ED009A401BEF
:104F90003B600AF10A0A3B4B07EE900A93ED007A58
:104FA000B8EE67AA384BD3ED007A68EE277A4AEE5E
:104FB000877AC8ED007A00F0C1FC0346AAEB000036
:104FC000002803DD00F0C0FC009D50E638499A46F9
:104FD0000A6801320A60F7E7FFF7D8FC00287FF47F
:104FE00053AEF4EECD8AF1EE10FA0DD89FED321AE1
:104FF000DFED301AF0EE410AB0EE410AFFF78EFB0A
:105000000028B3D10423E7E5224D2B7833B14FF4C8
:10501000FA7000F027FC00283FF41EAF2B78002B1D
:105020004CD0B0EE680AFFF715FDB0EE401A1E4BEB
:10503000F0EE6C1A06A893ED000A1C4B28EE800ACD
:10504000D3ED000A68EEA00AFFF768FB00288DD1B7
:10505000069BC9ED008A3B600A4BD3ED007A0A4BF0
:1050600093ED007A28EE078A0AEEA78A29E600BFA8
:1050700020080020FCAD803B00409C450000C84358
:105080008FC2F53DF0070020EC0700200000B4437C
:10509000000016444C080020E40700200AD7233DF6
:1050A0000000F04254080020400800203C08002086
:1050B000480800200000E643000000001FED021A2F
:1050C000B5E700BF0020DFED021AFFF727BB00BFE6
:1050D0000000E64308B54FF4FA7000F0C3FB58B186
:1050E00000F002FC054B012283ED000A044B1A700C
:1050F000BDE80840FFF7E2B908BD00BF5008002036
:10510000F4070020034B012283ED000A024B1A70C2
:10511000FFF7D4B950080020F4070020014B93EDAD
:10512000000A70475008002070B5234B002500246A
:105130000E461D70214B1C60214B1C60214B1C60D6
:10514000FFF700F8304600F049FA1F4B1C601F4B78
:105150001D70FFF7B3F91E4B4FF07E521D701D4BB3
:105160001D601D4B1C601D4B1C601D4B1C601D4BAE
:105170001C601D4B1C601D4B1C601D4B1C601D4B9F
:105180001C601D4B1C601D4B1A601D4B1C601D4B91
:105190001C601D4B1C601D4B1C601D4B1C601D4B7F
:1051A0001C601D4B1D701D4B1D601D4B1D701D4B4C
:1051B0001D701D4B1D7070BDE4070020F00700201E
:1051C000EC070020E807002050080020F40700202A
:1051D0004C08002048080020440800204008002017
:1051E0003C08002038080020340800203008002047
:1051F0002C08002028080020240800200C00002093
:10520000200800201C080020180800201408002096
:10521000100800200C0800200808002004080020C6
:105220005E0800205D0800205C080020014B012280
:105230001A7070475D0800200023024A1370024A6A
:10524000137070475D0800205C080020014B18783F
:10525000704700BF5C0800209FED012AFFF7FEBBEE
:105260000000E64300221146FFF7F6BF0022114678
:10527000FFF7F4BBB5EEC00A2DE9F04FF1EE10FADE
:10528000A94C2DED048BB0EE408A85B00CD408D922
:10529000F0EE407A9FEDA57AF4EEC77AF1EE10FABF
:1052A00005DDE323237056E0F1EE407AF2E74FF498
:1052B000FA7000F0D7FA08B9E123F3E700F014FB25
:1052C00078EE007A0723DFF89C82DFF89C92DFF803
:1052D0009CA223700023C8ED007A954D89ED000A49
:1052E000944F8AED008A944E9FED948A9FED949A94
:1052F00085ED008A3B703360FFF7E0F8914B4FF08B
:105300007E52DFED918A83ED008A904B83ED008A17
:105310008F4B1A6000F012FB8346019000F00EFBE9
:105320004FF07E530393019BC01A3060FFF72EFBB2
:10533000C0B14FF4FA7000F095FA08B1FFF7CAFE59
:10534000002388ED008A89ED008A8AED008A85EDC8
:10535000008A3B7033602078C0B205B0BDEC048B8E
:10536000BDE8F08F4FF4FA7000F07CFA48B9E12004
:1053700085ED008A05B0BDEC048BBDE8F04FFFF76A
:105380003FBB326842F20F739A4206D9E42085EDA2
:10539000008AFFF735FB2070CBE700F0A5FA89ED16
:1053A000000AD8ED006AD9ED007A76EEE76AF5EEEC
:1053B000C06ACAED006AF1EE10FA4CBFB1EE667A2F
:1053C000B0EE667AB4EEC97AF1EE10FA36D89FEDF7
:1053D0005B1A03A8DFED5F1AF0EE410A85ED008A43
:1053E000B0EE410AFFF79AF960B1E220FFF708FB3F
:1053F00020704FF4FA7000F035FA0028ABD0FFF7B8
:1054000069FEA8E7039A524B1A604A4A137801339F
:10541000DBB213701378042B73D998ED000AFFF7F1
:1054200071FE444A88ED008A042389ED008A8AEDE2
:10543000008A85ED008A1070306033E7F3EE0E7A53
:1054400000233B70B4EEE77AF1EE10FA50DAB2EED8
:10545000046AF1EE047AB4EEC67AF1EE10FAA5BF52
:1054600037EE467AF3EE045AC7EE065A87EE256AFF
:10547000AABF9FED397A65EEA77A46EE077A3368C0
:10548000F92B38D896ED006ADFED345AB8EE466A4B
:1054900086EE257A27EE287AF4EEC77AB3EE006A14
:1054A000F1EE10FAB4EEC67A77FE277AF1EE10FA32
:1054B00006DBF4EEC67AF1EE10FA48BFF0EE467A5B
:1054C000F5EEC06ADFED1D0A03A8DFED221AB0EE8B
:1054D000600AF1EE10FAD8BFF1EE677AC5ED007AF6
:1054E00095ED001AFFF71AF940B185ED008A7CE7C7
:1054F000F0EE687AC3E7B0EE687ACDE7039A144B12
:105500001A600BF10A0B00F019FA0346ABEB00002E
:10551000002802DD00F018FA00E711499B460A68EE
:1055200001320A60FAE600BF5E0800200000B443C2
:105530000C080020080800200408002000000000DB
:10554000CDCC4C3F380800200000C8423408002071
:105550000C0000200000E6430000BE4200007A4339
:105560004808002018080020140800201008002017
:1055700038B54FF4FA60154C00F086F930B9D023F5
:105580002370FEF71BFE2078C0B238BD104D0123FA
:105590002B70FEF7EDFD10B1E2232370F3E74FF41B
:1055A000FA7000F0D1F92B7803F0FF024BB100F054
:1055B00083F99FED080AFFF7A5FD642000F0C4F908
:1055C000E1E7054B1A70FEF779FFF6E75E08002069
:1055D0004C08002000000000F40700200023174AB8
:1055E000174910B41370174A08601370EFF3108056
:1055F00072B60022144C2260144C2260144C2260BB
:10560000144C2260144C2260144A1370144A137014
:10561000144A1360144A1360144A1360144A136046
:1056200000B962B6086828B1012212495DF8044B3E
:1056300001F046BF5DF8044B704700BF8D080020A5
:105640009C0800208C080020800800207C08002096
:1056500078080020740800208808002084080020B2
:10566000700800206C0800206808002064080020F2
:1056700060080020990800200C4B1B6810B48BB107
:1056800083420FD100220A4908240A7009490A708E
:1056900019680C62C3F88420012207495DF8044BA5
:1056A00001F00EBF5DF8044B704700BF9C0800205E
:1056B0008D0800208C080020990800204C4A1368AF
:1056C00070B501334B4D13602B7843B9552805D184
:1056D000494B4A4A1870012313702B7070BD012B7F
:1056E000464C0CD1532804D1434B587002232370ED
:1056F000F3E7552852D1404A10702370EEE7217825
:105700003D4B4A1C5854D2B20A2A2270E6D9184698
:105710000A21002210F8016B0139324411F0FF0117
:10572000D2B2F7D1997A91425FD1B3F904209FEDBB
:10573000346A07EE902AB3F90620B3F9023007EE77
:10574000102AF8EEE77A06EE903A2E4BB8EEC77ABA
:105750002D49F8EEE66A2D4A67EE867A087827EE3C
:10576000067A66EE866AC3ED006A294BC3ED007ABD
:10577000284B83ED007A284B98B983ED007A0023FB
:10578000136001230B70254B01221A7000F0D6F82C
:10579000234B244A186013680133136000232B70D5
:1057A000ABE7D3ED007ADFED206A77EE677AF4EEAF
:1057B000E67AF1EE10FA0CDDDFED1C6A77EEE67AA0
:1057C000D2ED006A83ED007A76EEA77AC2ED007A18
:1057D000D9E7DFED176AF4EEE67AF1EE10FA44BF8E
:1057E000DFED126A77EEA67AEAE7124AD3E700BF46
:1057F000640800208D0800208E0800208C080020FE
:105800000000B43B800800208408002074080020B9
:105810007C080020780800208808002070080020FC
:105820006C08002068080020000034430000B443E6
:10583000000034C36008002038B5084C236863B109
:1058400083420AD1064D2878FFF738FF29462068A1
:105850000122BDE8384001F033BE38BD9C0800206D
:105860009908002038B5074B05461C683CB100F08C
:1058700065F8001BA8428CBF0020012038BD2046DF
:10588000FCE700BF6C08002070B50446094E00F02C
:1058900055F8054600F052F8431BA34201D30020FF
:1058A00070BD33681BB9052000F04EF8F2E7012007
:1058B000F6E700BF6C080020EFF3108372B6064ACB
:1058C0001168064A11600021054A11600121054A4C
:1058D000117003B962B6704778080020880800206C
:1058E0007408002084080020EFF3108372B6034A86
:1058F00092ED000A03B962B6704700BF7408002039
:10590000014B1868704700BF6C08002008B50320E1
:1059100000F02CF80F20FBF755FEFBF735FE0020BA
:1059200008BD0000034A044B11681B780B44136048
:10593000704700BFA008002010000020014B18682D
:10594000704700BFA008002038B50446FFF7F6FFF7
:105950000546631C1EBF044B1B78E418FFF7EEFFDF
:10596000431BA342FAD338BD1000002007490302AD
:10597000CA6803F4E06322F4E0621204120C1343D9
:1059800043F0BF6343F40033CB60704700ED00E0A9
:10599000164B30B5DC68C4F30224C4F10703251D9F
:1059A000042B28BF0423062D4FF0FF358CBF033C8A
:1059B000002405FA03F3002805FA04F521EA03039D
:1059C00022EA050203FA04F343EA02034FEA03134F
:1059D000DBB206DB00F1604000F5614080F8003387
:1059E00030BD00F00F00024A1354F9E700ED00E06B
:1059F00014ED00E0002807DB4109012300F01F003F
:105A0000024A834042F82130704700BF00E100E0C5
:105A1000BFF35F8F044B5A6A22F480325A6200222D
:105A2000C3F89420704700BF00ED00E0064B40F043
:105A30000100C3F894005A6A42F480325A62BFF3FC
:105A40004F8FBFF36F8F704700ED00E04378144A2B
:105A5000C2F89830D2F8A03023F00103C2F8A03089
:105A60004368C2F89C30C37A017B1B0643EA01738A
:105A700001780B43817A43EAC143417B43EA814386
:105A8000817B43EA4143C17B43EA0143417A43EAD4
:105A90000123017A43EA4103C2F8A030704700BFF6
:105AA00000ED00E070B50446866DFFF747FF054640
:105AB00094F83530022B06D0802301206365002343
:105AC00084F8343070BD23681A6822F016021A6018
:105AD0005A6922F080025A61226C0AB9A26C1AB18A
