:020000040800F2
:10000000000005200D0D0008111800081318000845
:10001000151800081718000819180008000000003B
:10002000000000000000000000000000117E000839
:100030001B18000800000000B17E0008157F0008B2
:100040005D0D00085D0D00085D0D00085D0D0008E8
:100050005D0D00085D0D00085D0D00085D0D0008D8
:100060005D0D00085D0D00085D0D00085D0D0008C8
:100070005D0D00085D0D00085D0D00085D0D0008B8
:100080005D0D00085D0D00085D0D00085D0D0008A8
:100090005D0D00085D0D00085D0D00085D0D000898
:1000A0005D0D00085D0D00085D0D00085D0D000888
:1000B0005D0D00085D0D00085D0D00085D0D000878
:1000C0005D0D00085D0D00085D0D00085D0D000868
:1000D0005D0D00085D0D00081D1800085D0D00088D
:1000E0005D0D00085D0D00085D0D00085D0D000848
:1000F0005D0D00085D0D00085D0D00085D0D000838
:100100005D0D00085D0D00085D0D00085D0D000827
:1001100029180008351800084D1800085D0D000862
:100120005D0D00085D0D00085D0D00085D0D000807
:100130005D0D00085D0D00085D0D00085D0D0008F7
:100140005D0D00085D0D00085D0D00085D0D0008E7
:100150005D0D00085D0D00085D0D00085D0D0008D7
:100160005D0D00085D0D00085D0D00085D0D0008C7
:100170005D0D00085D0D00085D0D00085D0D0008B7
:100180005D0D00085D0D0008411800085D0D0008B8
:100190005D0D00085D0D00085D0D00085D0D000897
:1001A0005D0D00085D0D00085D0D00085D0D000887
:1001B0005D0D00085D0D00085D0D00085D0D000877
:0801C0005D0D00085D0D000853
:1001D00081F0004102E000BF83F0004330B54FEAF8
:1001E00041044FEA430594EA050F08BF90EA020F65
:1001F0001FBF54EA000C55EA020C7FEA645C7FEAF8
:10020000655C00F0E2804FEA5454D4EB5555B8BF1A
:100210006D420CDD2C4480EA020281EA030382EA8B
:10022000000083EA010180EA020281EA0303362D1D
:1002300088BF30BD11F0004F4FEA01314FF4801CF0
:100240004CEA113102D0404261EB410113F0004F02
:100250004FEA03334CEA133302D0524263EB4303B9
:1002600094EA050F00F0A780A4F10104D5F1200E57
:100270000DDB02FA0EFC22FA05F2801841F10001B2
:1002800003FA0EF2801843FA05F359410EE0A5F186
:1002900020050EF1200E012A03FA0EFC28BF4CF0B7
:1002A000020C43FA05F3C01851EBE37101F000456D
:1002B00007D54FF0000EDCF1000C7EEB00006EEB7A
:1002C0000101B1F5801F1BD3B1F5001F0CD3490804
:1002D0005FEA30004FEA3C0C04F101044FEA44525B
:1002E00012F5800F80F09A80BCF1004F08BF5FEAE2
:1002F000500C50F1000041EB045141EA050130BDC2
:100300005FEA4C0C404141EB0101013C28BFB1F5D3
:10031000801FE9D291F0000F04BF01460020B1FA1E
:1003200081F308BF2033A3F10B03B3F120020CDAF1
:100330000C3208DD02F1140CC2F10C0201FA0CF0CF
:1003400021FA02F10CE002F11402D8BFC2F1200C34
:1003500001FA02F120FA0CFCDCBF41EA0C019040EA
:10036000E41AA2BF01EB0451294330BD6FEA040433
:100370001F3C1CDA0C340EDC04F11404C4F120021E
:1003800020FA04F001FA02F340EA030021FA04F330
:1003900045EA030130BDC4F10C04C4F1200220FA87
:1003A00002F001FA04F340EA0300294630BD21FAC5
:1003B00004F0294630BD94F0000F83F4801306BF8B
:1003C00081F480110134013D4EE77FEA645C18BF7F
:1003D0007FEA655C29D094EA050F08BF90EA020F16
:1003E00005D054EA000C04BF1946104630BD91EA0E
:1003F000030F1EBF0021002030BD5FEA545C05D111
:100400004000494128BF41F0004130BD14F580044F
:100410003CBF01F5801130BD01F0004545F0FE41C3
:1004200041F470014FF0000030BD7FEA645C1ABFF8
:10043000194610467FEA655C1CBF0B46024650EA2F
:10044000013406BF52EA033591EA030F41F400215B
:1004500030BD00BF90F0000F04BF0021704730B5E1
:100460004FF4806404F132044FF000054FF00001B6
:1004700050E700BF90F0000F04BF0021704730B577
:100480004FF4806404F1320410F0004548BF40424C
:100490004FF000013EE700BF42004FEAE2014FEAA1
:1004A00031014FEA02701FBF12F07F4393F07F4F7C
:1004B00081F06051704732F07F4208BF704793F07F
:1004C0007F4F04BF41F40021704730B54FF4607492
:1004D00001F0004521F000411CE700BF50EA010295
:1004E00008BF704730B54FF000050AE050EA01023E
:1004F00008BF704730B511F0004502D5404261EBAE
:1005000041014FF4806404F132045FEA915C3FF4EE
:10051000D8AE4FF003025FEADC0C18BF03325FEA8B
:10052000DC0C18BF033202EBDC02C2F1200300FA3C
:1005300003FC20FA02F001FA03FE40EA0E0021FA61
:1005400002F11444BDE600BF53B94AB9002908BFFF
:1005500000281CBF4FF0FF314FF0FF3000F00CB807
:10056000ADF1080C6DE904CE07F092FDDDF804E072
:10057000DDE9022304B07047704700BF10F8012B7B
:1005800011F8013B012A28BF9A42F7D0D01A7047D0
:10059000034613F8012B002AFBD1181A01387047C3
:1005A00001F0FF01102A2BDB10F0070F08D010F824
:1005B000013B013A8B422DD010F0070F42B3F6D128
:1005C000F0B441EA012141EA014122F007047FF041
:1005D00000070023F0E80256083C85EA010586EA98
:1005E000010685FA47F5A3FA87F586FA47F6A5FAD4
:1005F00087F68EB9EED1F0BC01F0FF0102F00702E0
:1006000032B110F8013B013A83EA010313B1F8D18A
:100610000020704701387047002D06BF354603386B
:10062000073815F0010F07D1013015F4807F02BFA4
:10063000013015F4C03F0130F0BC0138704700BFF5
:1006400070B54FF0FF0C4CF4E06C1CEA11541DBF68
:100650001CEA135594EA0C0F95EA0C0F00F0DEF833
:100660002C4481EA030621EA4C5123EA4C5350EA18
:10067000013518BF52EA033541F4801143F4801369
:1006800038D0A0FB02CE4FF00005E1FB02E506F0FA
:100690000042E0FB03E54FF00006E1FB03569CF04F
:1006A000000F18BF4EF0010EA4F1FF04B6F5007F55
:1006B00064F5407404D25FEA4E0E6D4146EB0606C7
:1006C00042EAC62141EA55514FEAC52040EA5E5050
:1006D0004FEACE2EB4F1FD0C88BFBCF5E06F1ED8FA
:1006E000BEF1004F08BF5FEA500E50F1000041EB31
:1006F000045170BD06F0004646EA010140EA0200DE
:1007000081EA0301B4EB5C04C2BFD4EB0C0541EAFF
:10071000045170BD41F480114FF0000E013C00F314
:10072000AB8014F1360FDEBF002001F0004170BD38
:10073000C4F10004203C35DA0C341BDC04F1140451
:10074000C4F1200500FA05F320FA04F001FA05F2DD
:1007500040EA020001F0004221F0004110EBD370AA
:1007600021FA04F642EB06015EEA430E08BF20EAD6
:10077000D37070BDC4F10C04C4F1200500FA04F379
:1007800020FA05F001FA04F240EA020001F000410B
:1007900010EBD37041F100015EEA430E08BF20EA7E
:1007A000D37070BDC4F1200500FA05F24EEA020EC6
:1007B00020FA04F301FA05F243EA020321FA04F0F5
:1007C00001F0004121FA04F220EA020000EBD370AC
:1007D0005EEA430E08BF20EAD37070BD94F0000FAC
:1007E0000FD101F00046400041EB010111F4801FE0
:1007F00008BF013CF7D041EA060195F0000F18BF91
:10080000704703F00046520043EB030313F4801FCC
:1008100008BF013DF7D043EA0603704794EA0C0F86
:100820000CEA135518BF95EA0C0F0CD050EA41069C
:1008300018BF52EA4306D1D181EA030101F0004119
:100840004FF0000070BD50EA410606BF1046194641
:1008500052EA430619D094EA0C0F02D150EA01364D
:1008600013D195EA0C0F05D152EA03361CBF10468E
:1008700019460AD181EA030101F0004141F0FE412D
:1008800041F470014FF0000070BD41F0FE4141F4B1
:10089000780170BD70B54FF0FF0C4CF4E06C1CEAB1
:1008A00011541DBF1CEA135594EA0C0F95EA0C0F66
:1008B00000F0A7F8A4EB050481EA030E52EA033521
:1008C0004FEA013100F088804FEA03334FF0805542
:1008D00045EA131343EA12634FEA022245EA11156F
:1008E00045EA10654FEA00260EF000419D4208BF20
:1008F000964244F1FD0404F5407402D25B084FEACD
:100900003202B61A65EB03055B084FEA32024FF478
:1009100080104FF4002CB6EB020E75EB030E22BFD5
:10092000B61A754640EA0C005B084FEA3202B6EB95
:10093000020E75EB030E22BFB61A754640EA5C0044
:100940005B084FEA3202B6EB020E75EB030E22BFD4
:10095000B61A754640EA9C005B084FEA3202B6EBD5
:10096000020E75EB030E22BFB61A754640EADC0094
:1009700055EA060E18D04FEA051545EA16754FEAF6
:1009800006164FEAC30343EA52734FEAC2025FEA14
:100990001C1CC0D111F4801F0BD141EA00014FF0A3
:1009A00000004FF0004CB6E711F4801F04BF014374
:1009B0000020B4F1FD0C88BFBCF5E06F3FF6AFAE90
:1009C000B5EB030C04BFB6EB020C5FEA500C50F120
:1009D000000041EB045170BD0EF0004E4EEA1131A3
:1009E00014EB5C04C2BFD4EB0C0541EA045170BDAA
:1009F00041F480114FF0000E013C90E645EA060EEE
:100A00008DE60CEA135594EA0C0F08BF95EA0C0F1B
:100A10003FF43BAF94EA0C0F0AD150EA01347FF463
:100A200034AF95EA0C0F7FF425AF104619462CE73A
:100A300095EA0C0F06D152EA03353FF4FDAE10469D
:100A4000194622E750EA410618BF52EA43067FF4EE
:100A5000C5AE50EA41047FF40DAF52EA43057FF47E
:100A6000EBAE12E74FF0FF3C06E000BF4FF0010C89
:100A700002E000BF4FF0010C4DF804CD4FEA410CED
:100A80007FEA6C5C4FEA430C18BF7FEA6C5C1BD0BA
:100A900001B050EA410C0CBF52EA430C91EA030F3B
:100AA00002BF90EA020F0020704710F1000F91EA98
:100AB000030F58BF994208BF90422CBFD8176FEA66
:100AC000E37040F0010070474FEA410C7FEA6C5C34
:100AD00002D150EA013C07D14FEA430C7FEA6C5C3B
:100AE000D6D152EA033CD3D05DF8040B704700BF67
:100AF0008446104662468C461946634600E000BFB5
:100B000001B5FFF7B7FF002848BF10F1000F01BD86
:100B10004DF808EDFFF7F4FF0CBF012000205DF851
:100B200008FB00BF4DF808EDFFF7EAFF34BF0120D6
:100B300000205DF808FB00BF4DF808EDFFF7E0FF6F
:100B400094BF012000205DF808FB00BF4DF808EDC0
:100B5000FFF7CEFF94BF012000205DF808FB00BF27
:100B60004DF808EDFFF7C4FF34BF012000205DF809
:100B700008FB00BF4FEA410C7FEA6C5C02D150EAEF
:100B8000013C0AD14FEA430C7FEA6C5C02D152EA85
:100B9000033C02D14FF0000070474FF00100704756
:100BA0004A0011D212F5001211D20DD56FF47873EC
:100BB000B3EB62520ED44FEAC12343F0004343EA41
:100BC000505323FA02F070474FF00000704750EA8C
:100BD000013002D14FF0FF3070474FF000007047F6
:100BE0004FEA4102B2F1E04324BFB3F5001CDCF14F
:100BF000FE5C0DD901F0004C4FEAC0024CEA507087
:100C0000B2F1004F40EB830008BF20F001007047B5
:100C100011F0804F21D113F13872BCBF01F00040B8
:100C2000704741F480114FEA5252C2F11802C2F1EA
:100C3000200C10FA0CF320FA02F018BF40F001006B
:100C40004FEAC1234FEAD32303FA0CFC40EA0C001D
:100C500023FA02F34FEA4303CCE77FEA625307D15A
:100C600050EA01331EBF4FF0FE4040F44000704791
:100C700001F0004040F0FE4040F40000704700BF2B
:100C80000348044B834202D0034B03B1184770471B
:100C9000E4010020E4010020000000000548064BAC
:100CA0001B1AD90F01EBA301491002D0034B03B16A
:100CB00018477047E4010020E40100200000000014
:100CC00010B5064C237843B9FFF7DAFF044B13B194
:100CD0000448AFF300800123237010BDE40100201D
:100CE00000000000D4C6000808B5054B1BB105493B
:100CF0000548AFF30080BDE80840FFF7CFBF00BF55
:100D000000000000E8010020D4C60008DFF834D05D
:100D10000D480E490E4A002302E0D458C450043353
:100D2000C4188C42F9D30B4A0B4C002301E013602A
:100D30000432A242FBD300F0FBFD08F0FDFB00F003
:100D400061F8FEE70000052000000020E40100201B
:100D500028D80008E4010020189C0020FEE70000CD
:100D600010B594B01022002102240AA808F022FB3A
:100D70001422002103A808F01DFB204B01210420B0
:100D80001A6C42F080521A641B6C03F0805301937A
:100D9000019B1B4B1A6842F440421A601B6803F423
:100DA00040430293029B4FF48033CDE908134FF484
:100DB0008003CDE90E43D823CDE9100308A8CDE97F
:100DC000124404F019F808B172B6FEE703F0DCFF34
:100DD00008B172B6FEE70F234FF4A0520590072129
:100DE00003A8CDE903344FF48053CDE9062304F082
:100DF000EBF908B172B6FEE714B010BD003802403E
:100E0000007000401FB500211022684608F0D2FA99
:100E100003F036FE012300226846ADF8003048F2A8
:100E20001F73CDE9012340F20113039303F046FE43
:100E3000042003F033FE03F0A1FDFFF791FF00F063
:100E40002DF800F069FA00F085FA00F0BFFA00F022
:100E50009FFA00F0D9FA00F0F5FA00F011FB07480C
:100E600001F0B2F9064801F0A3FA01F055FB06F0D3
:100E7000C7FD00F025FA06F0DDFDFEE70C020020BC
:100E80001C0300200268034B9A4201D103F082BD8B
:100E9000704700BF0010004072B6FEE7214B0021F2
:100EA0001A6B42F0800200B58BB01A631A6B06A869
:100EB00002F080020192019A1A6B42F002021A6358
:100EC0001A6B02F002020292029A1A6B42F00102BD
:100ED0001A631A6B02F001020392039A1A6B42F032
:100EE00008021A6310221B6B03F008030493049B8F
:100EF00008F060FA40F20B1305A90B480593012393
:100F0000079303F057FE1022002106A808F052FABA
:100F10004FF4806305A90448059303F04BFE0BB022
:100F20005DF804FB00380240000C024008B54FF4A5
:100F30007A7006F0F1FDFAE72DE9F04F4FF0000965
:100F40004FF0010AA34E85B0DFF8BC82A24CA34D3E
:100F5000A349A44886F800A088F8009084F800907F
:100F600085F8009002F0AEFE642006F0D5FD9E48A4
:100F700002F09EFA5146484601F046F9074660B134
:100F800005232B70E22388F8009086F800902370E8
:100F90004FF47A7006F0C0FDFAE703F011FBCF289A
:100FA00020700AD8914B85F800A088F800A037700F
:100FB0001F708F4F386810B9FEE73770F9E74FF0B0
:100FC000FF3201A905F081FD0128F3D198F8003026
:100FD00003F0FF022BB9854B32701B78DBB2237014
:100FE000E8E79DF80430A3F10902052A00F2E98040
:100FF000DFE812F006006E006100BB00DE000E00AC
:101000009DED030A03F074F9CF28207062D976E0D1
:1010100001F03CFC07282CD8DFE800F04141040433
:101020000E2B491E734B1878C0B22B78053B18BFA6
:10103000012388F80030E7E76F4B1A78042A36D08E
:101040001A78032A2DD01A78052A30D01B78062B5F
:101050000CBFE720E520E8E7684B1A78022A22D087
:101060001A78032A21D01B78072B0CBFE520E22039
:10107000DBE7634B1A78022A17D01A78032A16D0B6
:101080001A78052A13D01A78062A10D01A78072A57
:101090000FD01B78082B0CBFE620E820C5E7042002
:1010A000C3E7E620C1E7E720BFE7E120BDE7E22094
:1010B000BBE7E520B9E701F03DFA062850D8DFE8A4
:1010C00000F004044F120D171900012388F80030B6
:1010D00004232370454B00221A7014E0002388F883
:1010E0000030E2230AE0012388F80030E62305E01F
:1010F0000123F4E7012388F80030E723237002F08E
:1011000065FE0028E6D19DF804300A2B40F0C3802C
:101110004FF0010B022043F698225946287086F8BA
:1011200000B001F09BF88146002840F0B78002F043
:10113000E9F90323824643F69822594658462B7014
:1011400001F08CF8002840F0A08004231AF0FD0F75
:101150002B7018BFE2232370012388F800309AE037
:10116000012388F80030E523C8E701F0A1FF01233F
:1011700088F80030092819D801A252F820F000BFE1
:10118000D1100008D1100008A9110008E3100008D0
:10119000AD110008E3100008E31000086711000813
:1011A000ED100008AD110008E123A7E7E823A5E74B
:1011B00001F0D8FD072896BF124BE220185C0123EE
:1011C00037E7023B062B2DD8DFE803F05A383D42C3
:1011D000474C530004000020100600209406002015
:1011E0003C050020A40300202C0400203E07002022
:1011F00020060020BF060020C2060020C0060020F6
:10120000C1060020F0C60008110600200000000002
:101210000000B4420000B4C20000AA420000C8426C
:10122000000034431FED031A1FED080A5FED091A91
:101230000298F0EE610A03F057F8E5E61FED091A8F
:101240001FED0D0AF2E71FED0B1A1FED0E0AEDE779
:101250009DED030A1FED101AE8E79DED030AB1EEBC
:10126000400AF7E71FED120ADDED037A30EE670A58
:10127000F0E71FED150ADDED037A30EE670AEEE7C1
:101280001FED1A1A1FED1A0AD0E705232B70E2236F
:10129000237088F80090002333708BE605232B70B1
:1012A000E2232370002358E710B50446034800F0FA
:1012B000ABFB2046BDE8104000F054BC9402002077
:1012C00008B500F08DFB0B4A00210B4806F0D2FB5D
:1012D0000A4B0B4A002118600A4806F0CBFB0A4B68
:1012E0000A4A002118600A4806F0C4FB094B18603E
:1012F00008BD00BFF0CE00082D0F00080802002036
:10130000CCCE0008390F000804020020A8CE000847
:10131000A91200080002002008B50C494FF4E13280
:101320000B4B08460B600023C1E901230C224B62E2
:10133000C1E90333C1E90523C1E9073305F06DF8BD
:1013400018B1BDE80840FFF7A7BD08BDB4040020F0
:101350000010014008B50C494FF4E1320B4B084630
:101360000B600023C1E901230C224B62C1E9033366
:10137000C1E90523C1E9073305F04FF818B1BDE80D
:101380000840FFF789BD08BD2C040020001401406F
:1013900008B50C494FF416520B4B08460B6000235E
:1013A000C1E901230C224B62C1E90333C1E90523E2
:1013B000C1E9073305F031F818B1BDE80840FFF77F
:1013C0006BBD08BD3C0500200044004008B50C4939
:1013D0004FF4E1320B4B08460B600023C1E90123B7
:1013E0000C224B62C1E90333C1E90523C1E907338C
:1013F00005F013F818B1BDE80840FFF74DBD08BD72
:10140000A40300200048004008B50C494FF4E13225
:101410000B4B08460B600023C1E901230C224B62F1
:10142000C1E90333C1E90523C1E9073304F0F5FF3E
:1014300018B1BDE80840FFF72FBD08BD1C03002010
:10144000004C004008B50C494FF4E1320B4B084604
:101450000B600023C1E901230C224B62C1E9033375
:10146000C1E90523C1E9073304F0D7FF18B1BDE88E
:101470000840FFF711BD08BD940200200050004055
:1014800008B50C494FF416520B4B08460B6000236D
:10149000C1E901230C224B62C1E90333C1E90523F1
:1014A000C1E9073304F0B9FF18B1BDE80840FFF700
:1014B000F3BC08BD0C0200200078004030B5D7B066
:1014C0000446142200210FA807F074FF8422002193
:1014D00014A807F06FFF2368A14A93422BD1402341
:1014E00014A8149303F04CFF08B1FFF7D5FC9D4BF3
:1014F0004FF4C06100205A6C42F010025A645A6CDA
:1015000002F010020192019A1A6B42F001021A6372
:101510001B6B03F001030293029B0223CDE90F131F
:1015200003230FA9CDE9110307238F48139303F079
:1015300041FB57B030BD8D4A934229D14FF400632F
:1015400014A8149303F01CFF08B1FFF7A5FC854B0A
:101550004FF0C00E0FA986485A6C42F020025A6420
:101560005A6C02F020020392039A1A6B42F00402B2
:101570001A6300221B6B03F004030493049B0223F1
:10158000CDE90FE30323CDE9112308231393CEE71D
:10159000784A934232D1802314A8149303F0F0FECA
:1015A00008B1FFF779FC6F4B4FF0600C00240FA9D6
:1015B0001A6C714842F400321A641A6C02F4003258
:1015C0000592059A1A6B42F008021A631B6B03F02E
:1015D00008030693069B0223CDE90FC30323CDE93D
:1015E00011430723139303F0E5FA26202246052131
:1015F00003F006FA262003F035FA9AE75F4A934291
:1016000029D14FF4807314A8149303F0B9FE08B1E4
:10161000FFF742FC534B4FF4406400250FA91A6CAE
:10162000574842F480221A641A6C02F4802207920E
:10163000079A1A6B42F002021A631B6B03F0020353
:101640003593359B0223CDE90F430323CDE9115395
:10165000072313936BE74B4A934236D18022002134
:1016600036A807F0A7FE4FF4007335A8359303F0B2
:1016700087FE08B1FFF710FC3A4B4FF4406000249E
:101680000FA91A6C42F400221A641A6C02F40022A8
:101690000892089A1A6B42F004021A631B6B03F05B
:1016A00004030993099B0223CDE90F030323304868
:1016B000CDE911430823139303F07CFA342022462A
:1016C000062103F09DF9342095E72F4A93425DD11E
:1016D0008022002136A807F06DFE4FF4806335A804
:1016E000359303F04DFE08B1FFF7D6FB1D4B4FF4C9
:1016F0008051002408251A6C1D4842F480121A6497
:101700001A6C02F480120A920A9A1A6B42F00402CE
:101710001A631A6B02F004020B920B9A1A6B42F0D6
:1017200008021A631B6B139503F008030C930C9BC0
:101730000223CDE90F1303230FA9CDE9114303F0D1
:1017400039FA04230FA90C480F93139503F032FACA
:1017500035202246062103F053F935204BE700BF20
:101760000010014000380240000002400014014017
:101770000008024000440040000C024000480040C5
:1017800000040240004C0040005000401D4A9342BB
:101790007FF4CFAE8022002136A807F00BFE4FF475
:1017A000805335A8359303F0EBFD08B1FFF774FBC8
:1017B000154B00240FA915481A6C42F080421A6498
:1017C0001A6C02F080420D920D9A1A6B42F01002D0
:1017D0001A634FF4C0721B6B03F010030E930E9B41
:1017E0000223CDE90F230323CDE9114308231393EB
:1017F00003F0E0F952202246052103F001F95220BE
:10180000F9E600BF007800400038024000100240B6
:10181000FEE7FEE7FEE7FEE7FEE77047014804F05B
:10182000D9B900BF3C050020014804F0D3B900BF7E
:101830001C030020014804F0CDB900BF9402002031
:10184000014804F0C7B900BF0C020020014804F0B1
:1018500067B800BFC40500200D4B82B00F216FF0A8
:1018600001001A6C42F080521A641A6C02F0805225
:101870000092009A5A6C42F480425A6400225B6CD7
:1018800003F480430193019B02B003F0B9B800BF99
:1018900000380240214B1A6C42F0100230B589B07A
:1018A0001A641B6C054601A903A803F010030293F8
:1018B000029B03F047FD069B4BBB03F023FD184A38
:1018C000184B136040F2E733D360174BB0FBF3F3D0
:1018D000013B10465360002313619360936104F051
:1018E00013F9044680B90E4803F0D8FF044658B9EE
:1018F000362003F0B7F80F2D0DD8224629463620A2
:1019000003F07EF8094B1D60204609B030BD03F09E
:10191000F9FC4000D3E70124F6E700BF003802409D
:10192000C40500200010004040420F0014000020B9
:10193000034AD2F8883043F47003C2F88830704705
:1019400000ED00E070B5044648B3184B1B7833B384
:10195000174D2B781BBB174E306800B305F05AF9B2
:10196000E8B92378A3F10A02012A14D90E2B12D068
:10197000114B1A78012A14D102F01EFA01232146D4
:1019800030682B7000231A4604F081FF012807D02D
:1019900000232B7003E001F003FE0028E8D10020B3
:1019A00070BD1B78042BFAD1E6E700BF11060020BA
:1019B000040000202006002094060020074B70B58C
:1019C0001D6804464DB1FEF7E3FD214682B2642353
:1019D0002846BDE8704004F0A0BC70BD9006002011
:1019E00008B500226121042004F028FF044B0022E6
:1019F0000C211860042004F021FF024B186008BD80
:101A00002406002020060020064A07491060002214
:101A10000A8006490A7006490A7010B1012204F0D2
:101A200087BD7047900600202A0600202806002067
:101A30008C0600202DE9F04100239AB0304E00932F
:101A40003368002B3FD083423DD12E4A2E4D136880
:101A50002C78013313602D4B1F780D2F01D00A2FE6
:101A60003CD12B4FB7F80080B8F1000F00D1A4B1E2
:101A7000602200210DF1050007F09CFC424625493B
:101A80000DF105008DF8044007F07DFD224B18682C
:101A9000E0B9224A13680133136000231D4A3B80DA
:101AA0002B70137001221949306804F041FD009B2E
:101AB0004BB14FF0E0234FF08052C3F8042DBFF339
:101AC0004F8FBFF36F8F1AB0BDE8F08100236A46D5
:101AD00001A904F096FF0128DBD1DEE7002CE1D15B
:101AE0000B490C4A08885E2805D8431C17549BB242
:101AF0000B80D454D6E701230C8014702B70D1E7EF
:101B0000900600201C060020280600208C060020DD
:101B10002A0600202C06002024060020140600209F
:101B20000C4B1B6810B48BB183420FD100220A49C1
:101B300008240A8009490A7019680C62C3F88420D5
:101B4000012207495DF8044B04F0F2BC5DF8044B38
:101B5000704700BF900600202A06002028060020BB
:101B60008C0600202DE98048DFF820B3ADF5577DC5
:101B700031AC9B4B186800B9FEE74FF0FF322146AD
:101B800004F0A3FF0128F4D125783DB1954A964889
:101B9000136801331360FFF711FFE9E793490DF173
:101BA000C50007F021FC04460028E1D0904A914985
:101BB000136801331360FEF7E1FCD0B98B4907F0DD
:101BC00013FC044628B1874A8B481368013313601D
:101BD000E1E78A4D02F0EAF8286840B105F01AF80A
:101BE00028B12146286804F088FD854B1C70854883
:101BF000D1E785492046FEF7C1FC002840F0BE80B1
:101C00007A4907F0F1FB0028DDD17D4B1B78002BD2
:101C100000F0AC807D4B7E4C1A787E4B072A08BFC3
:101C20001C464FF4FA7002F03DFE7B4B7B4A0028C5
:101C300018BF1A462C9202F077FE10EE100AFEF73B
:101C40002BFC774BCDE91C011868FEF725FC754B82
:101C5000CDE91E011868FEF71FFC734BCDE920018A
:101C60001868FEF719FC714BCDE922011868FEF7E0
:101C700013FC6F4B1B78DBB227936E4BCDE924012D
:101C8000187800F015FD6C4B28901B78DBB2299377
:101C90006A4B187800F008FF694B2A901B78DBB27A
:101CA0002B93684B187800F00BFF674B05461878AC
:101CB00000F00AFD654B0646187801F08BFC644B7A
:101CC000074693F80080634B5FFA88F893F800901A
:101CD00002F07CF8604B82465FFA89F9187801F0CF
:101CE00089F95E4A2F90107801F090F95C492E90A6
:101CF000087801F0BDFB2D905A48007801F0C4FB34
:101D00002F9B2D992E9A1A904AA819914FF40C7175
:101D100018921195544A9DED247BCDE916A32B9B77
:101D20008DED0A7B9DED227B10932A9B8DED087B28
:101D30009DED207B0F93299B8DED067B9DED1E7BFA
:101D40000E93289B8DED047B9DED1C7B0D93279BB3
:101D5000CDE914890C93CDE912678DED027B2C9BA4
:101D60000093234607F0ACFA4AA814E7304B3F4CE7
:101D70001A783F4BCF2A88BF1C4652E73D49204680
:101D8000FEF7FCFB38B9194907F02EFB00287FF459
:101D90001AAF3948FFE639492046FEF7EFFB002825
:101DA00076D1124907F020FB00287FF40CAF9BF896
:101DB0000030012B05D09BF80030042B01D03048B7
:101DC000E9E60A234AA88DF8283100234B93002323
:101DD0004C93FFF7B7FD08B92A48DCE62A48DAE653
:101DE00024060020140600205DC7000871C7000803
:101DF0001806002074C7000879C7000820060020D4
:101E00000400002086C7000890C700083E07002095
:101E100029C7000820C700083CC7000843C70008BE
:101E200038070020340700200407002000070020A6
:101E300010060020BE060020BC060020C5060020BB
:101E4000C4060020C3060020C2060020D1060020E0
:101E5000D20600203D070020C8060020C70600204B
:101E6000D00600200700002097C7000837C70008E9
:101E700031C70008D2C80008D7C80008C5C9000883
:101E8000CAC90008DFC90008EAC900089406002092
:101E9000AC492046FEF772FB98B9AB4907F0A4FAAB
:101EA00000287FF490AE0D234AA88DF82831002336
:101EB0004B9300234C93FFF745FD00288CD0A3489B
:101EC00069E6A3492046FEF759FB20B1A149204607
:101ED000FEF754FB20BB9C49002007F085FA05461D
:101EE00000287FF470AE20469949FEF747FB002892
:101EF0004AAC4B9514BF0C230B2320468DF8283198
:101F000000234C93FFF71EFD00283FF465AF9DF8BA
:101F10002801914B914A0B2808BF1A4610463AE611
:101F20008F492046FEF72AFB98B9874907F05CFAEB
:101F3000034600287FF447AE0E224B9300234AA8A5
:101F400002708360FFF7FEFC00283FF445AF854830
:101F500021E685492046FEF711FB0646002846D1BA
:101F6000092379494AAD2B7007F03EFA04467649B9
:101F7000304607F039FA064654B348B330AF394615
:101F800006F0FEFF309BB0EE408A9E4220D01B78C8
:101F9000F3B9B5EEC00AF1EE10FA19DDDFED737A90
:101FA000B4EEE70AF1EE10FA12D871492046FEF7B6
:101FB000E5FA30B16F492046FEF7E0FA40B9B1EEDC
:101FC000488A6149002085ED028A07F00DFA28B1A0
:101FD000694A6A48136801331360DCE56860284683
:101FE000FFF7B0FC00283FF4F7AE6548D3E556494B
:101FF000002007F0F9F9634906462046FEF7BEFACD
:1020000000282CD060492046FEF7B8FA002868D096
:102010005E492046FEF7B2FA002864D05C492046AB
:10202000FEF7ACFA002860D05A492046FEF7A6FA1F
:1020300000285CD058492046FEF7A0FA002858D066
:1020400056492046FEF79AFA002854D054492046B3
:10205000FEF794FA00287FF4B6AD082300E00123D0
:102060004AAC2370002E3FF4AEAD3378002B3FF422
:10207000AAAD721E12F8013F002B3ED1002D3FF495
:10208000A2AD30AD0A222B603046294607F04AF84F
:102090002B681F78002F7FF496AD421E42F20F731B
:1020A0009A423FF690AD0023606027493846A3600E
:1020B00007F09AF923780646053B032B22D900281E
:1020C0007FF481AD2049002007F08EF900287FF4CD
:1020D0007AAD2046FFF736FC00283FF47DAE31484C
:1020E00059E50223BCE70323BAE70423B8E7052335
:1020F000B6E70623B4E70723B2E7303B0125092BF7
:10210000B8D960E500283FF463AF29462F6006F098
:1021100037FF2B689E423FF45BAF1B78002B7FF4A8
:1021200057AFB5EEC00AF1EE10FA7FF751AFDFED11
:102130001E7AB4EEE70AF1EE10FA3FF649AF84EDED
:10214000020ABFE7F4C9000871C70008FAC900080D
:1021500005CA00080ACA00084BC7000855C700088E
:102160000DCA000812CA00081CCA00080000B443C7
:1021700020CA000821CA00081406002024CA00084A
:1021800030CA000893CE0008C8C9000808CA000871
:10219000F8C9000839CA00083CCA00083FCA00084C
:1021A00042CA000845CA00080000B4420023034A9E
:1021B0001370034A1370034A137070479706002088
:1021C00096060020950600200A4BFF2210B51860E5
:1021D000094B0A4C1A70022300222370084B1A7014
:1021E000FFF7E4FF28B10122064904F0A1F900B984
:1021F000207010BDA406002006000020050000206D
:1022000094060020A006002037B5104A0346104C63
:10221000106828B9012323702078C0B203B030BD04
:102220000C4AFF258DF80510090A15700A4A8DF829
:1022300004306423009207228DF80610694604F0EA
:102240006CF808B10223E6E72070E5E7A406002059
:10225000050000200600002055550506F8B5134B73
:10226000064614461B6803B11AB9114B01221A70B5
:1022700003E0FFF7C9FF18B10D4B1878C0B2F8BDE5
:1022800002F094FB0B4F054602F090FB431BA34268
:1022900002D3074B0322EAE73B78B34202D1044B57
:1022A0000022E4E70A2005F037FCEDE7A406002051
:1022B0000500002006000020224A0346106810B5E1
:1022C00000283DD098423BD11F4A204B11781B7803
:1022D000032932D8DFE801F0020C121C552B01D182
:1022E0000123137001221949BDE8104004F020B900
:1022F000552B01D10223F4E70023F2E7991E0729A9
:102300001BD813490B700021124B19700323E8E707
:1023100010490C78621CD2B20A700F490B550C4B55
:102320001C78631EDBB29A42DCD3052C05D10B78F6
:10233000082B02D14A78094B1A70FFF737FFD1E713
:1023400010BD00BFA406002095060020A0060020B6
:102350009706002096060020980600200600002020
:102360000A4A116808B579B181420DD1FFF71EFF05
:102370000B6808221A6200230122C1F88430044944
:10238000BDE8084004F0D4B808BD00BFA406002092
:10239000A00600200023034A1370034A1370034A67
:1023A00013707047AB060020AA060020AC06002080
:1023B00008B5094B094A186000231370084A1370C6
:1023C000084A1370FFF7E6FF28B101220349BDE870
:1023D000084004F0ADB808BDB8060020B4060020DF
:1023E000A9060020A8060020114A034613B510686C
:1023F000D0B1012B16D0022B16D132230D4A0DF18C
:1024000007018DF8073000230B4C13702370FFF782
:10241000C1FF6423012203F080FF38B90123237038
:1024200002B010BD3123E9E70120F9E70220F7E708
:10243000B8060020A9060020A8060020EFF31082AD
:1024400072B6044B002118781970C0B202B962B696
:10245000704700BFA90600201B4A38B50346106824
:10246000002830D098422ED1184B1C780D2C14D057
:10247000174B0A2C1A7816D16AB9164B197801290C
:1024800009D1154B1B78312B05D1144B1C7814B195
:10249000134C21701A70FFF77DFF01220B49BDE834
:1024A000384004F045B8002AF7D10A4D29780629AA
:1024B00095BF4B1C0122DBB21A709FBF2B70064DDB
:1024C0006C54EA54E9E738BDB8060020B406002091
:1024D000AA060020AB060020AC060020A8060020BB
:1024E000A90600200A4A116808B579B181420DD1C8
:1024F000FFF750FF0B6808221A6200230122C1F87F
:1025000084300449BDE8084004F012B808BD00BF9B
:10251000B8060020B40600200023034A1370034AC3
:102520001370034A13707047BE060020BD060020DA
:10253000BC0600202DE9F74F0023584A584C594D4E
:102540002370137001F038F8431E0090DBB2052BA6
:1025500003D908232B70052311E001262E7000F00B
:102560005DF9B04207D107232B7020702078C0B2EC
:1025700003B0BDE8F08F20B108232B700623237031
:10258000F4E74FF00408484F032343F698223146FE
:10259000304685F800803B70FFF760FE30B10823BD
:1025A0002B70052384F800803B70DFE7DFF8FC9098
:1025B00099F800301BB107232B702670D6E74FF037
:1025C000020A364B01201E7085F800A0FFF70CFFB1
:1025D00020B108232B7084F800A0C7E702F0E6F9C9
:1025E000804602F0E3F942F20F73A0EB0800984234
:1025F00006D9062303202B70012320703B70B7E718
:1026000099F80030002B43D1FFF718FF18B90120CB
:1026100005F082FAE5E74FF0030B43F6982201211B
:10262000022085F800B04FF0040887F800A0FFF7FB
:1026300015FE0028B3D100F065FF0121019043F69B
:102640009822084685F8008087F800B0FFF706FE5C
:10265000019B0028A3D113F0FD0F87F800807FF4C1
:1026600078AF022B03D107232B70012387E799F85A
:10267000003003F0FF02002BF5D10136009BF6B2CB
:10268000B3429ED205232B70227087F800806DE73D
:10269000012007232B702070387069E7BC060020EA
:1026A000BD060020BE060020940600203D07002045
:1026B00008289ABF024B53F820000248704700BF19
:1026C00048CF00084ACA000806289ABF024B53F8B0
:1026D00020000248704700BF2CCF00084ACA0008FB
:1026E0009FED071A10B5F0EE410AB0EE410A01F075
:1026F000D3FA044608B101F025F8204610BD00BF0A
:10270000000000002DE9F04F2DED028B85B08246D0
:10271000019102F04BF980464FF4FA7002F0C2F8D2
:1027200040B90425FFF7DCFF284605B0BDEC028B5D
:10273000BDE8F08F0027DFF8E0B0DFED358A01F06B
:10274000AFFA3E4602F032F94FF480710446314848
:1027500002F014FB012102902E4802F00FFB02212F
:1027600081462C4802F00AFB08210546294802F060
:1027700005FB9BF80010024629B1FFF7B1FF0028C6
:102780003CD10125D0E7019B3BB1A4EB08015145A9
:1027900003D30225FFF7A4FFC6E74FF4FA700392B4
:1027A00002F080F80028BCD0029B4BB345EA090533
:1027B000039AEDB26DB91AB3FFF792FF002F08BF6D
:1027C00026460546D0B9A41B312C1CD901F068FA65
:1027D000AAE7B3EE098A002AFBEE097A08FE278AE7
:1027E000B3EE090A01F0FCF9F0EE480AB0EE401A27
:1027F000B0EE680A01F050FA074628B1032593E7C6
:10280000B3EE098AECE70127142005F085F999E772
:1028100000000000000C02403D070020012141F2B1
:102820008830FFF76FBF00210846FFF76BBF00003D
:1028300008B5054B1B782BB901F0C8FA003818BF52
:10284000012008BD0120FCE73D0700209FED071A8D
:1028500008B5F0EE410AB0EE410A01F01DFA18B1D8
:10286000BDE8084000F06EBF08BD00BF00000000DA
:1028700008B5FFF7EBFF034B0E221A700122024B43
:102880001A7008BDC5060020C30600202DE9F04FD0
:1028900000237B4A7B4C7C4DDFF8FCA1DFF8FCB1C8
:1028A000DFF8FC812DED028B83B023701370774A23
:1028B0002B7013708AF800308BF8003088F80030E5
:1028C00000F06EFE002800F08180DFF8D89199F8C2
:1028D0000030012B03D099F80030042B76D16C4ED8
:1028E00000279FED6C8AFBB2654A13707B1E0A2B92
:1028F00007D8DFE803F0131517191B1D231F212329
:10290000250001232370FFF793FFD8B1FFF7B0FF35
:10291000012003B0BDEC028BBDE8F08F0223F1E78C
:102920000323EFE70423EDE70523EBE70623E9E7BD
:102930000723E7E70923E5E70B23E3E70823E1E7BC
:102940000C23DFE73378052B19D8DFE803F00320E9
:1029500035476A58F0EE481A96ED031ADFED4D0A36
:1029600096ED020A706801F0BFFC88F8000001F0E3
:102970002DFA0028CAD198F80030CF2B6FD9FFF775
:1029800065FF0F230220237002232B70C1E796ED11
:10299000020A01F0ADFC88F8000001F017FA0028E7
:1029A000B4D198F80030CF2B59D9FFF74FFF0F2340
:1029B000032023702870ACE7FFF7BCFD334A10708A
:1029C0001378012BA2D01378002B48D0FFF73EFFDD
:1029D0000F230420237004232B709AE700F068FB78
:1029E0008AF800009AF80030012B8FD09AF8003056
:1029F000ABB3FFF72BFF0F2305202370DAE700F0BE
:102A0000B1F98BF800009BF80030012B3FF47EAF4A
:102A10009BF800301BB3FFF719FF0F23072023702B
:102A2000C8E74FF0030340F6B8320121307C89F843
:102A30000030FFF713FC0190FFF7FAFE00287FF447
:102A400065AF019B43B1052389F80030FFF7FEFE17
:102A50000F2306202370ADE7042389F80030FFF729
:102A6000E7FE00287FF452AF013714360C2F7FF4B5
:102A70003AAF0190FFF7EAFE0D230198237099E722
:102A8000C4060020C5060020C3060020C2060020A0
:102A9000CCCF000800000000C1060020C0060020C6
:102AA000BF060020940600200F289ABF024B53F85F
:102AB00020000248704700BF8CCF00084ACA0008B7
:102AC00007289ABF024B53F820000248704700BF06
:102AD0006CCF00084ACA0008D02807D0E12805D0EA
:102AE000CF2894BF0020012080007047032070474A
:102AF000024B1878003818BF012070473D070020AE
:102B00000238024BC0B2185C704700BF6CD100089D
:102B10009FED061A08B5F0EE410AB0EE410A01F049
:102B2000BBF810B100F00EFE042008BD000000004C
:102B300070B50E4E337813B10124204670BD0121CB
:102B4000FFF762FB044678B901F030FF054601F05B
:102B50002DFF431BB3F57A7FEFD23378002BEBD1F7
:102B60000A2004F0D9FFF2E70524E6E73D0700203C
:102B700038B5FFF7CDFF00BB134C2378A3B9012074
:102B8000FFF732FCD8B901F011FF054601F00EFF46
:102B9000431BB3F57A7F237803D303F0FF0023B1FF
:102BA00000E01BB1FFF7B4FF022038BDFFF746FC81
:102BB00038B9012004F0B0FFE8E70320F5E704206E
:102BC000F3E70120F1E700BF3D070020F8B51D4EF7
:102BD0000C461D4F30703B780BB10220F8BDDFED85
:102BE0001B1A5A209FED1A1AF0EE610A9FED190A7E
:102BF00001F07AFB054601F0E9F80028EDD12846FE
:102C0000FFF76AFF032819D0B0B9FFF781FF98B921
:102C10003B78002BE1D13470FFF7AAFF431E032B52
:102C20000ED801A252F823F0DD2B0008DB2B0008A0
:102C3000392C0008DD2B00080320CFE70520CDE765
:102C40000020CBE7C80600203D0700200000000060
:102C5000000020420000344308B5FFF7EFFB10B13D
:102C60000120014B187008BDC6060020054B1870E6
:102C7000054B10B921221A70704701280CBF22227F
:102C80002322F8E7C7060020C806002008B5064B37
:102C90001B7803F0FF002BB1FFF73AFF002814BFA9
:102CA0000420012008BD00BF3D070020104BDFEDD0
:102CB000111A9FED111AF0EE610A9FED100A10B57E
:102CC0001870752001F010FB044601F07FF850B930
:102CD0002046FFF701FF38B9FFF71AFF28B9BDE812
:102CE0001040FFF7D3BF012010BD0420FCE700BF58
:102CF000C80600200000000000002042000034430D
:102D000008B5084B1B784BB944F620620121FFF748
:102D1000A5FA28B9BDE80840FFF7B8BF012008BDF3
:102D20000520FCE73D07002038B50C4D14462970FE
:102D3000FFF7E6FF70B92C70FFF7A8FF50B90848FD
:102D400000F06CFB042804D028B9BDE83840FFF738
:102D50009DBF012038BD0620FCE700BFC80600204B
:102D6000F12A00082DE9F7430023994D994C2B7067
:102D7000237000F075FB18B90620232320700CE0A7
:102D800001262E70FFF74FFD04280ED8DFE800F073
:102D90000F030D0B0900222326702B7003B0BDE832
:102DA000F0830320E9E70420E7E70220E5E7DFED11
:102DB0008A1A02239FED891A1420F0EE610A9FED12
:102DC000880A2B7001F090FA044600F0FFFF70B9FA
:102DD0002046FFF781FE28B9FFF79AFE48B9FFF7B2
:102DE00055FF40B103B0BDE8F043FFF73FBF0120FE
:102DF000F8E70420F6E719230B202B70FFF798FE65
:102E0000044668B91A232B70FFF7B2FE012809D1D6
:102E10001E221D210C20FFF787FF0446002832D018
:102E20002046DFE778B3FFF76BFE04460028F7D1B2
:102E30000C2308202B70FFF77BFE0028D2D1694EAF
:102E4000694FDFF8AC81002C3AD163000D33DBB25F
:102E50002B70FFF78DFE012803467FD11522142128
:102E60000920FFF761FF0028BCD10134042CEAD10E
:102E7000182307202B70FFF743FF0028B2D117203B
:102E8000FFF714FF6EE01C211B20FFF79FFE0128B7
:102E900013D11E221D210C20FFF746FF04460028F7
:102EA000BED11F230A202B70FFF72AFF04460028FB
:102EB000B6D12020FFF7FAFEB7E70028F1D0B2E73D
:102EC000012C14D0022C0CBF102312232B700023D2
:102ED0008DF8073033703B785BB1022318F803009C
:102EE00000287FF47FAF032CAFD11323B0E70E236C
:102EF000ECE70120FFF778FA60BBDFED371A0DF140
:102F000007023A495A20F0EE610A9FED341A9FED0C
:102F1000340A00F061FF814600F058FF0028DCD140
:102F20004846FFF7D9FD032816D008B10323D5E79B
:102F3000FFF7EEFD0028F9D13B78002BCDD19DF8AD
:102F400007302BB93378003B18BF0123DBB2C5E74C
:102F50000123FBE70423C1E70523BFE7002884D052
:102F6000FFF7CEFD00287FF43DAF032305202B7033
:102F7000FFF7DEFD00287FF435AF04232B70FFF749
:102F8000F7FD01281BD1062107220846FFF7CCFEDA
:102F900000287FF427AF08210520FFF717FE01283E
:102FA00012D1062107220846FFF7BEFE00287FF453
:102FB00019AF0B2300202B70FFF7A2FE12E70028A9
:102FC000E9D0FFF79DFD0DE70028F2D0F9E700BF3B
:102FD000C8060020C70600200000000000002042B4
:102FE00000003443C60600203D070020592C00088D
:102FF00072D1000823289ABF024B53F820000248E0
:10300000704700BFDCD000084ACA000807289ABFF2
:10301000024B53F820000248704700BFBCD00008A4
:103020004ACA0008024B1878003818BF01207047C0
:103030003D0700209FED071A10B5F0EE410AB0EEF3
:10304000410A00F029FE044608B100F07BFB20464F
:1030500010BD00BF000000000A4B10B51B7803F044
:10306000FF0423B10124FFF7E5FF204610BD4FF414
:10307000FA7001F017FC0028F7D10224FFF7DAFFFD
:10308000F3E700BF3D07002010B501F08FFC0446B8
:1030900001F08CFC031B4F2B01D9002010BDFFF762
:1030A000DBFF0028FAD1142004F036FDF0E7000021
:1030B0002DE9F0474FF4FA702DED048B01F0F2FB8F
:1030C00038B90224FFF7B6FF2046BDEC048BBDE8FB
:1030D000F0874FF0000800F0E3FD41F2873901F07E
:1030E00065FC474606469FED7E8A01F05FFC05467B
:1030F000FFF7B2FF044628B9AB1B4B4505D90424A2
:10310000FFF798FFFFF796FFDEE74FF48061754801
:1031100001F034FE30B9B8F1000F14D0ED1B1D2DB5
:1031200019D84446B3EE090A00F05AFDFBEE090A2D
:10313000B0EE401AB0EE480A00F0AEFD30B1032404
:10314000FFF778FFDEE72F460124EBE71420A046C7
:1031500004F0E2FCC9E7FFF76DFF08B10324B3E711
:10316000FFF792FF04460028AED103205E4E0121F6
:103170003070FFF749F8044610B105243470A3E716
:1031800001F014FC594F054601F010FC431BB3F548
:103190007A7F30D304233370002C95D1544F072409
:1031A00000F07EFD01F002FC814601203C70FFF73B
:1031B0001BF90546002887D101F0B6FBB0EE408A26
:1031C000DFED4C8A9FED4C9AB4EEE88AF1EE10FAEE
:1031D00065D5FFF741FF044600287FF475AF01F085
:1031E000E5FB43F69723A0EB090098420BD909248D
:1031F000FFF720FF68E73B781BB9142004F08CFC34
:10320000C2E74446C6E701F08FFB032DB0EE408ACB
:1032100040D8FFF713F900283CD001F0C7FB8246E5
:10322000FFF708FF80BBFFF72FFF044650B90223CA
:1032300044F62062012104203370FFF70FF858B1E3
:103240000524347001F0B2FB002C7FF43DAFA9EBF4
:103250000A0A0AEB0009B7E7284800F0DFF804285B
:1032600016D098B9042301353370EDB21F4B1B788B
:1032700003F0FF0463B9042DE4D00120FFF7B4F894
:10328000041E18BF0724DDE70324DBE70624D9E783
:103290004446D7E7B4EEE88AF1EE10FA0FDBFFF709
:1032A000C9FE00287FF45AAFFFF7EEFE044600285F
:1032B0007FF40AAF00F0F4FC04233B7004E7B0EEA7
:1032C000491ADFED070A9FED0E0A00F0E5FC10B188
:1032D000FFF7B0FE42E7142004F01EFC74E700BFC5
:1032E00000000000000C0240940600203D07002072
:1032F0003E0700200000B043000044422530000893
:10330000000078C238B5094D094C30B903232B7041
:10331000012323702078C0B238BD00F085FA054B38
:103320004FF452721A6000232B70F2E7D00600208F
:1033300007000020CC06002008B500F087FA00380E
:10334000064B18BF0120400018701A78002A044A62
:1033500014BF032101211170187808BD0700002057
:10336000D006002038B50E4D0E4C2B78012B04D022
:10337000012323702078C0B238BD00224FF4A0632F
:103380006421104600F096FA003818BF0120400072
:103390002070237813B902232B70EBE70323FBE79C
:1033A000D0060020070000202DE9F843184D044600
:1033B0002B78022B06D0174B01221A701878C0B256
:1033C000BDE8F88301F0F2FADFF84C80074640F2DE
:1033D000DB5901F0EBFAC61B3CB1A04728B100F065
:1033E0004FFA04220B4B2A70E7E7D8F800309E42D0
:1033F00004D3012300222B70064BDEE74E4503D990
:1034000000F03EFA0322EDE70A2004F085FBE0E736
:10341000D006002007000020CC06002010B504468E
:10342000FFF7A0FF20B92046BDE81040FFF7BCBF62
:1034300010BD000008B500F023FA0038064B18BF95
:103440000120400018701A78002A044A14BF032192
:1034500001211170187808BD07000020D006002057
:10346000024B1878431E584258417047D00600203E
:1034700004289ABF024B53F820000248704700BF4F
:103480008CD100084ACA000804289ABF024B53F89E
:1034900020000248704700BF78D100084ACA0008DF
:1034A000024B1878003818BF012070473D070020F4
:1034B00038B5114A0023114C1370114D23700323AA
:1034C0002B70FFF71FFF10B9FFF736FF28B1042854
:1034D0000BD003280CBF0520042028702B7833B1B3
:1034E000052323702878C0B238BD0220F5E7C82034
:1034F00004F012FB0123F4E7D2060020D1060020DD
:1035000008000020F8B5224D224C2B78012B0BD05F
:103510002B78032B08D02B78042B14BF0323012313
:1035200023702078C0B2F8BD1B4E3378052B03D929
:1035300004232B700123F3E7FFF7B2FF18B1062332
:103540002B700223ECE7022714482F70FFF766FF69
:1035500028B1042811D003280CBF052004202070B6
:10356000237863B933780133DBB233703378052BBA
:1035700094BF032304232B70D3E73846EFE7237867
:10358000022B01D10623F6E7FFF754FF0523F2E7EC
:10359000D106002008000020D2060020A134000837
:1035A000044B1A78012AD0B203D01878C31E5842AF
:1035B00058417047D1060020054B1A78052A04D8D7
:1035C0001878C0F10600C0B270470020704700BFF5
:1035D000D206002006289ABF024B53F8200002486A
:1035E000704700BFA0D100084ACA000838B50C4B8C
:1035F00004460A460B4D186818B901242C70204661
:1036000038BD2146642302F088FE0446287018B9AC
:10361000054A136801331360022001F0CDF9EEE78B
:10362000D8060020D3060020D4060020F32307B5D7
:103630008DF8013040F2AB1306218DF80000ADF893
:10364000023046F601336846ADF80430FFF7CEFF8E
:1036500003B05DF804FB000007B50421044B0DEB3B
:1036600001000193FFF7C2FF03B05DF804FB00BF48
:1036700000FF666BFE2307B58DF801304FF4CC7365
:1036800005218DF80000ADF802306B2368468DF8F7
:103690000430FFF7ABFF03B05DF804FB93B2002AE0
:1036A000B8BF5B4207B5B8BF9BB240F2DC52B8BFAF
:1036B00081F001018DF80000934268468DF80210F8
:1036C0004FF0080128BF1346F6228DF804308DF81C
:1036D00001201A0A00238DF803208DF8053046F6E4
:1036E0000133ADF80630FFF781FF03B05DF804FB4E
:1036F000034B044A186000231360034A1370704799
:10370000D8060020D4060020D3060020F8B50120FA
:10371000FFF78CFF06460220FFF788FF07460320CD
:10372000FFF784FF3E4305460420FFF77FFF044672
:103730003543FFF791FF2C432043C0B2003818BF38
:103740000120F8BDF8B50120FFF794FF06460220DE
:10375000FFF790FF07460320FFF78CFF3E43054627
:103760000420FFF787FF04463543FFF775FF2C431E
:103770002043C0B2003818BF0120F8BD10B5044680
:10378000F8B10121B0F900200846FFF787FF014694
:10379000B8B9B4F902200220FFF780FF88B90121EF
:1037A000B4F904200320FFF779FF014648B9B4F9C2
:1037B00006200420FFF772FF18B9BDE81040FFF79C
:1037C0004BBF012010BD000038B50D4B04460A4622
:1037D0000C4D186818B901242C70204638BD2146BC
:1037E000642302F09AFD044628700028F5D1064AA9
:1037F000022013680133136001F0DEF8EDE700BF2B
:10380000E006002009000020DC06002007B50421A6
:10381000044B0DEB01000193FFF7D6FF03B05DF8F9
:1038200004FB00BF00FF666B054B00221860B0FA76
:1038300080F0044B40091A60034B1870704700BFBA
:10384000E0060020DC060020090000200A4B07B536
:10385000186806219B8800906846ADF80430FFF791
:10386000B3FF28B1054B1878C0B203B05DF804FB74
:10387000FFF7CCFFF9E700BFC9CC00080900002022
:1038800007B50A4A052110681279009068468DF83C
:103890000420FFF799FF28B1054B1878C0B203B098
:1038A0005DF804FBFFF7B2FFF9E700BFD0CC0008DA
:1038B0000900002001281FB501D801B12BB91A4B0E
:1038C000012201201A7004B010BD0A246143B1F531
:1038D000803FF4D28DF805201A0E8DF80200080AF8
:1038E0008DF806201A0C5BBA4FF605548DF80300CC
:1038F0006846ADF808304FF480738DF804100D2140
:10390000ADF80A306B23ADF800408DF807208DF834
:103910000C30FFF759FF18B1034B1878C0B2D2E74B
:10392000FFF774FFCFE700BF0900002098B170EEE9
:10393000607A30EE200A37EEC17A77EE817A80ED38
:10394000007A30EE017A30EE410AC0ED037A80ED64
:10395000017A80ED020A7047F0EE404A002861D0FB
:10396000B5EEC00AF1EE10FA5CD990ED006AD0ED28
:10397000016AB5EEC06AF1EE10FAF5EEC06A4CBF0E
:10398000B1EE467AB0EE467AF1EE10FA4CBFF1EEA7
:10399000667AF0EE667AB4EEE77AF1EE10FA54BF8A
:1039A000F0EE475AF0EE675A90ED027AB5EEC07A23
:1039B000F1EE10FA4CBFF1EE477AF0EE477AF4EEF2
:1039C000E75AF1EE10FA54BFB0EE655AB0EE675AFE
:1039D000D0ED037AF5EEC07AF1EE10FA4CBFF1EEBD
:1039E000675AF0EE675AB4EEE55AF1EE10FA58BF96
:1039F000F0EE455AB4EEE50AF1EE10FA12D584EE77
:103A0000A50A26EE006A66EE806A27EE007A67EE67
:103A1000807A80ED006AC0ED016A80ED027AC0ED27
:103A2000037A7047B7EE000A7047000010B586B001
:103A3000044602A8FFF77AFF9FED360A02A8002C81
:103A400065D0FFF789FF84ED000AB2EE045A9DEDC0
:103A5000026A314BF6EE005ADDED036A684683EDEB
:103A6000006A26EE056A2D4B9DED047AB5EEC06A1C
:103A7000C3ED006A66EE856A294BDDED057AF1EE4D
:103A800010FA83ED007AF5EEC06A264B27EE057A30
:103A9000A8BF36EE256AC3ED007AB8BF36EE656A78
:103AA00067EE857AF1EE10FAB5EEC07ABDEEC66A21
:103AB000ACBF76EEA56A76EEE56AF1EE10FA16EE88
:103AC000103AF5EEC07AFDEEE66AADF80030ACBF14
:103AD00037EE257A37EE657AF1EE10FA16EE903A67
:103AE000BDEEC77AADF80230ACBF77EEA57A77EEBF
:103AF000E57A17EE103AFDEEE77AADF8043017EEEE
:103B0000903AADF80630FFF739FE06B010BDFFF76A
:103B100023FF9AE700001643140700201007002037
:103B20000C07002008070020144B10B52DED028B68
:103B30001A7802F0FF0092B19FED118A0020114C1B
:103B4000B0EE481A1870F0EE480AB0EE480AFFF7D7
:103B50006DFF38B1FFF7F6FDE22302202370BDECC4
:103B6000028B10BD084B0120187004232370074BF3
:103B700083ED008A064B83ED008AF0E73D070020C5
:103B8000000000003E0700203C0700201C0700202A
:103B90001807002010B52DED028B9FED0D8A04460D
:103BA0000020B0EE481AF0EE480AB0EE480AFFF7DF
:103BB0003DFFFFF7C7FD074B074A1C7082ED008AE7
:103BC000064A82ED008A1878BDEC028B10BD00BF5A
:103BD000000000003E0700201C07002018070020FE
:103BE00008B52DED028BB0EE408A00F09DFEF1EE9F
:103BF000407A9FED246AB5EE007A234BB5EEC08A79
:103C0000D3ED006AF1EE10FAB5EEC00A48BFB1EE8E
:103C1000488AF1EE10FA28EE078A9FED1C7A30FEF2
:103C2000270AB4EE460AF1EE10FA98BFF0EE477A92
:103C300077EEE66AC3ED007A37EEA77A06EE867A6B
:103C4000F2EE006AB4EEE68AF1EE10FA54BFB0EE7E
:103C5000660AB0EE480AB4EEC07AF1EE10FA07DC5C
:103C6000B1EE400AB4EEC70AF1EE10FA30FE070AD0
:103C7000074BC3ED007A074BBDEC028B83ED000AC6
:103C800008BD00BF9A99193EE4060020000000001C
:103C900038070020340700200020FFF7C7BE0000CF
:103CA00008B500F029FE0023034A1360034A13609D
:103CB000034A136008BD00BFE40600203807002057
:103CC0003407002010B50C46FFF712FD204600F027
:103CD000A5FC00231B4A4FF07E501B4913601B4A72
:103CE00013601B4A136000220A701A490A601A49BD
:103CF0000B601A490B601A490B601A490B601A498C
:103D00000B601A490B601A490B601A490B601A497B
:103D10000B601A4908601A490B601A490B601A496E
:103D20000B601A490B601A490B601A490B601A4B59
:103D30001A701A4B1A601A4B1A701A4B1A701A4BD7
:103D40001A7010BDE406002030070020380700205C
:103D5000340700202C07002028070020240700201B
:103D6000200700201C07002018070020140700204F
:103D7000100700200C070020080700200C0000207E
:103D80000407002000070020FC060020F8060020A1
:103D9000F4060020F0060020EC060020E8060020D3
:103DA0003E0700203D0700203C070020014B012278
:103DB0001A7070473D0700200023024A1370024A20
:103DC000137070473D0700203C070020014B187816
:103DD000704700BF3C0700202DE9F04F2DED108B00
:103DE00085B0F0EE609AB0EE418A0AEE100AF0EE6D
:103DF000618A914600910AB100231370DFEDD27AF7
:103E0000D24CB4EEE70AF1EE10FA29DB9FEDD0FABE
:103E1000B4EECF0AF1EE10FA22D89FEDCECA20EE12
:103E20000C0AC0EE0FAAB0EE6A0A07F05FFCB0EE13
:103E3000409AB0EE6A0A07F091FCF8EE4A7A60EE1A
:103E400027AA29EE279A2AEEAA0A09EE090A07F0FC
:103E50002BFCB5EEC00AB0EE40AAF1EE10FA08D87D
:103E6000E32323702078C0B205B0BDEC108BBDE811
:103E7000F08FC9EE00EA9FEDB8DA8AEE80BAF5EE6F
:103E8000C0EAF1EE10FA4CBFF1EE6E7AF0EE6E7A07
:103E9000F4EECD7AF1EE10FA40F30F81B5EEC0BA30
:103EA000F1EE10FA4CBFF1EE4B7AF0EE4B7AF4EEF5
:103EB000CD7AF1EE10FACCBF06230523B5EEC0AAE9
:103EC000DFEDA6AAF7EE00DAF1EE10FACDED02DA98
:103ED000C6DD6BEE0B7A4EEEAE7AF4EECD7AF1EEF5
:103EE00010FABDD9F4EEEA9AF1EE10FAB8DBB4EEAE
:103EF000EA8AF1EE10FAB3DDF4EEEA8AF1EE10FA96
:103F0000AEDBF4EEC89AF1EE10FAA9DCB4EEE88A62
:103F1000F1EE10FAA4D4F4EEC89ADFED916AB6EE91
:103F2000006ADFED90CA38EE289AF1EE10FAB4EE8E
:103F3000E88A29EE069A54BFB0EE6AEAB0EE66EA65
:103F400079EE887AF1EE10FA29EE2C9A67EE867AED
:103F500076FEAABA29EE2B9A67EEAC7AB0EE497AD1
:103F600007EE8E7AB4EEC7AAF1EE10FA3DD57EEEDA
:103F70002B5AF5EEC05AF1EE10FA36DD7AEE0A7AD7
:103F800087EEAC7A09EECE7A08EEEB7AC7EE257AA8
:103F9000F4EEE79AF1EE10FA79FEA77AF4EEE78AEA
:103FA000F1EE10FA78FEA77AB4EEE78AF1EE10FA95
:103FB00058BFB0EE678AF4EEC89A38EE889AF1EEF0
:103FC00010FAF4EEC88A29EE069A54BFB0EE6AEAF7
:103FD000B0EE66EAF1EE10FA29EE2C9A54BFF0EE3C
:103FE0006ABAF0EE66BA29EE2B9AF0EE6E0A2370EA
:103FF000B0EE4B0A5C4D07F055FB20EE0F0A5B4B11
:104000004FF00008DFF880A1C0EE0C7A9FED53CA94
:10401000C3ED007A564BC3ED00EA564B83ED00BA70
:10402000554BC5ED009AC3ED009A544BC3ED00DA31
:10403000534BCAED00AA83ED00AA00F0B7FC064678
:1040400083460346019300F0B1FC019B0746CDED8A
:1040500003DAC31A0EEE903A831B0BEE103AFFF709
:1040600063FD00287FF4FEAEB5EEC0CADAED007A3B
:10407000F8EE6EEA009BF1EE10FA48BFB1EE4CCAC2
:104080002CEE2CCA4CEE2E7ACAED007AFBB1984782
:10409000E8B19FED321A0020374EF0EE410AB0EE43
:1040A000410AFFF7C3FC50B1FFF74CFBE22323703A
:1040B000C5ED00AAC6ED00AAD4E60523FEE6B9F1D7
:1040C000000F02D0012389F800300423EFE7B8F194
:1040D000000F29D1B5EE40EAF1EE10FA00F0B380FE
:1040E000B8EE4BBAB4EECBEAF1EE10FA40F2AB8088
:1040F0008BEE0E7A78EE697AB0EE69BA07EE87BA7F
:10410000204B1B78002B00F0A3804FF4FA7000F0D6
:10411000C9FB002840F09C80E12005B0BDEC108B6D
:10412000BDE8F04FFFF736BDB8F1010F2ED13AEEE2
:10413000497ADAED007AB0EE48BAB4EEE77AF1EEF9
:1041400010FADDD83E467BE0000034C33E07002075
:1041500000003443DA0F494017B7D138000000009F
:1041600000009643FCAD803B1C0700202807002080
:104170002407002020070020180700200C00002042
:10418000000700203007002004070020F5EE40BAA9
:10419000F1EE10FA0DD0B8EE4BBAF4EECBBAF1EE68
:1041A00010FA06D9DAED007AB4EEE7AAF1EE10FAC9
:1041B0003ED8FFF7B9FC00287FF454AE434E337865
:1041C0002BB14FF4FA7000F06DFB0028A4D03378C7
:1041D000002B78D0B0EE680AFFF702FDB0EE401A6F
:1041E0003B4B02A893ED000A3A4B28EE800AD3ED30
:1041F000000A68EEA00AFFF719FC00283FD1F4EE90
:10420000CD8ADDED027A344BC5ED008AF1EE10FA6D
:10421000C3ED007A68EEA77A304BC3ED007A3FF623
:1042200021AE04222270C5ED00AAC3ED00AA19E652
:104230008BEE2B7A78EEC87AB0EE48BA07EE87BAE2
:104240004FF002085CE7B0EE48BA4FF0010857E7BC
:104250001E4B1B78ABB1B0EE4B0AFFF7C1FCB0EEC2
:10426000401A1B4B03A893ED000A1A4B2BEE000AD1
:10427000D3ED000A6BEE200AFFF7D8FB20B1E22055
:104280004BE79FED171AECE7DDED037A0BF1140B0A
:10429000114B2BEE27CA85ED00BAC3ED007A0F4B08
:1042A00083ED00CA00F082FB0346ABEB0000002860
:1042B00003DD00F081FB3B46C4E60A499B460A68E1
:1042C00001320A60F7E79FED061A89E73007002000
:1042D00024070020200700200C00002018070020E1
:1042E000000000002C07002000221146FFF774BDDB
:1042F000B5EEC00A2DE9F04FF1EE10FA9F4D2DED0D
:10430000048BF0EE408A85B00CD408D9F0EE407AE8
:104310009FED9B7AF4EEC77AF1EE10FA05DDE32308
:104320002B7052E0F1EE407AF2E74FF4FA7000F0B1
:10433000B9FA08B9E123F3E707239FED928ADFF882
:1043400074922B700023DFF87082DFF870A28E4C1D
:104350008E4F8F4EC9ED008A88ED008ACAED008A23
:1043600084ED008A3B703360FFF79AFC894B4FF075
:104370007E529FED899A83ED008A884BDFED888A13
:1043800083ED008A874B1A6000F010FB8346019092
:1043900000F00CFB4FF07E530393019BC01A30607A
:1043A000FFF7C2FBC0B14FF4FA7000F07BFA08B11E
:1043B000FFF776FC002389ED008A88ED008A8AEDFC
:1043C000008A84ED008A3B7033602878C0B205B063
:1043D000BDEC048BBDE8F08F4FF4FA7000F062FA88
:1043E00048B9E12084ED008A05B0BDEC048BBDE83E
:1043F000F04FFFF7CFBB3368B3F5FA5F06D3E42085
:1044000084ED008AFFF7C6FB2870CCE700F08CFA39
:1044100088ED000AD9ED006AD8ED007A76EEE76AF9
:10442000F5EEC06ACAED006AF1EE10FA4CBFB1EECB
:10443000667AB0EE667AB4EEC97AF1EE10FA29D84F
:104440009FED501A03A884ED008AF0EE410AB0EE09
:10445000410AFFF7EBFA08B1E220C5E7039A514B96
:104460001A604A4A13780133DBB213701378042BB5
:1044700071D90190FFF714FC01980423434A89ED98
:10448000008A88ED008A8AED008A84ED008A107027
:10449000306045E7F3EE0E7A00233B70B4EEE77A26
:1044A000F1EE10FA4EDAB2EE046AF2EE0E7AB4EEE3
:1044B000C67AF1EE10FAA5BF37EE467AF3EE045A4B
:1044C000C7EE065A87EE256AAABF9FED377A65EEDA
:1044D000A77A46EE077A3368F92B36D896ED006A4C
:1044E000DFED325AB8EE466A86EE257A27EE287A54
:1044F000F4EEC77AB2EE006AF1EE10FAB4EEC67AC4
:1045000077FE277AF1EE10FA06DBF4EEC67AF1EECA
:1045100010FA48BFF0EE467AF5EEC06ADFED190AF0
:1045200003A8B0EE600AF1EE10FAD8BFF1EE677A98
:10453000C4ED007A94ED001AFFF778FA40B184EDEB
:10454000008A89E7F0EE687AC5E7B0EE687ACFE7CF
:10455000039A144B1A600BF1140B00F027FA034670
:10456000ABEB0000002802DD00F026FA10E710494E
:104570009B460A6801320A600AE700BF3E07002036
:104580000000B44300000000F0060020EC0600200C
:10459000E80600201C070020CDCC4C3F1807002067
:1045A000000070420C0000200000344200007A43FA
:1045B0002C070020FC060020F8060020F40600204E
:1045C00038B54FF4FA60124C00F07EF930B9D023C0
:1045D0002370FFF7B7F82078C0B238BD0D4D012326
:1045E0002B70FFF793F810B1E2232370F3E74FF439
:1045F000FA7000F0E1F92B782BB1FFF751FB642042
:1046000000F0DAF9E7E7044B00221A60F7E700BF91
:104610003E07002030070020E40600200023174A50
:10462000174910B41370174A08601370EFF3108025
:1046300072B60022144C2260144C2260144C22608A
:10464000144C2260144C2260144A1370144A1370E4
:10465000144A1360144A1360144A1360144A136016
:1046600000B962B6086828B1012212495DF8044B0E
:1046700001F05EBF5DF8044B704700BF6D0700207E
:104680007C0700206C070020600700205C070020EA
:104690005807002054070020680700206407002006
:1046A000500700204C070020480700204407002046
:1046B00040070020790700200C4B1B6810B48BB119
:1046C00083420FD100220A4908240A7009490A705E
:1046D00019680C62C3F88420012207495DF8044B75
:1046E00001F026BF5DF8044B704700BF7C07002037
:1046F0006D0700206C070020790700204C4A1368E2
:1047000070B501334B4D13602B7843B9552805D153
:10471000494B4A4A1870012313702B7070BD012B4E
:10472000464C0CD1532804D1434B587002232370BC
:10473000F3E7552852D1404A10702370EEE72178F4
:104740003D4B4A1C5854D2B20A2A2270E6D9184668
:104750000A21002210F8016B0139324411F0FF01E7
:10476000D2B2F7D1997A91425FD1B3F904209FED8B
:10477000346A07EE902AB3F90620B3F9023007EE47
:10478000102AF8EEE77A06EE903A2E4BB8EEC77A8A
:104790002D49F8EEE66A2D4A67EE867A087827EE0C
:1047A000067A66EE866AC3ED006A294BC3ED007A8D
:1047B000284B83ED007A284B98B983ED007A0023CB
:1047C000136001230B70254B01221A7000F0EEF8E4
:1047D000234B244A186013680133136000232B70A5
:1047E000ABE7D3ED007ADFED206A77EE677AF4EE7F
:1047F000E67AF1EE10FA0CDDDFED1C6A77EEE67A70
:10480000D2ED006A83ED007A76EEA77AC2ED007AE7
:10481000D9E7DFED176AF4EEE67AF1EE10FA44BF5D
:10482000DFED126A77EEA67AEAE7124AD3E700BF15
:10483000440700206D0700206E0700206C07002051
:104840000000B43B600700206407002054070020EC
:104850005C07002058070020680700205007002050
:104860004C07002048070020000034430000B443F8
:10487000000034C34007002038B5084C236863B1FA
:1048800083420AD1064D2878FFF738FF2946206871
:104890000122BDE8384001F04BBE38BD7C07002046
:1048A0007907002038B5074B05461C683CB100F07D
:1048B0007DF8001BA8428CBF0020012038BD204697
:1048C000FCE700BF4C07002070B50446094E00F01D
:1048D0006DF8054600F06AF8431BA34201D300209F
:1048E00070BD33681BB9052000F066F8F2E70120BF
:1048F000F6E700BF4C070020EFF3108372B6064ABC
:104900001168064A11600021054A11600121054A1B
:10491000117003B962B6704758070020680700207D
:104920005407002064070020EFF3108372B6034A97
:1049300092ED000A03B962B6704700BF5407002029
:1049400010B50446FFF798FF2046FDF785FD204689
:10495000FDF770F82046BDE81040FDF7ADBC10B57E
:104960000446FFF7A9FE2046FDF7BCFD2046FDF7F3
:10497000D7F82046BDE81040FDF7F2BC08B503208B
:1049800000F02CF80F20FCF785FFFCF765FF0020F6
:1049900008BD0000034A044B11681B780B441360E8
:1049A000704700BF8007002010000020014B1868EE
:1049B000704700BF8007002038B50446FFF7F6FFB8
:1049C0000546631C1EBF044B1B78E418FFF7EEFF7F
:1049D000431BA342FAD338BD10000020074903024D
:1049E000CA6803F4E06322F4E0621204120C134379
:1049F00043F0BF6343F40033CB60704700ED00E049
:104A0000164B30B5DC68C4F30224C4F10703251D3E
:104A1000042B28BF0423062D4FF0FF358CBF033C29
:104A2000002405FA03F3002805FA04F521EA03033C
:104A300022EA050203FA04F343EA02034FEA0313EE
:104A4000DBB206DB00F1604000F5614080F8003326
:104A500030BD00F00F00024A1354F9E700ED00E00A
:104A600014ED00E0002807DB4109012300F01F00DE
:104A7000024A834042F82130704700BF00E100E065
:104A8000BFF35F8F044B5A6A22F480325A620022CD
:104A9000C3F89420704700BF00ED00E0064B40F0E3
:104AA0000100C3F894005A6A42F480325A62BFF39C
:104AB0004F8FBFF36F8F704700ED00E04378144ACB
:104AC000C2F89830D2F8A03023F00103C2F8A03029
:104AD0004368C2F89C30C37A017B1B0643EA01732A
:104AE00001780B43817A43EAC143417B43EA814326
:104AF000817B43EA4143C17B43EA0143417A43EA74
:104B00000123017A43EA4103C2F8A030704700BF95
:104B100000ED00E070B50446866DFFF747FF0546DF
:104B200094F83530022B06D08023012063650023E2
:104B300084F8343070BD23681A6822F016021A60B7
:104B40005A6922F080025A61226C0AB9A26C1AB129
:104B50001A6822F008021A601A6822F001021A602C
:104B60002368186810F0010007D1E26D3F239340DD
:104B7000B360012384F83530D9E7FFF717FF401BF6
:104B80000528EDD920230320636584F83500CEE79E
:104B900090F83530022B03D0802343650120704705
:104BA0000268052380F835300020136823F00103E4
:104BB000136070472DE9F74F0023DFF8BC916C4A72
:104BC00001240D689C4004EA0506AC4340F0B78020
:104BD0004D6803274FEA430E05F0030407FA0EFC65
:104BE000671E6FEA0C0C012F34D8876807EA0C089F
:104BF000CF6807FA0EF747EA08078760476827EA91
:104C00000608C5F300179F4047EA08074760C768D2
:104C1000022C07EA0C088F6807FA0EF747EA080724
:104C2000C76019D14FEAD30803F0070A4FF00F0B02
:104C300000EB88084FEA8A0AD8F820700BFA0AFBC2
:104C400027EA0B0B0F6907FA0AF747EA0B07C8F8C0
:104C5000207001E0032CDAD1076804FA0EF415F491
:104C6000403F07EA0C0744EA0704046067D0D9F81C
:104C7000444023F0030703F0030C4FF00F0E44F4FD
:104C8000804407F180474FEA8C0CC9F8444007F58F
:104C90009C37D9F844400EFA0CFE04F48044019489
:104CA000019CBC6824EA0E0E324CA0424ED004F5A2
:104CB0008064A0424CD004F58064A0424AD004F540
:104CC0008064A04248D004F58064A04246D004F538
:104CD0008064A04244D004F58064A04242D004F530
:104CE0008064A04240D004F58064A0423ED004F528
:104CF0008064A04214BF0A24092404FA0CF415F4B9
:104D0000801F44EA0E04BC606FEA060794680CBF7B
:104D10003C40344315F4001F9460D4680CBF3C4001
:104D2000344315F4003FD46054680CBF3C40344316
:104D3000ED035460146854BF3C40344314600133A5
:104D4000102B7FF43DAF03B0BDE8F08F0024D4E713
:104D50000124D2E70224D0E70324CEE70424CCE7E1
:104D60000524CAE70624C8E70724C6E70824C4E7E1
:104D7000003C014000000240003802400069084049
:104D8000003818BF01207047194B37B51A6C194C01
:104D900042F080521A641B6C03F080530193019B14
:104DA000236843F480332360FFF700FE0546636801
:104DB000DA030CD523680F4D43F400332360FFF76B
:104DC000F5FD04466B689B030AD5002006E0FFF75B
:104DD000EDFD401BB0F57A7FE9D9032003B030BD6B
:104DE000FFF7E4FD001BB0F57A7FEBD9F5E700BFD4
:104DF00000380240007000402DE9F341044640B302
:104E00000368DE0710D423689D0761D4236819075F
:104E100000F1A68023685A0700F1C780A269002A22
:104E200040F0308100202CE0944B9A6802F00C0294
:104E3000042A07D09A6802F00C02082A0BD15B689A
:104E4000590208D58D4B1B689A03DCD56368002B8B
:104E5000D9D1012015E06368884DB3F5803F13D1A7
:104E60002B6843F480332B60FFF7A0FD834E05468B
:104E700033689B03C7D4FFF799FD401B6428F7D91B
:104E8000032002B0BDE8F0819BB92B6823F4803386
:104E90002B602B6823F480232B60FFF787FD0646E9
:104EA0002B689F03AFD5FFF781FD801B6428F7D9DE
:104EB000E6E7B3F5A02F2B6803D143F480232B60E2
:104EC000CEE723F480332B602B6823F48023CAE7DA
:104ED0006A4B9A6812F00C0F07D09A6802F00C0225
:104EE000082A11D15B685D020ED4644A13689907E1
:104EF00002D5E368012BACD11368216923F0F803D4
:104F000043EAC103136081E7E3685C4DBBB12B68E2
:104F100043F001032B60FFF749FD06462B689B0712
:104F200007D52B68226923F0F80343EAC2032B60FC
:104F30006CE7FFF73BFD801B0228EFD9A0E72B6849
:104F400023F001032B60FFF731FD06462B689F0716
:104F50007FF55CAFFFF72AFD801B0228F6D98FE7AB
:104F60006369464D83B16B6F43F001036B67FFF7D5
:104F70001DFD06466B6F9B073FF54CAFFFF716FD17
:104F8000801B0228F6D97BE76B6F23F001036B6768
:104F9000FFF70CFD06466B6F9F077FF53BAFFFF7F2
:104FA00005FD801B0228F6D96AE7344B1A6CD50040
:104FB00027D41A6C012742F080521A641B6C03F04C
:104FC00080530193019B2E4D2B68D8051BD5A368F8
:104FD0002A4D012B27D12B6F43F001032B6741F2A0
:104FE0008838FFF7E3FC254E0546336F9A073FD517
:104FF000002F3FF413AF214A136C23F08053136446
:105000000CE70027DFE72B6843F480732B60FFF782
:10501000CDFC06462B68D905D9D4FFF7C7FC801B09
:105020006428F7D92CE7ABB92B6F41F2883823F00D
:1050300001032B672B6F23F004032B67FFF7B6FCEC
:1050400006462B6F9B07D3D5FFF7B0FC801B40456E
:10505000F7D915E7052B2B6F03D143F004032B671A
:10506000B9E723F001032B672B6F23F00403B5E7A7
:10507000FFF79CFC401B4045B7D901E700380240D0
:1050800000700040384DAB6803F00C03082B41D092
:105090002B68022A23F080732B602ED1FFF786FC49
:1050A00006462B68990122D4A36A5B085A1ED4E9EC
:1050B00007310B4343EA0243626A43EA8213E26A1E
:1050C00043EA026343F000536B602B6843F0807344
:1050D0002B60FFF76BFC244D04462B689A013FF5CB
:1050E000A1AEFFF763FC001B0228F6D9C8E6FFF764
:1050F0005DFC801B0228D4D9C2E6FFF757FC0446AA
:105100002B689B017FF58EAEFFF750FC001B022839
:10511000F6D9B5E6012A6B683FF49BAE03F4800232
:10512000E1698A427FF495AE03F03F02216A8A4228
:105130007FF48FAE47F6C072616A1A40B2EB811FEE
:105140007FF487AEA26A03F440315208013AB1EB12
:10515000024F7FF47EAEE26A03F07063B3EB026F3E
:1051600014BF012000208CE600380240134908B526
:105170008B6803F00C03042B1BD0082B1BD14A684F
:105180004B68496802F03F0213F48003C1F38811B1
:105190001ABF0B4800230B48A1FB0001FBF7D4F911
:1051A000064B5B68C3F3014301335B00B0FBF3F0D4
:1051B00008BD0348FCE70348FAE700BF0038024097
:1051C00000127A000024F4002DE9F0410D46044657
:1051D00010B90120BDE8F081454A136803F00F03C0
:1051E0008B4228D321688F0730D4C80743D4404A64
:1051F000136803F00F03AB4266D8226851076FD4DF
:10520000130707D53B4A2169936823F4604343EAB7
:10521000C1039360FFF7AAFF364B374A9B68C3F37D
:105220000313D35CD840354B1860354B1868FCF736
:1052300031FB0020CEE7136823F00F030B4313600C
:10524000136803F00F038B42C3D1CBE711F0040FB7
:10525000284B03D09A6842F4E0529A600E0703D5B7
:105260009A6842F460429A609A68A06822F0F0025C
:1052700002439A60B9E761681E4B01291A681BD185
:1052800012F4003FA5D09A6841F28838194F22F0F5
:1052900003020A439A60FFF789FB0646BB6862680F
:1052A00003F00C03B3EB820FA1D0FFF77FFB801B51
:1052B0004045F3D903208DE7022902D112F0007F87
:1052C000E0E712F0020FDDE7136823F00F032B4332
:1052D0001360136803F00F03AB427FF47AAF8CE7DF
:1052E0000449E0688B6823F4E05303438B6087E74D
:1052F000003C0240003802401CCF000800000020A3
:1053000014000020044B054A9B68C3F38223D35C3E
:10531000034A1068D84070470038024014CF000894
:1053200000000020044B054A9B68C3F34233D35C62
:10533000034A1068D84070470038024014CF000874
:10534000000000200F2303600B4B9A6802F0030259
:1053500042609A6802F0F00282609A6802F4E052B9
:10536000C2609B68DB0803F4E0530361034B1B68D6
:1053700003F00F030B60704700380240003C02400E
:105380002DE9F7430268044612F001030BD0AD4942
:105390008B6823F400038B60636B88681843B3FA4F
:1053A00083F35B09886012F4002612D0A548E66BEF
:1053B000D0F88C10B6F5801F21F4401108BF0123EE
:1053C00041EA060116BFB6FA86F600267609C0F84D
:1053D0008C10D50211D59B4D206CD5F88C10B0F5F2
:1053E000800F21F4400141EA0001C5F88C1000F063
:1053F0008681002808BF46F00106C2F300679006C8
:1054000047EA030731D58F4B8F4D1A6C42F080521B
:105410001A641B6C03F080530193019B2B6843F4C7
:1054200080732B60FFF7C2FA80462B68D90540F1E4
:105430006881844D2B6F13F4407340F06D81236BB2
:1054400003F44072B2F5407F7E4A40F08B81916850
:1054500023F0704021F4F81120F440700143916072
:10546000C3F30B03116F0B4313672568E8060CD5D4
:10547000744BD3F88C2022F08072C3F88C20D3F8C0
:105480008C20A16B0A43C3F88C20690408D56D4AAF
:10549000616ED2F8903023F440330B43C2F8903061
:1054A0002A0408D5674AA16ED2F8903023F440232D
:1054B0000B43C2F89030EB0308D5624AE16ED2F894
:1054C000903023F440130B43C2F89030A80308D562
:1054D0005C4A216FD2F8903023F440030B43C2F8AA
:1054E0009030690608D5574A616CD2F8903023F0A5
:1054F00003030B43C2F890302A0608D5514AA16C29
:10550000D2F8903023F00C030B43C2F89030EB0537
:1055100008D54C4AE16CD2F8903023F030030B43AD
:10552000C2F89030A80508D5464A216DD2F89030CF
:1055300023F0C0030B43C2F89030690508D5414AF7
:10554000616DD2F8903023F440730B43C2F8903071
:105550002A0508D53B4AA16DD2F8903023F4406368
:105560000B43C2F89030EB0408D5364AE16DD2F80F
:10557000903023F440530B43C2F89030A80408D570
:10558000304A216ED2F8903023F440430B43C2F8E6
:105590009030690208D52B4AA16FD2F8903023F0E1
:1055A00080630B43C2F89030AA020DD52549E26F03
:1055B000D1F89030B2F1006F08BF46F0010623F039
:1055C00000631343C1F890306B0308D51D4A616F27
:1055D000D2F8903023F040730B43C2F89030280289
:1055E00009D5184AD4F88010D2F8903023F08053AF
:1055F0000B43C2F89030002F40F0B880A90100F1B1
:10560000B580C5F3C0053543012D76D10D4D2B680E
:1056100023F080532B60FFF7C9F906462B689F00E3
:1056200000F12A8121680E0301D5E36B1BB1CD0285
:1056300023D5236C0BBB034AD2F88830D2F88800FC
:1056400004E000BF003802400070004003F4403323
:1056500000F0E0400343606943EA8013A06943EA35
:105660000063C2F88830D2F88C30A06A23F4F85373
:10567000013843EA0023C2F88C30880215D5E36F65
:10568000B3F1006F11D1834AD2F88830D2F8880084
:1056900003F0706300F0E0400343606943EA801365
:1056A000206A43EA0043C2F888300A0719D57949CD
:1056B000D1F88820D1F8883002F0706203F44033CA
:1056C0001343626943EA8213E26943EA0273C1F851
:1056D0008830D1F88C30E26A23F440331343C1F8A8
:1056E0008C306C4C236843F080532360FFF75EF9E5
:1056F000054623689B0040F1C680002009E0012395
:105700007BE6FFF753F9A0EB080064287FF68DAE27
:10571000032003B0BDE8F083226B02F44072934291
:105720003FF48DAE2B6F2A6F23F4407342F4803226
:105730002A672A6F22F480322A672B672B6FDA07D9
:105740007FF57DAEFFF732F941F2883980462B6F45
:105750009B073FF574AEFFF729F9A0EB0800484519
:10576000F5D9D5E7916821F4F81178E6494F3B68FF
:1057700023F080633B60FFF719F980463B681A010C
:1057800073D42268D30712D5636B83B9D7F88430FA
:10579000D7F8841003F4403301F070610B43616863
:1057A00043EA8113A16843EA0173C7F88430170301
:1057B00003D5E36BB3F5801F05D0D0021ED5236C53
:1057C000B3F5800F1AD13349D1F88430D1F8840071
:1057D00003F4403300F0E0400343606843EA801381
:1057E000E06843EA0063C1F88430D1F88C00636A52
:1057F00020F01F00013B0343C1F88C30D10111D5CB
:105800002449D1F88430D1F8840003F0706300F0AB
:10581000E0400343606843EA8013206943EA0043A1
:10582000C1F8843092010DD5236962681B0443EAF4
:105830008213E26843EA0263A26843EA0273154AEC
:10584000C2F88430134F3B6843F080633B60FFF73E
:10585000ADF880463B681B013FF5D3AEFFF7A6F8D5
:10586000A0EB08006428F5D952E7FFF79FF8A0EBFA
:105870000800642882D94BE7FFF798F8801B64285A
:105880007FF6CCAE44E7FFF791F8401B64287FF623
:1058900030AF3DE7003802407047000090F83D30DF
:1058A000012B33D1022380F83D300368DA6842F0DF
:1058B0000102DA60164A93421AD0B3F1804F17D032
:1058C000A2F57C42934213D002F5806293420FD03E
:1058D00002F5806293420BD002F57842934207D0E2
:1058E00002F57052934203D0A2F59432934207D14D
:1058F0009968084A0A40062A06D0B2F5803F03D0CC
:105900001A6842F001021A600020704701207047B7
:105910000000014007000100704770477047704762
:10592000036870B5DD6804461E69B2070DD5A90786
:105930000BD56FF002021A61012202779B699A0768
:1059400075D0FFF7EAFF00232377730710D56807A8
:105950000ED523686FF0040220461A6102222277D6
:105960009B6913F4407F68D0FFF7D7FF00232377AC
:1059700031070FD52A070DD523686FF0080220469E
:105980001A6104222277DB699B075CD0FFF7C5FF11
:1059900000232377F10610D5EA060ED523686FF0B1
:1059A000100220461A6108222277DB6913F4407F37
:1059B0004FD0FFF7B2FF00232377F30708D5E8079E
:1059C00006D523686FF0010220461A61FBF75AFAE8
:1059D00016F4025F08D0290606D523686FF4025238
:1059E00020461A6100F0C1F8F20508D52B0606D54D
:1059F00023686FF4807220461A6100F0B7F87006D1
:105A000008D5690606D523686FF0400220461A6162
:105A1000FFF785FFB20622D5AB0620D523686FF0CD
:105A2000200220461A61BDE8704000F09DB8FFF7E3
:105A300073FF2046FFF772FF85E7FFF76DFF2046F3
:105A4000FFF76CFF92E7FFF767FF2046FFF766FF5F
:105A50009EE7FFF761FF2046FFF760FFABE770BDF1
:105A6000274A0368904212D0B0F1804F0FD0A2F5C0
:105A70007C4290420BD002F58062904207D002F542
:105A80008062904203D002F57842904208D123F020
:105A900070034A68134323F44073CA68134316E043
:105AA000184A9042F7D002F580629042F3D002F596
:105AB00080629042EFD0A2F598329042EBD002F58E
:105AC00080629042E7D002F580629042E3D04A695A
:105AD00023F0800313438A68C2620A688262084A1C
