:020000040800F2
:10000000000005200D0D0008291500082B1500081B
:100010002D1500082F1500083115000800000000FC
:1000200000000000000000000000000071840008D3
:1000300033150008000000001185000875850008D0
:100040005D0D00085D0D00085D0D00085D0D0008E8
:100050005D0D00085D0D00085D0D00085D0D0008D8
:100060005D0D00085D0D00085D0D00085D0D0008C8
:100070005D0D00085D0D00085D0D00085D0D0008B8
:100080005D0D00085D0D00085D0D00085D0D0008A8
:100090005D0D00085D0D00085D0D00085D0D000898
:1000A0005D0D00085D0D00085D0D00085D0D000888
:1000B0005D0D00085D0D00085D0D00085D0D000878
:1000C0005D0D00085D0D00085D0D00085D0D000868
:1000D0005D0D00085D0D0008351500085D0D000878
:1000E0005D0D00085D0D00085D0D00085D0D000848
:1000F0005D0D00085D0D00085D0D00085D0D000838
:100100005D0D00085D0D00085D0D00085D0D000827
:10011000411500084D150008711500085D0D000817
:100120005D0D00085D0D00085D0D00085D0D000807
:100130005D0D00085D0D00085D0D00085D0D0008F7
:100140005D0D00085D0D00085D0D00085D0D0008E7
:100150005D0D00085D0D00085D0D00085D0D0008D7
:100160005D0D00085D0D00085D0D00085D0D0008C7
:100170005D0D00085D0D00085D0D00085D0D0008B7
:100180005D0D00085D0D0008591500086515000893
:100190005D0D00085D0D00085D0D00085D0D000897
:1001A0005D0D00085D0D00085D0D00085D0D000887
:1001B0005D0D00085D0D00085D0D00085D0D000877
:0801C0005D0D00085D0D000853
:1001D00081F0004102E000BF83F0004330B54FEAF8
:1001E00041044FEA430594EA050F08BF90EA020F65
:1001F0001FBF54EA000C55EA020C7FEA645C7FEAF8
:10020000655C00F0E2804FEA5454D4EB5555B8BF1A
:100210006D420CDD2C4480EA020281EA030382EA8B
:10022000000083EA010180EA020281EA0303362D1D
:1002300088BF30BD11F0004F4FEA01314FF4801CF0
:100240004CEA113102D0404261EB410113F0004F02
:100250004FEA03334CEA133302D0524263EB4303B9
:1002600094EA050F00F0A780A4F10104D5F1200E57
:100270000DDB02FA0EFC22FA05F2801841F10001B2
:1002800003FA0EF2801843FA05F359410EE0A5F186
:1002900020050EF1200E012A03FA0EFC28BF4CF0B7
:1002A000020C43FA05F3C01851EBE37101F000456D
:1002B00007D54FF0000EDCF1000C7EEB00006EEB7A
:1002C0000101B1F5801F1BD3B1F5001F0CD3490804
:1002D0005FEA30004FEA3C0C04F101044FEA44525B
:1002E00012F5800F80F09A80BCF1004F08BF5FEAE2
:1002F000500C50F1000041EB045141EA050130BDC2
:100300005FEA4C0C404141EB0101013C28BFB1F5D3
:10031000801FE9D291F0000F04BF01460020B1FA1E
:1003200081F308BF2033A3F10B03B3F120020CDAF1
:100330000C3208DD02F1140CC2F10C0201FA0CF0CF
:1003400021FA02F10CE002F11402D8BFC2F1200C34
:1003500001FA02F120FA0CFCDCBF41EA0C019040EA
:10036000E41AA2BF01EB0451294330BD6FEA040433
:100370001F3C1CDA0C340EDC04F11404C4F120021E
:1003800020FA04F001FA02F340EA030021FA04F330
:1003900045EA030130BDC4F10C04C4F1200220FA87
:1003A00002F001FA04F340EA0300294630BD21FAC5
:1003B00004F0294630BD94F0000F83F4801306BF8B
:1003C00081F480110134013D4EE77FEA645C18BF7F
:1003D0007FEA655C29D094EA050F08BF90EA020F16
:1003E00005D054EA000C04BF1946104630BD91EA0E
:1003F000030F1EBF0021002030BD5FEA545C05D111
:100400004000494128BF41F0004130BD14F580044F
:100410003CBF01F5801130BD01F0004545F0FE41C3
:1004200041F470014FF0000030BD7FEA645C1ABFF8
:10043000194610467FEA655C1CBF0B46024650EA2F
:10044000013406BF52EA033591EA030F41F400215B
:1004500030BD00BF90F0000F04BF0021704730B5E1
:100460004FF4806404F132044FF000054FF00001B6
:1004700050E700BF90F0000F04BF0021704730B577
:100480004FF4806404F1320410F0004548BF40424C
:100490004FF000013EE700BF42004FEAE2014FEAA1
:1004A00031014FEA02701FBF12F07F4393F07F4F7C
:1004B00081F06051704732F07F4208BF704793F07F
:1004C0007F4F04BF41F40021704730B54FF4607492
:1004D00001F0004521F000411CE700BF50EA010295
:1004E00008BF704730B54FF000050AE050EA01023E
:1004F00008BF704730B511F0004502D5404261EBAE
:1005000041014FF4806404F132045FEA915C3FF4EE
:10051000D8AE4FF003025FEADC0C18BF03325FEA8B
:10052000DC0C18BF033202EBDC02C2F1200300FA3C
:1005300003FC20FA02F001FA03FE40EA0E0021FA61
:1005400002F11444BDE600BF53B94AB9002908BFFF
:1005500000281CBF4FF0FF314FF0FF3000F00CB807
:10056000ADF1080C6DE904CE08F0C2F8DDF804E046
:10057000DDE9022304B07047704700BF10F8012B7B
:1005800011F8013B012A28BF9A42F7D0D01A7047D0
:10059000034613F8012B002AFBD1181A01387047C3
:1005A00001F0FF01102A2BDB10F0070F08D010F824
:1005B000013B013A8B422DD010F0070F42B3F6D128
:1005C000F0B441EA012141EA014122F007047FF041
:1005D00000070023F0E80256083C85EA010586EA98
:1005E000010685FA47F5A3FA87F586FA47F6A5FAD4
:1005F00087F68EB9EED1F0BC01F0FF0102F00702E0
:1006000032B110F8013B013A83EA010313B1F8D18A
:100610000020704701387047002D06BF354603386B
:10062000073815F0010F07D1013015F4807F02BFA4
:10063000013015F4C03F0130F0BC0138704700BFF5
:1006400070B54FF0FF0C4CF4E06C1CEA11541DBF68
:100650001CEA135594EA0C0F95EA0C0F00F0DEF833
:100660002C4481EA030621EA4C5123EA4C5350EA18
:10067000013518BF52EA033541F4801143F4801369
:1006800038D0A0FB02CE4FF00005E1FB02E506F0FA
:100690000042E0FB03E54FF00006E1FB03569CF04F
:1006A000000F18BF4EF0010EA4F1FF04B6F5007F55
:1006B00064F5407404D25FEA4E0E6D4146EB0606C7
:1006C00042EAC62141EA55514FEAC52040EA5E5050
:1006D0004FEACE2EB4F1FD0C88BFBCF5E06F1ED8FA
:1006E000BEF1004F08BF5FEA500E50F1000041EB31
:1006F000045170BD06F0004646EA010140EA0200DE
:1007000081EA0301B4EB5C04C2BFD4EB0C0541EAFF
:10071000045170BD41F480114FF0000E013C00F314
:10072000AB8014F1360FDEBF002001F0004170BD38
:10073000C4F10004203C35DA0C341BDC04F1140451
:10074000C4F1200500FA05F320FA04F001FA05F2DD
:1007500040EA020001F0004221F0004110EBD370AA
:1007600021FA04F642EB06015EEA430E08BF20EAD6
:10077000D37070BDC4F10C04C4F1200500FA04F379
:1007800020FA05F001FA04F240EA020001F000410B
:1007900010EBD37041F100015EEA430E08BF20EA7E
:1007A000D37070BDC4F1200500FA05F24EEA020EC6
:1007B00020FA04F301FA05F243EA020321FA04F0F5
:1007C00001F0004121FA04F220EA020000EBD370AC
:1007D0005EEA430E08BF20EAD37070BD94F0000FAC
:1007E0000FD101F00046400041EB010111F4801FE0
:1007F00008BF013CF7D041EA060195F0000F18BF91
:10080000704703F00046520043EB030313F4801FCC
:1008100008BF013DF7D043EA0603704794EA0C0F86
:100820000CEA135518BF95EA0C0F0CD050EA41069C
:1008300018BF52EA4306D1D181EA030101F0004119
:100840004FF0000070BD50EA410606BF1046194641
:1008500052EA430619D094EA0C0F02D150EA01364D
:1008600013D195EA0C0F05D152EA03361CBF10468E
:1008700019460AD181EA030101F0004141F0FE412D
:1008800041F470014FF0000070BD41F0FE4141F4B1
:10089000780170BD70B54FF0FF0C4CF4E06C1CEAB1
:1008A00011541DBF1CEA135594EA0C0F95EA0C0F66
:1008B00000F0A7F8A4EB050481EA030E52EA033521
:1008C0004FEA013100F088804FEA03334FF0805542
:1008D00045EA131343EA12634FEA022245EA11156F
:1008E00045EA10654FEA00260EF000419D4208BF20
:1008F000964244F1FD0404F5407402D25B084FEACD
:100900003202B61A65EB03055B084FEA32024FF478
:1009100080104FF4002CB6EB020E75EB030E22BFD5
:10092000B61A754640EA0C005B084FEA3202B6EB95
:10093000020E75EB030E22BFB61A754640EA5C0044
:100940005B084FEA3202B6EB020E75EB030E22BFD4
:10095000B61A754640EA9C005B084FEA3202B6EBD5
:10096000020E75EB030E22BFB61A754640EADC0094
:1009700055EA060E18D04FEA051545EA16754FEAF6
:1009800006164FEAC30343EA52734FEAC2025FEA14
:100990001C1CC0D111F4801F0BD141EA00014FF0A3
:1009A00000004FF0004CB6E711F4801F04BF014374
:1009B0000020B4F1FD0C88BFBCF5E06F3FF6AFAE90
:1009C000B5EB030C04BFB6EB020C5FEA500C50F120
:1009D000000041EB045170BD0EF0004E4EEA1131A3
:1009E00014EB5C04C2BFD4EB0C0541EA045170BDAA
:1009F00041F480114FF0000E013C90E645EA060EEE
:100A00008DE60CEA135594EA0C0F08BF95EA0C0F1B
:100A10003FF43BAF94EA0C0F0AD150EA01347FF463
:100A200034AF95EA0C0F7FF425AF104619462CE73A
:100A300095EA0C0F06D152EA03353FF4FDAE10469D
:100A4000194622E750EA410618BF52EA43067FF4EE
:100A5000C5AE50EA41047FF40DAF52EA43057FF47E
:100A6000EBAE12E74FF0FF3C06E000BF4FF0010C89
:100A700002E000BF4FF0010C4DF804CD4FEA410CED
:100A80007FEA6C5C4FEA430C18BF7FEA6C5C1BD0BA
:100A900001B050EA410C0CBF52EA430C91EA030F3B
:100AA00002BF90EA020F0020704710F1000F91EA98
:100AB000030F58BF994208BF90422CBFD8176FEA66
:100AC000E37040F0010070474FEA410C7FEA6C5C34
:100AD00002D150EA013C07D14FEA430C7FEA6C5C3B
:100AE000D6D152EA033CD3D05DF8040B704700BF67
:100AF0008446104662468C461946634600E000BFB5
:100B000001B5FFF7B7FF002848BF10F1000F01BD86
:100B10004DF808EDFFF7F4FF0CBF012000205DF851
:100B200008FB00BF4DF808EDFFF7EAFF34BF0120D6
:100B300000205DF808FB00BF4DF808EDFFF7E0FF6F
:100B400094BF012000205DF808FB00BF4DF808EDC0
:100B5000FFF7CEFF94BF012000205DF808FB00BF27
:100B60004DF808EDFFF7C4FF34BF012000205DF809
:100B700008FB00BF4FEA410C7FEA6C5C02D150EAEF
:100B8000013C0AD14FEA430C7FEA6C5C02D152EA85
:100B9000033C02D14FF0000070474FF00100704756
:100BA0004A0011D212F5001211D20DD56FF47873EC
:100BB000B3EB62520ED44FEAC12343F0004343EA41
:100BC000505323FA02F070474FF00000704750EA8C
:100BD000013002D14FF0FF3070474FF000007047F6
:100BE0004FEA4102B2F1E04324BFB3F5001CDCF14F
:100BF000FE5C0DD901F0004C4FEAC0024CEA507087
:100C0000B2F1004F40EB830008BF20F001007047B5
:100C100011F0804F21D113F13872BCBF01F00040B8
:100C2000704741F480114FEA5252C2F11802C2F1EA
:100C3000200C10FA0CF320FA02F018BF40F001006B
:100C40004FEAC1234FEAD32303FA0CFC40EA0C001D
:100C500023FA02F34FEA4303CCE77FEA625307D15A
:100C600050EA01331EBF4FF0FE4040F44000704791
:100C700001F0004040F0FE4040F40000704700BF2B
:100C80000348044B834202D0034B03B1184770471B
:100C9000E4010020E4010020000000000548064BAC
:100CA0001B1AD90F01EBA301491002D0034B03B16A
:100CB00018477047E4010020E40100200000000014
:100CC00010B5064C237843B9FFF7DAFF044B13B194
:100CD0000448AFF300800123237010BDE40100201D
:100CE0000000000034CD000808B5054B1BB10549D4
:100CF0000548AFF30080BDE80840FFF7CFBF00BF55
:100D000000000000E801002034CD0008DFF834D0F6
:100D10000D480E490E4A002302E0D458C450043353
:100D2000C4188C42F9D30B4A0B4C002301E013602A
:100D30000432A242FBD300F08DFC08F02DFF00F03E
:100D400061F8FEE70000052000000020E40100201B
:100D5000B8DE0008E4010020AC9C0020FEE70000A3
:100D600010B594B01022002102240AA808F052FE07
:100D70001422002103A808F04DFE204B012104207D
:100D80001A6C42F080521A641B6C03F0805301937A
:100D9000019B1B4B1A6842F440421A601B6803F423
:100DA00040430293029B4FF48033CDE908134FF484
:100DB0008003CDE90E43D823CDE9100308A8CDE97F
:100DC000124404F045FB08B172B6FEE704F008FBDC
:100DD00008B172B6FEE70F234FF4A0520590072129
:100DE00003A8CDE903344FF48053CDE9062304F082
:100DF00017FD08B172B6FEE714B010BD003802400E
:100E0000007000401FB500211022684608F002FE65
:100E100004F062F9012300226846ADF8003048F280
:100E20001F73CDE9012340F20113039304F072F91B
:100E3000042004F05FF904F0CDF8FFF791FF00F013
:100E400023F800F09DF800F0B9F800F0F3F800F096
:100E5000D3F800F00DF900F029F900F045F900F0A1
:100E600061F907F0F9F800F05DF807F00FF9FEE717
:100E70000268034B9A4201D104F0B8B8704700BF32
:100E80000010004072B6FEE7214B00211A6B42F0C1
:100E9000800200B58BB01A631A6B06A802F08002BC
:100EA0000192019A1A6B42F002021A631A6B02F065
:100EB00002020292029A1A6B42F001021A631A6B42
:100EC00002F001020392039A1A6B42F008021A63BD
:100ED00010221B6B03F008030493049B08F09AFD97
:100EE00040F20B1305A90B4805930123079304F067
:100EF0008DF91022002106A808F08CFD4FF48063C4
:100F000005A90448059304F081F90BB05DF804FBD2
:100F100000380240000C024008B54FF47A7007F028
:100F200027F9FAE708B501F0E9F900F0F1FB0B4AFF
:100F300000210B4807F0CAF80A4B0B4A0021186041
:100F40000A4807F0C3F80A4B0A4A002118600A4809
:100F500007F0BCF8094B186008BD00BF68D5000851
:100F6000190F00080802002044D50008191F0008C6
:100F70000402002020D50008E5220008000200201D
:100F800008B50C494FF4E1320B4B08460B600023C7
:100F9000C1E901230C224B62C1E90333C1E90523F6
:100FA000C1E9073305F065FD18B1BDE80840FFF75A
:100FB00069BF08BD3C0500200010014008B50C4980
:100FC0004FF4E1320B4B08460B600023C1E90123CB
:100FD0000C224B62C1E90333C1E90523C1E90733A0
:100FE00005F047FD18B1BDE80840FFF74BBF08BD4D
:100FF000B40400200014014008B50C494FF4165207
:101000000B4B08460B600023C1E901230C224B6205
:10101000C1E90333C1E90523C1E9073305F029FD1F
:1010200018B1BDE80840FFF72DBF08BDC40500207A
:101030000044004008B50C494FF4E1320B4B084620
:101040000B600023C1E901230C224B62C1E9033389
:10105000C1E90523C1E9073305F00BFD18B1BDE86F
:101060000840FFF70FBF08BD2C04002000480040D7
:1010700008B50C494FF4E1320B4B08460B600023D6
:10108000C1E901230C224B62C1E90333C1E9052305
:10109000C1E9073305F0EDFC18B1BDE80840FFF7E2
:1010A000F1BE08BDA4030020004C004008B50C4967
:1010B0004FF4E1320B4B08460B600023C1E90123DA
:1010C0000C224B62C1E90333C1E90523C1E90733AF
:1010D00005F0CFFC18B1BDE80840FFF7D3BE08BD4E
:1010E0001C0300200050004008B50C494FF4165274
:1010F0000B4B08460B600023C1E901230C224B6215
:10110000C1E90333C1E90523C1E9073305F0B1FCA7
:1011100018B1BDE80840FFF7B5BE08BD9402002035
:101120000078004008B50C494FF4E1320B4B0846FB
:101130000B600023C1E901230C224B62C1E9033398
:10114000C1E90523C1E9073305F093FC18B1BDE8F7
:101150000840FFF797BE08BD0C020020007C00404D
:1011600030B5D9B004461422002111A808F052FC71
:101170008422002116A808F04DFC2368A14A93425E
:101180002BD1402316A8169304F026FC08B1FFF7D4
:1011900079FE9D4B4FF4C06100205A6C42F0100262
:1011A0005A645A6C02F010020192019A1A6B42F0D2
:1011B00001021A631B6B03F001030293029B0223DB
:1011C000CDE91113032311A9CDE9130307238F4898
:1011D000159304F01BF859B030BD8D4A934229D1C4
:1011E0004FF4006316A8169304F0F6FB08B1FFF75E
:1011F00049FE854B4FF0C00E11A986485A6C42F04B
:1012000020025A645A6C02F020020392039A1A6B6D
:1012100042F004021A6300221B6B03F004030493E0
:10122000049B0223CDE911E30323CDE91323082313
:101230001593CEE7784A934232D1802316A81693AD
:1012400004F0CAFB08B1FFF71DFE6F4B4FF0600CB6
:10125000002411A91A6C714842F400321A641A6C05
:1012600002F400320592059A1A6B42F008021A63E2
:101270001B6B03F008030693069B0223CDE911C301
:101280000323CDE913430723159303F0BFFF262063
:101290002246052103F0E0FE262003F00FFF9AE727
:1012A0005F4A934229D14FF4807316A8169304F035
:1012B00093FB08B1FFF7E6FD534B4FF44064002564
:1012C00011A91A6C574842F480221A641A6C02F46D
:1012D00080220792079A1A6B42F002021A631B6B74
:1012E00003F002033793379B0223CDE91143032315
:1012F000CDE91353072315936BE74B4A934236D13D
:101300008022002138A808F085FB4FF4007337A82D
:10131000379304F061FB08B1FFF7B4FD3A4B4FF48B
:101320004060002411A91A6C42F400221A641A6C5D
:1013300002F400220892089A1A6B42F004021A631F
:101340001B6B03F004030993099B0223CDE91103EE
:1013500003233048CDE913430823159303F056FFC8
:1013600034202246062103F077FE342095E72F4AE9
:1013700093425DD18022002138A808F04BFB4FF446
:10138000806337A8379304F027FB08B1FFF77AFD95
:101390001D4B4FF48051002408251A6C1D4842F45F
:1013A00080121A641A6C02F480120A920A9A1A6B5A
:1013B00042F004021A631A6B02F004020B920B9AB9
:1013C0001A6B42F008021A631B6B159503F00803B1
:1013D0000C930C9B0223CDE91113032311A9CDE932
:1013E000134303F013FF042311A90C48119315951F
:1013F00003F00CFF35202246062103F02DFE352098
:101400004BE700BF001001400038024000000240DE
:10141000001401400008024000440040000C02405B
:101420000048004000040240004C004000500040D2
:10143000394A934236D18022002138A808F0EAFACE
:101440004FF4805337A8379304F0C6FA08B1FFF77A
:1014500019FD324B002411A931481A6C42F0804228
:101460001A641A6C02F080420D920D9A1A6B42F0C7
:1014700010021A634FF4C0721B6B03F010030E933B
:101480000E9B0223CDE911230323CDE91343082347
:10149000159303F0BBFE52202246052103F0DCFD2C
:1014A0005220FAE61F4A93427FF495AE8022002133
:1014B00038A808F0AFFA4FF4005337A8379304F078
:1014C0008BFA08B1FFF7DEFC144B002411A9144875
:1014D0001A6C42F000421A641A6C02F000420F9239
:1014E0000F9A1A6B42F010021A6302221B6B03F070
:1014F00010031093109B0323CDE91132CDE9134360
:101500000823159303F082FE53202246062103F0A0
:10151000A3FD5320C1E600BF007800400038024020
:1015200000100240007C0040FEE7FEE7FEE7FEE719
:10153000FEE77047014804F079BE00BFC4050020F3
:10154000014804F073BE00BFA4030020014804F06A
:101550006DBE00BF1C030020014804F067BE00BF41
:1015600094020020014804F061BE00BF0C0200207C
:10157000014804F001BD00BF4C0600200D4B82B0B5
:101580000F216FF001001A6C42F080521A641A6C3D
:1015900002F080520092009A5A6C42F480425A64DF
:1015A00000225B6C03F480430193019B02B003F0C3
:1015B00053BD00BF00380240214B1A6C42F01002AC
:1015C00030B589B01A641B6C054601A903A803F065
:1015D00010030293029B04F0E1F9069B4BBB04F05D
:1015E000BDF9184A184B136040F2E733D360174B2C
:1015F000B0FBF3F3013B104653600023136193608B
:10160000936104F0ADFD044680B90E4804F072FC0D
:10161000044658B9362003F051FD0F2D0DD822464F
:101620002946362003F018FD094B1D60204609B0FD
:1016300030BD04F093F94000D3E70124F6E700BF82
:10164000003802404C0600200010004040420F00CD
:1016500014000020034AD2F8883043F47003C2F823
:101660008830704700ED00E070B5044678B31B4B3E
:101670001B7863B31A4D2B784BBB1A4E306830B3CE
:1016800005F0F4FD18BB2378A3F10A02012A1AD948
:101690000E2B18D023780F2B02D102F095F8B0B1A1
:1016A000114B1A78012A14D102F0ACFE0123214615
:1016B00030682B7000231A4605F015FC012807D06E
:1016C00000232B7003E002F01FF90028E2D1002074
:1016D00070BD1B78042BFAD1E6E700BF9906002005
:1016E00004000020A80600201C070020074B70B54E
:1016F0001D6804464DB1FEF74BFF214682B26423BC
:101700002846BDE8704005F034B970BD18070020C8
:1017100008B500226121042005F0BCFB044B002227
:101720000C211860042005F0B5FB024B186008BDC1
:10173000AC060020A8060020064A074910600022D7
:101740000A8006490A7006490A7010B1012205F0A4
:101750001BBA704718070020B2060020B006002010
:10176000140700202DE9F04100239AB0304E009379
:101770003368002B3FD083423DD12E4A2E4D136853
:101780002C78013313602D4B1F780D2F01D00A2FB9
:101790003CD12B4FB7F80080B8F1000F00D1A4B1B5
:1017A000602200210DF1050008F034F94246254978
:1017B0000DF105008DF8044008F015FA224B186869
:1017C000E0B9224A13680133136000231D4A3B80AD
:1017D0002B70137001221949306805F0D5F9009B70
:1017E0004BB14FF0E0234FF08052C3F8042DBFF30C
:1017F0004F8FBFF36F8F1AB0BDE8F08100236A46A8
:1018000001A905F02AFC0128DBD1DEE7002CE1D19B
:101810000B490C4A08885E2805D8431C17549BB214
:101820000B80D454D6E701230C8014702B70D1E7C1
:1018300018070020A4060020B0060020140700208E
:10184000B2060020B4060020AC0600209C06002052
:101850000C4B1B6810B48BB183420FD100220A4994
:1018600008240A8009490A7019680C62C3F88420A8
:10187000012207495DF8044B05F086B95DF8044B79
:10188000704700BF18070020B2060020B0060020F5
:10189000140700202DE98048DFF820B3ADF5577D0F
:1018A00031AC9B4B186800B9FEE74FF0FF32214680
:1018B00005F037FC0128F4D125783DB1954A9648CA
:1018C000136801331360FFF711FFE9E793490DF146
:1018D000C50008F0B9F804460028E1D0904A9149C3
:1018E000136801331360FEF749FED0B98B4908F045
:1018F000ABF8044628B1874A8B481368013313605C
:10190000E1E78A4D02F078FD286840B105F0AEFCB1
:1019100028B12146286805F01CFA854B1C708548C3
:10192000D1E785492046FEF729FE002840F0BE8019
:101930007A4908F089F80028DDD17D4B1B78002B0F
:1019400000F0AC807D4B7E4C1A787E4B072A08BF96
:101950001C464FF4FA7003F0CBFA7B4B7B4A00280D
:1019600018BF1A462C9203F005FB10EE100AFEF782
:1019700093FD774BCDE91C011868FEF78DFD754B83
:10198000CDE91E011868FEF787FD734BCDE92001F4
:101990001868FEF781FD714BCDE922011868FEF74A
:1019A0007BFD6F4B1B78DBB227936E4BCDE9240197
:1019B000187800F0C1FF6C4B28901B78DBB229939C
:1019C0006A4B187801F036FA694B2A901B78DBB223
:1019D0002B93684B187801F039FA674B0546187855
:1019E00000F0B6FF654B0646187801F0A7FF644B80
:1019F000074693F80080634B5FFA88F893F80090ED
:101A000002F00AFD604B82465FFA89F9187801F00E
:101A100095FC5E4A2F90107801F09CFC5C492E905A
:101A2000087801F0D9FE2D905A48007801F0E0FEC8
:101A30002F9B2D992E9A1A904AA819914FF40C7148
:101A400018921195544A9DED247BCDE916A32B9B4A
:101A50008DED0A7B9DED227B10932A9B8DED087BFB
:101A60009DED207B0F93299B8DED067B9DED1E7BCD
:101A70000E93289B8DED047B9DED1C7B0D93279B86
:101A8000CDE914890C93CDE912678DED027B2C9B77
:101A90000093234607F044FF4AA814E7304B3F4C1D
:101AA0001A783F4BCF2A88BF1C4652E73D49204653
:101AB000FEF764FD38B9194907F0C6FF00287FF426
:101AC0001AAF3948FFE639492046FEF757FD00288E
:101AD00076D1124907F0B8FF00287FF40CAF9BF8CD
:101AE0000030012B05D09BF80030042B01D030488A
:101AF000E9E60A234AA88DF8283100234B930023F6
:101B00004C93FFF7B1FD08B92A48DCE62A48DAE62B
:101B1000AC0600209C060020B5CD0008C9CD000809
:101B2000A0060020CCCD0008D1CD0008A8060020DA
:101B300004000020DECD0008E8CD0008D207002018
:101B400081CD000878CD000894CD00089BCD000819
:101B5000CC070020C8070020980700209407002029
:101B6000980600204D0700204B0700205807002052
:101B70005707002056070020550700206107002066
:101B800062070020D10700205B0700205A070020D1
:101B90006007002007000020EFCD00088FCD00086F
:101BA00089CD00082ACF00082FCF000825D00008D3
:101BB0002AD000083FD000084AD000081C070020A7
:101BC000A9492046FEF7DAFC98B9A84907F03CFF7E
:101BD00000287FF490AE0D234AA88DF82831002309
:101BE0004B9300234C93FFF73FFD00288CD0A04877
:101BF00069E6A0492046FEF7C1FC20B19E49204677
:101C0000FEF7BCFC20BB9949002007F01DFF0546EC
:101C100000287FF470AE20469649FEF7AFFC0028FE
:101C20004AAC4B9514BF0C230B2320468DF828316A
:101C300000234C93FFF718FD00283FF465AF9DF893
:101C400028018E4B8E4A0B2808BF1A4610463AE6EA
:101C50008C492046FEF792FC98B9844907F0F4FEBF
:101C6000034600287FF447AE0E224B9300234AA878
:101C700002708360FFF7F8FC00283FF445AF82480C
:101C800021E682492046FEF779FC98B9774907F0AA
:101C9000DBFE034600287FF42EAE0F224B93002379
:101CA0004AA802708360FFF7DFFC00283FF42CAFE6
:101CB000774808E677492046FEF760FC064600288C
:101CC00046D1092369494AAD2B7007F0BDFE044691
:101CD0006649304607F0B8FE064654B348B330AF05
:101CE000394607F07DFC309BB0EE408A9E4220D002
:101CF0001B78F3B9B5EEC00AF1EE10FA19DDDFED8D
:101D0000667AB4EEE70AF1EE10FA12D8634920467B
:101D1000FEF734FC30B162492046FEF72FFC40B993
:101D2000B1EE488A5149002085ED028A07F08CFE09
:101D300028B15C4A5C48136801331360C3E56860EE
:101D40002846FFF791FC00283FF4DEAE5748BAE57D
:101D50004649002007F078FE554906462046FEF722
:101D60000DFC00282CD053492046FEF707FC002824
:101D700068D051492046FEF701FC002864D04F4945
:101D80002046FEF7FBFB002860D04D492046FEF7B9
:101D9000F5FB00285CD04B492046FEF7EFFB0028FE
:101DA00058D049492046FEF7E9FB002854D047495E
:101DB0002046FEF7E3FB00287FF49DAD082300E0FA
:101DC00001234AAC2370002E3FF495AD3378002BED
:101DD0003FF491AD721E12F8013F002B3ED1002D51
:101DE0003FF489AD30AD0A222B603046294607F01A
:101DF000C9FC2B681F78002F7FF47DAD421E42F294
:101E00000F739A423FF677AD00236060174938465A
:101E1000A36007F019FE23780646053B032B5BD928
:101E200000287FF468AD1149002007F00DFE00285E
:101E30007FF461AD2046FFF717FC00283FF464AE45
:101E4000234840E50223BCE70323BAE70423B8E7AD
:101E50000523B6E70623B4E70723B2E7303B0125A5
:101E6000092BB8D947E500BF54D00008C9CD0008F8
:101E70005AD0000865D000086AD00008A3CD000839
:101E8000ADCD00086DD0000872D000087CD00008ED
:101E900083D000088FD000080000B44393D000081E
:101EA00094D000089C06002097D00008A3D000081A
:101EB0000AD5000828D0000868D0000858D00008CB
:101EC000ACD00008AFD00008B2D00008B5D00008F0
:101ED000B8D000080000B44200283FF42AAF2946D9
:101EE0002F6007F07DFB2B689E423FF422AF1B78EA
:101EF000002B7FF41EAFB5EEC00AF1EE10FA7FF7AB
:101F000018AF5FED0C7AB4EEE70AF1EE10FA3FF687
:101F100010AF84ED020A86E72DE9F04F4FF000097B
:101F20004FF0010AA94E85B0A94CDFF8D482A94D23
:101F300086F800A084F8009088F8009085F800905A
:101F400001F062FDA449A54802F0E2F9642006F020
:101F50000FF9A34801F060FC5146484600F00EFA24
:101F6000074668B105232B70E22384F8009086F8B9
:101F7000009088F800304FF47A7006F0F9F8FAE72C
:101F800002F044FECF2888F800000AD8954B85F867
:101F900000A084F800A037701F70934F386810B904
:101FA000FEE73770F9E74FF0FF3201A905F0B9F805
:101FB0000128F3D1237803F0FF0233B9894B327043
:101FC0001B78DBB288F80030E8E79DF80430A3F115
:101FD0000902062A00F22981DFE812F007008700D3
:101FE0007B00D600140110001E019DED030A02F0D3
:101FF000A5FCCF2888F800007AD98CE000F0F4FD29
:10200000082841D8DFE810F05900590009000900FC
:10201000110040000F0126003400744B1878C0B244
:102020002B78053B18BF0123F4E0714B1A78042A82
:1020300000F0F9801A78032A41D01A78052A00F0B6
:10204000F2801A78062A3CD01B78072B0CBFE920B7
:10205000E520E5E7674B1A78022A32D01A78032A7E
:1020600033D01B78072B08BFE52018BFE220D7E745
:10207000614B1A78022A28D01A78032A23D01B78B9
:10208000042B08BFE720F0E75C4B1A78022A1CD02B
:102090001A78032A00F0C7801A78052A00F0C38056
:1020A0001A78062A00F0BF801A78072A0FD01B780A
:1020B000082B0CBFE620E820B2E70420B0E7E620BA
:1020C000AEE7E720ACE7E420AAE7E120A8E7E520B7
:1020D000A6E700F0FFFA072852D8DFE800F0040472
:1020E00051110D15174D01232370042388F800307A
:1020F0003C4B00221A7012E000232370E22308E018
:1021000001232370E62304E00123F6E70123237073
:10211000E72388F8003002F07FF90028E8D19DF825
:1021200004300A2B40F0C4804FF0010B022043F62C
:1021300098225946287086F800B000F049F9814687
:10214000002840F0B88001F091FB0323824643F65B
:102150009822594658462B7000F03AF9002840F072
:10216000A08004231AF0FD0F2B7018BFE22388F81B
:102170000030012323709BE001232370E923C8E78B
:1021800001232370E523C4E701F036F9012323700E
:10219000092819D801A252F820F000BFEB2000084E
:1021A000EB200008C5210008FD200008C921000817
:1021B000FD200008FD2000088521000805210008F9
:1021C000C9210008E123A4E7E823A2E704000020D6
:1021D000990600201C070020C40500202C040020C4
:1021E000B4040020D2070020A806002051070020D8
:1021F00055070020530700205207002054070020F5
:102200009806002000F074FF072896BF2D4BE220AF
:10221000185C01232370ECE601F000FC042802D8CE
:10222000294B185CFCE6E220FAE6023B062B05D8B7
:10223000DFE803F03210151A1F242B009FED231A3C
:102240009FED230ADFED221A0298F0EE610A02F0F8
:1022500071FBCEE69FED1D1A9FED1E0AF2E79FED82
:102260001B1A9FED1D0AEDE79DED030A9FED1B1A5A
:10227000E8E79DED030AB1EE400AF7E79FED180A83
:10228000DDED037A30EE670AF0E79FED150ADDED2C
:10229000037A30EE670AEEE79FED0C1A9FED100A05
:1022A000D0E705232B70E22388F8003084F80090F3
:1022B0000023337072E605232B70E22388F8003088
:1022C000002357E7A9D50008A4D500080000024361
:1022D000000000000000B4420000B4C20000AA42A6
:1022E0000000344310B504460348FFF725FA2046A2
:1022F000BDE81040FFF7CEBA1C03002008B5064821
:1023000000F01CF8054800F00DF900F03DFBBDE8B9
:10231000084000F0CDB900BF94020020A4030020C3
:102320000023034A1370034A1370034A1370704763
:102330001F0700201E0700201D0700200A4BFF2258
:1023400010B51860094B0A4C1A7002230022237042
:10235000084B1A70FFF7E4FF28B10122064904F088
:1023600013FC00B9207010BD2C07002006000020CF
:10237000050000201C0700202807002037B5104A60
:102380000346104C106828B9012323702078C0B28E
:1023900003B030BD0C4AFF258DF80510090A1570F1
:1023A0000A4A8DF804306423009207228DF8061043
:1023B000694604F0DEFA08B10223E6E72070E5E79B
:1023C0002C070020050000200600002055550506BA
:1023D000F8B5134B064614461B6803B11AB9114BE6
:1023E00001221A7003E0FFF7C9FF18B10D4B1878EE
:1023F000C0B2F8BD02F006FE0B4F054602F002FE29
:10240000431BA34202D3074B0322EAE73B78B342C4
:1024100002D1044B0022E4E70A2005F0A9FEEDE713
:102420002C0700200500002006000020224A034659
:10243000106810B500283DD098423BD11F4A204B70
:1024400011781B78032932D8DFE801F0020C121C46
:10245000552B01D10123137001221949BDE8104009
:1024600004F092BB552B01D10223F4E70023F2E7DD
:10247000991E07291BD813490B700021124B1970A4
:102480000323E8E710490C78621CD2B20A700F49A6
:102490000B550C4B1C78631EDBB29A42DCD3052C27
:1024A00005D10B78082B02D14A78094B1A70FFF737
:1024B00037FFD1E710BD00BF2C0700201D0700200B
:1024C000280700201F0700201E07002020070020EB
:1024D000060000200A4A116808B579B181420DD181
:1024E000FFF71EFF0B6808221A6200230122C1F8C1
:1024F00084300449BDE8084004F046BB08BD00BF75
:102500002C070020280700200023034A1370034AE9
:102510001370034A137070473307002032070020FE
:102520003407002008B5094B094A186000231370CE
:10253000084A1370084A1370FFF7E6FF28B101221A
:102540000349BDE8084004F01FBB08BD4007002058
:102550003C0700203107002030070020114A0346C5
:1025600013B51068D0B1012B16D0022B16D132232F
:102570000D4A0DF107018DF8073000230B4C137045
:102580002370FFF7C1FF6423012204F0F2F938B988
:102590000123237002B010BD3123E9E70120F9E7E0
:1025A0000220F7E740070020310700203007002015
:1025B000EFF3108272B6044B002118781970C0B284
:1025C00002B962B6704700BF310700201B4A38B518
:1025D00003461068002830D098422ED1184B1C7842
:1025E0000D2C14D0174B0A2C1A7816D16AB9164B39
:1025F0001978012909D1154B1B78312B05D1144BC2
:102600001C7814B1134C21701A70FFF77DFF012262
:102610000B49BDE8384004F0B7BA002AF7D10A4D9B
:102620002978062995BF4B1C0122DBB21A709FBF87
:102630002B70064D6C54EA54E9E738BD4007002082
:102640003C07002032070020330700203407002019
:1026500030070020310700200A4A116808B579B117
:1026600081420DD1FFF750FF0B6808221A62002348
:102670000122C1F884300449BDE8084004F084BA5E
:1026800008BD00BF400700203C0700200023054A8A
:10269000137053709370D3701371034A1370034A0D
:1026A00013707047460700204507002044070020AC
:1026B00008B5FFF7EBFF0023034A1370034A1370BA
:1026C000034A137008BD00BF4D0700204C070020CF
:1026D0004B0700202DE9F04F00238F4A8F4C85B027
:1026E0008F4D23701370FFF7D1FF00F03DF901F01B
:1026F00017F90528019005D830B909232B70052357
:1027000023700AE00523019301262E7000F034FAAD
:10271000B04207D108232B70207094F800905FFA24
:1027200089F9C7E018B109232B700623E8E74FF0B9
:1027300005087C4F032343F698223146304685F83E
:1027400000803B70FFF744FE30B109232B70042357
:10275000237087F80080E0E7734B1B781BB10823D8
:102760002B702670D9E7B0466B4B0226012083F808
:1027700000802E70FFF7F2FE08B10923F0E702F0A7
:1027800041FC42F20F79064602F03CFC801B4845B2
:1027900009D907234FF0030901222B70614B84F8FC
:1027A00000901A7086E0604B1B78002B40F0A780E9
:1027B000FFF7FEFE18B9012005F0DAFCE4E7032379
:1027C000022043F6982201212B7004263870FFF76F
:1027D000FFFD28B109232B70052326703B709CE771
:1027E00000F0C2F842F20F7B2E7002F00BFCDFF813
:1027F00044A1814602F006FCA0EB0900584505D92A
:102800004FF0070900264FF0010B2CE0464B1B78D8
:1028100003F0FF06002B7CD10DF10F008DF80F6047
:1028200000F0C4F840B19DF80F20531E082B03D8C8
:102830009AF80030934203D1012005F099FCD9E7C2
:102840003A490B78042B24D83948B1468AF800203D
:10285000C25401330B7001F009F8831E0646D3F110
:10286000000B4BEB030B2F4B032201214FF0050A0A
:10287000084685F800A01A7043F69822FFF7A8FDD5
:102880000422284B50B109212970227083F800A03E
:1028900043E74FF0010B4FF00709E4E71A70B9F175
:1028A000000F0BD0B9F1010F14BF072308232B70C1
:1028B00084F80090484605B0BDE8F08F16F0FD0F93
:1028C00004D009232B7084F800A026E7BBF1000F89
:1028D00003D008232B70012312E71349097800293C
:1028E000F7D108F101015FFA81F8019988457FF677
:1028F0003BAF0621297084F800901A700DE7082379
:102900004FF001092B70074B84F8009083F800907A
:10291000D0E74FF0010975E74B0700204C07002076
:102920004D0700201C070020D1070020450700208C
:10293000460700204407002009289ABF024B53F89D
:1029400020000248704700BFD4D50008BDD0000861
:1029500007289ABF024B53F820000248704700BF77
:10296000B4D50008BDD00008EFF3108272B6002382
:1029700003490B7003490B7002B962B6704700BF80
:102980004F0700204E07002008B5064A00230648DE
:102990001370FFF7E9FF01220249BDE8084004F087
:1029A000F3B800BF500700200C020020034680B19E
:1029B000084A107868B1EFF3108172B6107828B128
:1029C00005480078187000230120137009B962B619
:1029D000704770474E0700204F07002088B1094B11
:1029E00098420ED1084B1B785A1E082A04D8074A71
:1029F00013700122064B1A7001220349014804F0AA
:102A0000C3B870470C020020500700204F07002079
:102A10004E07002060B1074A904209D102680821A0
:102A2000116200220449C0F88420012204F0ACB8ED
:102A3000704700BF0C020020500700209FED071ACE
:102A400010B5F0EE410AB0EE410A01F04BFC04462D
:102A500008B101F09DF9204610BD00BF0000000044
:102A60002DE9F04F2DED028B85B08246019102F0E9
:102A7000C9FA80464FF4FA7002F03AFA40B90425D8
:102A8000FFF7DCFF284605B0BDEC028BBDE8F08FF8
:102A90000027DFF8E0B0DFED358A01F027FC3E4685
:102AA00002F0B0FA4FF480710446314802F092FC13
:102AB000012102902E4802F08DFC022181462C4813
:102AC00002F088FC08210546294802F083FC9BF8A7
:102AD0000010024629B1FFF7B1FF00283CD10125C3
:102AE000D0E7019B3BB1A4EB0801514503D302257C
:102AF000FFF7A4FFC6E74FF4FA70039202F0F8F96B
:102B00000028BCD0029B4BB345EA0905039AEDB2FD
:102B10006DB91AB3FFF792FF002F08BF264605468E
:102B2000D0B9A41B312C1CD901F0E0FBAAE7B3EE0D
:102B3000098A002AFBEE097A08FE278AB3EE090A01
:102B400001F074FBF0EE480AB0EE401AB0EE680AED
:102B500001F0C8FB074628B1032593E7B3EE098AC5
:102B6000ECE70127142005F003FB99E700000000C3
:102B7000000C0240D1070020012141F28830FFF70C
:102B80006FBF00210846FFF76BBF000008B5054B7B
:102B90001B782BB901F040FC003818BF012008BD9C
:102BA0000120FCE7D10700209FED071A08B5F0EEE1
:102BB000410AB0EE410A01F095FB18B1BDE80840AA
:102BC00001F0E6B808BD00BF0000000008B5FFF73F
:102BD000EBFF034B0F221A700122024B1A7008BD43
:102BE00058070020560700202DE9F04F0023864AA1
:102BF000864C874D874FDFF830A2DFF830B2DFF820
:102C000030922DED028B83B023701370824A2B70AB
:102C10003B7013708AF800308BF8003089F8003070
:102C200000F072FE002800F081807C4B1A78012AA7
:102C300002D01B78042B79D1794E4FF000089FED1C
:102C4000798A5FFA88F3704A137008F1FF330A2B10
:102C500007D8DFE803F0131517191B1D231F2123C5
:102C6000250001232370FFF791FFD8B1FFF7AEFFD6
:102C7000012003B0BDEC028BBDE8F08F0223F1E729
:102C80000323EFE70423EDE70523EBE70623E9E75A
:102C90000723E7E70923E5E70B23E3E70823E1E759
:102CA0000C23DFE73378062B1AD8DFE803F0042182
:102CB00036477B576900F0EE481A96ED031ADFEDB0
:102CC000590A96ED020A706801F034FE89F8000096
:102CD00001F0A2FB0028C9D199F80030CF2B7FD991
:102CE000FFF762FF10230220237002232B70C0E73E
:102CF00096ED020A01F022FE89F8000001F08CFB3B
:102D00000028B3D199F80030CF2B69D9FFF74CFFD9
:102D10001023032023702870ABE7FFF7DBFC38702B
:102D20003B78012BA2D03B78002B59D0FFF73CFF1A
:102D300010230420237004232B709AE700F05CFB1F
:102D4000354A10701378012B90D01378002B47D0A0
:102D5000FFF72AFF102305202370DCE700F0C8F9F5
:102D60008AF800009AF80030012B3FF47FAF9AF800
:102D70000030ABB3FFF718FF102307202370CAE71A
:102D800000F04CFE8BF800009BF80030012B3FF464
:102D90006DAF9BF800301BB3FFF706FF1023082030
:102DA0002370B8E71D4B4FF003020121307C1A70ED
:102DB00040F6B832FFF70CFB0190FFF7E7FE002862
:102DC0007FF454AF019B43B10523144A1370FFF7FE
:102DD000EBFE1023062023709DE704230F4A137097
:102DE000FFF7D4FE00287FF441AF08F10108143644
:102DF000B8F10C0F7FF425AF0190FFF7D5FE0E233D
:102E00000198237087E700BF57070020580700206C
:102E10005607002055070020540700201C070020FB
:102E200064D600080000000053070020520700206D
:102E30005107002010289ABF024B53F82000024887
:102E4000704700BF20D60008BDD0000808289ABFF0
:102E5000024B53F820000248704700BFFCD5000821
:102E6000BDD00008D02807D0E12805D0CF2894BFD6
:102E7000002001208000704703207047024B187823
:102E8000003818BF01207047D10700200238024BDC
:102E9000C0B2185C704700BF00D8000870B50E4E75
:102EA000337813B10124204670BD0121FFF766FA83
:102EB000044678B902F0A6F8054602F0A3F8431BD1
:102EC000B3F5FA7FEFD23378002BEBD10A2005F06F
:102ED0004FF9F2E70524E6E7D107002008B5FFF730
:102EE00067FB10B10120014B187008BD5907002085
:102EF0009FED061A08B5F0EE410AB0EE410A01F066
:102F0000F1F910B100F044FF042008BD00000000FA
:102F100038B5FFF7EDFF00BB134C2378A3B90120B0
:102F2000FFF71CFBD8B902F06DF8054602F06AF80D
:102F3000431BB3F57A7F237803D303F0FF0023B15B
:102F400000E01BB1FFF7D4FF022038BDFFF730FBD4
:102F500038B9012005F00CF9E8E70320F5E7042073
:102F6000F3E70120F1E700BFD1070020F8B51D4EBF
:102F70000C461D4F30703B780BB10220F8BDDFEDE1
:102F80001B1A5A209FED1A1AF0EE610A9FED190ADA
:102F900001F0D0FC054601F03FFA0028EDD12846AB
:102FA000FFF760FF032819D0B0B9FFF7A1FF98B968
:102FB0003B78002BE1D13470FFF7AAFF431E032BAF
:102FC0000ED801A252F823F07D2F00087B2F0008B5
:102FD000D92F00087D2F00080320CFE70520CDE77B
:102FE0000020CBE75B070020D10700200000000095
:102FF0000000204200003443054B1870054B10B907
:1030000020221A70704701280CBF21222222F8E7E3
:103010005A0700205B07002008B5064B1B7803F019
:10302000FF002BB1FFF764FF002814BF042001202C
:1030300008BD00BFD1070020104BDFED111A9FED36
:10304000111AF0EE610A9FED100A10B51870752084
:1030500001F070FC044601F0DFF950B92046FFF79B
:1030600001FF38B9FFF744FF28B9BDE81040FFF76A
:10307000D3BF012010BD0420FCE700BF5B07002088
:1030800000000000000020420000344308B5084B57
:103090001B784BB944F620620121FFF799F928B952
:1030A000BDE80840FFF7B8BF012008BD0520FCE7D8
:1030B000D107002038B50C4D14462970FFF7E6FF04
:1030C00070B92C70FFF7A8FF50B9084800F04EFB0C
:1030D000042804D028B9BDE83840FFF79DBF01207F
:1030E00038BD0620FCE700BF5B0700207D2E0008EE
:1030F0002DE9F7430023884D884C2B70237000F096
:1031000063FB18B90620222320700CE001262E70E4
:10311000FFF737FD04280ED8DFE800F00F030D0B92
:103120000900212326702B7003B0BDE8F083032033
:10313000E9E70420E7E70220E5E718230B202B70DE
:10314000FFF7ACFE044668B919232B70FFF7E0FEC9
:1031500001280DD11D221C210C20FFF7ABFF0446D6
:10316000002836D0204603B0BDE8F043FFF744BF47
:1031700078B3FFF78BFE04460028F3D10B23082019
:103180002B70FFF78BFE0028EDD1654E654FDFF801
:10319000A881002C3AD163000C33DBB22B70FFF70F
:1031A000B7FE012803467ED1142213210920FFF720
:1031B00081FF0028D7D10134042CEAD1172307203E
:1031C0002B70FFF763FF0028CDD11620FFF734FFE7
:1031D0006DE01B211A20FFF7C9FE012813D11D2223
:1031E0001C210C20FFF766FF04460028BAD11E23DD
:1031F0000A202B70FFF74AFF04460028B2D11F2097
:10320000FFF71AFFB7E70028F1D0B2E7012C13D07F
:10321000022C0CBF0F2311232B7000238DF80730D5
:1032200033703B7853B1022318F8030000289AD179
:10323000032CB0D11223B1E70D23EDE70120FFF7F6
:103240008DF960BBDFED381A0DF1070237495A20BE
:10325000F0EE610A9FED361A9FED360A01F0E2F8B2
:10326000814601F0D9F80028DDD14846FFF7FAFD84
:10327000032816D008B10323D6E7FFF739FE00284C
:10328000F9D13B78002BCED19DF807302BB933789C
:10329000003B18BF0123DBB2C6E70123FBE7042391
:1032A000C2E70523C0E7002885D0FFF7EFFD00281F
:1032B0007FF459AF022305202B70FFF7EFFD0028A4
:1032C0007FF451AF03232B70FFF722FE01281BD19F
:1032D000062205211046FFF7EDFE00287FF443AFDC
:1032E00007210420FFF742FE012812D10622052102
:1032F0001046FFF7DFFE00287FF435AF0A230020D9
:103300002B70FFF7C3FE2EE70028E9D0FFF7BEFDC4
:1033100029E70028F2D0F9E75B0700205A070020D0
:1033200059070020D107002000000000DD2E000812
:10333000000020420000344306D8000822289ABF2B
:10334000024B53F820000248704700BF74D70008B2
:10335000BDD0000807289ABF024B53F8200002484E
:10336000704700BF54D70008BDD00008024B187842
:10337000003818BF01207047D10700209FED071AC1
:1033800010B5F0EE410AB0EE410A00F0ABFF044682
:1033900008B100F0FDFC204610BD00BF0000000099
:1033A0000A4B10B51B7803F0FF0423B10124FFF78B
:1033B000E5FF204610BD4FF4FA7001F099FD00289A
:1033C000F7D10224FFF7DAFFF3E700BFD1070020AF
:1033D00010B501F017FE044601F014FE031B4F2B3D
:1033E00001D9002010BDFFF7DBFF0028FAD114201F
:1033F00004F0BEFEF0E700002DE9F0474FF4FA704C
:103400002DED048B01F074FD38B90224FFF7B6FFEF
:103410002046BDEC048BBDE8F0874FF0000800F0BB
:1034200065FF41F2873901F0EDFD474606469FED05
:103430007E8A01F0E7FD0546FFF7B2FF044628B992
:10344000AB1B4B4505D90424FFF798FFFFF796FF08
:10345000DEE74FF48061754801F0BCFF30B9B8F188
:10346000000F14D0ED1B1D2D19D84446B3EE090AE8
:1034700000F0DCFEFBEE090AB0EE401AB0EE480A9E
:1034800000F030FF30B10324FFF778FFDEE72F466E
:103490000124EBE71420A04604F06AFEC9E7FFF719
:1034A0006DFF08B10324B3E7FFF792FF044600283D
:1034B000AED103205E4E01213070FEF75FFF04465F
:1034C00010B105243470A3E701F09CFD594F054667
:1034D00001F098FD431BB3F57A7F30D3042333709A
:1034E000002C95D1544F072400F000FF01F08AFD15
:1034F000814601203C70FFF731F80546002887D14E
:1035000001F038FDB0EE408ADFED4C8A9FED4C9A19
:10351000B4EEE88AF1EE10FA65D5FFF741FF0446F4
:1035200000287FF475AF01F06DFD43F69723A0EB03
:10353000090098420BD90924FFF720FF68E73B7880
:103540001BB9142004F014FEC2E74446C6E701F09C
:1035500011FD032DB0EE408A40D8FFF729F800286E
:103560003CD001F04FFD8246FFF708FF80BBFFF71C
:103570002FFF044650B9022344F6206201210420A3
:103580003370FEF725FF58B10524347001F03AFD81
:10359000002C7FF43DAFA9EB0A0A0AEB0009B7E75C
:1035A000284800F0E3F8042816D098B90423013520
:1035B0003370EDB21F4B1B7803F0FF0463B9042D89
:1035C000E4D00120FEF7CAFF041E18BF0724DDE780
:1035D0000324DBE70624D9E74446D7E7B4EEE88ABC
:1035E000F1EE10FA0FDBFFF7C9FE00287FF45AAFA7
:1035F000FFF7EEFE044600287FF40AAF00F076FEE7
:1036000004233B7004E7B0EE491ADFED070A9FED93
:103610000E0A00F067FE10B1FFF7B0FE42E714207B
:1036200004F0A6FD74E700BF00000000000C02409B
:103630001C070020D1070020D20700200000B04363
:10364000000044426D330008000078C238B50E4DCA
:103650000E4C2B78012B04D0012323702078C0B2AC
:1036600038BD4FF4A0630022642100F049FC00380B
:1036700018BF012040002070237813B902232B705B
:10368000ECE70323FBE700BF6007002007000020F2
:1036900038B5094D094C30B903232B700123237031
:1036A0002078C0B238BD00F0E5FB054B4FF45272F4
:1036B0001A6000232B70F2E760070020070000204B
:1036C0005C07002008B500F0E7FB0038064B18BF88
:1036D0000120400018701A78002A044A14BF032100
:1036E00001211170187808BD070000206007002034
:1036F0000020FFF7ABBF00002DE9F843184D04464A
:103700002B78022B06D0174B01221A701878C0B202
:10371000BDE8F88301F076FCDFF84C80074640F204
:10372000DB5901F06FFCC61B3CB1A04728B100F08B
:10373000CDFB04220B4B2A70E7E7D8F800309E42FD
:1037400004D3012300222B70064BDEE74E4503D93C
:1037500000F0BCFB0322EDE70A2004F009FDE0E7DE
:1037600060070020070000205C07002010B5044619
:10377000FFF7BEFF20B92046BDE81040FFF7BCBFF1
:1037800010BD10B504460120FFF760FF20B92046A8
:10379000BDE81040FFF7B0BF10BD000008B500F055
:1037A00095FB0038064B18BF0120400018701A78AE
:1037B000002A044A14BF032101211170187808BDA2
:1037C0000700002060070020024B1878431E584273
:1037D000584170476007002004289ABF024B53F8F5
:1037E00020000248704700BF20D80008BDD0000864
:1037F00004289ABF024B53F820000248704700BFCC
:103800000CD80008BDD00008024B1878003818BF4B
:1038100001207047D107002038B5114A0023114C10
:103820001370114D237003232B70FFF731FF10B974
:10383000FFF748FF28B104280BD003280CBF052050
:10384000042028702B7833B1052323702878C0B268
:1038500038BD0220F5E7C82004F08AFC0123F4E714
:10386000620700206107002008000020F8B5224D03
:10387000224C2B78012B0BD02B78032B08D02B78E4
:10388000042B14BF0323012323702078C0B2F8BD9A
:103890001B4E3378052B03D904232B700123F3E748
:1038A000FFF7B2FF18B106232B700223ECE70227C3
:1038B00014482F70FFF75AFF28B1042811D00328AD
:1038C0000CBF052004202070237863B933780133BE
:1038D000DBB233703378052B94BF032304232B70A2
:1038E000D3E73846EFE72378022B01D10623F6E72A
:1038F000FFF754FF0523F2E76107002008000020CE
:103900006207002009380008044B1A78012AD0B257
:1039100003D01878C31E58425841704761070020F1
:10392000054B1A78052A04D81878C0F10600C0B2F1
:1039300070470020704700BF6207002006289ABF2A
:10394000024B53F820000248704700BF34D80008EB
:10395000BDD00008024B1878003818BF012070470E
:10396000D107002038B50446FFF7F4FF60B9094DD0
:10397000022344F62062012120462B70FEF728FD29
:1039800018B1052306202B7038BDBDE83840FFF77D
:10399000E1BF00BF1C07002008B5FFF7DBFF08B13F
:1039A000012008BD0448FFF7ECFE0428F8D00028E9
:1039B00018BF0720F5E700BF5539000810B50246CB
:1039C000FFF7C8FF08B1012010BDDFED0D1A10464A
:1039D0009FED0C1AF0EE610A00F0ACFF044600F017
:1039E0001BFD0028EFD1E12C05D0E42C05D0042CE0
:1039F00018BF0520E8E70220E6E70320E4E700BF60
:103A000000000000000002430023024A1370024A33
:103A1000137070476407002063070020F8B5002387
:103A20007F4E804D337001239FED7F0A2B7000F095
:103A300085FF0446074600F0EFFC002840F0DD80DB
:103A4000E12C00F0C580E42C00F0CF80042C40F085
:103A5000CE8002232B70FFF77DFF002840F0CD8041
:103A6000FFF78AF8012800F0C880042800F0B08031
:103A7000002840F0AE8003239FED6C0A32202B70AB
:103A8000FFF79CFF0446002840F0B5809FED660AD2
:103A9000C8202F70FFF792FF0446002840F0AB804B
:103AA0000D20FFF75FFF0446002840F0A4800E20A1
:103AB000FFF758FF0446002840F09D80FFF76CFF99
:103AC0000446002840F0978005239FED570AC82040
:103AD0002B70FFF773FF0446002840F08C800E2007
:103AE000FFF740FF0446002840F085800D20FFF7D7
:103AF00039FF044600287ED1FFF74EFF0446002818
:103B000079D106239FED480AC8202B70FFF756FF96
:103B1000044600286FD10E20FFF724FF044600283A
:103B200069D10D20FFF71EFF0446002863D1FFF77F
:103B300033FF044600285ED107230F202B70FFF7C8
:103B400011FF0446002856D10D20FFF70BFF044655
:103B5000002850D1FFF720FF044600284BD108234E
:103B60009FED330AC8202B70FFF728FF044600287A
:103B700041D10F20FFF7F6FE0446E0BB0D20FFF712
:103B8000F1FE0446B8BBFFF707FF044698BB0923C4
:103B90009FED270AC8202B70FFF710FF044650BB8B
:103BA0000F20FFF7DFFE044628BB0D20FFF7DAFEEB
:103BB000044600BBFFF7F0FE01281ED0C8B90A2258
:103BC00004212A701B4A307011703078C0B2F8BDE1
:103BD00002249FED171AF0EE410AB0EE410A00F000
:103BE00081FB0C232B70347018E00324F1E70524CB
:103BF000EFE70724EDE7012CEBD19FED0D1AF0EE76
:103C0000410AB0EE410A00F06DFBFFF7C7FD094B1A
:103C100004221A700B232B70012333703078D5E700
:103C20006307002064070020000034430000B44212
:103C3000000000001C07002038B50C4B04460A4663
:103C40000B4D186818B901242C70204638BD214648
:103C5000642302F08EFE0446287018B9054A1368E2
:103C600001331360022001F0D3F9EEE76C07002066
:103C70006507002068070020F32307B58DF80130A1
:103C800040F2AB1306218DF80000ADF8023046F685
:103C900001336846ADF80430FFF7CEFF03B05DF89E
:103CA00004FB000007B50421044B0DEB0100019358
:103CB000FFF7C2FF03B05DF804FB00BF00FF666BB7
:103CC000FE2307B58DF801304FF4CC7305218DF834
:103CD0000000ADF802306B2368468DF80430FFF722
:103CE000ABFF03B05DF804FB93B2002AB8BF5B42A0
:103CF00007B5B8BF9BB240F2DC52B8BF81F00101FA
:103D00008DF80000934268468DF802104FF00801CC
:103D100028BF1346F6228DF804308DF801201A0AC8
:103D200000238DF803208DF8053046F60133ADF8F9
:103D30000630FFF781FF03B05DF804FB034B044A34
:103D4000186000231360034A137070476C0700204B
:103D50006807002065070020F8B50120FFF78CFFF9
:103D600006460220FFF788FF07460320FFF784FF7F
:103D70003E4305460420FFF77FFF04463543FFF727
:103D800091FF2C432043C0B2003818BF0120F8BD7A
:103D9000F8B50120FFF794FF06460220FFF790FFD9
:103DA00007460320FFF78CFF3E4305460420FFF73C
:103DB00087FF04463543FFF775FF2C432043C0B20D
:103DC000003818BF0120F8BD10B50446F8B1012134
:103DD000B0F900200846FFF787FF0146B8B9B4F9EB
:103DE00002200220FFF780FF88B90121B4F90420E6
:103DF0000320FFF779FF014648B9B4F906200420F3
:103E0000FFF772FF18B9BDE81040FFF74BBF012064
:103E100010BD000038B50D4B04460A460C4D18681D
:103E200018B901242C70204638BD2146642302F0C5
:103E3000A0FD044628700028F5D1064A0220136828
:103E40000133136001F0E4F8EDE700BF74070020D0
:103E5000090000207007002007B50421044B0DEB7A
:103E600001000193FFF7D6FF03B05DF804FB00BF2C
:103E700000FF666B054B00221860B0FA80F0044B1F
:103E800040091A60034B1870704700BF7407002088
:103E900070070020090000200A4B07B518680621AA
:103EA0009B8800906846ADF80430FFF7B3FF28B157
:103EB000054B1878C0B203B05DF804FBFFF7CCFFE8
:103EC000F9E700BF40D300080900002007B50A4AFF
:103ED000052110681279009068468DF80420FFF7DC
:103EE00099FF28B1054B1878C0B203B05DF804FB08
:103EF000FFF7B2FFF9E700BF47D300080900002031
:103F000001281FB501D801B12BB91A4B012201209C
:103F10001A7004B010BD0A246143B1F5803FF4D299
:103F20008DF805201A0E8DF80200080A8DF806207B
:103F30001A0C5BBA4FF605548DF803006846ADF8CD
:103F400008304FF480738DF804100D21ADF80A305D
:103F50006B23ADF800408DF807208DF80C30FFF78B
:103F600059FF18B1034B1878C0B2D2E7FFF774FFBE
:103F7000CFE700BF0900002098B170EE607A30EE04
:103F8000200A37EEC17A77EE817A80ED007A30EE42
:103F9000017A30EE410AC0ED037A80ED017A80EDBE
:103FA000020A7047F0EE404A002861D0B5EEC00A20
:103FB000F1EE10FA5CD990ED006AD0ED016AB5EE31
:103FC000C06AF1EE10FAF5EEC06A4CBFB1EE467A67
:103FD000B0EE467AF1EE10FA4CBFF1EE667AF0EEF2
:103FE000667AB4EEE77AF1EE10FA54BFF0EE475A73
:103FF000F0EE675A90ED027AB5EEC07AF1EE10FA63
:104000004CBFF1EE477AF0EE477AF4EEE75AF1EE64
:1040100010FA54BFB0EE655AB0EE675AD0ED037A8D
:10402000F5EEC07AF1EE10FA4CBFF1EE675AF0EE01
:10403000675AB4EEE55AF1EE10FA58BFF0EE455A61
:10404000B4EEE50AF1EE10FA12D584EEA50A26EEDA
:10405000006A66EE806A27EE007A67EE807A80ED6D
:10406000006AC0ED016A80ED027AC0ED037A704704
:10407000B7EE000A7047000010B586B0044602A8EB
:10408000FFF77AFF9FED360A02A8002C65D0FFF7F4
:1040900089FF84ED000AB2EE045A9DED026A314BAD
:1040A000F6EE005ADDED036A684683ED006A26EEFF
:1040B000056A2D4B9DED047AB5EEC06AC3ED006A2A
:1040C00066EE856A294BDDED057AF1EE10FA83ED97
:1040D000007AF5EEC06A264B27EE057AA8BF36EEC9
:1040E000256AC3ED007AB8BF36EE656A67EE857A59
:1040F000F1EE10FAB5EEC07ABDEEC66AACBF76EE50
:10410000A56A76EEE56AF1EE10FA16EE103AF5EED3
:10411000C07AFDEEE66AADF80030ACBF37EE257A26
:1041200037EE657AF1EE10FA16EE903ABDEEC77AE8
:10413000ADF80230ACBF77EEA57A77EEE57A17EEF0
:10414000103AFDEEE77AADF8043017EE903AADF88C
:104150000630FFF739FE06B010BDFFF723FF9AE7E0
:1041600000001643A8070020A4070020A007002095
:104170009C070020144B10B52DED028B1A7802F02D
:10418000FF0092B19FED118A0020114CB0EE481A49
:104190001870F0EE480AB0EE480AFFF76DFF38B12C
:1041A000FFF7F6FDE22302202370BDEC028B10BD69
:1041B000084B0120187004232370074B83ED008AFD
:1041C000064B83ED008AF0E7D107002000000000D5
:1041D000D2070020D0070020B0070020AC07002045
:1041E00010B52DED028B9FED0D8A04460020B0EE38
:1041F000481AF0EE480AB0EE480AFFF73DFFFFF715
:10420000C7FD074B074A1C7082ED008A064A82ED03
:10421000008A1878BDEC028B10BD00BF00000000C2
:10422000D2070020B0070020AC07002008B52DED14
:10423000028BB0EE408A00F09DFEF1EE407A9FEDD9
:10424000246AB5EE007A234BB5EEC08AD3ED006A3E
:10425000F1EE10FAB5EEC00A48BFB1EE488AF1EEB1
:1042600010FA28EE078A9FED1C7A30FE270AB4EE7A
:10427000460AF1EE10FA98BFF0EE477A77EEE66A5A
:10428000C3ED007A37EEA77A06EE867AF2EE006A80
:10429000B4EEE68AF1EE10FA54BFB0EE660AB0EE64
:1042A000480AB4EEC07AF1EE10FA07DCB1EE400A2B
:1042B000B4EEC70AF1EE10FA30FE070A074BC3ED61
:1042C000007A074BBDEC028B83ED000A08BD00BFEE
:1042D0009A99193E7807002000000000CC070020C2
:1042E000C80700200020FFF7C7BE000008B500F097
:1042F00029FE0023034A1360034A1360034A136034
:1043000008BD00BF78070020CC070020C8070020A8
:1043100010B50C46FFF712FD204600F0A5FC002367
:104320001B4A4FF07E501B4913601B4A13601B4A07
:10433000136000220A701A490A601A490B601A4970
:104340000B601A490B601A490B601A490B601A4935
:104350000B601A490B601A490B601A490B601A4925
:1043600008601A490B601A490B601A490B601A4918
:104370000B601A490B601A490B601A4B1A701A4BE2
:104380001A601A4B1A701A4B1A701A4B1A7010BD19
:1043900078070020C4070020CC070020C8070020B1
:1043A000C0070020BC070020B8070020B407002089
:1043B000B0070020AC070020A8070020A4070020B9
:1043C000A00700209C0700200C0000209807002078
:1043D00094070020900700208C0700208807002009
:1043E00084070020800700207C070020D2070020DF
:1043F000D1070020D0070020014B01221A7070471E
:10440000D10700200023024A1370024A137070473C
:10441000D1070020D0070020014B1878704700BF5B
:10442000D00700202DE9F04F2DED108B85B0F0EE78
:10443000609AB0EE418A0AEE100AF0EE618A914667
:1044400000910AB100231370DFEDD27AD24CB4EEA2
:10445000E70AF1EE10FA29DB9FEDD0FAB4EECF0AAD
:10446000F1EE10FA22D89FEDCECA20EE0C0AC0EE73
:104470000FAAB0EE6A0A07F069FCB0EE409AB0EEFF
:104480006A0A07F09BFCF8EE4A7A60EE27AA29EE4A
:10449000279A2AEEAA0A09EE090A07F035FCB5EEBA
:1044A000C00AB0EE40AAF1EE10FA08D8E323237058
:1044B0002078C0B205B0BDEC108BBDE8F08FC9EE1E
:1044C00000EA9FEDB8DA8AEE80BAF5EEC0EAF1EEC6
:1044D00010FA4CBFF1EE6E7AF0EE6E7AF4EECD7A11
:1044E000F1EE10FA40F30F81B5EEC0BAF1EE10FA1A
:1044F0004CBFF1EE4B7AF0EE4B7AF4EECD7AF1EE62
:1045000010FACCBF06230523B5EEC0AADFEDA6AA9C
:10451000F7EE00DAF1EE10FACDED02DAC6DD6BEE61
:104520000B7A4EEEAE7AF4EECD7AF1EE10FABDD9FA
:10453000F4EEEA9AF1EE10FAB8DBB4EEEA8AF1EEA4
:1045400010FAB3DDF4EEEA8AF1EE10FAAEDBF4EE27
:10455000C89AF1EE10FAA9DCB4EEE88AF1EE10FA8E
:10456000A4D4F4EEC89ADFED916AB6EE006ADFEDEE
:1045700090CA38EE289AF1EE10FAB4EEE88A29EEE5
:10458000069A54BFB0EE6AEAB0EE66EA79EE887A2F
:10459000F1EE10FA29EE2C9A67EE867A76FEAABA28
:1045A00029EE2B9A67EEAC7AB0EE497A07EE8E7A56
:1045B000B4EEC7AAF1EE10FA3DD57EEE2B5AF5EE19
:1045C000C05AF1EE10FA36DD7AEE0A7A87EEAC7A4E
:1045D00009EECE7A08EEEB7AC7EE257AF4EEE79A8A
:1045E000F1EE10FA79FEA77AF4EEE78AF1EE10FA0E
:1045F00078FEA77AB4EEE78AF1EE10FA58BFB0EE73
:10460000678AF4EEC89A38EE889AF1EE10FAF4EE62
:10461000C88A29EE069A54BFB0EE6AEAB0EE66EA9E
:10462000F1EE10FA29EE2C9A54BFF0EE6ABAF0EED1
:1046300066BA29EE2B9AF0EE6E0A2370B0EE4B0AA2
:104640005C4D07F05FFB20EE0F0A5B4B4FF000085C
:10465000DFF880A1C0EE0C7A9FED53CAC3ED007A5B
:10466000564BC3ED00EA564B83ED00BA554BC5EDF2
:10467000009AC3ED009A544BC3ED00DA534BCAEDD8
:1046800000AA83ED00AA00F0BDFC0646834603465F
:10469000019300F0B7FC019B0746CDED03DAC31A86
:1046A0000EEE903A831B0BEE103AFFF763FD0028E5
:1046B0007FF4FEAEB5EEC0CADAED007AF8EE6EEA2F
:1046C000009BF1EE10FA48BFB1EE4CCA2CEE2CCA9A
:1046D0004CEE2E7ACAED007AFBB19847E8B19FED17
:1046E000321A0020374EF0EE410AB0EE410AFFF7D1
:1046F000C3FC50B1FFF74CFBE2232370C5ED00AAC9
:10470000C6ED00AAD4E60523FEE6B9F1000F02D0FB
:10471000012389F800300423EFE7B8F1000F29D115
:10472000B5EE40EAF1EE10FA00F0B380B8EE4BBA05
:10473000B4EECBEAF1EE10FA40F2AB808BEE0E7ADB
:1047400078EE697AB0EE69BA07EE87BA204B1B782B
:10475000002B00F0A3804FF4FA7000F0C9FB002892
:1047600040F09C80E12005B0BDEC108BBDE8F04F1F
:10477000FFF736BDB8F1010F2ED13AEE497ADAEDE6
:10478000007AB0EE48BAB4EEE77AF1EE10FADDD86E
:104790003E467BE0000034C3D207002000003443D3
:1047A000DA0F494017B7D1380000000000009643E7
:1047B000FCAD803BB0070020BC070020B8070020FC
:1047C000B4070020AC0700200C0000209407002054
:1047D000C407002098070020F5EE40BAF1EE10FA69
:1047E0000DD0B8EE4BBAF4EECBBAF1EE10FA06D912
:1047F000DAED007AB4EEE7AAF1EE10FA3ED8FFF750
:10480000B9FC00287FF454AE434E33782BB14FF4FB
:10481000FA7000F06DFB0028A4D03378002B78D01C
:10482000B0EE680AFFF702FDB0EE401A3B4B02A85B
:1048300093ED000A3A4B28EE800AD3ED000A68EEA9
:10484000A00AFFF719FC00283FD1F4EECD8ADDED78
:10485000027A344BC5ED008AF1EE10FAC3ED007A0E
:1048600068EEA77A304BC3ED007A3FF621AE042202
:104870002270C5ED00AAC3ED00AA19E68BEE2B7AD3
:1048800078EEC87AB0EE48BA07EE87BA4FF0020861
:104890005CE7B0EE48BA4FF0010857E71E4B1B78B3
:1048A000ABB1B0EE4B0AFFF7C1FCB0EE401A1B4BA8
:1048B00003A893ED000A1A4B2BEE000AD3ED000A71
:1048C0006BEE200AFFF7D8FB20B1E2204BE79FED0B
:1048D000171AECE7DDED037A0BF1140B114B2BEEFD
:1048E00027CA85ED00BAC3ED007A0F4B83ED00CAED
:1048F00000F088FB0346ABEB0000002803DD00F06E
:1049000087FB3B46C4E60A499B460A6801320A60B7
:10491000F7E79FED061A89E7C4070020B8070020D3
:10492000B40700200C000020AC07002000000000AD
:10493000C007002000221146FFF774BDB5EEC00A83
:104940002DE9F04FF1EE10FA9F4D2DED048BF0EEB6
:10495000408A85B00CD408D9F0EE407A9FED9B7A5E
:10496000F4EEC77AF1EE10FA05DDE3232B7052E086
:10497000F1EE407AF2E74FF4FA7000F0B9FA08B9B4
:10498000E123F3E707239FED928ADFF874922B70FF
:104990000023DFF87082DFF870A28E4C8E4F8F4EAE
:1049A000C9ED008A88ED008ACAED008A84ED008A8C
:1049B0003B703360FFF79AFC894B4FF07E529FEDBE
:1049C000899A83ED008A884BDFED888A83ED008A1F
:1049D000874B1A6000F016FB8346019000F012FB33
:1049E0004FF07E530393019BC01A3060FFF7C2FB68
:1049F000C0B14FF4FA7000F07BFA08B1FFF776FC13
:104A0000002389ED008A88ED008A8AED008A84ED12
:104A1000008A3B7033602878C0B205B0BDEC048BCF
:104A2000BDE8F08F4FF4FA7000F062FA48B9E12067
:104A300084ED008A05B0BDEC048BBDE8F04FFFF7B4
:104A4000CFBB3368B3F5FA5F06D3E42084ED008A68
:104A5000FFF7C6FB2870CCE700F08CFA88ED000A5F
:104A6000D9ED006AD8ED007A76EEE76AF5EEC06A15
:104A7000CAED006AF1EE10FA4CBFB1EE667AB0EE04
:104A8000667AB4EEC97AF1EE10FA29D89FED501A81
:104A900003A884ED008AF0EE410AB0EE410AFFF768
:104AA000EBFA08B1E220C5E7039A514B1A604A4A73
:104AB00013780133DBB213701378042B71D9019092
:104AC000FFF714FC01980423434A89ED008A88ED1E
:104AD000008A8AED008A84ED008A1070306045E714
:104AE000F3EE0E7A00233B70B4EEE77AF1EE10FAA3
:104AF0004EDAB2EE046AF2EE0E7AB4EEC67AF1EE57
:104B000010FAA5BF37EE467AF3EE045AC7EE065AFE
:104B100087EE256AAABF9FED377A65EEA77A46EE43
:104B2000077A3368F92B36D896ED006ADFED325AF2
:104B3000B8EE466A86EE257A27EE287AF4EEC77A32
:104B4000B2EE006AF1EE10FAB4EEC67A77FE277A7A
:104B5000F1EE10FA06DBF4EEC67AF1EE10FA48BF79
:104B6000F0EE467AF5EEC06ADFED190A03A8B0EE62
:104B7000600AF1EE10FAD8BFF1EE677AC4ED007A60
:104B800094ED001AFFF778FA40B184ED008A89E7C6
:104B9000F0EE687AC5E7B0EE687ACFE7039A144B77
:104BA0001A600BF1140B00F02DFA0346ABEB00007A
:104BB000002802DD00F02CFA10E710499B460A6835
:104BC00001320A600AE700BFD20700200000B443A8
:104BD0000000000084070020800700207C070020E0
:104BE000B0070020CDCC4C3FAC0700200000704245
:104BF0000C0000200000344200007A43C00700206F
:104C0000900700208C0700208807002038B54FF45B
:104C1000FA60124C00F07EF930B9D0232370FFF710
:104C2000B7F82078C0B238BD0D4D01232B70FFF7C7
:104C300093F810B1E2232370F3E74FF4FA7000F019
:104C4000E7F92B782BB1FFF751FB642000F0E0F976
:104C5000E7E7044B00221A60F7E700BFD207002005
:104C6000C4070020780700200023174A174910B412
:104C70001370174A08601370EFF3108072B60022A9
:104C8000144C2260144C2260144C2260144C22609C
:104C9000144C2260144A1370144A1370144A13609F
:104CA000144A1360144A1360144A136000B962B6C0
:104CB000086828B1012212495DF8044B01F064BF75
:104CC0005DF8044B704700BF010800201008002069
:104CD00000080020F4070020F0070020EC07002067
:104CE000E8070020FC070020F8070020E407002068
:104CF000E0070020DC070020D8070020D4070020B0
:104D00000D0800200C4B1B6810B48BB183420FD1EF
:104D100000220A4908240A7009490A7019680C62BD
:104D2000C3F88420012207495DF8044B01F02CBF31
:104D30005DF8044B704700BF1008002001080020F8
:104D4000000800200D0800204C4A136870B501339C
:104D50004B4D13602B7843B9552805D1494B4A4A2E
:104D60001870012313702B7070BD012B464C0CD1B1
:104D7000532804D1434B587002232370F3E755287E
:104D800052D1404A10702370EEE721783D4B4A1C07
:104D90005854D2B20A2A2270E6D918460A210022B3
:104DA00010F8016B0139324411F0FF01D2B2F7D192
:104DB000997A91425FD1B3F904209FED346A07EEEE
:104DC000902AB3F90620B3F9023007EE102AF8EE64
:104DD000E77A06EE903A2E4BB8EEC77A2D49F8EEF8
:104DE000E66A2D4A67EE867A087827EE067A66EE3E
:104DF000866AC3ED006A294BC3ED007A284B83ED28
:104E0000007A284B98B983ED007A002313600123C0
:104E10000B70254B01221A7000F0F4F8234B244A42
:104E2000186013680133136000232B70ABE7D3EDD8
:104E3000007ADFED206A77EE677AF4EEE67AF1EE3B
:104E400010FA0CDDDFED1C6A77EEE67AD2ED006A2F
:104E500083ED007A76EEA77AC2ED007AD9E7DFED2E
:104E6000176AF4EEE67AF1EE10FA44BFDFED126A4B
:104E700077EEA67AEAE7124AD3E700BFD807002008
:104E80000108002002080020000800200000B43BB8
:104E9000F4070020F8070020E8070020F0070020B2
:104EA000EC070020FC070020E4070020E0070020BA
:104EB000DC070020000034430000B443000034C38A
:104EC000D407002038B5084C236863B183420AD167
:104ED000064D2878FFF738FF294620680122BDE8F3
:104EE000384001F051BE38BD100800200D080020E8
:104EF00038B5074B05461C683CB100F083F8001B31
:104F0000A8428CBF0020012038BD2046FCE700BF2E
:104F1000E007002070B50446094E00F073F805461E
:104F200000F070F8431BA34201D3002070BD33682A
:104F30001BB9052000F06CF8F2E70120F6E700BF8E
:104F4000E0070020EFF3108372B6064A1168064AA4
:104F500011600021054A11600121054A117003B951
:104F600062B67047EC070020FC070020E80700202D
:104F7000F8070020EFF3108372B6034A92ED000A9F
:104F800003B962B6704700BFE807002010B50446B9
:104F9000FFF798FF2046FDF719FB2046FCF7E2FBE0
:104FA0002046FDF743FA2046BDE81040FDF716BD48
:104FB00010B50446FFF7A6FE2046FDF74DFB204640
:104FC000FCF746FC2046FDF785FA2046BDE8104078
:104FD000FDF720BD08B5032000F02CF80F20FCF7EA
:104FE000EBFAFCF7CBFA002008BD0000034A044BA3
:104FF00011681B780B441360704700BF1408002031
:1050000010000020014B1868704700BF14080020F2
:1050100038B50446FFF7F6FF0546631C1EBF044B78
:105020001B78E418FFF7EEFF431BA342FAD338BD09
:105030001000002007490302CA6803F4E06322F469
:10504000E0621204120C134343F0BF6343F40033D5
:10505000CB60704700ED00E0164B30B5DC68C4F360
:105060000224C4F10703251D042B28BF0423062DA9
:105070004FF0FF358CBF033C002405FA03F30028F2
:1050800005FA04F521EA030322EA050203FA04F310
:1050900043EA02034FEA0313DBB206DB00F1604090
:1050A00000F5614080F8003330BD00F00F00024A87
:1050B0001354F9E700ED00E014ED00E0002807DBF1
:1050C0004109012300F01F00024A834042F82130C9
:1050D000704700BF00E100E0BFF35F8F044B5A6AE6
:1050E00022F480325A620022C3F89420704700BF35
:1050F00000ED00E0064B40F00100C3F894005A6A4E
:1051000042F480325A62BFF34F8FBFF36F8F704704
:1051100000ED00E04378144AC2F89830D2F8A0308D
:1051200023F00103C2F8A0304368C2F89C30C37A70
:10513000017B1B0643EA017301780B43817A43EA42
:10514000C143417B43EA8143817B43EA4143C17BC5
:1051500043EA0143417A43EA0123017A43EA4103E6
:10516000C2F8A030704700BF00ED00E070B5044603
:10517000866DFFF747FF054694F83530022B06D0C1
:10518000802301206365002384F8343070BD2368D8
:105190001A6822F016021A605A6922F080025A61D7
:1051A000226C0AB9A26C1AB11A6822F008021A60BD
:1051B0001A6822F001021A602368186810F00100D2
:1051C00007D1E26D3F239340B360012384F835306B
:1051D000D9E7FFF717FF401B0528EDD9202303204F
:1051E000636584F83500CEE790F83530022B03D0A4
:1051F00080234365012070470268052380F835301D
:105200000020136823F00103136070472DE9F74F66
:105210000023DFF8BC916C4A01240D689C4004EA2D
:105220000506AC4340F0B7804D6803274FEA430EB4
:1052300005F0030407FA0EFC671E6FEA0C0C012F41
:1052400034D8876807EA0C08CF6807FA0EF747EAF0
:1052500008078760476827EA0608C5F300179F40DC
:1052600047EA08074760C768022C07EA0C088F68FE
:1052700007FA0EF747EA0807C76019D14FEAD308C3
:1052800003F0070A4FF00F0B00EB88084FEA8A0A79
:10529000D8F820700BFA0AFB27EA0B0B0F6907FA04
:1052A0000AF747EA0B07C8F8207001E0032CDAD1AF
:1052B000076804FA0EF415F4403F07EA0C0744EAC5
:1052C0000704046067D0D9F8444023F0030703F0D3
:1052D000030C4FF00F0E44F4804407F180474FEA6F
:1052E0008C0CC9F8444007F59C37D9F844400EFAB5
:1052F0000CFE04F480440194019CBC6824EA0E0E68
:10530000324CA0424ED004F58064A0424CD004F54B
:105310008064A0424AD004F58064A04248D004F5DD
:105320008064A04246D004F58064A04244D004F5D5
:105330008064A04242D004F58064A04240D004F5CD
:105340008064A0423ED004F58064A04214BF0A24C9
:10535000092404FA0CF415F4801F44EA0E04BC601E
:105360006FEA060794680CBF3C40344315F4001FF5
:105370009460D4680CBF3C40344315F4003FD460C3
:1053800054680CBF3C403443ED035460146854BF70
:105390003C40344314600133102B7FF43DAF03B025
:1053A000BDE8F08F0024D4E70124D2E70224D0E73F
:1053B0000324CEE70424CCE70524CAE70624C8E783
:1053C0000724C6E70824C4E7003C0140000002406F
:1053D0000038024000690840003818BF01207047BB
:1053E000194B37B51A6C194C42F080521A641B6C79
:1053F00003F080530193019B236843F480332360BF
:10540000FFF700FE05466368DA030CD523680F4DED
:1054100043F400332360FFF7F5FD04466B689B03FC
:105420000AD5002006E0FFF7EDFD401BB0F57A7FBE
:10543000E9D9032003B030BDFFF7E4FD001BB0F550
:105440007A7FEBD9F5E700BF0038024000700040DA
:105450002DE9F341044640B30368DE0710D4236806
:105460009D0761D42368190700F1A68023685A07B5
:1054700000F1C780A269002A40F0308100202CE0B2
:10548000944B9A6802F00C02042A07D09A6802F042
:105490000C02082A0BD15B68590208D58D4B1B689A
:1054A0009A03DCD56368002BD9D1012015E063682D
:1054B000884DB3F5803F13D12B6843F480332B60C4
:1054C000FFF7A0FD834E054633689B03C7D4FFF763
:1054D00099FD401B6428F7D9032002B0BDE8F08194
:1054E0009BB92B6823F480332B602B6823F4802333
:1054F0002B60FFF787FD06462B689F03AFD5FFF7AC
:1055000081FD801B6428F7D9E6E7B3F5A02F2B684F
:1055100003D143F480232B60CEE723F480332B6048
:105520002B6823F48023CAE76A4B9A6812F00C0FA9
:1055300007D09A6802F00C02082A11D15B685D025C
:105540000ED4644A1368990702D5E368012BACD1E5
:105550001368216923F0F80343EAC103136081E76C
:10556000E3685C4DBBB12B6843F001032B60FFF790
:1055700049FD06462B689B0707D52B68226923F057
:10558000F80343EAC2032B606CE7FFF73BFD801B87
:105590000228EFD9A0E72B6823F001032B60FFF767
:1055A00031FD06462B689F077FF55CAFFFF72AFDAC
:1055B000801B0228F6D98FE76369464D83B16B6F74
:1055C00043F001036B67FFF71DFD06466B6F9B07FA
:1055D0003FF54CAFFFF716FD801B0228F6D97BE79D
:1055E0006B6F23F001036B67FFF70CFD06466B6FD3
:1055F0009F077FF53BAFFFF705FD801B0228F6D91B
:105600006AE7344B1A6CD50027D41A6C012742F094
:1056100080521A641B6C03F080530193019B2E4D42
:105620002B68D8051BD5A3682A4D012B27D12B6FDA
:1056300043F001032B6741F28838FFF7E3FC254E66
:105640000546336F9A073FD5002F3FF413AF214A29
:10565000136C23F0805313640CE70027DFE72B68FB
:1056600043F480732B60FFF7CDFC06462B68D90509
:10567000D9D4FFF7C7FC801B6428F7D92CE7ABB956
:105680002B6F41F2883823F001032B672B6F23F037
:1056900004032B67FFF7B6FC06462B6F9B07D3D599
:1056A000FFF7B0FC801B4045F7D915E7052B2B6FA2
:1056B00003D143F004032B67B9E723F001032B6701
:1056C0002B6F23F00403B5E7FFF79CFC401B40451C
:1056D000B7D901E70038024000700040384DAB6890
:1056E00003F00C03082B41D02B68022A23F08073AF
:1056F0002B602ED1FFF786FC06462B68990122D439
:10570000A36A5B085A1ED4E907310B4343EA0243FC
:10571000626A43EA8213E26A43EA026343F0005397
:105720006B602B6843F080732B60FFF76BFC244D9C
:1057300004462B689A013FF5A1AEFFF763FC001BFE
:105740000228F6D9C8E6FFF75DFC801B0228D4D9F1
:10575000C2E6FFF757FC04462B689B017FF58EAE2F
:10576000FFF750FC001B0228F6D9B5E6012A6B684A
:105770003FF49BAE03F48002E1698A427FF495AE68
:1057800003F03F02216A8A427FF48FAE47F6C0726F
:10579000616A1A40B2EB811F7FF487AEA26A03F4FC
:1057A00040315208013AB1EB024F7FF47EAEE26A1B
:1057B00003F07063B3EB026F14BF012000208CE68E
:1057C00000380240134908B58B6803F00C03042B22
:1057D0001BD0082B1BD14A684B68496802F03F0276
:1057E00013F48003C1F388111ABF0B4800230B4840
:1057F000A1FB0001FAF7A8FE064B5B68C3F3014367
:1058000001335B00B0FBF3F008BD0348FCE703483D
:10581000FAE700BF0038024000127A000024F400CA
:105820002DE9F0410D46044610B90120BDE8F08194
:10583000454A136803F00F038B4228D321688F0772
:1058400030D4C80743D4404A136803F00F03AB4277
:1058500066D8226851076FD4130707D53B4A2169E0
:10586000936823F4604343EAC1039360FFF7AAFF00
:10587000364B374A9B68C3F30313D35CD840354B90
:105880001860354B1868FBF797FE0020CEE71368C9
:1058900023F00F030B431360136803F00F038B42D5
:1058A000C3D1CBE711F0040F284B03D09A6842F420
:1058B000E0529A600E0703D59A6842F460429A60FB
:1058C0009A68A06822F0F00202439A60B9E7616822
:1058D0001E4B01291A681BD112F4003FA5D09A680B
:1058E00041F28838194F22F003020A439A60FFF709
:1058F00089FB0646BB68626803F00C03B3EB820FBA
:10590000A1D0FFF77FFB801B4045F3D903208DE733
:10591000022902D112F0007FE0E712F0020FDDE76A
:10592000136823F00F032B431360136803F00F0376
:10593000AB427FF47AAF8CE70449E0688B6823F4CC
:10594000E05303438B6087E7003C0240003802408D
:1059500094D500080000002014000020044B054AE4
:105960009B68C3F38223D35C034A1068D840704716
:10597000003802408CD5000800000020044B054A86
:105980009B68C3F34233D35C034A1068D840704726
:10599000003802408CD50008000000200F2303606F
:1059A0000B4B9A6802F0030242609A6802F0F00220
:1059B00082609A6802F4E052C2609B68DB0803F4DC
:1059C000E0530361034B1B6803F00F030B60704748
:1059D00000380240003C02402DE9F74302680446CB
:1059E00012F001030BD0AD498B6823F400038B60E8
:1059F000636B88681843B3FA83F35B09886012F419
:105A0000002612D0A548E66BD0F88C10B6F5801FA2
:105A100021F4401108BF012341EA060116BFB6FA7E
:105A200086F600267609C0F88C10D50211D59B4D5C
:105A3000206CD5F88C10B0F5800F21F4400141EABC
:105A40000001C5F88C1000F08681002808BF46F0E0
:105A50000106C2F30067900647EA030731D58F4B72
:105A60008F4D1A6C42F080521A641B6C03F0805305
:105A70000193019B2B6843F480732B60FFF7C2FAFC
:105A800080462B68D90540F16881844D2B6F13F453
:105A9000407340F06D81236B03F44072B2F5407F98
:105AA0007E4A40F08B81916823F0704021F4F81118
:105AB00020F4407001439160C3F30B03116F0B435B
:105AC00013672568E8060CD5744BD3F88C2022F0B8
:105AD0008072C3F88C20D3F88C20A16B0A43C3F8E2
