:020000040800F2
:1000000000000520190D00083515000837150008F7
:10001000391500083B1500083D15000800000000D8
:10002000000000000000000000000000C18A00087D
:100030003F15000800000000618B0008C58B000818
:10004000690D0008690D0008690D0008690D0008B8
:10005000690D0008690D0008690D0008690D0008A8
:10006000690D0008690D0008690D0008690D000898
:10007000690D0008690D0008690D0008690D000888
:10008000690D0008690D0008690D0008690D000878
:10009000690D0008690D0008690D0008690D000868
:1000A000690D0008690D0008690D0008690D000858
:1000B000690D0008690D0008690D0008690D000848
:1000C000690D0008690D0008690D0008690D000838
:1000D000690D0008690D000841150008690D000848
:1000E000690D0008690D0008690D0008690D000818
:1000F000690D0008690D0008690D0008690D000808
:10010000690D0008690D0008690D0008690D0008F7
:100110004D150008591500087D150008690D0008E7
:10012000690D0008690D0008690D0008690D0008D7
:10013000690D0008690D0008690D0008690D0008C7
:10014000690D0008690D0008690D0008690D0008B7
:10015000690D0008690D0008690D0008690D0008A7
:10016000690D0008690D0008690D0008690D000897
:10017000690D0008690D0008690D0008690D000887
:10018000690D0008690D0008651500087115000863
:10019000690D0008690D0008690D0008690D000867
:1001A000690D0008690D0008690D0008690D000857
:1001B000690D0008690D0008690D0008690D000847
:0801C000690D0008690D00083B
:1001D00081F0004102E000BF83F0004330B54FEAF8
:1001E00041044FEA430594EA050F08BF90EA020F65
:1001F0001FBF54EA000C55EA020C7FEA645C7FEAF8
:10020000655C00F0E2804FEA5454D4EB5555B8BF1A
:100210006D420CDD2C4480EA020281EA030382EA8B
:10022000000083EA010180EA020281EA0303362D1D
:1002300088BF30BD11F0004F4FEA01314FF4801CF0
:100240004CEA113102D0404261EB410113F0004F02
:100250004FEA03334CEA133302D0524263EB4303B9
:1002600094EA050F00F0A780A4F10104D5F1200E57
:100270000DDB02FA0EFC22FA05F2801841F10001B2
:1002800003FA0EF2801843FA05F359410EE0A5F186
:1002900020050EF1200E012A03FA0EFC28BF4CF0B7
:1002A000020C43FA05F3C01851EBE37101F000456D
:1002B00007D54FF0000EDCF1000C7EEB00006EEB7A
:1002C0000101B1F5801F1BD3B1F5001F0CD3490804
:1002D0005FEA30004FEA3C0C04F101044FEA44525B
:1002E00012F5800F80F09A80BCF1004F08BF5FEAE2
:1002F000500C50F1000041EB045141EA050130BDC2
:100300005FEA4C0C404141EB0101013C28BFB1F5D3
:10031000801FE9D291F0000F04BF01460020B1FA1E
:1003200081F308BF2033A3F10B03B3F120020CDAF1
:100330000C3208DD02F1140CC2F10C0201FA0CF0CF
:1003400021FA02F10CE002F11402D8BFC2F1200C34
:1003500001FA02F120FA0CFCDCBF41EA0C019040EA
:10036000E41AA2BF01EB0451294330BD6FEA040433
:100370001F3C1CDA0C340EDC04F11404C4F120021E
:1003800020FA04F001FA02F340EA030021FA04F330
:1003900045EA030130BDC4F10C04C4F1200220FA87
:1003A00002F001FA04F340EA0300294630BD21FAC5
:1003B00004F0294630BD94F0000F83F4801306BF8B
:1003C00081F480110134013D4EE77FEA645C18BF7F
:1003D0007FEA655C29D094EA050F08BF90EA020F16
:1003E00005D054EA000C04BF1946104630BD91EA0E
:1003F000030F1EBF0021002030BD5FEA545C05D111
:100400004000494128BF41F0004130BD14F580044F
:100410003CBF01F5801130BD01F0004545F0FE41C3
:1004200041F470014FF0000030BD7FEA645C1ABFF8
:10043000194610467FEA655C1CBF0B46024650EA2F
:10044000013406BF52EA033591EA030F41F400215B
:1004500030BD00BF90F0000F04BF0021704730B5E1
:100460004FF4806404F132044FF000054FF00001B6
:1004700050E700BF90F0000F04BF0021704730B577
:100480004FF4806404F1320410F0004548BF40424C
:100490004FF000013EE700BF42004FEAE2014FEAA1
:1004A00031014FEA02701FBF12F07F4393F07F4F7C
:1004B00081F06051704732F07F4208BF704793F07F
:1004C0007F4F04BF41F40021704730B54FF4607492
:1004D00001F0004521F000411CE700BF50EA010295
:1004E00008BF704730B54FF000050AE050EA01023E
:1004F00008BF704730B511F0004502D5404261EBAE
:1005000041014FF4806404F132045FEA915C3FF4EE
:10051000D8AE4FF003025FEADC0C18BF03325FEA8B
:10052000DC0C18BF033202EBDC02C2F1200300FA3C
:1005300003FC20FA02F001FA03FE40EA0E0021FA61
:1005400002F11444BDE600BF70B54FF0FF0C4CF44F
:10055000E06C1CEA11541DBF1CEA135594EA0C0F01
:1005600095EA0C0F00F0DEF82C4481EA030621EA3C
:100570004C5123EA4C5350EA013518BF52EA033577
:1005800041F4801143F4801338D0A0FB02CE4FF029
:100590000005E1FB02E506F00042E0FB03E54FF059
:1005A0000006E1FB03569CF0000F18BF4EF0010E51
:1005B000A4F1FF04B6F5007F64F5407404D25FEA4D
:1005C0004E0E6D4146EB060642EAC62141EA555100
:1005D0004FEAC52040EA5E504FEACE2EB4F1FD0C42
:1005E00088BFBCF5E06F1ED8BEF1004F08BF5FEAC0
:1005F000500E50F1000041EB045170BD06F0004672
:1006000046EA010140EA020081EA0301B4EB5C041E
:10061000C2BFD4EB0C0541EA045170BD41F4801116
:100620004FF0000E013C00F3AB8014F1360FDEBF3B
:10063000002001F0004170BDC4F10004203C35DA17
:100640000C341BDC04F11404C4F1200500FA05F39A
:1006500020FA04F001FA05F240EA020001F000423B
:1006600021F0004110EBD37021FA04F642EB0601B1
:100670005EEA430E08BF20EAD37070BDC4F10C04DB
:10068000C4F1200500FA04F320FA05F001FA04F29F
:1006900040EA020001F0004110EBD37041F100018B
:1006A0005EEA430E08BF20EAD37070BDC4F1200596
:1006B00000FA05F24EEA020E20FA04F301FA05F2FE
:1006C00043EA020321FA04F001F0004121FA04F2A6
:1006D00020EA020000EBD3705EEA430E08BF20EA76
:1006E000D37070BD94F0000F0FD101F000464000B0
:1006F00041EB010111F4801F08BF013CF7D041EA32
:10070000060195F0000F18BF704703F00046520035
:1007100043EB030313F4801F08BF013DF7D043EA06
:100720000603704794EA0C0F0CEA135518BF95EABC
:100730000C0F0CD050EA410618BF52EA4306D1D143
:1007400081EA030101F000414FF0000070BD50EA62
:10075000410606BF1046194652EA430619D094EAEC
:100760000C0F02D150EA013613D195EA0C0F05D1D6
:1007700052EA03361CBF104619460AD181EA03012A
:1007800001F0004141F0FE4141F470014FF00000E2
:1007900070BD41F0FE4141F4780170BD70B54FF07D
:1007A000FF0C4CF4E06C1CEA11541DBF1CEA1355FD
:1007B00094EA0C0F95EA0C0F00F0A7F8A4EB0504DF
:1007C00081EA030E52EA03354FEA013100F08880D6
:1007D0004FEA03334FF0805545EA131343EA12639F
:1007E0004FEA022245EA111545EA10654FEA002654
:1007F0000EF000419D4208BF964244F1FD0404F50D
:10080000407402D25B084FEA3202B61A65EB030568
:100810005B084FEA32024FF480104FF4002CB6EB25
:10082000020E75EB030E22BFB61A754640EA0C00A5
:100830005B084FEA3202B6EB020E75EB030E22BFE5
:10084000B61A754640EA5C005B084FEA3202B6EB26
:10085000020E75EB030E22BFB61A754640EA9C00E5
:100860005B084FEA3202B6EB020E75EB030E22BFB5
:10087000B61A754640EADC0055EA060E18D04FEA73
:10088000051545EA16754FEA06164FEAC30343EA13
:1008900052734FEAC2025FEA1C1CC0D111F4801FE0
:1008A0000BD141EA00014FF000004FF0004CB6E7D9
:1008B00011F4801F04BF01430020B4F1FD0C88BF78
:1008C000BCF5E06F3FF6AFAEB5EB030C04BFB6EB83
:1008D000020C5FEA500C50F1000041EB045170BD76
:1008E0000EF0004E4EEA113114EB5C04C2BFD4EBA3
:1008F0000C0541EA045170BD41F480114FF0000E27
:10090000013C90E645EA060E8DE60CEA135594EAA2
:100910000C0F08BF95EA0C0F3FF43BAF94EA0C0FA5
:100920000AD150EA01347FF434AF95EA0C0F7FF41A
:1009300025AF104619462CE795EA0C0F06D152EA6E
:1009400003353FF4FDAE1046194622E750EA410652
:1009500018BF52EA43067FF4C5AE50EA41047FF463
:100960000DAF52EA43057FF4EBAE12E74FF0FF3CC8
:1009700006E000BF4FF0010C02E000BF4FF0010C99
:100980004DF804CD4FEA410C7FEA6C5C4FEA430C12
:1009900018BF7FEA6C5C1BD001B050EA410C0CBF61
:1009A00052EA430C91EA030F02BF90EA020F0020C3
:1009B000704710F1000F91EA030F58BF994208BF2A
:1009C00090422CBFD8176FEAE37040F001007047E7
:1009D0004FEA410C7FEA6C5C02D150EA013C07D13E
:1009E0004FEA430C7FEA6C5CD6D152EA033CD3D089
:1009F0005DF8040B704700BF8446104662468C4683
:100A00001946634600E000BF01B5FFF7B7FF0028B5
:100A100048BF10F1000F01BD4DF808EDFFF7F4FFDE
:100A20000CBF012000205DF808FB00BF4DF808ED69
:100A3000FFF7EAFF34BF012000205DF808FB00BF8C
:100A40004DF808EDFFF7E0FF94BF012000205DF8AE
:100A500008FB00BF4DF808EDFFF7CEFF94BF012063
:100A600000205DF808FB00BF4DF808EDFFF7C4FF5C
:100A700034BF012000205DF808FB00BF4A0011D2FE
:100A800012F5001211D20DD56FF47873B3EB6252E8
:100A90000ED44FEAC12343F0004343EA505323FAF4
:100AA00002F070474FF00000704750EA013002D169
:100AB0004FF0FF3070474FF00000704753B94AB90C
:100AC000002908BF00281CBF4FF0FF314FF0FF3056
:100AD00000F00CB8ADF1080C6DE904CE08F030F967
:100AE000DDF804E0DDE9022304B07047704700BF81
:100AF00010F8012B11F8013B012A28BF9A42F7D0C8
:100B0000D01A7047034613F8012B002AFBD1181A9C
:100B100001387047000000000000000000000000E5
:100B200001F0FF01102A2BDB10F0070F08D010F89E
:100B3000013B013A8B422DD010F0070F42B3F6D1A2
:100B4000F0B441EA012141EA014122F007047FF0BB
:100B500000070023F0E80256083C85EA010586EA12
:100B6000010685FA47F5A3FA87F586FA47F6A5FA4E
:100B700087F68EB9EED1F0BC01F0FF0102F007025A
:100B800032B110F8013B013A83EA010313B1F8D105
:100B90000020704701387047002D06BF35460338E6
:100BA000073815F0010F07D1013015F4807F02BF1F
:100BB000013015F4C03F0130F0BC0138704700BF70
:100BC0004FEA410C7FEA6C5C02D150EA013C0AD149
:100BD0004FEA430C7FEA6C5C02D152EA033C02D13B
:100BE0004FF0000070474FF0010070474FEA41029C
:100BF000B2F1E04324BFB3F5001CDCF1FE5C0DD97B
:100C000001F0004C4FEAC0024CEA5070B2F1004FC4
:100C100040EB830008BF20F00100704711F0804FC7
:100C200021D113F13872BCBF01F00040704741F48C
:100C300080114FEA5252C2F11802C2F1200C10FA90
:100C40000CF320FA02F018BF40F001004FEAC12374
:100C50004FEAD32303FA0CFC40EA0C0023FA02F318
:100C60004FEA4303CCE77FEA625307D150EA0133EE
:100C70001EBF4FF0FE4040F44000704701F00040BE
:100C800040F0FE4040F40000704700BF0348044BB2
:100C9000834202D0034B03B118477047E4010020A0
:100CA000E4010020000000000548064B1B1AD90F84
:100CB00001EBA301491002D0034B03B11847704761
:100CC000E4010020E40100200000000010B5064C03
:100CD000237843B9FFF7DAFF044B13B10448AFF3AD
:100CE00000800123237010BDE401002000000000FB
:100CF00094D3000808B5054B1BB105490548AFF36F
:100D00000080BDE80840FFF7CFBF00BF0000000033
:100D1000E801002094D30008DFF834D00D480E49D4
:100D20000E4A002302E0D458C4500433C4188C4245
:100D3000F9D30B4A0B4C002301E013600432A242AA
:100D4000FBD300F08DFC09F04FFA00F061F8FEE7EC
:100D50000000052000000020E401002080E50008DC
:100D6000E4010020349D0020FEE7000010B594B09F
:100D70001022002102240AA809F074F9142200218B
:100D800003A809F06FF9204B012104201A6C42F0EE
:100D900080521A641B6C03F080530193019B1B4B20
:100DA0001A6842F440421A601B6803F440430293FD
:100DB000029B4FF48033CDE908134FF48003CDE953
:100DC0000E43D823CDE9100308A8CDE9124404F05E
:100DD0007DFE08B172B6FEE704F040FE08B172B6BF
:100DE000FEE70F234FF4A0520590072103A8CDE999
:100DF00003344FF48053CDE9062305F04FF808B1D2
:100E000072B6FEE714B010BD00380240007000401A
:100E10001FB500211022684609F024F904F09AFC5D
:100E2000012300226846ADF8003048F21F73CDE977
:100E3000012340F20113039304F0AAFC042004F000
:100E400097FC04F005FCFFF791FF00F023F800F099
:100E50009DF800F0B9F800F0F3F800F0D3F800F0D6
:100E60000DF900F029F900F045F900F061F907F0FB
:100E70001BFC00F05DF807F031FCFEE70268034B55
:100E80009A4201D104F0F0BB704700BF001000404F
:100E900072B6FEE7214B00211A6B42F0800200B5CA
:100EA0008BB01A631A6B06A802F080020192019AB5
:100EB0001A6B42F002021A631A6B02F002020292EB
:100EC000029A1A6B42F001021A631A6B02F00102D5
:100ED0000392039A1A6B42F008021A6310221B6BEA
:100EE00003F008030493049B09F0BCF840F20B13D1
:100EF00005A90B4805930123079304F0C5FC1022B4
:100F0000002106A809F0AEF84FF4806305A9044853
:100F1000059304F0B9FC0BB05DF804FB0038024007
:100F2000000C024008B54FF47A7007F049FCFAE76C
:100F300008B501F079FA00F075FC0B4A00210B4866
:100F400007F0ECFB0A4B0B4A002118600A4807F037
:100F5000E5FB0A4B0A4A002118600A4807F0DEFB4D
:100F6000094B186008BD00BFA0DC0008250F000871
:100F7000080200207CDC0008D920000804020020C0
:100F800058DC0008112400080002002008B50C49B4
:100F90004FF4E1320B4B08460B600023C1E90123FB
:100FA0000C224B62C1E90333C1E90523C1E90733D0
:100FB00006F09DF818B1BDE80840FFF769BF08BD0D
:100FC0003C0500200010014008B50C494FF4E13207
:100FD0000B4B08460B600023C1E901230C224B6236
:100FE000C1E90333C1E90523C1E9073306F07FF8FE
:100FF00018B1BDE80840FFF74BBF08BDB40400209E
:101000000014014008B50C494FF416520B4B08462A
:101010000B600023C1E901230C224B62C1E90333B9
:10102000C1E90523C1E9073306F061F818B1BDE84D
:101030000840FFF72DBF08BDC40500200044004054
:1010400008B50C494FF4E1320B4B08460B60002306
:10105000C1E901230C224B62C1E90333C1E9052335
:10106000C1E9073306F043F818B1BDE80840FFF7BF
:101070000FBF08BD2C0400200048004008B50C49F3
:101080004FF4E1320B4B08460B600023C1E901230A
:101090000C224B62C1E90333C1E90523C1E90733DF
:1010A00006F025F818B1BDE80840FFF7F1BE08BD0D
:1010B000A4030020004C004008B50C494FF4E13275
:1010C0000B4B08460B600023C1E901230C224B6245
:1010D000C1E90333C1E90523C1E9073306F007F885
:1010E00018B1BDE80840FFF7D3BE08BD1C030020BF
:1010F0000050004008B50C494FF416520B4B0846FF
:101100000B600023C1E901230C224B62C1E90333C8
:10111000C1E90523C1E9073305F0E9FF18B1BDE8CE
:101120000840FFF7B5BE08BD9402002000780040DB
:1011300008B50C494FF416520B4B08460B600023C0
:10114000C1E901230C224B62C1E90333C1E9052344
:10115000C1E9073305F0CBFF18B1BDE80840FFF740
:1011600097BE08BD0C020020007C004030B5D9B00D
:1011700004461422002111A808F074FF84220021E3
:1011800016A808F06FFF2368A14A93422BD1402391
:1011900016A8169304F05EFF08B1FFF779FE9D4B89
:1011A0004FF4C06100205A6C42F010025A645A6C2D
:1011B00002F010020192019A1A6B42F001021A63C6
:1011C0001B6B03F001030293029B0223CDE9111371
:1011D000032311A9CDE9130307238F48159304F0C6
:1011E00053FB59B030BD8D4A934229D14FF400636F
:1011F00016A8169304F02EFF08B1FFF749FE854BA1
:101200004FF0C00E11A986485A6C42F020025A6471
:101210005A6C02F020020392039A1A6B42F0040205
:101220001A6300221B6B03F004030493049B022344
:10123000CDE911E30323CDE9132308231593CEE76A
:10124000784A934232D1802316A8169304F002FF05
:1012500008B1FFF71DFE6F4B4FF0600C002411A981
:101260001A6C714842F400321A641A6C02F40032AB
:101270000592059A1A6B42F008021A631B6B03F081
:1012800008030693069B0223CDE911C30323CDE98E
:1012900013430723159304F0F7FA2620224605216D
:1012A00004F018FA262004F047FA9AE75F4A9342BE
:1012B00029D14FF4807316A8169304F0CBFE08B121
:1012C000FFF7E6FD534B4FF44064002511A91A6C5B
:1012D000574842F480221A641A6C02F48022079262
:1012E000079A1A6B42F002021A631B6B03F00203A7
:1012F0003793379B0223CDE911430323CDE91353E1
:10130000072315936BE74B4A934236D18022002185
:1013100038A808F0A7FE4FF4007337A8379304F0FD
:1013200099FE08B1FFF7B4FD3A4B4FF4406000243A
:1013300011A91A6C42F400221A641A6C02F40022F9
:101340000892089A1A6B42F004021A631B6B03F0AE
:1013500004030993099B0223CDE9110303233048B9
:10136000CDE913430823159304F08EFA3420224666
:10137000062104F0AFF9342095E72F4A93425DD15E
:101380008022002138A808F06DFE4FF4806337A852
:10139000379304F05FFE08B1FFF77AFD1D4B4FF461
:1013A0008051002408251A6C1D4842F480121A64EA
:1013B0001A6C02F480120A920A9A1A6B42F0040222
:1013C0001A631A6B02F004020B920B9A1A6B42F02A
:1013D00008021A631B6B159503F008030C930C9B12
:1013E0000223CDE91113032311A9CDE9134304F01E
:1013F0004BFA042311A90C481193159504F044FAF3
:1014000035202246062104F065F935204BE700BF60
:10141000001001400038024000000240001401406A
:101420000008024000440040000C02400048004018
:1014300000040240004C004000500040394A9342F2
:1014400036D18022002138A808F00CFE4FF48053DA
:1014500037A8379304F0FEFD08B1FFF719FD324BB2
:10146000002411A931481A6C42F080421A641A6CA7
:1014700002F080420D920D9A1A6B42F010021A632C
:101480004FF4C0721B6B03F010030E930E9B0223EC
:10149000CDE911230323CDE913430823159304F069
:1014A000F3F952202246052104F014F95220FAE6FD
:1014B0001F4A93427FF495AE8022002138A808F09D
:1014C000D1FD4FF4005337A8379304F0C3FD08B1A2
:1014D000FFF7DEFC144B002411A914481A6C42F0EB
:1014E00000421A641A6C02F000420F920F9A1A6BB3
:1014F00042F010021A6302221B6B03F010031093D8
:10150000109B0323CDE91132CDE913430823159332
:1015100004F0BAF953202246062104F0DBF85320E8
:10152000C1E600BF007800400038024000100240D1
:10153000007C0040FEE7FEE7FEE7FEE7FEE77047BF
:10154000014805F0B1B900BFC4050020014805F00D
:10155000ABB900BFA4030020014805F0A5B900BF46
:101560001C030020014805F09FB900BF9402002031
:10157000014805F099B900BF0C020020014805F0B0
:1015800039B800BF4C0600200D4B82B00F216FF020
:1015900001001A6C42F080521A641A6C02F08052F8
:1015A0000092009A5A6C42F480425A6400225B6CAA
:1015B00003F480430193019B02B004F08BB800BF99
:1015C00000380240214B1A6C42F0100230B589B04D
:1015D0001A641B6C054601A903A803F010030293CB
:1015E000029B04F019FD069B4BBB04F0F5FC184A66
:1015F000184B136040F2E733D360174BB0FBF3F3A3
:10160000013B10465360002313619360936105F022
:10161000E5F8044680B90E4804F0AAFF044658B91C
:10162000362004F089F80F2D0DD8224629463620A1
:1016300004F050F8094B1D60204609B030BD04F09D
:10164000CBFC4000D3E70124F6E700BF003802409E
:101650004C0600200010004040420F001400002003
:10166000034AD2F8883043F47003C2F888307047D8
:1016700000ED00E030B585B088B10B4B1C6884B13B
:101680000FC88DE80F00094B694620461B6803937D
:1016900000231A4605F065FF431E5842584105B025
:1016A00030BD2046FBE700BFA8060020AC060020A6
:1016B000074B70B51D6804464DB1FFF723FA21466C
:1016C00082B264232846BDE8704005F090BC70BD2E
:1016D0001C070020000000002DE9F04F2DED028BCB
:1016E000B0EE408A83B08A46064610EE100AFEF736
:1016F000D3FEB5EEC08ABAF1000F04460D460CBF0A
:101700004FF0010B4FF0640BF1EE10FA44BF0246AC
:1017100001F10043584643BF274F14461D46274F4B
:10172000FEF798FE02460B468046894620A1D1E985
:101730000001FFF733F822462B46FFF78BF940B93B
:101740001F49304603B0BDEC028BBDE8F04F08F0F6
:1017500072BD22462B4640464946FEF7F5FE194B20
:101760000022FEF73BFDFFF789F9144B002808BF64
:101770001F46BAF1000F10D0134A1821B0FBFBF33B
:101780000BFB1300CDE900303B46304608F0F0FB80
:1017900003B0BDEC028BBDE8F08F00903B460B4AD6
:1017A0001821304608F0E4FBF2E700BFAFF30080F9
:1017B00000000070FCFFEF41DDD300084ED40008AC
:1017C000DFD300080000E03FE7D30008F3D30008B0
:1017D000F8B5054608B90020F8BD0F4E3368002B58
:1017E000F9D00E4F4FF0FF322946306805F0D7FF91
:1017F00001280446EFD107F075F93B68EA689A4280
:1018000007D1074B1C7003F0E5F807F08FF920466D
:10181000E2E707F08BF9E5E7A8060020AC06002018
:101820000400002008B500226121042005F070FEAC
:10183000044B002210211860042005F069FE024BC1
:10184000186008BDB0060020A8060020064A074917
:10185000106000220A8006490A7006490A7010B119
:10186000012205F0CFBC70471C070020B6060020FF
:10187000B4060020180700202DE9F04100239AB09B
:10188000304E00933368002B3FD083423DD12E4A27
:101890002E4D13682C78013313602D4B1F780D2FBC
:1018A00001D00A2F3CD12B4FB7F80080B8F1000FC0
:1018B00000D1A4B1602200210DF1050008F0D2FB97
:1018C000424625490DF105008DF8044008F0BBFCA7
:1018D000224B1868E0B9224A1368013313600023D1
:1018E0001D4A3B802B70137001221949306805F0A6
:1018F00089FC009B4BB14FF0E0234FF08052C3F8BE
:10190000042DBFF34F8FBFF36F8F1AB0BDE8F08186
:1019100000236A4601A905F0DEFE0128DBD1DEE7DF
:10192000002CE1D10B490C4A08885E2805D8431CDD
:1019300017549BB20B80D454D6E701230C8014704B
:101940002B70D1E71C070020A4060020B40600205D
:1019500018070020B6060020B8060020B0060020B8
:101960009C0600200C4B1B6810B48BB183420FD136
:1019700000220A4908240A8009490A7019680C6281
:10198000C3F88420012207495DF8044B05F03ABCF6
:101990005DF8044B704700BF1C070020B60600200E
:1019A000B4060020180700202DE98048ADF57B7DA6
:1019B00027AC01F075F88C4B18680028F9D0142278
:1019C000214605F0ECFE0128F3D11EAD10220021C6
:1019D000284608F047FB26783EB1844A84481368BD
:1019E00001331360FFF764FEE2E782490DF19D00C9
:1019F00008F052FB04460028DAD07F4A7F4913687A
:101A000001331360FFF774F8D8B97A4908F044FB42
:101A1000044620B1754A136801331360E1E007F012
:101A200061F8774A13680133136002F0CDFF754BFC
:101A3000186810B1214605F0CAFC07F077F8724823
:101A4000D0E772492046FFF753F8002840F0BC80E9
:101A5000684908F021FB04460028DBD103F0E6FDCD
:101A6000022140A86A4DFFF737FE02F025FF022150
:101A700046A8FFF731FE674B02214CA893ED000A00
:101A8000FFF72AFE644B022152A893ED000AFFF7EC
:101A900023FE624B214658A893ED000AFFF71CFE77
:101AA0005F4B21465EA893ED000AFFF715FE5D4BE4
:101AB0001B78002B00F081805B4B5C4C1B785C4AF0
:101AC000072B08BF14464FF4FA7003F06DFD594B15
:101AD000594A002818BF1A462B78DBB21A9216937F
:101AE000564B187800F0C4FF554B17901B78DBB2AB
:101AF0001893544B187801F0DDFA534B19901D7868
:101B0000524BEDB2187801F0E1FA514B06461878C5
:101B100000F0BAFF4F4B0746187802F04BF84E4BD7
:101B2000804693F800904D4B5FFA89F993F800A036
:101B300002F05AFF4A4B83465FFA8AFA187801F09E
:101B40003DFD484A1D90107801F044FD46491C9027
:101B5000087801F089FF1B904448007801F090FF5D
:101B60001D9B1B991C9A159064A814914FF4167133
:101B700013923F4ACDE911B3199B0A93189B09931D
:101B8000179B0893169B07935EAB069358AB059380
:101B900052AB04934CAB039346AB029340AB01931F
:101BA0001A9B00932346CDE90F9ACDE90D78CDE934
:101BB0000B5608F0DDF964A814E72B782D4C2E4A5B
:101BC000CF2B88BF14467EE72C492046FEF790FFB6
:101BD000002840F0B280074908F05EFA0546002868
:101BE00050D02748FEE600BFB00600209C0600202B
:101BF00038D400084CD40008A00600204FD40008B8
:101C0000AC060020A806002061D400086BD40008B0
:101C10009806002054080020500800201C080020CE
:101C200018080020040000205A08002002D40008F0
:101C3000F9D3000815D400081CD40008620700205E
:101C400060070020B4070020B3070020B20700207F
:101C5000B1070020BD070020BE0700205908002062
:101C6000B7070020B6070020BC07002007000020AF
:101C700072D4000810D400080AD400083ED8000826
:101C800054D4000840AC22AF204600F01DFF06F0FF
:101C900029FF924BDFF8BCC21E78BCE80F000FC7CB
:101CA000DCF800303B6006F041FF409B8C484599D2
:101CB000439A1993429B0078419F449C9DF8198157
:101CC0009DF81AA19DF81BB19DF8189118911693D3
:101CD000179200F0D9FE179A169B18990692009752
:101CE000804ACDF80CA0804FCDE90906CDE90794D4
:101CF000CDE904B3CDE90181199BDC2164A822ACB4
:101D000008F036F964A8FFF7D3FCEBB29E4201D984
:101D1000052D01D1754865E654F8043BDC21744A71
:101D200064A80093734B002D08BF3B46013508F0B3
:101D30001FF964A8FFF7BCFCE7E76F492046FEF7F0
:101D4000D7FE38B96D4908F0A7F900287FF462AED4
:101D50006B4847E66B492046FEF7CAFE78B96749EB
:101D600008F09AF900287FF455AE0A2328462B7014
:101D7000FFF780FC08B9644834E6644832E66449F9
:101D80002046FEF7B5FE70B95C4908F085F90028D9
:101D90007FF440AE0D2328462B70FFF76BFC002824
:101DA000E9D05C481EE65C492046FEF7A1FE20B162
:101DB0005A492046FEF79CFED0B95049002008F051
:101DC0006BF900287FF426AE20465349FEF790FEBB
:101DD0000028284614BF0C240B242C70FFF74AFC63
:101DE0000028C8D04E484F4B0B2C18BF1846F9E5B9
:101DF0004D492046FEF77CFE70B9404908F04CF989
:101E000000287FF407AE0E2328462B70FFF732FC24
:101E10000028B0D04548E5E545492046FEF768FE74
:101E200070B9364908F038F900287FF4F3AD0F2374
:101E300028462B70FFF71EFC00289CD03D48D1E5BA
:101E40003D492046FEF754FE2C490746002840F045
:101E5000838008F021F904462849384608F01CF927
:101E6000064654B348B364AF394607F0E1FE649BBD
:101E7000B0EE408A9E4220D01B78F3B9B5EEC00A7E
:101E8000F1EE10FA19DDDFED2D7AB4EEE70AF1EE8E
:101E900010FA12D82A492046FEF72AFE30B1294905
:101EA0002046FEF725FE40B9B1EE488A13490020CE
:101EB00085ED028A08F0F0F828B1234A2348136818
:101EC000013313608EE5092328462B70FFF7D2FB00
:101ED00000283FF450AF1E4884E500BF48070020AB
:101EE00061070020B3D500084ED4000867D700086A
:101EF0003DD6000824D4000845D600084CD400087C
:101F00004AD600084AD700084FD7000860D7000813
:101F10006AD7000870D700087BD7000880D7000870
:101F200026D4000830D4000883D7000888D70008DA
:101F300092D7000899D70008A5D700080000B4433D
:101F4000A9D70008AAD700089C060020ADD7000832
:101F5000B9D700084C070020002008F09DF853492D
:101F600007462046FEF7C4FD00286AD050492046A7
:101F7000FEF7BEFD002866D04E492046FEF7B8FDAC
:101F8000002862D04C492046FEF7B2FD00285ED002
:101F90004A492046FEF7ACFD00285AD04849204661
:101FA000FEF7A6FD002856D046492046FEF7A0FDC4
:101FB000002852D044492046FEF79AFD00287FF4BD
:101FC00029AD0824002F3FF425AD3B78002B3FF4CA
:101FD00021AD7A1E12F8013F002B40D1002E3FF4B4
:101FE00019AD64AE0A2233603846314607F0F2FE7E
:101FF000336893F80080B8F1000F7FF40BAD421EF8
:1020000042F20F739A423FF605AD686040462F4991
:1020100008F042F8631F0746032B25D900287FF4F8
:10202000F9AC2A49002008F037F800287FF4F2AC18
:1020300028462C70FFF71EFB00283FF49CAE244876
:10204000D0E40124BEE70224BCE70324BAE7042459
:10205000B8E70524B6E70624B4E70724B2E7303B27
:102060000126092BB6D9D5E400283FF426AF314626
:10207000C6F8008007F0DCFD33689F423FF41DAFD7
:102080001B78002B7FF419AFB5EEC00AF1EE10FA01
:102090007FF713AFDFED0F7AB4EEE70AF1EE10FA37
:1020A0003FF60BAF85ED020ABBE700BF43DC00083B
:1020B0004DD700087ED700086ED70008C2D70008A9
:1020C000C5D70008C8D70008CBD700084CD40008F3
:1020D000CED700080000B4422DE9F04FA54B0026F2
:1020E0004FF00109A44DA54C85B0A54F85F800908F
:1020F0001E7026703E7001F0C3FDA249A24802F096
:10210000E1FB642006F05CFBA04801F0CDFC4946F1
:102110003046DFF88CA200F0EBF9B04214BF052284
:102120004A463A7003F0C6F8924BCF28207088BF19
:102130004FF0000883F8009098BF4FF001082E7010
:10214000934E6846FFF744FB0028FAD0B8F1000F21
:102150000BD19DF800300A2B09D003F0ABF8CF2843
:1021600003D9207085F80080EBE74FF00108894B18
:102170001B7823B100232B7004232370E1E79DF823
:102180000030A3F10902062A00F2B780DFE802F06E
:1021900004B0646B860D9E009DED020A02F012FFF2
:1021A000CF28207040F2A6804AE000F083FE082885
:1021B00031D8DFE800F09D9D05050930211323008B
:1021C000754B1878C0B2EBE7744B1B78072BDAB26B
:1021D00001D9E52333E0724B985CE1E7714B1A7843
:1021E000022A01D1E7232AE01A78032A01D1E12348
:1021F00025E01B78072BECD0E22320E06A4B1A780D
:10220000022AF4D01A78032A01D1E42317E01B78BC
:10221000042BF1D1E6E7654B1A78022AE7D01A7849
:10222000032AE9D01A78052AE6D01A78062AE3D0DC
:102230001A78072ACDD01B78082B2DD1E6232370DE
:1022400002F0D2FB002855D19DF800300A2B00F097
:10225000BB8000232B7074E700F01CFB0728B8D864
:102260001AF800009CE701F015FA082814D801A319
:1022700053F820F0F1220008F1220008EF210008B5
:10228000F921000899220008F9210008F921000825
:10229000D32100083D220008E823D0E701F068F8C8
:1022A0000728A9D801A353F820F000BFF1220008A5
:1022B000F1220008E5210008EF210008F9210008BB
:1022C000F9210008F9210008D321000801F0E2FCFF
:1022D000042891D801A353F820F000BFF122000890
:1022E000F1220008EF2100080B220008E521000878
:1022F0000423237000233370A6E7023B062B05D886
:10230000DFE803F03210151A1F242B009FED281A66
:102310009FED280ADFED271A0198F0EE610A02F01E
:102320004DFE3DE79FED221A9FED230AF2E79FED58
:10233000201A9FED220AEDE79DED020A9FED201A7B
:10234000E8E79DED020AB1EE400AF7E79FED1D0AAE
:10235000DDED027A30EE670AF0E79FED1A0ADDED57
:10236000027A30EE670AEEE79FED111A9FED150A2B
:10237000D0E700BF99060020040000209806002046
:1023800020070020C40500202C040020B4040020F5
:102390005A08002059080020AD070020B10700208E
:1023A000DCDC0008AF070020AE070020B0070020EB
:1023B0000000E643000000000000B4420000B4C288
:1023C00000009643000034434FF00109022043F619
:1023D00098224946387085F8009000F0B3F890B91B
:1023E00001F08CFB0323834643F698224946484676
:1023F0003B7000F0A7F830B904231BF0FD0F3B70D1
:1024000003D1237025E705233B70E223F9E700BFE2
:1024100010B504460348FFF719FA2046BDE81040FE
:10242000FFF7C2BA1C03002008B5064800F040F8C8
:10243000054800F031F900F07DFBBDE8084000F0F0
:102440000FBA00BF94020020A403002010B5044678
:1024500003F094F8204600F073F92046FFF70CFAD9
:10246000204600F09DF82046BDE8104000F08CBBEF
:1024700010B5044602F0A2FF204600F0A7F920465E
:10248000FFF770FA204600F0DFF82046BDE8104064
:1024900000F022BC0023034A1370034A1370034A5E
:1024A0001370704723070020220700202107002017
:1024B0000A4BFF2210B51860094B0A4C1A70022310
:1024C00000222370084B1A70FFF7E4FF28B10122A5
:1024D000064904F097FE00B9207010BD30070020B7
:1024E0000600002005000020200700202C07002007
:1024F00037B5104A0346104C106828B901232370E1
:102500002078C0B203B030BD0C4AFF258DF805100D
:10251000090A15700A4A8DF80430642300920722D4
:102520008DF80610694604F062FD08B10223E6E763
:102530002070E5E73007002005000020060000209D
:1025400055550506F8B5134B064614461B6803B1EE
:102550001AB9114B01221A7003E0FFF7C9FF18B135
:102560000D4B1878C0B2F8BD03F08AF80B4F054642
:1025700003F086F8431BA34202D3074B0322EAE78A
:102580003B78B34202D1044B0022E4E70A2006F074
:1025900017F9EDE7300700200500002006000020B5
:1025A000224A0346106810B500283DD098423BD11E
:1025B0001F4A204B11781B78032932D8DFE801F03D
:1025C000020C121C552B01D1012313700122194951
:1025D000BDE8104004F016BE552B01D10223F4E7EC
:1025E0000023F2E7991E07291BD813490B7000211D
:1025F000124B19700323E8E710490C78621CD2B221
:102600000A700F490B550C4B1C78631EDBB29A42C3
:10261000DCD3052C05D10B78082B02D14A78094B65
:102620001A70FFF737FFD1E710BD00BF3007002059
:10263000210700202C07002023070020220700206C
:1026400024070020060000200A4A116808B579B165
:1026500081420DD1FFF71EFF0B6808221A6200238A
:102660000122C1F884300449BDE8084004F0CABD25
:1026700008BD00BF300700202C0700200023034ABC
:102680001370034A1370034A137070473707002012
:10269000360700203807002008B5094B094A1860A2
:1026A00000231370084A1370084A1370FFF7E6FFFF
:1026B00028B101220349BDE8084004F0A3BD08BDCC
:1026C0004407002040070020350700203407002081
:1026D000114A034613B51068D0B1012B16D0022B56
:1026E00016D132230D4A0DF107018DF80730002372
:1026F0000B4C13702370FFF7C1FF6423012204F019
:1027000076FC38B90123237002B010BD3123E9E70C
:102710000120F9E70220F7E74407002035070020F1
:1027200034070020EFF3108272B6044B00211878B2
:102730001970C0B202B962B6704700BF35070020F9
:102740001B4A38B503461068002830D098422ED175
:10275000184B1C780D2C14D0174B0A2C1A7816D154
:102760006AB9164B1978012909D1154B1B78312B01
:1027700005D1144B1C7814B1134C21701A70FFF75B
:102780007DFF01220B49BDE8384004F03BBD002A23
:10279000F7D10A4D2978062995BF4B1C0122DBB2DF
:1027A0001A709FBF2B70064D6C54EA54E9E738BD90
:1027B000440700204007002036070020370700208C
:1027C0003807002034070020350700200A4A116826
:1027D00008B579B181420DD1FFF750FF0B6808228F
:1027E0001A6200230122C1F884300449BDE8084080
:1027F00004F008BD08BD00BF4407002040070020CA
:10280000074B187000F0FB03032B064B04D0012884
:1028100004D108221A7070470722FBE70922F9E762
:10282000610700206207002002280B4A4FF00303D3
:1028300010B50ED113700346084C43F698220121BF
:102840002370FFF77FFE002814BF052304232370A5
:1028500010BD05211170EFE762070020200700205E
:102860000023074AC2E90033C2E902331361054A73
:102870001370054A1370054A1370054A13707047A8
:102880004C07002048070020620700206107002055
:10289000600700202DE9F04F00236F4A6F4D85B08F
:1028A000DFF8C4812B70137098F800206C4C042A58
:1028B00004D92B700623002023700EE001F06CF980
:1028C00098F800300746C3F10503984288BFDFB28D
:1028D00037B9052009232870237005B0BDE8F08FB3
:1028E000DFF88891012699F8003023B12E70082373
:1028F00001202370F1E7267000F0A4FA38B1012816
:1029000018BF062005B0BDE8F04FFFF779BF30468D
:10291000FFF78AFF064608B1042338E099F8003033
:1029200013B101232B70E2E798F8003001204A4AE6
:102930000133DBB213704FF002032370FFF7C8FEC0
:1029400030B14FF0020302202B7009232370C4E73B
:1029500002F096FE42F20F7B824602F091FEA0EB5F
:102960000A00584501D90320CCE799F80030002B24
:102970006CD1FFF7D7FE18B9012005F021FFECE775
:1029800000F0C4F80220FFF74FFF042320B12B70A2
:10299000092304202370A0E7237042F20F7B02F08A
:1029A0006FFE824602F06CFEA0EB0A0058450BD980
:1029B0004FF0070A0120FFF737FF0028ACD1BAF12A
:1029C000000F36D050469DE799F8003003F0FF0124
:1029D000002B3DD103A80391019100F0BDF8D8B1BF
:1029E000039B98F800C01F4801995FFA81FEF445E7
:1029F0000DD8019301F082F8019B824680B1BAF1B3
:102A0000020F14BF4FF0050A4FF0010AD2E750F849
:102A1000042B01319342E8D1012005F0D1FEC1E73A
:102A200098F800100F4A481C42F8213088F800003E
:102A3000C0E799F80030002B7FF473AF0136F3B292
:102A40009F423FF66BAF85F800A033E7012059E7BE
:102A50004FF0010AAEE700BF6007002061070020C9
:102A6000620700204C07002048070020590800207A
:102A700009289ABF024B53F820000248704700BF54
:102A800004DD0008D3D7000807289ABF024B53F88B
:102A900020000248704700BFE4DC0008D3D70008DC
:102AA00010B5EFF3108472B60548D0F88030202BB3
:102AB00003D10122034904F0A5FB04B962B610BD9D
:102AC0000C020020AC070020F0B50646B8B1EFF3C9
:102AD000108772B60A4D04460FCD0FC4094B95E816
:102AE00007001B7884E80700B376074BD3F88030E3
:102AF000A3F1220253425341F37607B962B6F0BD07
:102B000088070020A40700200C020020EFF31082A9
:102B100072B6002304490B6004490B7004490B7022
:102B200002B962B6704700BFA8070020A4070020C2
:102B30006807002008B5064A002306481370FFF70F
:102B4000E5FF01220249BDE8084004F05BBB00BF7D
:102B5000AC0700200C020020034610B578B1EFF35B
:102B6000108472B6064A117801F0FF0029B10549B8
:102B70000120096819600023137004B962B610BD02
:102B8000A4070020A8070020F8B578B1494B984267
:102B90000CD1494C236801332360484B1D7865767E
:102BA000D0F884601EB1D0F88430A360F8BD02F084
:102BB00067FD434A434913681060C31A642B88BFFA
:102BC0000E700A7852B9012D28D0042D26D001228A
:102BD0003A493848BDE8F84004F014BB012A16D140
:102BE0006B1EDBB21B2B10D802FA03F336481840D9
:102BF000A0B903F00903003B18BF01230B70334B4E
:102C00001D70636801336360E1E70023F6E7032A80
:102C100004D1202D02D000230B70F2E7501C2B4B67
:102C2000C0B29D5401280870D1D95A789042CED1B3
:102C300000201F4605465FFA80FC624507D8FF2D3D
:102C40000BD063680133636000230B70BFE717F894
:102C500001CB01308CEA0505EDE7E0680130E0606A
:102C6000187920760028EFD11878012804D19878B7
:102C7000A128E9D10C2A07E00428E5D19878022898
:102C8000F8D00428E0D11C2ADED10722985C01325A
:102C90000B2A40EA0626F9D16661236901332361D4
:102CA0000B4B1A78002ACFD10A4A166001221A70FB
:102CB000CAE700BF0C02002088070020AC070020F4
:102CC00064070020680700208008200869070020AA
:102CD000A4070020A807002010B5A0B10A4B984215
:102CE00011D1D0F88420094B9A60FFF70FFF0368D9
:102CF000082207491A6200230122C0F88430BDE887
:102D0000104004F07FBA10BD0C020020880700209C
:102D1000AC0700209FED071A10B5F0EE410AB0EEA7
:102D2000410A01F0A2FD044608B101F063F9204612
:102D300010BD00BF000000002DE9F04F2DED028B0B
:102D400085B08246019102F09BFC80464FF4FA70F8
:102D500002F02AFC38B9FFF7DDFF042005B0BDEC16
:102D6000028BBDE8F08F0027DFF8D4B0DFED328AA8
:102D70003E4602F085FC4FF4807104462F4802F075
:102D800067FE012102902D4802F062FE0221814679
:102D90002A4802F05DFE08210546284802F058FE48
:102DA0009BF80010024629B1FFF7B4FF00283ED17E
:102DB0000120D3E7019B3BB1A4EB0801514503D3AC
:102DC000FFF7A8FF0220C9E74FF4FA70039202F060
:102DD000EBFB0028BFD0029B5BB345EA0905039AD1
:102DE000EDB275B92AB3002F08BF2646FFF792FF50
:102DF000E8B9A41B312CB1D80127142005F0E0FC60
:102E0000B7E7B3EE098A002AFBEE097A08FE278AA3
:102E1000B3EE090A01F026FDF0EE480AB0EE401AC2
:102E2000B0EE680A01F021FD07460028E5D0032036
:102E300094E7B3EE098AEBE700000000000C0240C3
:102E400059080020012141F28830FFF775BF0021A9
:102E50000846FFF771BF000008B5054B1B782BB97A
:102E600001F0C2FD003818BF012008BD0120FCE7B9
:102E7000590800209FED071A08B5F0EE410AB0EEA0
:102E8000410A01F0F2FC18B1BDE8084001F0B2B807
:102E900008BD00BF0000000008B5FFF7EBFF034BC3
:102EA00013221A700122024B1A7008BDB4070020C9
:102EB000B20700202DE9F74F734B0025734C744E79
:102EC0002570DFF8E0911D70DFF8DCA1714BDFF8B1
:102ED000DCB1DFF8DC81704F35701D7089F800506F
:102EE0008AF800508BF8005088F80050EBB2664A20
:102EF00013706B1E042B04D8DFE803F00E101214BD
:102F0000160001232370FFF7A7FF78B1FFF7C4FF76
:102F1000012003B0BDE8F08F0223F3E70723F1E7B8
:102F20000923EFE70323EDE70423EBE73B78062BC8
:102F30001AD8DFE803F0042136467B586900DFED3C
:102F4000571A97ED031AF0EE610A97ED020A7868B6
:102F500002F034F888F8000001F046FD0028D5D1D1
:102F600098F80030CF2B7DD9FFF784FF142302207F
:102F7000237002233370CCE797ED020A02F022F8A7
:102F800088F8000001F030FD0028BFD198F800302B
:102F9000CF2B67D9FFF76EFF142303202370307007
:102FA000B7E7FFF777FC3B4A10701378012BADD0E1
:102FB0001378002B56D0FFF75DFF142304202370F5
:102FC000EDE700F067FB89F8000099F80030012B6D
:102FD0009CD099F80030002B44D0FFF74BFF14230E
:102FE00005202370DBE700F0C3F98AF800009AF8A7
:102FF0000030012B8AD09AF800309BB3FFF73AFFDC
:10300000142307202370CAE700F044FE8BF8000069
:103010009BF80030012B3FF479AF9BF800300BB3E5
:10302000FFF728FF142308202370B8E71C4B032266
:103030000121387C1A7040F6B832FFF783FA01900C
:10304000FFF70AFF00287FF461AF019A144B3AB1F1
:1030500005221A70FFF70EFF1423062023709EE747
:1030600004221A70FFF7F8FE00287FF44FAF0135F5
:103070001437062D7FF43AAF0190FFF7FBFE1223C1
:10308000019823708BE700BFB3070020B40700202E
:10309000B2070020B1070020A4DD000800000000F6
:1030A00020070020B0070020AF070020AE07002057
:1030B000AD07002014289ABF024B53F820000248A5
:1030C000704700BF50DD0008D3D7000808289ABF1A
:1030D000024B53F820000248704700BF2CDD000867
:1030E000D3D70008D02807D0E12805D0CF2894BF37
:1030F000002001208000704703207047024B1878A1
:10310000003818BF01207047590800200238024BD0
:10311000C0B2185C704700BFC8DE000870B50E4E24
:10312000337813B10124204670BD0121FFF7E0F987
:10313000044678B902F0A4FA054602F0A1FA431B4E
:10314000B3F5FA7FEFD23378002BEBD10A2005F0EC
:1031500037FBF2E70524E6E75908002008B5FFF73A
:10316000E1FA10B10120014B187008BDB50700202D
:103170009FED061A08B5F0EE410AB0EE410A01F0E3
:1031800074FB10B100F036FF042008BD0000000001
:1031900038B5FFF7EDFF00BB134C2378A3B901202E
:1031A000FFF796FAD8B902F06BFA054602F068FA12
:1031B000431BB3F57A7F237803D303F0FF0023B1D9
:1031C00000E01BB1FFF7D4FF022038BDFFF7AAFAD9
:1031D00038B9012005F0F4FAE8E70320F5E7042008
:1031E000F3E70120F1E700BF59080020F8B51D4EB4
:1031F0000C461D4F30703B780BB10220F8BDDFED5F
:103200001B1A5A209FED1A1AF0EE610A9FED190A57
:1032100001F0D4FE054601F0E7FB0028EDD1284679
:10322000FFF760FF032819D0B0B9FFF7A1FF98B9E5
:103230003B78002BE1D13470FFF7AAFF431E032B2C
:103240000ED801A252F823F0FD310008FB3100082E
:1032500059320008FD3100080320CFE70520CDE7F3
:103260000020CBE7B707002059080020000000002D
:103270000000204200003443054B1870054B10B984
:1032800020221A70704701280CBF21222222F8E761
:10329000B6070020B707002008B5064B1B7803F0DF
:1032A000FF002BB1FFF764FF002814BF04200120AA
:1032B00008BD00BF59080020104BDFED111A9FED2B
:1032C000111AF0EE610A9FED100A10B51870752002
:1032D00001F074FE044601F087FB50B92046FFF769
:1032E00001FF38B9FFF744FF28B9BDE81040FFF7E8
:1032F000D3BF012010BD0420FCE700BFB7070020AA
:1033000000000000000020420000344308B5084BD4
:103310001B784BB944F620620121FFF713F928B955
:10332000BDE80840FFF7B8BF012008BD0520FCE755
:103330005908002038B50C4D14462970FFF7E6FFF8
:1033400070B92C70FFF7A8FF50B9084800F056FB81
:10335000042804D028B9BDE83840FFF79DBF0120FC
:1033600038BD0620FCE700BFB7070020FD3000088D
:103370002DE9F7430023884D884C2B70237000F013
:103380006BFB18B90620222320700CE001262E705A
:10339000FFF75DFD04280ED8DFE800F00F030D0BEA
:1033A0000900212326702B7003B0BDE8F0830320B1
:1033B000E9E70420E7E70220E5E718230B202B705C
:1033C000FFF7ACFE044668B919232B70FFF7E0FE47
:1033D00001280DD11D221C210C20FFF7ABFF044654
:1033E000002836D0204603B0BDE8F043FFF744BFC5
:1033F00078B3FFF78BFE04460028F3D10B23082097
:103400002B70FFF78BFE0028EDD1654E654FDFF87E
:10341000A881002C3AD163000C33DBB22B70FFF78C
:10342000B7FE012803467ED1142213210920FFF79D
:1034300081FF0028D7D10134042CEAD117230720BB
:103440002B70FFF763FF0028CDD11620FFF734FF64
:103450006DE01B211A20FFF7C9FE012813D11D22A0
:103460001C210C20FFF766FF04460028BAD11E235A
:103470000A202B70FFF74AFF04460028B2D11F2014
:10348000FFF71AFFB7E70028F1D0B2E7012C13D0FD
:10349000022C0CBF0F2311232B7000238DF8073053
:1034A00033703B7853B1022318F8030000289AD1F7
:1034B000032CB0D11223B1E70D23EDE70120FFF774
:1034C00007F960BBDFED381A0DF1070237495A20C2
:1034D000F0EE610A9FED361A9FED360A01F08AFA86
:1034E000814601F081FA0028DDD14846FFF7FAFD58
:1034F000032816D008B10323D6E7FFF739FE0028CA
:10350000F9D13B78002BCED19DF807302BB9337819
:10351000003B18BF0123DBB2C6E70123FBE704230E
:10352000C2E70523C0E7002885D0FFF7EFFD00289C
:103530007FF459AF022305202B70FFF7EFFD002821
:103540007FF451AF03232B70FFF722FE01281BD11C
:10355000062205211046FFF7EDFE00287FF443AF59
:1035600007210420FFF742FE012812D1062205217F
:103570001046FFF7DFFE00287FF435AF0A23002056
:103580002B70FFF7C3FE2EE70028E9D0FFF7BEFD42
:1035900029E70028F2D0F9E7B7070020B607002096
:1035A000B507002059080020000000005D31000828
:1035B0000000204200003443CEDE000822289ABFDB
:1035C000024B53F820000248704700BF3CDE000861
:1035D000D3D7000807289ABF024B53F820000248AF
:1035E000704700BF1CDE0008D3D70008024B1878D4
:1035F000003818BF01207047590800209FED071AB6
:1036000010B5F0EE410AB0EE410A01F02EF9044681
:1036100008B100F0EFFC204610BD00BF0000000024
:1036200010B50446FFF7EAFF4FF4FA7001F0BCFF53
:1036300008B101F01DF9204610BD00000A4B10B57D
:103640001B7803F0FF0423B10124FFF7D7FF2046C6
:1036500010BD4FF4FA7001F0A7FF0028F7D1022443
:10366000FFF7CCFFF3E700BF5908002010B502F0C8
:1036700007F8044602F004F8031B4F2B01D9002081
:1036800010BDFFF7DBFF0028FAD1142005F098F8F1
:10369000F0E700002DE9F0474FF4FA702DED048BB0
:1036A00001F082FF38B90224FFF7A8FF2046BDECE5
:1036B000048BBDE8F0874FF0000801F0E1FF41F214
:1036C0008739064647469FED7C8A01F0D9FF0546BB
:1036D000FFF7B4FF044628B9AB1B4B4505D90424BA
:1036E000FFF78CFFFFF78AFFE0E74FF48061734834
:1036F00002F0AEF930B9B8F1000F14D0ED1B1D2D5A
:1037000019D84446B3EE090A01F0ACF8FBEE090AF9
:10371000B0EE401AB0EE480A01F0A7F830B1032429
:10372000FFF76CFFDEE72F460124EBE71420A046ED
:1037300005F046F8C9E7FFF761FF002840F0B980BF
:10374000FFF794FF04460028B0D103205C4D01210F
:103750002870FEF7CDFE044610B105242C70A5E7B5
:1037600001F08EFF574F064601F08AFF831BB3F529
:103770007A7F24D304232B70002C97D101F056FFBD
:10378000DFED517A514E072430EE278A01F078FFA1
:10379000814601203470FEF79BFF0746002849D17F
:1037A000DFED4B8A9FED449ADFED4A9AFFF746FF23
:1037B00088B1BDEC048BBDE8F047FFF731BF3B7823
:1037C0001BB9142004F0FCFFCEE74446D2E7A9EB76
:1037D0000A098144EAE701F053FF43F69723A0EB7F
:1037E0000900984201D90920E3E701F01FFFB4EE78
:1037F000C08AF1EE10FA4CD9032F3BD8FEF792FFA6
:10380000C0B301F03DFF8246FFF7F8FE60BBFFF753
:103810002DFF044650B9022344F620620121042002
:103820002B70FEF78FFE38B105242C7001F028FFB5
:10383000002CCCD02046BCE7274800F0DFF8042855
:1038400016D098B9042301372B70FFB21D4B1B789B
:1038500003F0FF0463B9042FE8D00120FEF738FF1E
:10386000041E18BF0724E1E70324DFE70624DDE791
:103870004446DBE7B0EE681AF0EE490AB0EE690A9A
:1038800000F0F3FF08B1032093E7142004F098FF41
:103890008CE7FFF7B3FE0028F5D1FFF7E7FE0446FB
:1038A000002886D1B0EE480A00F0FAFF04233370F6
:1038B000FCE60324FAE600BF00000000000C024012
:1038C00020070020590800200000B0435A080020BB
:1038D00000004442000078C2ED35000838B50E4DB6
:1038E0000E4C2B78012B04D0012323702078C0B21A
:1038F00038BD4FF4A0630022642100F039FC003889
:1039000018BF012040002070237813B902232B70C8
:10391000ECE70323FBE700BFBC0700200700002003
:1039200038B5094D094C30B903232B70012323709E
:103930002078C0B238BD00F0D5FB054B4FF4527271
:103940001A6000232B70F2E7BC070020070000205C
:10395000B807002008B500F0D7FB0038064B18BFA9
:103960000120400018701A78002A044A14BF03216D
:1039700001211170187808BD07000020BC07002045
:103980000020FFF7ABBF00002DE9F843184D0446B7
:103990002B78022B06D0174B01221A701878C0B270
:1039A000BDE8F88301F06CFEDFF84C80074640F27A
:1039B000DB5901F065FEC61B3CB1A04728B100F001
:1039C000BDFB04220B4B2A70E7E7D8F800309E427B
:1039D00004D3012300222B70064BDEE74E4503D9AA
:1039E00000F0ACFB0322EDE70A2004F0E9FEE0E77B
:1039F000BC07002007000020B807002010B50446CF
:103A0000FFF7BEFF20B92046BDE81040FFF7BCBF5E
:103A100010BD10B504460120FFF760FF20B9204615
:103A2000BDE81040FFF7B0BF10BD000008B500F0C2
:103A300085FB0038064B18BF0120400018701A782B
:103A4000002A044A14BF032101211170187808BD0F
:103A500007000020BC070020024B1878431E584284
:103A600058417047BC07002004289ABF024B53F806
:103A700020000248704700BFE8DE0008D3D70008E6
:103A800004289ABF024B53F820000248704700BF39
:103A9000D4DE0008D3D70008024B1878003818BFCE
:103AA000012070475908002038B5114A0023114CF5
:103AB0001370114D237003232B70FFF731FF10B9E2
:103AC000FFF748FF28B104280BD003280CBF0520BE
:103AD000042028702B7833B1052323702878C0B2D6
:103AE00038BD0220F5E7C82004F06AFE0123F4E7A0
:103AF000BE070020BD07002008000020F8B5224DB9
:103B0000224C2B78012B0BD02B78032B08D02B7851
:103B1000042B14BF0323012323702078C0B2F8BD07
:103B20001B4E3378052B03D904232B700123F3E7B5
:103B3000FFF7B2FF18B106232B700223ECE7022730
:103B400014482F70FFF75AFF28B1042811D003281A
:103B50000CBF052004202070237863B9337801332B
:103B6000DBB233703378052B94BF032304232B700F
:103B7000D3E73846EFE72378022B01D10623F6E797
:103B8000FFF754FF0523F2E7BD07002008000020DF
:103B9000BE070020993A0008054B1A78052A04D878
:103BA0001878C0F10600C0B270470020704700BF0F
:103BB000BE07002006289ABF024B53F82000024897
:103BC000704700BFFCDE0008D3D70008024B18780E
:103BD000003818BF012070475908002038B5044646
:103BE000FFF7F4FF60B9094D022344F6206201217A
:103BF00020462B70FEF7A6FC18B1052306202B707B
:103C000038BDBDE83840FFF7E1BF00BF2007002006
:103C100008B5FFF7DBFF08B1012008BD0448FFF736
:103C2000F8FE0428F8D0002818BF0720F5E700BFE9
:103C3000CD3B000810B50246FFF7C8FF08B10120D0
:103C400010BDDFED0D1A10469FED0C1AF0EE610A63
:103C500001F0B4F9044600F0C7FE0028EFD1E12CD2
:103C600005D0E42C05D0042C18BF0520E8E702207D
:103C7000E6E70320E4E700BF000000000000E643A1
:103C80000023024A1370024A13707047C0070020D5
:103C9000BF070020F8B500237F4E804D337001230D
:103CA0009FED7F0A2B7001F08DF90446074600F066
:103CB0009BFE002840F0DD80E12C00F0C580E42C64
:103CC00000F0CF80042C40F0CE8002232B70FFF751
:103CD0007DFF002840F0CD80FFF7B4F8012800F008
:103CE000C880042800F0B080002840F0AE80032394
:103CF0009FED6C0A32202B70FFF79CFF04460028D2
:103D000040F0B5809FED660AC8202F70FFF792FF44
:103D10000446002840F0AB800D20FFF75FFF04460B
:103D2000002840F0A4800E20FFF758FF044600282A
:103D300040F09D80FFF76CFF0446002840F097801C
:103D400005239FED570AC8202B70FFF773FF044629
:103D5000002840F08C800E20FFF740FF044600282A
:103D600040F085800D20FFF739FF044600287ED102
:103D7000FFF74EFF0446002879D106239FED480A3D
:103D8000C8202B70FFF756FF044600286FD10E2085
:103D9000FFF724FF0446002869D10D20FFF71EFF1E
:103DA0000446002863D1FFF733FF044600285ED1A4
:103DB00007230F202B70FFF711FF0446002856D170
:103DC0000D20FFF70BFF0446002850D1FFF720FF1E
:103DD000044600284BD108239FED330AC8202B70DE
:103DE000FFF728FF0446002841D10F20FFF7F6FE19
:103DF0000446E0BB0D20FFF7F1FE0446B8BBFFF719
:103E000007FF044698BB09239FED270AC8202B70A3
:103E1000FFF710FF044650BB0F20FFF7DFFE0446FC
:103E200028BB0D20FFF7DAFE044600BBFFF7F0FECB
:103E300001281ED0C8B90A2204212A701B4A3070FA
:103E400011703078C0B2F8BD02249FED171AF0EE61
:103E5000410AB0EE410A00F008FD0C232B703470CB
:103E600018E00324F1E70524EFE70724EDE7012C30
:103E7000EBD19FED0D1AF0EE410AB0EE410A00F0D1
:103E8000F4FCFFF7D3FD094B04221A700B232B70AF
:103E9000012333703078D5E7BF070020C00700202A
:103EA000000034430000B44200000000200700205E
:103EB0000F4B70B50446186815460E4E18B901240C
:103EC0003470204670BD0A466423214603F08FF803
:103ED0000446307038B9084A13680133136015B1CD
:103EE00001F0CEFB2860022001F0D0FBE9E700BF23
:103EF000D0070020C8070020CC070020F32307B517
:103F00008DF8013040F2AB1300220621ADF80230EB
:103F100046F601338DF800006846ADF80430FFF72F
:103F2000C7FF03B05DF804FB93B2002AB8BF5B4241
:103F300007B5B8BF9BB241F2F812B8BF81F00101DA
:103F40008DF80000934268468DF802104FF008018A
:103F500028BF1346F6228DF801201A0A8DF8043086
:103F600046F601338DF803200022ADF806308DF8B7
:103F70000520FFF79DFF03B05DF804FB08B5064B75
:103F8000064A186000231360054A137001F078FB9D
:103F9000044B186008BD00BFD0070020CC070020EC
:103FA000C8070020C4070020F7B50220FFF7A6FFCE
:103FB00006460120FFF7A2FF07460320FFF79EFFFA
:103FC0003E4305460420FFF799FF0446354304218C
:103FD000074B00222C430DEB01000193FFF768FF14
:103FE0002043C0B2003818BF012003B0F0BD00BFAD
:103FF00000FF666B07B5074A05211068127900902B
:1040000068468DF80420044AFFF752FF03B05DF8BC
:1040100004FB00BFB0D30008C407002013B504465A
:1040200010B9012002B010BDB0F90020012102201A
:10403000FFF77AFF01460028F3D1B4F902200120EE
:10404000FFF772FF0028ECD10121B4F9042003200E
:10405000FFF76AFF01460028E3D1B4F906200420E7
:10406000FFF762FF0028DCD10421044B044A0DEB6A
:1040700001000193FFF71CFFD4E700BF00FF666B50
:10408000C407002038B50D4B04460A460C4D18688D
:1040900018B901242C70204638BD2146642302F053
:1040A000A6FF044628700028F5D1064A02201368AE
:1040B0000133136001F0EAFAEDE700BFD8070020F2
:1040C00009000020D407002007B50421044B0DEBA4
:1040D00001000193FFF7D6FF03B05DF804FB00BFBA
:1040E00000FF666B054B00221860B0FA80F0044BAD
:1040F00040091A60034B1870704700BFD8070020B2
:10410000D4070020090000200A4B07B518680621D3
:104110009B8800906846ADF80430FFF7B3FF28B1E4
:10412000054B1878C0B203B05DF804FBFFF7CCFF75
:10413000F9E700BF79DA00080900002007B50A4A4C
:10414000052110681279009068468DF80420FFF769
:1041500099FF28B1054B1878C0B203B05DF804FB95
:10416000FFF7B2FFF9E700BF80DA0008090000207E
:1041700001281FB501D801B12BB91A4B012201202A
:104180001A7004B010BD0A246143B1F5803FF4D227
:104190008DF805201A0E8DF80200080A8DF8062009
:1041A0001A0C5BBA4FF605548DF803006846ADF85B
:1041B00008304FF480738DF804100D21ADF80A30EB
:1041C0006B23ADF800408DF807208DF80C30FFF719
:1041D00059FF18B1034B1878C0B2D2E7FFF774FF4C
:1041E000CFE700BF0900002098B170EE607A30EE92
:1041F000200A37EEC17A77EE817A80ED007A30EED0
:10420000017A30EE410AC0ED037A80ED017A80ED4B
:10421000020A7047F0EE404A002861D0B5EEC00AAD
:10422000F1EE10FA5CD990ED006AD0ED016AB5EEBE
:10423000C06AF1EE10FAF5EEC06A4CBFB1EE467AF4
:10424000B0EE467AF1EE10FA4CBFF1EE667AF0EE7F
:10425000667AB4EEE77AF1EE10FA54BFF0EE475A00
:10426000F0EE675A90ED027AB5EEC07AF1EE10FAF0
:104270004CBFF1EE477AF0EE477AF4EEE75AF1EEF2
:1042800010FA54BFB0EE655AB0EE675AD0ED037A1B
:10429000F5EEC07AF1EE10FA4CBFF1EE675AF0EE8F
:1042A000675AB4EEE55AF1EE10FA58BFF0EE455AEF
:1042B000B4EEE50AF1EE10FA12D584EEA50A26EE68
:1042C000006A66EE806A27EE007A67EE807A80EDFB
:1042D000006AC0ED016A80ED027AC0ED037A704792
:1042E000B7EE000A704700000023064A0021136061
:1042F000054A1360054A1170054A1360054A1360A8
:10430000704700BFFC070020F8070020F1070020DD
:104310005408002050080020134B1B7813B3134B94
:10432000134A93ED006A134B1349D3ED007A134BF4
:10433000D1ED006A93ED007A114BD3ED005A13686A
:1043400067EEA57A1060C31A46EE077A9FED0D7AE4
:1043500067EE877A07EE103AB8EE477A47EE876A3B
:10436000C1ED006A704700BFE00700203C08002054
:10437000DC070020380800201C080020EC07002083
:10438000E8070020FCAD803B5D4B2DE9F0412DEDB1
:10439000068B1B78B0EE408A05465A4F5A4E13B131
:1043A0005A4B1B784BB99FED5A0A87ED000A86EDF0
:1043B000000ABDEC068BBDE8F081EFF3108872B601
:1043C000544BD3ED008A01F031F978EEC08A01F048
:1043D00039F90446B8F1000F00D162B6002D00F0A3
:1043E0008480B2EE009A9FED4CAADFED4C9AB5EEB8
:1043F000C08A4B4AF5EE007A4A491378F1EE10FA7A
:10440000494D48BFB1EE488A28EE278A002B73D069
:104410000B689C4228D0E31A581EC7286CD807EEB8
:10442000903A424B9FED426AD3ED006AF8EEE77A8C
:1044300095ED007A78EEE66A66EE866A86EEA76A01
:1044400076EE476A9FED3B6A37EE866AC7EE865A7C
:10445000F0EE477A46EEA57A344BC5ED007AC3ED0F
:10446000008A01230C60137001F00AF9001BF5EEBD
:10447000C08A9FED317AC828DFED306A84BF0023FF
:104480002B60F1EE10FA4CBFF1EE687AF0EE687A2C
:10449000F4EE477ADFED1E7AF1EE10FAB4EEC98A37
:1044A00098BFF0EE678AD5ED007AF1EE10FAB0EE23
:1044B000687A54BFB0EE490AB0EE480A07EEA67A11
:1044C00067EE8A7A47EE297AF4EEC07AF1EE10FAB6
:1044D00008DCB1EE400AF4EEC07AF1EE10FA58BFF3
:1044E000B0EE670AC7ED008A61E79FED15AADFED20
:1044F000159A9FED159A7AE7DFED057AACE700BFD4
:10450000480800205408002050080020F007002030
:10451000000000004C0800209A99593F3333334083
:10452000F1070020F4070020F8070020FC07002016
:1045300000007A44000020429A99193ECDCC4C3DAF
:104540000AD7A33DCDCCEC3F6666A640B5EE400A47
:1045500030B5F1EE10FA87B0054636D1F5EE400AD7
:10456000F1EE10FA40F0F980B5EE401AF1EE10FAD3
:104570004CD1FFF73FFD044600BB7B4B1868FFF7AB
:10458000CBFE0023794A1360794A1360794A13609D
:10459000794A1360794A1360794A1360794A136043
:1045A000794A1360794A1360794A13604FF07E5359
:1045B000784A13603DB9204607B030BDFFF71AFDB9
:1045C0000028DAD0F7E72B60F5E7B5EEC00AF1EE88
:1045D00010FA40F1C280B1EE407AF5EEC00AF1EE79
:1045E00010FA4CBFF1EE607AF0EE607AB4EEE77A42
:1045F000F1EE10FA0AD59FED687AF4EEC77AF1EE83
:1046000010FAC4BFDFED657A21EE271A02A8B1EED9
:10461000411AFFF7E9FD9FED620A02A8002D00F0A4
:104620009F80FFF7F7FD85ED000AB2EE045A9DED7D
:10463000026A524BF6EE005ADDED036A684683EDDE
:10464000006A26EE056A4C4B9DED047AB5EEC06A11
:10465000C3ED006A66EE856A4A4BDDED057AF1EE40
:1046600010FA83ED007AF5EEC06A454B27EE057A25
:10467000A8BF36EE256AC3ED007AB8BF36EE656A8C
:1046800067EE857AF1EE10FAB5EEC07ABDEEC66A35
:10469000ACBF76EEA56A76EEE56AF1EE10FA16EE9C
:1046A000103AF5EEC07AFDEEE66AADF80030ACBF28
:1046B00037EE257A37EE657AF1EE10FA16EE903A7B
:1046C000BDEEC77AADF80230ACBF77EEA57A77EED3
:1046D000E57A17EE103AFDEEE77AADF8043017EE02
:1046E000903AADF80630FFF799FC044600287FF4B5
:1046F00062AF1D4B1868FFF70FFEBDF90050BDF902
:104700000230BDF90400EA18BDF906109FED257AC4
:104710005B1B02440A4407EE902A164AF8EEE77A39
:10472000C7EE876AC2ED006AC2181B1A521A0B4400
:1047300007EE902A0E4AF8EEE77AC7EE876A07EE90
:10474000903A0A4BF8EEE77AC2ED006ADFED166A9E
:1047500087EEA67A83ED007A2DE7B0EE407A3CE74B
:10476000FFF758FD61E700BFC4070020E407002001
:10477000E8070020EC070020280800202C08002073
:1047800020080020240800203008002034080020E1
:10479000500800200C00002017B7D1383333333FC6
:1047A0000000E64300002042000020C2144B10B578
:1047B0002DED028B1A7802F0FF0092B19FED118A65
:1047C0000020114CB0EE481A1870F0EE480AB0EE16
:1047D000480AFFF7BBFE38B1FFF70CFCE2230220CA
:1047E0002370BDEC028B10BD084B01201870042310
:1047F0002370074B83ED008A064B83ED008AF0E7B8
:1048000059080020000000005A0800205808002025
:10481000340800203008002010B52DED028B9FEDEC
:104820000D8A04460020B0EE481AF0EE480AB0EEB9
:10483000480AFFF78BFEFFF7DDFB074B074A1C70AA
:1048400082ED008A064A82ED008A1878BDEC028B60
:1048500010BD00BF000000005A08002034080020EE
:10486000300800200020FFF78FBD0020FFF76EBE4C
:1048700008B54FF4FA7000F097FE58B100F0D6FE7C
:10488000054B012283ED000A044B1A70BDE8084075
:10489000FFF72ABD08BD00BF4C080020F00700202C
:1048A000034B012283ED000A024B1A70FFF71CBD77
:1048B0004C080020F0070020014B93ED000A7047E0
:1048C0004C08002070B5234B002500240E461D70B7
:1048D000214B1C60214B1C60214B1C60FFF74EFBE1
:1048E000304600F01DFD1F4B1C601F4B1D70FFF775
:1048F000FBFC1E4B4FF07E521D701D4B1D601D4B6F
:104900001C601D4B1C601D4B1C601D4B1C601D4B17
:104910001C601D4B1C601D4B1C601D4B1C601D4B07
:104920001C601D4B1A601D4B1C601D4B1C601D4BF9
:104930001C601D4B1C601D4B1C601D4B1C601D4BE7
:104940001D701D4B1D601D4B1D701D4B1D701D4BA3
:104950001D7070BDE0070020EC070020E807002074
:10496000E40700204C080020F00700204808002041
:1049700044080020400800203C080020380800209F
:1049800034080020300800202C08002028080020CF
:1049900024080020200800200C0000201C08002013
:1049A0001808002014080020100800200C0800201F
:1049B0000808002004080020000800205A080020F1
:1049C0005908002058080020014B01221A70704736
:1049D000590800200023024A1370024A13707047DE
:1049E0005908002058080020014B1878704700BF74
:1049F000580800202DE9F04F2DED108B85B0F0EE1A
:104A0000609AB0EE41BA08EE900AB0EE619A15468F
:104A100001910AB100231370DFEDCB7ACB4CB4EED9
:104A2000E70AF1EE10FA2FDBDFEDC9DAB4EEED0A9A
:104A3000F1EE10FA28D89FEDC7CA20EE0C0A80EEDE
:104A40002DAAB0EE4A0A07F0B1FCB0EE408AB0EEF3
:104A50004A0A07F0E3FCF8EE687A9FEDBF7A60EE51
:104A600027BA28EE278A6BEE87BA28EE078A2BEE44
:104A7000AB0A08EE080A07F077FCB5EEC00AF0EEC4
:104A800040AAF1EE10FA09D8E32323702078C4B2CB
:104A9000204605B0BDEC108BBDE8F08F88EE00AA73
:104AA000CBEE808ADFEDADBAB5EEC0AAF1EE10FA1A
:104AB0004CBFF1EE4ACAF0EE4ACAF4EEEBCAF1EE90
:104AC00010FA52DDF5EEC08AF1EE10FA4CBFF1EEAD
:104AD000687AF0EE687AF4EEEB7AF1EE10FACCBF79
:104AE00006230523F5EEC0AAB7EE00DAF1EE10FAC0
:104AF0008DED02DA36DD68EEA87A4AEE0A7AF4EE37
:104B0000EB7AF1EE10FA2DD9F5EEC09AF1EE10FA2B
:104B100028DBDFED937AB4EEE7BAF1EE10FA21DB91
:104B2000DFED907AB4EEE7BAF1EE10FA1AD8DFEDC5
:104B30008E7AF4EEE79AF1EE10FA13D8B4EEE79A13
:104B4000F1EE10FA0ED8B5EEC09AF1EE10FA09DBCC
:104B5000F4EECB9AF1EE10FA04DCB4EEC9BAF1EE41
:104B600010FA04D5E323237051E00523BAE77F4A06
:104B7000F0EE4A0AB0EE680A237092ED008A07F060
:104B8000F1FB20EE2D0A7A4BDFF824A2F3EE04EAC3
:104B9000784AC0EE0C7ADFF81C82774E774FDFED53
:104BA00078DAB1EE68CAB0EE6EEAC3ED007A754B02
:104BB0008AED00AAC3ED008A0023C8ED009AC6ED75
:104BC000009A87ED00DA13606F4BC3ED00AA00F086
:104BD00057FDF5EEC08A6D4B6D4A834618608146DD
:104BE000F1EE10FA4FF00103137058BFB0EE68CA2F
:104BF00000F046FDA0EB0B0300900FEE903A8DED18
:104C000003DAFFF789FBFFF7D1FD834610B1207867
:104C1000C4B28EE0019BDBB19847C8B19FED5D8ABD
:104C20005846B0EE481AF0EE480AB0EE480AFFF7D0
:104C30008DFC40B1FFF7DEF9E223237088ED008A96
:104C400086ED008AE3E70DB101232B700423F4E71E
:104C5000484BF6EE007A93ED007A3AEEC77AB4EE5E
:104C6000E77AF1EE10FA40F25081F2EE047ADFEDCD
:104C70004A6A29EE090AF4EEE7EAF1EE10FAB4EE18
:104C8000EB9A7EFEA77A77EEAEEAF1EE10FAC7EE67
:104C9000267A0ED89FED417AF0EE476A4EEE8E6A84
:104CA000F4EEE67AF1EE10FA4BDD77EEC77A9FED7F
:104CB0003C0A9FED3CFA2FEE0F7ADFF8FCB027EEAE
:104CC0002E7A07EE2E0A3FEE0F7A07EE270A07F03C
:104CD0004BFB0EEECF0AF8EE6FEA9FED337A9BF8AE
:104CE00000302EEE877AB4EEC09AC7EE2D7AF1EE40
:104CF00010FA39FE000A77EEA97AB4EEE7BAF1EEBF
:104D000010FA48BFF0EE4B7AB4EEE70AF1EE10FA73
:104D100054BFF0EE679AF0EE409A002B50D04FF45B
:104D2000FA7000F041FC00284AD1E120FFF774FD41
:104D3000044600F0A5FCFFF7EFFA0023144A1370B5
:104D4000A6E69FED1AFAB6E7000034C35A08002021
:104D500000003443DA0F4940B81E853F17B7D138F9
:104D6000CDCCCC3DFFFF7F7F0000E643E407002071
:104D7000400800201C080020300800200C00002003
:104D800000007A443808002018080020DC070020C2
:104D9000E007002000000000FCAD803B00409C4587
:104DA0000000C8438FC2F53D000016440AD7233DDA
:104DB0003C08002034080020480800200000F04291
:104DC0009BF80030002B53D0F4EECCCAB0EE690A49
:104DD000F1EE10FA4CBF01200020FFF7D5FA60EE8B
:104DE000087AF5EEC07AF1EE10FA55D9B5EEC00AA0
:104DF000F1EE10FAB5EEC08A4CBFF1EE407AF0EE5B
:104E0000407AF1EE10FA4CBFB1EE487AB0EE487A33
:104E1000B4EE677AF1EE10FA30FE088AB4EEC80AF2
:104E20005FED1A7A6EEEA7EAF1EE10FACEEEAD7AE9
:104E300035DD77EE887AB4EEE70AF1EE10FA37FE48
:104E4000800AB5EE008A564B29EE888AB4EEC08AF5
:104E5000F1EE10FA48BFB0EE480AB1EE488AB4EE5F
:104E6000C80AF1EE10FA58BFB0EE408A83ED008A0E
:104E700000F006FC4B4B9AED000A8346D3ED000A86
:104E8000B0EE481A29EE800A03A869EEA00AFFF7DF
:104E90005DFB70B1E22049E79FED438ABEE778EE03
:104EA000677AB4EEE70AF1EE10FA48BFB0EE670A8F
:104EB000C7E700F0E5FB039BC8ED009AA0EB0B00F1
:104EC0003B6009F10A09394B07EE900A93ED007A2D
:104ED000F8EE67EA364BD3ED007A68EEA77A4AEE31
:104EE000077AC6ED007A00F0CBFB0346A9EB000081
:104EF000002804DD00F0CAFBDDF800B078E62D499B
:104F000099460A6801320A60F6E7FFF74FFC00286D
:104F10007FF47DAEB4EEEB9AF1EE10FA0BD89FED74
:104F2000221AF0EE410AB0EE410AFFF70FFB00280B
:104F3000B0D1042317E6204D2B7833B14FF4FA702B
:104F400000F032FB00283FF4F0AE2B7823B3B0EE34
:104F5000490AFFF787FCB0EE401A124B02A89AEDFF
:104F6000000AD3ED000A29EE000A69EE200AFFF7D5
:104F7000EDFA00288ED1029B88ED009A3B600B4B26
:104F8000D3ED007A0A4B93ED007A68EE878A4AEEF9
:104F9000278AC6ED008A3AE69FED031ADDE700BFD7
:104FA000500800203808002000000000EC07002016
:104FB000E80700204408002048080020002211468D
:104FC000FFF718BDB5EEC00A2DE9F04FF1EE10FA6B
:104FD000A74C2DED048BB0EE408A85B00CD408D9D7
:104FE000F0EE407A9FEDA37AF4EEC77AF1EE10FA74
:104FF00005DDE323237056E0F1EE407AF2E74FF44B
:10500000FA7000F0D1FA08B9E123F3E700F00EFBE3
:1050100078EE007A0723DFF89082DFF89092DFF8CD
:1050200090A223700023C8ED007A934D89ED000A09
:10503000924F8AED008A924E9FED928A9FED929A4E
:1050400085ED008A3B703360FFF74EF98F4B4FF0D0
:105050007E52DFED8F8A83ED008A8E4B83ED008ACE
:105060008D4B1A6000F00CFB8346019000F008FBAA
:105070004FF07E530393019BC01A3060FFF796FBFD
:10508000C0B14FF4FA7000F08FFA08B1FFF7F0FBEF
:10509000002388ED008A89ED008A8AED008A85ED7B
:1050A000008A3B7033602078C0B205B0BDEC048B41
:1050B000BDE8F08F4FF4FA7000F076FA48B9E120BD
:1050C00085ED008A05B0BDEC048BBDE8F04FFFF71D
:1050D000A3BB326842F20F739A4206D9E42085EDF1
:1050E000008AFFF799FB2070CBE700F09FFA89ED6B
:1050F000000AD8ED006AD9ED007A76EEE76AF5EE9F
:10510000C06ACAED006AF1EE10FA4CBFB1EE667AE1
:10511000B0EE667AB4EEC97AF1EE10FA34D89FEDAB
:10512000591A03A885ED008AF0EE410AB0EE410A53
:10513000FFF70CFA60B1E220FFF76EFB20704FF42E
:10514000FA7000F031FA0028ADD0FFF791FBAAE722
:10515000039A514B1A60494A13780133DBB213703A
:105160001378042B71D998ED000AFFF799FB434A95
:1051700088ED008A042389ED008A8AED008A85ED96
:10518000008A1070306035E7F3EE0E7A00233B7032
:10519000B4EEE77AF1EE10FA4EDAB2EE046AF1EE0E
:1051A000047AB4EEC67AF1EE10FAA5BF37EE467A6D
:1051B000F3EE045AC7EE065A87EE256AAABF9FEDA2
:1051C000377A65EEA77A46EE077A3368F92B36D838
:1051D00096ED006ADFED325AB8EE466A86EE257A21
:1051E00027EE287AF4EEC77AB3EE006AF1EE10FAF1
:1051F000B4EEC67A77FE277AF1EE10FA06DBF4EE0B
:10520000C67AF1EE10FA48BFF0EE467AF5EEC06AC3
:10521000DFED1C0A03A8B0EE600AF1EE10FAD8BF69
:10522000F1EE677AC5ED007A95ED001AFFF78EF979
:1052300040B185ED008A7EE7F0EE687AC5E7B0EE12
:10524000687ACFE7039A144B1A600BF10A0B00F04F
:1052500017FA0346ABEB0000002802DD00F016FA57
:1052600004E710499B460A6801320A60FEE600BF67
:105270005A0800200000B443080800200408002059
:105280000008002000000000CDCC4C3F3408002076
:105290000000C842300800200C0000200000BE4280
:1052A00000007A4344080020140800201008002061
:1052B0000C08002038B54FF4FA60154C00F086F960
:1052C00030B9D0232370FEF795FE2078C0B238BDE8
:1052D000104D01232B70FEF767FE10B1E2232370FF
:1052E000F3E74FF4FA7000F0D1F92B7803F0FF02E6
:1052F0004BB100F083F99FED080AFFF7D1FA642063
:1053000000F0C4F9E1E7054B1A70FEF7EDFFF6E790
:105310005A0800204808002000000000F007002084
:105320000023174A174910B41370174A0860137006
:10533000EFF3108072B60022144C2260144C2260ED
:10534000144C2260144C2260144C2260144A1370D6
:10535000144A1370144A1360144A1360144A1360F9
:10536000144A136000B962B6086828B101221249D4
:105370005DF8044B01F046BF5DF8044B704700BF79
:105380008908002098080020880800207C08002058
:10539000780800207408002070080020840800208D
:1053A000800800206C0800206808002064080020A5
:1053B000600800205C080020950800200C4B1B684A
:1053C00010B48BB183420FD100220A4908240A701D
:1053D00009490A7019680C62C3F884200122074940
:1053E0005DF8044B01F00EBF5DF8044B704700BF41
:1053F00098080020890800208808002095080020CF
:105400004C4A136870B501334B4D13602B7843B988
:10541000552805D1494B4A4A1870012313702B7047
:1054200070BD012B464C0CD1532804D1434B58700E
:1054300002232370F3E7552852D1404A107023709D
:10544000EEE721783D4B4A1C5854D2B20A2A22700A
:10545000E6D918460A21002210F8016B01393244BE
:1054600011F0FF01D2B2F7D1997A91425FD1B3F92D
:1054700004209FED346A07EE902AB3F90620B3F9B1
:10548000023007EE102AF8EEE77A06EE903A2E4B3D
:10549000B8EEC77A2D49F8EEE66A2D4A67EE867AAD
:1054A000087827EE067A66EE866AC3ED006A294B15
:1054B000C3ED007A284B83ED007A284B98B983ED31
:1054C000007A0023136001230B70254B01221A7010
:1054D00000F0D6F8234B244A186013680133136098
:1054E00000232B70ABE7D3ED007ADFED206A77EE77
:1054F000677AF4EEE67AF1EE10FA0CDDDFED1C6A65
:1055000077EEE67AD2ED006A83ED007A76EEA77A3E
:10551000C2ED007AD9E7DFED176AF4EEE67AF1EE34
:1055200010FA44BFDFED126A77EEA67AEAE7124A74
:10553000D3E700BF60080020890800208A08002007
:10554000880800200000B43B7C0800208008002070
:1055500070080020780800207408002084080020CB
:105560006C08002068080020640800200000344314
:105570000000B443000034C35C08002038B5084C78
:10558000236863B183420AD1064D2878FFF738FFBC
:10559000294620680122BDE8384001F033BE38BDFD
:1055A000980800209508002038B5074B05461C6870
:1055B0003CB100F065F8001BA8428CBF0020012020
:1055C00038BD2046FCE700BF6808002070B50446DF
:1055D000094E00F055F8054600F052F8431BA3426F
:1055E00001D3002070BD33681BB9052000F04EF8D0
:1055F000F2E70120F6E700BF68080020EFF3108310
:1056000072B6064A1168064A11600021054A116007
:105610000121054A117003B962B670477408002071
:10562000840800207008002080080020EFF3108319
:1056300072B6034A92ED000A03B962B6704700BF22
:1056400070080020014B1868704700BF68080020F0
:1056500008B5032000F02CF80F20FBF7B3FFFBF791
:1056600093FF002008BD0000034A044B11681B781B
:105670000B441360704700BF9C08002010000020FE
:10568000014B1868704700BF9C08002038B50446DD
:10569000FFF7F6FF0546631C1EBF044B1B78E4189A
:1056A000FFF7EEFF431BA342FAD338BD10000020E2
:1056B00007490302CA6803F4E06322F4E0621204BB
:1056C000120C134343F0BF6343F40033CB607047C5
:1056D00000ED00E0164B30B5DC68C4F30224C4F1E1
:1056E0000703251D042B28BF0423062D4FF0FF358B
:1056F0008CBF033C002405FA03F3002805FA04F5E7
:1057000021EA030322EA050203FA04F343EA02034F
:105710004FEA0313DBB206DB00F1604000F56140A5
:1057200080F8003330BD00F00F00024A1354F9E74F
:1057300000ED00E014ED00E0002807DB4109012343
:1057400000F01F00024A834042F82130704700BF3A
:1057500000E100E0BFF35F8F044B5A6A22F480320D
:105760005A620022C3F89420704700BF00ED00E0A9
:10577000064B40F00100C3F894005A6A42F48032AC
:105780005A62BFF34F8FBFF36F8F704700ED00E099
:105790004378144AC2F89830D2F8A03023F00103BD
:1057A000C2F8A0304368C2F89C30C37A017B1B0664
:1057B00043EA017301780B43817A43EAC143417B99
:1057C00043EA8143817B43EA4143C17B43EA01438E
:1057D000417A43EA0123017A43EA4103C2F8A03047
:1057E000704700BF00ED00E070B50446866DFFF71E
:1057F00047FF054694F83530022B06D08023012060
:105800006365002384F8343070BD23681A6822F081
:1058100016021A605A6922F080025A61226C0AB993
:10582000A26C1AB11A6822F008021A601A6822F0F3
:1058300001021A602368186810F0010007D1E26DB8
:105840003F239340B360012384F83530D9E7FFF755
:1058500017FF401B0528EDD920230320636584F83A
:105860003500CEE790F83530022B03D08023436516
:10587000012070470268052380F835300020136846
:1058800023F00103136070472DE9F74F0023DFF881
:10589000BC916C4A01240D689C4004EA0506AC43A7
:1058A00040F0B7804D6803274FEA430E05F003042C
:1058B00007FA0EFC671E6FEA0C0C012F34D88768BC
:1058C00007EA0C08CF6807FA0EF747EA080787606F
:1058D000476827EA0608C5F300179F4047EA08070C
:1058E0004760C768022C07EA0C088F6807FA0EF7B2
:1058F00047EA0807C76019D14FEAD30803F0070A3F
:105900004FF00F0B00EB88084FEA8A0AD8F8207096
:105910000BFA0AFB27EA0B0B0F6907FA0AF747EAAB
:105920000B07C8F8207001E0032CDAD1076804FAED
:105930000EF415F4403F07EA0C0744EA070404603C
:1059400067D0D9F8444023F0030703F0030C4FF06D
:105950000F0E44F4804407F180474FEA8C0CC9F8DD
:10596000444007F59C37D9F844400EFA0CFE04F485
:1059700080440194019CBC6824EA0E0E324CA04283
:105980004ED004F58064A0424CD004F58064A0425F
:105990004AD004F58064A04248D004F58064A04257
:1059A00046D004F58064A04244D004F58064A0424F
:1059B00042D004F58064A04240D004F58064A04247
:1059C0003ED004F58064A04214BF0A24092404FADE
:1059D0000CF415F4801F44EA0E04BC606FEA06075D
:1059E00094680CBF3C40344315F4001F9460D468A5
:1059F0000CBF3C40344315F4003FD46054680CBFE6
:105A00003C403443ED035460146854BF3C4034437D
:105A100014600133102B7FF43DAF03B0BDE8F08F6D
:105A20000024D4E70124D2E70224D0E70324CEE700
:105A30000424CCE70524CAE70624C8E70724C6E700
:105A40000824C4E7003C0140000002400038024046
:105A500000690840003818BF01207047194B37B55E
:105A60001A6C194C42F080521A641B6C03F080537C
:105A70000193019B236843F480332360FFF700FE0A
:105A800005466368DA030CD523680F4D43F40033F1
:105A90002360FFF7F5FD04466B689B030AD50020E1
:105AA00006E0FFF7EDFD401BB0F57A7FE9D9032052
:105AB00003B030BDFFF7E4FD001BB0F57A7FEBD9F2
:105AC000F5E700BF00380240007000402DE9F341C7
:105AD000044640B30368DE0710D423689D0761D4F1
