:020000040800F2
:10000000000005200D0D0008E9160008EB16000899
:10001000ED160008EF160008F116000800000000B9
:100020000000000000000000000000000180000847
:10003000F316000800000000A180000805810008F8
:100040005D0D00085D0D00085D0D00085D0D0008E8
:100050005D0D00085D0D00085D0D00085D0D0008D8
:100060005D0D00085D0D00085D0D00085D0D0008C8
:100070005D0D00085D0D00085D0D00085D0D0008B8
:100080005D0D00085D0D00085D0D00085D0D0008A8
:100090005D0D00085D0D00085D0D00085D0D000898
:1000A0005D0D00085D0D00085D0D00085D0D000888
:1000B0005D0D00085D0D00085D0D00085D0D000878
:1000C0005D0D00085D0D00085D0D00085D0D000868
:1000D0005D0D00085D0D0008F51600085D0D0008B7
:1000E0005D0D00085D0D00085D0D00085D0D000848
:1000F0005D0D00085D0D00085D0D00085D0D000838
:100100005D0D00085D0D00085D0D00085D0D000827
:10011000011700080D170008251700085D0D0008DD
:100120005D0D00085D0D00085D0D00085D0D000807
:100130005D0D00085D0D00085D0D00085D0D0008F7
:100140005D0D00085D0D00085D0D00085D0D0008E7
:100150005D0D00085D0D00085D0D00085D0D0008D7
:100160005D0D00085D0D00085D0D00085D0D0008C7
:100170005D0D00085D0D00085D0D00085D0D0008B7
:100180005D0D00085D0D0008191700085D0D0008E1
:100190005D0D00085D0D00085D0D00085D0D000897
:1001A0005D0D00085D0D00085D0D00085D0D000887
:1001B0005D0D00085D0D00085D0D00085D0D000877
:0801C0005D0D00085D0D000853
:1001D00081F0004102E000BF83F0004330B54FEAF8
:1001E00041044FEA430594EA050F08BF90EA020F65
:1001F0001FBF54EA000C55EA020C7FEA645C7FEAF8
:10020000655C00F0E2804FEA5454D4EB5555B8BF1A
:100210006D420CDD2C4480EA020281EA030382EA8B
:10022000000083EA010180EA020281EA0303362D1D
:1002300088BF30BD11F0004F4FEA01314FF4801CF0
:100240004CEA113102D0404261EB410113F0004F02
:100250004FEA03334CEA133302D0524263EB4303B9
:1002600094EA050F00F0A780A4F10104D5F1200E57
:100270000DDB02FA0EFC22FA05F2801841F10001B2
:1002800003FA0EF2801843FA05F359410EE0A5F186
:1002900020050EF1200E012A03FA0EFC28BF4CF0B7
:1002A000020C43FA05F3C01851EBE37101F000456D
:1002B00007D54FF0000EDCF1000C7EEB00006EEB7A
:1002C0000101B1F5801F1BD3B1F5001F0CD3490804
:1002D0005FEA30004FEA3C0C04F101044FEA44525B
:1002E00012F5800F80F09A80BCF1004F08BF5FEAE2
:1002F000500C50F1000041EB045141EA050130BDC2
:100300005FEA4C0C404141EB0101013C28BFB1F5D3
:10031000801FE9D291F0000F04BF01460020B1FA1E
:1003200081F308BF2033A3F10B03B3F120020CDAF1
:100330000C3208DD02F1140CC2F10C0201FA0CF0CF
:1003400021FA02F10CE002F11402D8BFC2F1200C34
:1003500001FA02F120FA0CFCDCBF41EA0C019040EA
:10036000E41AA2BF01EB0451294330BD6FEA040433
:100370001F3C1CDA0C340EDC04F11404C4F120021E
:1003800020FA04F001FA02F340EA030021FA04F330
:1003900045EA030130BDC4F10C04C4F1200220FA87
:1003A00002F001FA04F340EA0300294630BD21FAC5
:1003B00004F0294630BD94F0000F83F4801306BF8B
:1003C00081F480110134013D4EE77FEA645C18BF7F
:1003D0007FEA655C29D094EA050F08BF90EA020F16
:1003E00005D054EA000C04BF1946104630BD91EA0E
:1003F000030F1EBF0021002030BD5FEA545C05D111
:100400004000494128BF41F0004130BD14F580044F
:100410003CBF01F5801130BD01F0004545F0FE41C3
:1004200041F470014FF0000030BD7FEA645C1ABFF8
:10043000194610467FEA655C1CBF0B46024650EA2F
:10044000013406BF52EA033591EA030F41F400215B
:1004500030BD00BF90F0000F04BF0021704730B5E1
:100460004FF4806404F132044FF000054FF00001B6
:1004700050E700BF90F0000F04BF0021704730B577
:100480004FF4806404F1320410F0004548BF40424C
:100490004FF000013EE700BF42004FEAE2014FEAA1
:1004A00031014FEA02701FBF12F07F4393F07F4F7C
:1004B00081F06051704732F07F4208BF704793F07F
:1004C0007F4F04BF41F40021704730B54FF4607492
:1004D00001F0004521F000411CE700BF50EA010295
:1004E00008BF704730B54FF000050AE050EA01023E
:1004F00008BF704730B511F0004502D5404261EBAE
:1005000041014FF4806404F132045FEA915C3FF4EE
:10051000D8AE4FF003025FEADC0C18BF03325FEA8B
:10052000DC0C18BF033202EBDC02C2F1200300FA3C
:1005300003FC20FA02F001FA03FE40EA0E0021FA61
:1005400002F11444BDE600BF53B94AB9002908BFFF
:1005500000281CBF4FF0FF314FF0FF3000F00CB807
:10056000ADF1080C6DE904CE07F08AFEDDF804E079
:10057000DDE9022304B07047704700BF10F8012B7B
:1005800011F8013B012A28BF9A42F7D0D01A7047D0
:10059000034613F8012B002AFBD1181A01387047C3
:1005A00001F0FF01102A2BDB10F0070F08D010F824
:1005B000013B013A8B422DD010F0070F42B3F6D128
:1005C000F0B441EA012141EA014122F007047FF041
:1005D00000070023F0E80256083C85EA010586EA98
:1005E000010685FA47F5A3FA87F586FA47F6A5FAD4
:1005F00087F68EB9EED1F0BC01F0FF0102F00702E0
:1006000032B110F8013B013A83EA010313B1F8D18A
:100610000020704701387047002D06BF354603386B
:10062000073815F0010F07D1013015F4807F02BFA4
:10063000013015F4C03F0130F0BC0138704700BFF5
:1006400070B54FF0FF0C4CF4E06C1CEA11541DBF68
:100650001CEA135594EA0C0F95EA0C0F00F0DEF833
:100660002C4481EA030621EA4C5123EA4C5350EA18
:10067000013518BF52EA033541F4801143F4801369
:1006800038D0A0FB02CE4FF00005E1FB02E506F0FA
:100690000042E0FB03E54FF00006E1FB03569CF04F
:1006A000000F18BF4EF0010EA4F1FF04B6F5007F55
:1006B00064F5407404D25FEA4E0E6D4146EB0606C7
:1006C00042EAC62141EA55514FEAC52040EA5E5050
:1006D0004FEACE2EB4F1FD0C88BFBCF5E06F1ED8FA
:1006E000BEF1004F08BF5FEA500E50F1000041EB31
:1006F000045170BD06F0004646EA010140EA0200DE
:1007000081EA0301B4EB5C04C2BFD4EB0C0541EAFF
:10071000045170BD41F480114FF0000E013C00F314
:10072000AB8014F1360FDEBF002001F0004170BD38
:10073000C4F10004203C35DA0C341BDC04F1140451
:10074000C4F1200500FA05F320FA04F001FA05F2DD
:1007500040EA020001F0004221F0004110EBD370AA
:1007600021FA04F642EB06015EEA430E08BF20EAD6
:10077000D37070BDC4F10C04C4F1200500FA04F379
:1007800020FA05F001FA04F240EA020001F000410B
:1007900010EBD37041F100015EEA430E08BF20EA7E
:1007A000D37070BDC4F1200500FA05F24EEA020EC6
:1007B00020FA04F301FA05F243EA020321FA04F0F5
:1007C00001F0004121FA04F220EA020000EBD370AC
:1007D0005EEA430E08BF20EAD37070BD94F0000FAC
:1007E0000FD101F00046400041EB010111F4801FE0
:1007F00008BF013CF7D041EA060195F0000F18BF91
:10080000704703F00046520043EB030313F4801FCC
:1008100008BF013DF7D043EA0603704794EA0C0F86
:100820000CEA135518BF95EA0C0F0CD050EA41069C
:1008300018BF52EA4306D1D181EA030101F0004119
:100840004FF0000070BD50EA410606BF1046194641
:1008500052EA430619D094EA0C0F02D150EA01364D
:1008600013D195EA0C0F05D152EA03361CBF10468E
:1008700019460AD181EA030101F0004141F0FE412D
:1008800041F470014FF0000070BD41F0FE4141F4B1
:10089000780170BD70B54FF0FF0C4CF4E06C1CEAB1
:1008A00011541DBF1CEA135594EA0C0F95EA0C0F66
:1008B00000F0A7F8A4EB050481EA030E52EA033521
:1008C0004FEA013100F088804FEA03334FF0805542
:1008D00045EA131343EA12634FEA022245EA11156F
:1008E00045EA10654FEA00260EF000419D4208BF20
:1008F000964244F1FD0404F5407402D25B084FEACD
:100900003202B61A65EB03055B084FEA32024FF478
:1009100080104FF4002CB6EB020E75EB030E22BFD5
:10092000B61A754640EA0C005B084FEA3202B6EB95
:10093000020E75EB030E22BFB61A754640EA5C0044
:100940005B084FEA3202B6EB020E75EB030E22BFD4
:10095000B61A754640EA9C005B084FEA3202B6EBD5
:10096000020E75EB030E22BFB61A754640EADC0094
:1009700055EA060E18D04FEA051545EA16754FEAF6
:1009800006164FEAC30343EA52734FEAC2025FEA14
:100990001C1CC0D111F4801F0BD141EA00014FF0A3
:1009A00000004FF0004CB6E711F4801F04BF014374
:1009B0000020B4F1FD0C88BFBCF5E06F3FF6AFAE90
:1009C000B5EB030C04BFB6EB020C5FEA500C50F120
:1009D000000041EB045170BD0EF0004E4EEA1131A3
:1009E00014EB5C04C2BFD4EB0C0541EA045170BDAA
:1009F00041F480114FF0000E013C90E645EA060EEE
:100A00008DE60CEA135594EA0C0F08BF95EA0C0F1B
:100A10003FF43BAF94EA0C0F0AD150EA01347FF463
:100A200034AF95EA0C0F7FF425AF104619462CE73A
:100A300095EA0C0F06D152EA03353FF4FDAE10469D
:100A4000194622E750EA410618BF52EA43067FF4EE
:100A5000C5AE50EA41047FF40DAF52EA43057FF47E
:100A6000EBAE12E74FF0FF3C06E000BF4FF0010C89
:100A700002E000BF4FF0010C4DF804CD4FEA410CED
:100A80007FEA6C5C4FEA430C18BF7FEA6C5C1BD0BA
:100A900001B050EA410C0CBF52EA430C91EA030F3B
:100AA00002BF90EA020F0020704710F1000F91EA98
:100AB000030F58BF994208BF90422CBFD8176FEA66
:100AC000E37040F0010070474FEA410C7FEA6C5C34
:100AD00002D150EA013C07D14FEA430C7FEA6C5C3B
:100AE000D6D152EA033CD3D05DF8040B704700BF67
:100AF0008446104662468C461946634600E000BFB5
:100B000001B5FFF7B7FF002848BF10F1000F01BD86
:100B10004DF808EDFFF7F4FF0CBF012000205DF851
:100B200008FB00BF4DF808EDFFF7EAFF34BF0120D6
:100B300000205DF808FB00BF4DF808EDFFF7E0FF6F
:100B400094BF012000205DF808FB00BF4DF808EDC0
:100B5000FFF7CEFF94BF012000205DF808FB00BF27
:100B60004DF808EDFFF7C4FF34BF012000205DF809
:100B700008FB00BF4FEA410C7FEA6C5C02D150EAEF
:100B8000013C0AD14FEA430C7FEA6C5C02D152EA85
:100B9000033C02D14FF0000070474FF00100704756
:100BA0004A0011D212F5001211D20DD56FF47873EC
:100BB000B3EB62520ED44FEAC12343F0004343EA41
:100BC000505323FA02F070474FF00000704750EA8C
:100BD000013002D14FF0FF3070474FF000007047F6
:100BE0004FEA4102B2F1E04324BFB3F5001CDCF14F
:100BF000FE5C0DD901F0004C4FEAC0024CEA507087
:100C0000B2F1004F40EB830008BF20F001007047B5
:100C100011F0804F21D113F13872BCBF01F00040B8
:100C2000704741F480114FEA5252C2F11802C2F1EA
:100C3000200C10FA0CF320FA02F018BF40F001006B
:100C40004FEAC1234FEAD32303FA0CFC40EA0C001D
:100C500023FA02F34FEA4303CCE77FEA625307D15A
:100C600050EA01331EBF4FF0FE4040F44000704791
:100C700001F0004040F0FE4040F40000704700BF2B
:100C80000348044B834202D0034B03B1184770471B
:100C9000E4010020E4010020000000000548064BAC
:100CA0001B1AD90F01EBA301491002D0034B03B16A
:100CB00018477047E4010020E40100200000000014
:100CC00010B5064C237843B9FFF7DAFF044B13B194
:100CD0000448AFF300800123237010BDE40100201D
:100CE0000000000084C5000808B5054B1BB105498C
:100CF0000548AFF30080BDE80840FFF7CFBF00BF55
:100D000000000000E801002084C50008DFF834D0AE
:100D10000D480E490E4A002302E0D458C450043353
:100D2000C4188C42F9D30B4A0B4C002301E013602A
:100D30000432A242FBD300F067FD08F0F5FC00F09E
:100D400061F8FEE70000052000000020E40100201B
:100D500050D50008E4010020A89C0020FEE7000018
:100D600010B594B01022002102240AA808F01AFC41
:100D70001422002103A808F015FC204B01210420B7
:100D80001A6C42F080521A641B6C03F0805301937A
:100D9000019B1B4B1A6842F440421A601B6803F423
:100DA00040430293029B4FF48033CDE908134FF484
:100DB0008003CDE90E43D823CDE9100308A8CDE97F
:100DC000124404F00FF908B172B6FEE704F0D2F84D
:100DD00008B172B6FEE70F234FF4A0520590072129
:100DE00003A8CDE903344FF48053CDE9062304F082
:100DF000E1FA08B172B6FEE714B010BD0038024047
:100E0000007000401FB500211022684608F0CAFBA0
:100E100003F02CFF012300226846ADF8003048F2B1
:100E20001F73CDE9012340F20113039303F03CFF4C
:100E3000042003F029FF03F097FEFFF791FF00F075
:100E40002BF800F025FA00F05FFA00F03FFA00F00E
:100E500079FA00F095FA00F0B1FA074801F0C0FC09
:100E6000064801F0C9FD01F0B5FE06F0BFFE00F036
:100E7000E3F906F0D5FEFEE70C0200201C0300207B
:100E80000268034B9A4201D103F07ABE704700BF5B
:100E90000010004072B6FEE7214B00211A6B42F0B1
:100EA000800200B58BB01A631A6B06A802F08002AC
:100EB0000192019A1A6B42F002021A631A6B02F055
:100EC00002020292029A1A6B42F001021A631A6B32
:100ED00002F001020392039A1A6B42F008021A63AD
:100EE00010221B6B03F008030493049B08F05AFBC9
:100EF00040F20B1305A90B4805930123079303F058
:100F00004FFF1022002106A808F04CFB4FF480632D
:100F100005A90448059303F043FF0BB05DF804FBFB
:100F200000380240000C024008B54FF47A7006F019
:100F3000E9FEFAE72DE9F04FA74B4FF000094FF01B
:100F4000010BDFF8D082A54C87B0DFF8CCA2A44E0D
:100F5000A44FA549A54888F800B084F800908AF805
:100F6000009086F8009083F8009087F8009003F0D6
:100F700037F9642006F0C6FE9D4802F073FA594620
:100F8000484601F055FC054660B105233B70E2235D
:100F900084F8009088F8009033704FF47A7006F06F
:100FA000B1FEFAE703F004FCDFF87092CF2830704E
:100FB00089F800000BD88F4B87F800B084F800B098
:100FC00088F800501D708C4B186818B9FEE788F837
:100FD0000050F8E74FF0FF3203A905F06CFE01283E
:100FE000F1D1237803F0FF0233B9824B88F8002057
:100FF0001B78DBB23370E6E79DF80C300D2B1BD16C
:1010000002238AF8003000F001FDCF28307089F803
:10101000000040F28C8003F067F910B1754B00229C
:101020001A709DF80C2000230A2A8AF8003000F07C
:10103000958088F80030C6E7A3F109028AF800001D
:10104000032A38D8DFE802F0021307279DED050ACE
:1010500003F05CFAD9E701F0CBFD062817D8DFE8EA
:1010600000F00404160C0810120001232370042061
:10107000CBE700232370E220C7E70123E62023709B
:10108000C3E70123F6E70123E7202370BDE701232F
:10109000E5202370B9E701F0DFFF012805464FF096
:1010A0000103E3D90228237001D1E120ADE7032831
:1010B000E1D0E820A9E7023B062B05D8DFE803F0E2
:1010C0003210151A1F242B009FED4C1A9FED4C0A6D
:1010D000DFED4B1A0498F0EE610A03F00BF994E788
:1010E0009FED461A9FED470AF2E79FED441A9FEDE8
:1010F000460AEDE79DED050A9FED441AE8E79DEDF0
:10110000050AB1EE400AF7E79FED410ADDED057AE9
:1011100030EE670AF0E79FED3E0ADDED057A30EE2E
:10112000670AEEE79FED351A9FED390AD0E703F025
:10113000DBF800287FF472AF9DF80C30A3F10A02AF
:10114000012A7FF66BAF0C2B02D1002D7FF466AF26
:10115000214A13780133DBB213705FE74FF0010BC4
:10116000022043F698225946387088F800B001F002
:1011700089FB0023009038BB02F0B4F903220190F0
:1011800059463A70584643F6982201F07BFB98B9CD
:10119000019B042213F0FD0F3A7008D1327089F8D8
:1011A00000200123237000238AF8003041E7E22366
:1011B000337089F80030F4E705233B70E223337085
:1011C00089F80030009BEDE705223A70E222327088
:1011D00089F80020E6E700BF080700208406002009
:1011E0008206002009070020B4040020A403002088
:1011F0002C040020CE070020940600200000164397
:10120000000000000000B4420000B4C20000074328
:101210000000344304000020830600207A060020EA
:1012200010B50446034800F00FFE2046BDE810400C
:1012300000F0B8BE9402002008B500F0F1FD0B4AA2
:1012400000210B4806F00CFD0A4B0B4A00211860E8
:101250000A4806F005FD0A4B0A4A002118600A48B0
:1012600006F0FEFC094B186008BD00BF10CE000858
:10127000290F000808020020ECCD0008350F0008F7
:1012800004020020C8CD000821120008000200203E
:1012900008B50C494FF4E1320B4B08460B600023B4
:1012A000C1E901230C224B62C1E90333C1E90523E3
:1012B000C1E9073305F0A7F918B1BDE80840FFF709
:1012C000E9BD08BD2C0400200010014008B50C4900
:1012D0004FF416520B4B08460B600023C1E9012363
:1012E0000C224B62C1E90333C1E90523C1E907338D
:1012F00005F089F918B1BDE80840FFF7CBBD08BD7E
:10130000B40400200044004008B50C494FF4E13219
:101310000B4B08460B600023C1E901230C224B62F2
:10132000C1E90333C1E90523C1E9073305F06BF9CE
:1013300018B1BDE80840FFF7ADBD08BDA40300200B
:101340000048004008B50C494FF4E1320B4B084609
:101350000B600023C1E901230C224B62C1E9033376
:10136000C1E90523C1E9073305F04DF918B1BDE81E
:101370000840FFF78FBD08BD1C030020004C004053
:1013800008B50C494FF4E1320B4B08460B600023C3
:10139000C1E901230C224B62C1E90333C1E90523F2
:1013A000C1E9073305F02FF918B1BDE80840FFF790
:1013B00071BD08BD940200200050004008B50C49E2
:1013C0004FF416520B4B08460B600023C1E9012372
:1013D0000C224B62C1E90333C1E90523C1E907339C
:1013E00005F011F918B1BDE80840FFF753BD08BD7D
:1013F0000C0200200078004030B5D5B0044614221D
:1014000000210DA808F0CEF88422002112A808F0CF
:10141000C9F82368A84A93422BD1402312A81293FB
:1014200004F0A4F808B1FFF735FDA44B4FF4C06EEB
:101430000DA9A3485A6C42F010025A645A6C02F08B
:1014400010020192019A1A6B42F001021A63002203
:101450001B6B03F001030293029B0223CDE90DE312
:101460000323CDE90F230723119303F099FC55B013
:1014700030BD944A934232D1802312A8129304F0D3
:1014800075F808B1FFF706FD8C4B4FF0600C002497
:101490000DA91A6C8C4842F400321A641A6C02F4DA
:1014A00000320392039A1A6B42F008021A631B6B14
:1014B00003F008030493049B0223CDE90DC3032327
:1014C000CDE90F430723119303F06AFC262022463F
:1014D000052103F08BFB262003F0BAFBC7E77B4A0C
:1014E000934229D14FF4807312A8129304F03EF86E
:1014F00008B1FFF7CFFC714B4FF4406400250DA9F4
:101500001A6C734842F480221A641A6C02F4802226
:101510000592059A1A6B42F002021A631B6B03F0E4
:1015200002033393339B0223CDE90D430323CDE91B
:101530000F530723119398E7664A934236D18022CE
:10154000002134A808F02EF84FF4007333A8339329
:1015500004F00CF808B1FFF79DFC584B4FF44060C5
:1015600000240DA91A6C42F400221A641A6C02F4C9
:1015700000220692069A1A6B42F004021A631B6B51
:1015800003F004030793079B0223CDE90D03032314
:101590005148CDE90F430823119303F001FC342097
:1015A0002246062103F022FB342095E74B4A934262
:1015B00046D18022002134A807F0F4FF4FF4806365
:1015C00033A8339303F0D2FF08B1FFF763FC3B4B22
:1015D0004FF48051002408251A6C3F4842F48012D1
:1015E0001A641A6C02F480120892089A1A6B42F07C
:1015F00004021A631A6B02F004020992099A1A6B28
:1016000042F008021A631B6B119503F008030A935A
:101610000A9B0223CDE90D1303230DA9CDE90F4346
:1016200003F0BEFB04230DA927480D93119503F089
:10163000B7FB35202246062103F0D8FA35204BE7C8
:10164000274A93427FF413AF8022002134A807F089
:10165000A9FF4FF4805333A8339303F087FF08B1F9
:10166000FFF718FC154B00240DA91E481A6C42F018
:1016700080421A641A6C02F080420B920B9A1A6B29
:1016800042F010021A634FF4C0721B6B03F0100398
:101690000C930C9B0223CDE90D230323CDE90F43CB
:1016A0000823119303F07CFB52202246052103F00E
:1016B0009DFA522010E700BF0010014000380240A0
:1016C0000000024000440040000C0240004800407E
:1016D00000040240004C004000080240005000405E
:1016E0000078004000100240FEE7FEE7FEE7FEE75C
:1016F000FEE77047014804F063BB00BFB40400205C
:10170000014804F05DBB00BF1C030020014804F049
:1017100057BB00BF94020020014804F051BB00BF3A
:101720000C020020014804F0F1B900BF3C05002084
:101730000D4B82B00F216FF001001A6C42F0805205
:101740001A641A6C02F080520092009A5A6C42F4A9
:1017500080425A6400225B6C03F480430193019B36
:1017600002B003F043BA00BF00380240214B1A6CAC
:1017700042F0100230B589B01A641B6C054601A90D
:1017800003A803F010030293029B03F0D1FE069B13
:101790004BBB03F0ADFE184A184B136040F2E73321
:1017A000D360174BB0FBF3F3013B104653600023AB
:1017B00013619360936104F09DFA044680B90E486A
:1017C00004F062F9044658B9362003F041FA0F2DAF
:1017D0000DD822462946362003F008FA094B1D6031
:1017E000204609B030BD03F083FE4000D3E701245A
:1017F000F6E700BF003802403C0500200010004022
:1018000040420F0014000020034AD2F8883043F40D
:101810007003C2F88830704700ED00E00378013BA8
:10182000062B05D8DFE803F023070A0D10151C006E
:101830009FED100A70479FED100A70479FED0F0A49
:10184000704790ED020A704790ED020AB1EE400A2F
:101850007047D0ED027A9FED0A0A30EE670A7047B2
:10186000D0ED027A9FED060A30EE670AEEE79FEDB3
:10187000040A7047000000000000B4420000B4C237
:10188000000034432DE9F04F574B4FF0010B574FF9
:101890000646DFF870A15945DFF86C918846544C34
:1018A00015462DED048B83B083F800B04FF0000394
:1018B0003B70CAF8003089F80030237047D00278B6
:1018C000043A032A43D8027B002A40D14168CAF86F
:1018D00000B0DFED481A9FED481ADFED480A89F89D
:1018E0000050FFF79BFF084602F004FDCF28207050
:1018F00008D802F0F9FC50B187F800B00423237037
:101900002078C0B203B0BDEC048BBDE8F08F022399
:101910009FED3A2A3046DFED3A1ACAF800306B00E4
:10192000F0EE420A9FED331ADBB2962189F80030BF
:1019300033690193FFF772FF019802F045FDCF284C
:101940002070DFD802F0D0FC0028D5D102234FF060
:101950000C0B9FED298ADFED2A8A0BFB036B9FEDB1
:10196000279A5E1CF1B24B1EDBB298450AD80123C0
:10197000002D3B7018BF45464344CAF8003089F833
:101980000050BBE75846FFF749FF9BF80030CAF804
:101990000060043B032B8CBFB0EE681AB0EE481A0F
:1019A000002D08BF002189F800109BF80030082B9B
:1019B00014D0F0EE491ADFED110ADBF8040002F052
:1019C00099FCCF2820709DD80BF10C0B013602F04A
:1019D0008BFC0028C6D001233B708FE79BED020AE9
:1019E00002F094FDEDE700BF810600208006002094
:1019F0007A0600200000704200000743000000004B
:101A0000000016437C06002078060020074B1B7858
:101A100003F0FF011BB101220548FFF733BF054B5F
:101A2000E3221A701878C0B2704700BF7906002010
:101A3000880500207A060020F0220021044808B51D
:101A400007F0B0FD0023034A1370034A137008BD6A
:101A500088050020790600207806002008B5094B8B
:101A6000E4220021184607F09DFD074A034607CAF5
:101A700003E90700054B01221A700022044B1A707B
:101A800008BD00BF940500204CCE00087906002058
:101A900078060020082830B501D802D1B1B1022063
:101AA0003EE04A1E42F20F739A42F8D8031F032BFE
:101AB00037D8B5EEC00AF1EE10FAF0DDDFED1D7A91
:101AC000B4EEE70AF1EE10FA13D9E8E7B5EE400AF2
:101AD000F1EE10FAE3D0DFED187AB4EEE70AF1EE9A
:101AE00010FADCD4DFED157AB4EEE70AF1EE10FA65
:101AF000D5DC134B1A78132A19D81D780C24114AF7
:101B000065435055187804FB002041600020197887
:101B100004FB012282ED020A1A780132D2B21A7055
:101B200030BDB5EE400AF1EE10FAE2D0B7E7012081
:101B3000F6E700BF0000B4420000B4C30000B443A5
:101B40007906002088050020014B1878704700BFF7
:101B5000790600200B4661B1074A1278824208D903
:101B6000064A0C2101FB002007C883E8070001207A
:101B700070470020704700BF7906002088050020CC
:101B800008B50B4B1B7803F0FF006BB1094B1B78BA
:101B900003F0FF004BB9084B1B682BB1184605F04A
:101BA0002FF9B0FA80F0400908BD0020FCE700BF23
:101BB00084060020040000209406002070B50E4624
:101BC000144605462DED028B82B020B9002002B0EC
:101BD000BDEC028B70BD0029F8D0002AF6D001A917
:101BE000304607F0C5FA019BB0EE408AB342EDD013
:101BF0001B78002BEAD1B5EEC00AF1EE10FAE5DD54
:101C0000DFED0C7AB4EEE70AF1EE10FADED80A49FD
:101C10002846FEF7B3FC18B9012084ED008AD6E708
:101C200006492846FEF7AAFC0028CFD1B1EE488A23
:101C3000F2E700BF0000B443C8C50008C9C50008EA
:101C400037B505460C4611B9002003B030BD00235E
:101C500001A9019307F08CFA019BAB42F4D01B78E9
:101C6000002BF1D1B5EEC00AF1EE10FAECDDDFED9C
:101C7000057AB4EEE70AF1EE10FAE5D8012084ED1A
:101C8000000AE2E70000B44237B50D4619B9002456
:101C9000204603B030BD0378002BF8D0421E00244C
:101CA00012F8013F8BB9002CF1D00A2201A901934F
:101CB00007F030FB019B1B78002BE8D1421E42F25B
:101CC0000F739A42E3D82860E2E7303B0124092BE6
:101CD000E6D9DCE770B5054600B3FFF751FF0446CF
:101CE000E0B12B780A3B012B14D9104B1A78012A4A
:101CF00017D102F0EFFA0E4E01230E482946337039
:101D0000002300681A4604F0B8FE012807D000231B
:101D1000337003E001F05EFC0028E6D10024204689
:101D200070BD1B78042BF9D1E3E700BF0907002041
:101D30000400002094060020074B70B51D6804467F
:101D40004DB1FEF725FC214682B264232846BDE84A
:101D5000704004F0D8BB70BD0407002070B5064683
:101D600015460C46002948D02549FEF707FC20B946
:101D7000012323702870012070BD22493046FEF7F0
:101D8000FDFB20B90223237001232B70F3E71E49CA
:101D90003046FEF7F3FB18B9032323700223F4E760
:101DA0001A493046FEF7EAFB18B9042323700323CF
:101DB000EBE717493046FEF7E1FB18B9052323701E
:101DC0000423E2E713493046FEF7D8FB18B906238F
:101DD00023700523D9E710493046FEF7CFFB18B929
:101DE000072323700623D0E70C493046FEF7C6FBD5
:101DF00018B9082323700723C7E70020BCE700BFFA
:101E0000B4CD0008A0C90008F6C500084FCA0008F4
:101E1000CCC50008CFC50008D2C50008D5C500084C
:101E200008B500226121042004F0FEFD044B0022CD
:101E30000C211860042004F0F7FD024B186008BD67
:101E40009806002094060020064A074910600022E8
:101E50000A8006490A7006490A7010B1012204F08E
:101E60005DBC7047040700209E0600209C060020F1
:101E7000000700202DE9F04100239AB0304E009376
:101E80003368002B3FD083423DD12E4A2E4D13683C
:101E90002C78013313602D4B1F780D2F01D00A2FA2
:101EA0003CD12B4FB7F80080B8F1000F00D1A4B19E
:101EB000602200210DF1050007F074FB4246254920
:101EC0000DF105008DF8044007F055FC224B186811
:101ED000E0B9224A13680133136000231D4A3B8096
:101EE0002B70137001221949306804F017FC009B15
:101EF0004BB14FF0E0234FF08052C3F8042DBFF3F5
:101F00004F8FBFF36F8F1AB0BDE8F08100236A4690
:101F100001A904F06CFE0128DBD1DEE7002CE1D141
:101F20000B490C4A08885E2805D8431C17549BB2FD
:101F30000B80D454D6E701230C8014702B70D1E7AA
:101F400004070020900600209C06002000070020C7
:101F50009E060020A006002098060020880600208B
:101F60000C4B1B6810B48BB183420FD100220A497D
:101F700008240A8009490A7019680C62C3F8842091
:101F8000012207495DF8044B04F0C8BB5DF8044B1F
:101F9000704700BF040700209E0600209C0600201A
:101FA000000700202DE98048DFF85893EFB0A14EDC
:101FB00015ACD9F8000000B9FEE74FF0FF3221461A
:101FC00004F079FE0128F4D123783BB19A4A9B486A
:101FD000136801331360FFF7AFFEE9E798490DF18D
:101FE000550007F0F9FA04460028E1D0954A9649D1
:101FF000136801331360FEF7C1FAC8B9904907F0BE
:10200000EBFA20B18C4A13680133136053E302F0FA
:102010005BF98E4B186848B18D4B1B7803F0FF04B9
:1020200023B9214604F05FFC8A4B1C708A48D2E732
:102030008A492046FEF7A2FA002840F0D98080495C
:1020400007F0CAFA0028DDD1824B1B78002B00F084
:10205000C580834B834C1B78834A072B08BF1446EB
:102060007B4B1A78022A00F0C1801A787F4D804B92
:10207000012A08BF1D464FF4FA707E4F02F008FD9A
:102080007D4B002818BF1F4602F044FD10EE100AD9
:10209000FEF702FACDE90E01FFF756FD7749784BBE
:1020A0008046784A1B781278D1F800A0DBB27649D6
:1020B000D2B21193D1F800B0744910920868FEF7BB
:1020C000EBF9CDE90C015846FEF7E6F9CDE90A0136
:1020D0005046FEF7E1F9109A119B06926C4A9DED6D
:1020E0000E7BCDE90801CDE904838DED027B23460B
:1020F0004FF480712EA8CDE9005707F0D9F92EA82A
:10210000FFF71AFE307800F05DFC624A6249034630
:1021100012782EA80978614D614FCDE90021614AFE
:102120004FF4807107F0C4F92EA8FFF705FE5E4B4F
:10213000187800F01DFE5D4B0446187800F024FE70
:102140005B4B5C4A5C49DFF8C0C11B7812680968C8
:102150002D683F68DCF800C000902EA8CDE9057C12
:10216000CDE90315CDE901324FF48071534A23467E
:1021700007F09EF92EA8FFF7DFFD514B187801F00C
:1021800043FA504B0E90187801F04AFA4E4B4F4AE2
:1021900005461F784E4BFFB2D3F800A04D4BD3F845
:1021A00000B04D4B93F800804C4B5FFA88F81C68E8
:1021B000107801F043F94A4A0E9B4FF4807112687F
:1021C000CDE90484CDE90602CDE902AB454A2EA84B
:1021D000CDE9005707F06CF92EA8FCE6424B234CE2
:1021E0001B78424ACF2B88BF144639E7404D42E75F
:1021F00040492046FEF7C2F938B9114907F0ECF919
:1022000000287FF4FFAE3C48E5E63C492046FEF757
:10221000B5F9002840F08980094907F0DDF9002868
:102220007FF4F0AE3378012B70D03378042B6DD06F
:102230003348D0E6090700208806002009C60008B8
:102240001DC600088C06002020C600089406002049
:10225000830600200400002032C600083CC60008A7
:10226000CE07002025CB0008D8C50008E7C5000828
:10227000F1C50008FFC50008F8C500088C0700205C
:1022800078060020CD070020880700208407002062
:1022900043C600080807002005000020240700208E
:1022A00020070020C6C6000846070020450700207A
:1022B000440700202C07002028070020F7C600084C
:1022C000600700200900002061070020500700205F
:1022D0005C070020580700200A0000205407002057
:1022E0004C07002077C7000882060020E1C50008DF
:1022F000ECC5000846C800084BC800089DC9000886
:10230000A2C90008980600201C0700200A232EA856
:102310008DF8B83000232F9300233093FFF7DAFCB9
:1023200008B9AE4857E6AE4855E6AE492046FEF736
:1023300025F998B9AC4907F04FF900287FF462AE4F
:102340000B232EA88DF8B83000232F930023309351
:10235000FFF7C0FC0028E4D0A4483CE6A44920468E
:10236000FEF70CF990B9A04907F036F903460028AA
:102370007FF448AE0C222F9300232EA802708360B6
:10238000FFF7A8FC0028CCD09A4824E69A492046BA
:10239000FEF7F4F8002840F0A681934907F01CF9F5
:1023A000044600283FF42EAE9449FEF7E7F80028D3
:1023B00068D18D4907F010F9044600287FF422AE59
:1023C000FFF7C2FB8E4D03468E4A80218246DFF81E
:1023D00088B22EA807F06CF82EA8FFF7ADFCE0B28B
:1023E000824505D90DF148084146FFF7B3FB08B90E
:1023F0008548F0E598F80070082F1CD1D8ED027AD6
:10240000F5EEC07AF1EE10FADABFF1EE677A7F4F9F
:102410007F4F17EE900AFEF73FF823467D4A00975C
:10242000CDE9020180212EA807F042F82EA8013440
:10243000FFF782FCD3E73B1FD8F80420032B12D808
:10244000D8F808000E92FEF727F80E9A5BF82730AE
:10245000019200932346704ACDE9020180212EA803
:1024600007F026F8E2E7082F4FF080012EA894BF6E
:102470005BF827302B46CDE900322346674A07F048
:1024800017F8D3E766492046FEF778F870B9564941
:1024900007F0A2F800287FF4B5ADFFF771FB002824
:1024A0003FF43FAFFFF7C8FA5E4894E55E49204627
:1024B000FEF764F8D0B94C4907F08EF800283FF4D5
:1024C000A1AD5A49FEF75AF800287FF49BAD464962
:1024D00007F082F800287FF495ADFFF751FB002844
:1024E0003FF41FAFFFF7BAFA514874E5514920464F
:1024F000FEF744F8C0B93C4907F06EF804460028DE
:102500007FF480ADFFF720FB08B94B4863E50D234E
:102510002EA84460037000238360FFF7DBFB0028D4
:102520003FF4FFAE454856E520464549FEF726F8FC
:10253000044600287FF466AD2B4907F04DF82A4980
:102540000746204607F048F827490546204607F089
:1025500043F80446002F3FF455AD002D3FF452AD33
:1025600038493846FEF70AF838BB24B9364A1368AA
:10257000013313601FE030AA21462846FFF71EFBF7
:102580000028F3D01849002007F026F80446002858
:10259000ECD1FFF7F5FA00283FF4C3AE9DED300A09
:1025A00021460820FFF776FA012801D1274812E5D5
:1025B000002800F08C8026480DE50DF1480A0DF149
:1025C000B808384652464146FFF7C8FB002845D1B7
:1025D0001D4A2048136801331360FCE4B7C90008A2
:1025E000C2C90008CCC900081DC60008D1C900082E
:1025F000DBC90008DEC90008ECC50008E6C9000810
:1026000007C60008EBC90008FBC90008C9C50008D7
:10261000C8C5000801CA00081ACA000838CA00085C
:102620004BCA000851CA000861CA000866CA0008FF
:102630006ECA000885CA000889CA00089ACA00083C
:10264000A8CA0008ACCA000888060020BCCA000856
:10265000B0CA0008DDCA000858CE00082FA92846D5
:10266000FFF712FB28B9504A504813680133136032
:10267000B1E400239AF80050C8F808302B1F032B50
:102680001BD9002C7FF4BEAC4949002006F0A4FF02
:1026900000287FF4B7ACFFF773FA00283FF441AE8F
:1026A00098ED020A2846D8F80410FFF7F3F901283C
:1026B0003FF47CAF58B13F488DE4002C3FF456AF57
:1026C00030A92046FFF7BCFA0028DDD14EE7FFF71E
:1026D0003BFA394A431E60210DF1550006F0E8FE31
:1026E0000DF1550077E435492046FDF747FF2EAD43
:1026F00007462F4900BB06F06FFF04462C493846B9
:1027000006F06AFF30AA01462046FFF757FA002874
:102710003FF42CAF2649384606F05EFF00287FF4D0
:1027200025AF092368602B702846FFF7D3FA0028ED
:102730003FF4F7AD22484EE40DF14808002006F0C2
:102740004BFF2946074642462046FFF707FB002875
:102750003FF458AC002F3FF455AC2FA93846FFF793
:1027600093FA00283FF44EAC002311490020AB60DF
:1027700006F032FF98F80020043A032A0AD900280C
:102780007FF440AC0A49002006F026FF00287FF4C1
:1027900039ACC9E700283FF4E9AE30A9FFF750FA99
:1027A0000028EFD1E2E600BF88060020EFCA00084B
:1027B0001DC6000825C60008CCCA0008ACCA00081F
:1027C000FECA00080023034A1370034A1370034A29
:1027D000137070470C0700200B0700200A07002029
:1027E0000C4B0D4A10B51860FF230C4C13700C4AAB
:1027F000137002230B4A2370002313700A4A1370CC
:10280000FFF7E0FF28B10122084903F087FF00B974
:10281000207010BD180700200700002006000020CF
:1028200005000020090700200807002015070020E8
:1028300037B5104A0346104C106828B9012323709D
:102840002078C0B203B030BD0C4AFF258DF80510CA
:10285000090A15700A4A8DF8043064230092072291
:102860008DF80610694603F04EFE08B10223E6E734
:102870002070E5E718070020060000200700002070
:1028800055550506F8B5134B064614461B6803B1AB
:102890001AB9114B01221A7003E0FFF7C9FF18B1F2
:1028A0000D4B1878C0B2F8BD02F076F90B4F054613
:1028B00002F072F9431BA34202D3074B0322EAE75B
:1028C0003B78B34202D1044B0022E4E70A2005F032
:1028D00019FAEDE718070020060000200700002085
:1028E000234A0346106810B500283FD098423DD1D6
:1028F000204A214B11781B78032934D8DFE801F0F6
:10290000020C121C552B01D10123137001221A490C
:10291000BDE8104003F002BF552B01D10223F4E7BC
:102920000023F2E7991E07291DD814490B700021D6
:10293000134B19700323E8E711490C78621CD2B2DB
:102940000A7010490B550D4B1C78631EDBB29A427E
:10295000DCD3052C07D10B78082B04D14B780A4A1D
:1029600013700A4A1370FFF72DFFCFE710BD00BFA9
:10297000180700200A070020150700200C07002078
:102980000B0700200D070020070000200500002095
:102990000A4A116808B579B181420DD1FFF712FFDB
:1029A0000B6808221A6200230122C1F8843004490E
:1029B000BDE8084003F0B2BE08BD00BF1807002004
:1029C0001507002005289ABF024B53F82000024843
:1029D000704700BF7CCE000803CB00080023034AE9
:1029E0001370034A1370034A1370704733070020B3
:1029F000320700203407002008B50E4B0E4A18603D
:102A0000002313700D4A13700D4A13700D4A1360A2
:102A10000D4A13600D4A13600D4A13600D4A13608E
:102A2000FFF7DCFF28B101220349BDE8084003F0AD
:102A300075BE08BD400700203C070020310700207C
:102A4000300700202C070020280700202407002042
:102A5000200700201C070020154A034613B5106804
:102A600020B3012B19D0022B20D13223114A0DF1B2
:102A700007018DF8073000230F4C13702370FFF708
:102A8000ADFF6423012203F03EFD40B10B4A02205A
:102A900013680133136002B010BD3123E6E7084A22
:102AA00013680133136001232370F4E70120F2E778
:102AB0004007002031070020300700201C070020BD
:102AC0002C070020EFF3108272B6044B0021187817
:102AD0001970C0B202B962B6704700BF310700205A
:102AE000024A136801331360704700BF20070020BB
:102AF0001F4A38B503461068002838D0984236D1AE
:102B00001C4B1C780D2C18D01B4B0A2C1A781ED18C
:102B1000DAB91A4B1B78012B15D1194909783129DB
:102B200013D118490C7834B1174C23700A70174A26
:102B3000136801331360FFF751FF01220D49BDE80F
:102B4000384003F0EBBD002BF5D0114AF0E7002A26
:102B5000F3D10A4D2978062995BF4B1C0122DBB21F
:102B60001A709FBF2B70064D6C54EA54E5E738BDD0
:102B7000400700203C0700203207002033070020D8
:102B800034070020300700203107002028070020EC
:102B9000240700200C4A116808B599B1814211D16F
:102BA0000A4A136801331360FFF718FF0B68082205
:102BB0001A6200230122C1F884300549BDE80840AB
:102BC00003F0ACBD08BD00BF400700201C0700207B
:102BD0003C0700200023034A1370034A1370034A82
:102BE0001370704746070020450700204407002067
:102BF0002DE9F74F0023594A594C5A4D2370137051
:102C000000F0F4FC431E0090DBB2052B03D908232F
:102C10002B7005230FE001262E7000F0C1F8B042A2
:102C200005D107232B7020702078C0B245E020B179
:102C300008232B7006232370F6E74FF004084A4F51
:102C4000032343F698223146304685F800803B70D6
:102C5000FFF718FE30B108232B70052384F800809D
:102C60003B70E1E7DFF8049199F800301BB10723CE
:102C70002B702670D8E74FF0020A384B01201E70E7
:102C800085F800A0FFF7E8FE20B108232B7084F838
:102C900000A0C9E701F080FF804601F07DFF42F20D
:102CA0000F73A0EB080098420AD9FFF719FF06231B
:102CB00003202B70012320703B7003B0BDE8F08F20
:102CC00099F80030002B43D1FFF7FCFE18B90A2019
:102CD00005F018F8E1E74FF0030B43F698220121C5
:102CE000022085F800B04FF0040887F800A0FFF735
:102CF000C9FD0028AFD100F0F5FB0121019043F69A
:102D00009822084685F8008087F800B0FFF7BAFDE2
:102D1000019B00289FD113F0FD0F87F800807FF4FE
:102D200076AF022B03D107232B70012383E799F899
:102D3000003003F0FF02002BF5D10136009BF6B204
:102D4000B3429AD205232B70227087F800806BE77C
:102D5000012007232B7020703870AEE74407002055
:102D6000450700204607002009070020CD07002066
:102D700008289ABF024B53F820000248704700BF52
:102D8000B0CE000803CB000806289ABF024B53F8C8
:102D900020000248704700BF94CE000803CB000813
:102DA0002DE9F04F2DED068B89B001F0F5FE804640
:102DB0004FF4FA7001F06CFE40B9042400F0E8FC16
:102DC000204609B0BDEC068BBDE8F08F002401F071
:102DD000A1FEF0EE408A9FED65AA2746DFF8A0919C
:102DE0009FED639A01F0D8FE4FF48071054661486B
:102DF00002F0BAF8012183465E4802F0B5F80221DC
:102E000082465C4802F0B0F808210646594802F0B4
:102E1000ABF899F8002032B100F0BAFC002840F07D
:102E2000A2800124CCE7A5EB080141F28732914250
:102E300003D9022400F0ACFCC2E701904FF4FA7011
:102E400001F026FE0028B8D0BBF1000F00F083800F
:102E500046EA0A06019BF6B27EB9002B7BD0002C15
:102E600008BF2F4600F094FC044600287BD1ED1BE0
:102E7000312D76D901F036FEA2E7F3EE099A002B48
:102E8000FBEE097A49FEA79A01F044FE38EEC08AAB
:102E9000B4EEC98A38EE4AAA78EE087AF1EE10FA52
:102EA0004AEE097A06D89FED347AB4EEC78AF1EE7D
:102EB00010FA53DAB2EE001AF4EEC17AF1EE10FA1B
:102EC00008DCBAEE001AF4EEC17AF1EE10FA58BF3F
:102ED000B0EE671AF0EE690A04A89FED240A00F02C
:102EE0004BFD04A89FED250A00F05CFDB2EE047ACC
:102EF000DDED047A02A867EE877AFDEEE77A17EE39
:102F0000903ADDED057A67EE877AADF80830FDEE90
:102F1000E77A17EE903ADDED067A67EE877AADF83C
:102F20000A30FDEEE77A17EE903ADDED077A67EEAC
:102F3000877AADF80C30FDEEE77A17EE903AADF8EF
:102F40000E3000F041FC044668B9B0EE48AA1420E7
:102F500004F0D8FE46E7F3EE099A95E79FED031AD1
:102F6000B8E70124F3E703242AE700BF00000000CC
:102F70009A99193E000C02409A9919BE0000164316
:102F8000CD0700207FB502A800F0F6FC02A89FED57
:102F90001A0A00F007FDB2EE047ADDED027A684607
:102FA00067EE877AFDEEE77A17EE903ADDED037A69
:102FB00067EE877AADF80030FDEEE77A17EE903ACB
:102FC000DDED047A67EE877AADF80230FDEEE77A40
:102FD00017EE903ADDED057A67EE877AADF80430AA
:102FE000FDEEE77A17EE903AADF8063000F0ECFB14
:102FF00007B05DF804FB00BF0000164300F0C8BB3B
:103000000A4B10B51B7803F0FF0423B10124FFF72E
:10301000F5FF204610BD4FF4FA7001F039FD00288D
:10302000F7D10224FFF7EAFFF3E700BFCD07002046
:1030300010B501F0B1FD044601F0AEFD031B4F2BAE
:1030400001D9002010BDFFF7DBFF0028FAD11420C2
:1030500004F058FEF0E700002DE9F0414FF4FA705B
:103060002DED048B01F014FD38B9FFF7C7FF0224E2
:103070002046BDEC048BBDE8F081DFED8E8A002692
:1030800001F030FD9FED8C9AF0EE689A01F084FD1E
:10309000B046074601F080FD0546FFF7B1FF044644
:1030A00038B9EA1B41F287339A4205D90424FFF765
:1030B000A5FFFFF7A3FFDBE74FF480617F4801F036
:1030C00053FF28B9AEB3A5EB08051D2D3ED83446F5
:1030D00001F020FD39EEC08AB4EEC98AF1EE10FA93
:1030E00006D8DFED777AB4EEE78AF1EE10FA23DA4C
:1030F00078EE688A78EE087AB2EE001A48EE897A9D
:10310000F4EEC17AF1EE10FA08DCBAEE001AF4EE31
:10311000C17AF1EE10FA58BFB0EE671AFBEE090A59
:103120009FED640AFFF72EFF48B10324FFF766FF07
:10313000BFE7A8460124CBE79FED5E1AEEE7142017
:10314000F0EE488A264604F0DDFDA3E700F020FB00
:1031500008B103248CE7FFF76BFF0446002887D1F2
:10316000DFED541AB3EE041A9FED560A1E20F0EE5E
:10317000610A01F0BFF8CF280DD9E1283FF477AFFD
:10318000D0283FF474AFE228E3D001F0ADF8002876
:10319000DFD034466CE701F0A7F810B1FFF72EFF3F
:1031A000F7E700F0F5FA0028D3D1FFF741FF044616
:1031B00000287FF45DAF01F095FC434D01F0ECFC7D
:1031C0009FED428A07230646DFED418A9FED399A3B
:1031D0002B70FFF715FF044600287FF449AF01F07C
:1031E000DBFC43F69722831B934203D90524FFF7A8
:1031F00005FF3DE701F08EFCB4EEC80AF1EE10FACF
:103200000FD9B0EE681A9FED330AF0EE490AFFF7C6
:10321000B9FE10B1FFF7F2FE9BE7142004F072FD37
:10322000D7E700F0B5FA002893D1FFF701FF044675
:1032300000287FF41DAF01F06DFCDFED277ADFED94
:10324000278A30EE278A9FED1B9ADFED259AFFF73C
:10325000D7FE044600287FF40BAF01F09DFC43F637
:103260009722831B9342C1D801F054FCB4EEC08A6C
:10327000F1EE10FA0DD9B0EE681AF0EE490AB0EE90
:10328000690AFFF77FFE0028C4D1142004F03AFD3C
:10329000DDE700F07DFA00287FF45BAFFFF7C8FEA2
:1032A000044600287FF4E4AE01F01CFC04232B70DC
:1032B000DEE600BF000000009A99193E000C0240B3
:1032C0009A9919BE0000B4C2CE0700200000B4C312
:1032D000000034C200005C420000B44200003442EE
:1032E00000005CC238B50A4D0A4C30B903232B707C
:1032F000012323702078C0B238BD00F0BBFA064B22
:103300004FF452721A600023044A13602B70F0E7E6
:1033100050070020080000204C070020480700202C
:1033200008B500F0B9FA0038064B18BF012040007C
:1033300018701A78002A044A14BF03210121117061
:10334000187808BD080000205007002038B5104D3F
:10335000104C2B78012B04D0012323702078C0B2AD
:1033600038BD00224FF4A0636421104600F0C8FA73
:10337000003818BF012040002070237833B9064A76
:1033800013680133136002232B70E7E70323FBE785
:103390005007002008000020480700202DE9F843CE
:1033A000184D04462B78022B06D0174B01221A70B9
:1033B0001878C0B2BDE8F88301F0EEFBDFF84C806E
:1033C000074640F2DB5901F0E7FBC61B3CB1A047C2
:1033D00028B100F07BFA04220B4B2A70E7E7D8F8FB
:1033E0000030B34204D8012300222B70064BDEE7E5
:1033F0004E4503D900F06AFA0322EDE70A2004F0F3
:1034000081FCE0E750070020080000204C07002066
:1034100008B500F05BFA0038064B18BF01204000E9
:1034200018701A78002A044A14BF03210121117070
:10343000187808BD080000205007002004289ABF13
:10344000024B53F820000248704700BFD4CE00085A
:1034500003CB0008024B1878003818BF01207047D2
:10346000CD07002038B5174A0023174C1370174AB0
:10347000174D1360174A1360174A13602370032314
:103480002B70FFF72FFF08B9FFF74AFF134B144AC1
:103490001B78DBB2137028B104280BD003280CBFB3
:1034A0000520042028702B7833B105232370287859
:1034B000C0B238BD0220F5E7C82004F023FC012388
:1034C000F4E700BF61070020600700205C070020D0
:1034D0000900002058070020540700200B0000209E
:1034E0000A0000202DE9F041314D324C2B78012BA0
:1034F0000CD02B78032B09D02B78042B14BF03237B
:10350000012323702078C0B2BDE8F0812A4E3378C1
:10351000052B03D904232B700123F2E7274A1368F4
:1035200001331360FFF796FF18B106232B700223B7
:10353000E7E70223DFF89880214F2B70FFF706FFA3
:1035400098F80030DBB23B7038B91E48FFF726FF11
:1035500098F80030DBB23B7028B1042819D003285A
:103560000CBF0520042020702378A3B9164A1368E5
:10357000013313604FF4A062144B1A6033780133A7
:10358000DBB233703378052B94BF032304232B70F5
:10359000B8E70220E7E72378022B01D10623F6E7FC
:1035A000FFF736FF98F80030DBB23B700523EEE7FB
:1035B0006007002009000020610700205C07002050
:1035C0000A00002055340008580700205407002046
:1035D0000B000020044B1A78012AD0B203D01878CF
:1035E000C31E58425841704760070020054B1A78A7
:1035F000052A04D81878C0F10600C0B27047002030
:10360000704700BF6107002006289ABF024B53F89D
:1036100020000248704700BF00CF000803CB00081D
:1036200005289ABF024B53F820000248704700BF9C
:10363000E8CE000803CB000838B50C4B04460A4618
:103640000B4D186818B901242C70204638BD21464E
:10365000642302F058FF0446287018B9054A13681D
:1036600001331360022001F09DFAEEE768070020A5
:103670006207002064070020F32307B58DF80130AE
:1036800040F2AB1306218DF80000ADF8023046F68B
:1036900001336846ADF80430FFF7CEFF03B05DF8A4
:1036A00004FB000007B50421044B0DEB010001935E
:1036B000FFF7C2FF03B05DF804FB00BF00FF666BBD
:1036C000FE2307B58DF801304FF4CC7305218DF83A
:1036D0000000ADF802306B2368468DF80430FFF728
:1036E000ABFF03B05DF804FB93B2002AB8BF5B42A6
:1036F00007B5B8BF9BB240F2DC52B8BF81F0010100
:103700008DF80000934268468DF802104FF00801D2
:1037100028BF1346F6228DF804308DF801201A0ACE
:1037200000238DF803208DF8053046F60133ADF8FF
:103730000630FFF781FF03B05DF804FB034B044A3A
:10374000186000231360034A137070476807002055
:103750006407002062070020F8B50120FFF78CFF06
:1037600006460220FFF788FF07460320FFF784FF85
:103770003E4305460420FFF77FFF04463543FFF72D
:1037800091FF2C432043C0B2003818BF0120F8BD80
:10379000F8B50120FFF794FF06460220FFF790FFDF
:1037A00007460320FFF78CFF3E4305460420FFF742
:1037B00087FF04463543FFF775FF2C432043C0B213
:1037C000003818BF0120F8BD10B50446F8B101213A
:1037D000B0F900200846FFF787FF0146B8B9B4F9F1
:1037E00002200220FFF780FF88B90121B4F90420EC
:1037F0000320FFF779FF014648B9B4F906200420F9
:10380000FFF772FF18B9BDE81040FFF74BBF01206A
:1038100010BD000038B50D4B04460A460C4D186823
:1038200018B901242C70204638BD2146642302F0CB
:103830006AFE044628700028F5D1064A0220136863
:103840000133136001F0AEF9EDE700BF700700200F
:103850000B0000206C07002007B50421044B0DEB82
:1038600001000193FFF7D6FF03B05DF804FB00BF32
:1038700000FF666B054B00221860B0FA80F0044B25
:1038800040091A60034B1870704700BF7007002092
:103890006C0700200B0000200A4B07B518680621B2
:1038A0009B8800906846ADF80430FFF7B3FF28B15D
:1038B000054B1878C0B203B05DF804FBFFF7CCFFEE
:1038C000F9E700BFEACB00080B00002007B50A4A61
:1038D000052110681279009068468DF80420FFF7E2
:1038E00099FF28B1054B1878C0B203B05DF804FB0E
:1038F000FFF7B2FFF9E700BFF1CB00080B00002093
:1039000001281FB501D801B12BB91A4B01220120A2
:103910001A7004B010BD0A246143B1F5803FF4D29F
:103920008DF805201A0E8DF80200080A8DF8062081
:103930001A0C5BBA4FF605548DF803006846ADF8D3
:1039400008304FF480738DF804100D21ADF80A3063
:103950006B23ADF800408DF807208DF80C30FFF791
:1039600059FF18B1034B1878C0B2D2E7FFF774FFC4
:10397000CFE700BF0B00002098B170EE607A30EE08
:10398000200A37EEC17A77EE817A80ED007A30EE48
:10399000017A30EE410AC0ED037A80ED017A80EDC4
:1039A000020A7047F0EE404A002861D0B5EEC00A26
:1039B000F1EE10FA5CD990ED006AD0ED016AB5EE37
:1039C000C06AF1EE10FAF5EEC06A4CBFB1EE467A6D
:1039D000B0EE467AF1EE10FA4CBFF1EE667AF0EEF8
:1039E000667AB4EEE77AF1EE10FA54BFF0EE475A79
:1039F000F0EE675A90ED027AB5EEC07AF1EE10FA69
:103A00004CBFF1EE477AF0EE477AF4EEE75AF1EE6A
:103A100010FA54BFB0EE655AB0EE675AD0ED037A93
:103A2000F5EEC07AF1EE10FA4CBFF1EE675AF0EE07
:103A3000675AB4EEE55AF1EE10FA58BFF0EE455A67
:103A4000B4EEE50AF1EE10FA12D584EEA50A26EEE0
:103A5000006A66EE806A27EE007A67EE807A80ED73
:103A6000006AC0ED016A80ED027AC0ED037A70470A
:103A7000B7EE000A7047000008B52DED028BB0EEDE
:103A8000408A01F047F8B5EE007A254BF1EE407A16
:103A90009FED246AB5EEC08AD3ED006AF1EE10FA0C
:103AA000B5EEC00A48BFB1EE488AF1EE10FA28EE32
:103AB000078A9FED1D7A30FE270AB4EE470A9FED74
:103AC0001B7AF1EE10FA98BFF0EE477A77EEE66ACD
:103AD000C3ED007A37EEA77A06EE867AF3EE046A33
:103AE000B4EEE68AF1EE10FA54BFB0EE660AB0EE1C
:103AF000480AB4EEC07AF1EE10FA07DCB1EE400AE3
:103B0000B4EEC70AF1EE10FA30FE070A084BC3ED17
:103B1000007A084BBDEC028B83ED000A08BD00BFA4
:103B200074070020CDCC4C3E9A99193E000000004D
:103B3000C8070020C40700200368143310B50446EA
:103B4000036001F029F803462068C01A002803DD4D
:103B5000BDE8104001F026B802490A6801320A6047
:103B6000236010BDBC07002010B586B0044602A833
:103B7000FFF702FF9FED360A02A8002C65D0FFF781
:103B800011FF84ED000AB2EE045A9DED026A314B3A
:103B9000F6EE005ADDED036A684683ED006A26EE14
:103BA000056A2D4B9DED047AB5EEC06AC3ED006A3F
:103BB00066EE856A294BDDED057AF1EE10FA83EDAC
:103BC000007AF5EEC06A264B27EE057AA8BF36EEDE
:103BD000256AC3ED007AB8BF36EE656A67EE857A6E
:103BE000F1EE10FAB5EEC07ABDEEC66AACBF76EE65
:103BF000A56A76EEE56AF1EE10FA16EE103AF5EEE9
:103C0000C07AFDEEE66AADF80030ACBF37EE257A3B
:103C100037EE657AF1EE10FA16EE903ABDEEC77AFD
:103C2000ADF80230ACBF77EEA57A77EEE57A17EE05
:103C3000103AFDEEE77AADF8043017EE903AADF8A1
:103C40000630FFF7C1FD06B010BDFFF7ABFE9AE7E7
:103C500000001643A4070020A00700209C070020B6
:103C600098070020144B10B52DED028B1A7802F046
:103C7000FF0092B19FED118A0020114CB0EE481A5E
:103C80001870F0EE480AB0EE480AFFF76DFF38B141
:103C9000FFF77EFDE22302202370BDEC028B10BDF6
:103CA000084B0120187004232370074B83ED008A12
:103CB000064B83ED008AF0E7CD07002000000000EE
:103CC000CE070020CC070020AC070020A80700206A
:103CD00010B52DED028B9FED0D8A04460020B0EE4D
:103CE000481AF0EE480AB0EE480AFFF73DFFFFF72A
:103CF0004FFD074B074A1C7082ED008A064A82ED91
:103D0000008A1878BDEC028B10BD00BF00000000D7
:103D1000CE070020AC070020A8070020F7EE007AAD
:103D20002DE9F04F2DED108B89B0F0EE40AAB0EEEA
:103D300060AAAC4CB0EE419A0191F0EE61FACDED83
:103D4000057AB0EE428A002841D0DFEDA77AB4EEC2
:103D5000E70AF1EE10FA3ADBDFEDA4DAB4EEED0A91
:103D6000F1EE10FA33D8F4EEE70AF1EE10FA2EDB9A
:103D7000F4EEED0AF1EE10FA29D8B5EEC01AF1EE24
:103D800010FA24DBF5EEC01AF1EE10FA1FDDB5EEE5
:103D9000C02AF1EE10FA1ADBB4EEE11AF1EE10FAD5
:103DA00015DCF4EEC21AF1EE10FA10D4C1B970EEBF
:103DB000607A9FED8F7AF5EEC07AF1EE10FA48BF87
:103DC000F1EE677AF4EEC77AF1EE10FA08DDE3233C
:103DD00023702078C0B209B0BDEC108BBDE8F08F25
:103DE000B4EEEF9A07EE900AB6EE006A9FED81CA34
:103DF0007FEE888ADFED806AF1EE10FADFED7FEA70
:103E0000F4EEC8FA68EE868AF8EE679A54BFF0EED0
:103E10004CCAF0EE66CA68EEAE8AF1EE10FA79EEA0
:103E20002F7A76FE8CBA68EEAB8A67EE867AB0EEB1
:103E3000687A67EEAE7A07EEAC7AB4EEE97AF1EE24
:103E400010FA37DD7CEEAB5AF4EECC5AF1EE10FAF4
:103E500030DD79EEA97A87EEAE7A0CEEC97A0BEEF8
:103E6000C87AC7EE257AB4EEE79AF1EE10FA79FE39
:103E7000277AF4EEC87AF1EE10FA48BFF0EE487AED
:103E8000F4EEEF7AF1EE10FA7FFEA7FAF4EEC9FA3B
:103E90007FEE888AF1EE10FA68EE868AF4EEC8FAB0
:103EA00076FE8CCA68EEAE8AF1EE10FA76FE8CBA17
:103EB00068EEAB8A9FED52EA0027DFF85CB16AEE4C
:103EC0008E7ADFF858912270CBED00AA87EEADBA5A
:103ED000DFF84C81DFF84CA19FED46FAB0EE4B0ABB
:103EE00007F0D8FC89ED000AB0EE4B0A07F00AFD96
:103EF000444B88ED000AF7EE007A83ED009A424BBE
:103F000083ED009A414BC3ED007A414B8AED00CA24
:103F1000C3ED009A00F040FE06460346069002906C
:103F2000039300F039FE039BF7EE007A0546C31AAF
:103F3000CDED077A0DEE103A029BC31A0BEE103A44
:103F4000831B0393FFF78EFE00287FF442AFB5EE8C
:103F5000C0FA9AED007AB8EE4DDAF1EE10FA48BFE9
:103F6000B1EE4FFA6FEE2E7A07EE8D7A8AED007A77
:103F70004FBBF5EE40CAF1EE10FA00F0C780B8EE84
:103F80004BBAB4EEECBAF1EE10FA80F2BF808BEED1
:103F90002C7A7FEEC97AB0EE49BA07EE87BA1D4B8C
:103FA0001B78002B00F0B6804FF4FA7000F070FD23
:103FB000002840F0AF80E12009B0BDEC108BBDE8D7
:103FC000F04FFFF785BE012F2ED139EEE87ADAEDFA
:103FD000007AB0EE6FBAB4EEE77AF1EE10FADED8FE
:103FE000029591E0CE070020000034C30000344366
:103FF00017B7D1380000000000009643FCAD803BAD
:10400000DA0F4940AC070020A80700200C00002070
:1040100090070020C0070020B8070020B407002048
:10402000B007002094070020F5EE40BAF1EE10FA38
:104030000DD0B8EE4BBAB4EEEBBAF1EE10FA06DAE8
:10404000DAED007AF4EEE97AF1EE10FA54DBFFF7DC
:1040500009FE00287FF4BDAE5B4D2AEE0EEA2B78F8
:104060008EEE2D9A2BB14FF4FA7000F011FD00285E
:10407000A1D02B78002B00F0A480B0EE480AFFF707
:10408000FBFCF0EE408AB0EE490A8BED00AA07F087
:1040900001FC89ED000AB0EE490A07F033FC88ED17
:1040A000000A99ED000AB0EE681AD8ED000A05A8DA
:1040B00020EE080A60EE880AFFF756FD002866D158
:1040C000DDED057A414B424A82ED008AC3ED007A6C
:1040D00067EE887A3F4BC3ED007ADFED3F7AB4EEAE
:1040E000E78AF1EE10FA3FF674AE0421217082EDFA
:1040F00000CA83ED00CA6CE68BEE2B7A78EE6F7AFD
:10410000B0EE6FBA07EE87BA022748E7B0EE6FBA93
:10411000012744E72C4B1B78DBB3B0EE4B0AFFF7CB
:10412000ABFCB0EE40DA019BAA1B934234D9DDED23
:10413000037A3AEE6A7AB8EE67FA07EE903AF8EE4A
:10414000677ACFEE276AF0EE6A7A46EE877A27EE34
:104150008E7ACBED007A87EE2DFAB0EE4F0A07F09B
:1041600099FB89ED000AB0EE4F0A07F0CBFB88ED12
:10417000000A99ED000AB0EE4D1AD8ED000A07A822
:1041800020EE0B0A60EE8B0AFFF7EEFC38B1E2205E
:1041900012E79FED12DAC6E7F0EE4A7AD7E70C4B4A
:1041A00006A89DED077A83ED00BA084B27EE0BFABF
:1041B00083ED007A074B83ED00FAFFF7BDFC2B4639
:1041C000AEE6DFED068A5EE7C00700200C000020A7
:1041D000AC070020A807002017B7D1380000000066
:1041E00010B50C46FFF7AAFA204600F00DFB00239D
:1041F0001B4A4FF07E501B4913601B4A13601B4A39
:10420000136000220A701A490A601A490B601A49A1
:104210000B601A490B601A490B601A490B601A4966
:104220000B601A490B601A490B601A490B601A4956
:1042300008601A490B601A490B601A490B601A4949
:104240000B601A490B601A490B601A4B1A701A4B13
:104250001A601A4B1A701A4B1A701A4B1A7010BD4A
:1042600074070020C0070020C8070020C4070020F2
:10427000BC070020B8070020B4070020B0070020CA
:10428000AC070020A8070020A4070020A0070020FA
:104290009C070020980700200C00002094070020B5
:1042A000900700208C07002088070020840700204A
:1042B000800700207C07002078070020CE07002020
:1042C000CD070020CC070020014B01221A70704757
:1042D000CD0700200023024A1370024A1370704772
:1042E000CD070020CC070020014B1878704700BF95
:1042F000CC070020DFED2F7AB4EEE70A10B5F1EE1F
:1043000010FA04462DED068BB0EE408AF0EE608A7E
:10431000B0EE419AF0EE619A44DB9FED277AB4EE5D
:10432000C70AF1EE10FA3DD8DFED247A9FED24AAFA
:1043300060EE277AC7EE87AAB0EE6A0A07F0AAFAFB
:10434000B5EEC00AF1EE10FA48BFB1EE400AB4EE85
:10435000CA0AF1EE10FA23DDB0EE6A0A07F0D2FACB
:10436000B5EEC00AF1EE10FA48BFB1EE400AB4EE65
:10437000CA0AF1EE10FACCBF06220522B0EE692A75
:104380002046F0EE491A0021B0EE681AF0EE480A15
:10439000B0EE480ABDEC068BBDE81040FFF7BEBC8E
:1043A0000522EBE7074BE3221A701878BDEC068B69
:1043B000C0B210BD000034C300003443DA0F4940DE
:1043C00017B7D138CE0700209FED4B7AB4EEC70A5D
:1043D00038B5F1EE10FA04460D462DED0A8BB0EE1D
:1043E000408AF0EE608AF0EE41AAB0EE61BAF0EEDB
:1043F00042BA78DBDFED417AB4EEE70AF1EE10FA6B
:1044000071D8F4EEC70AF1EE10FA6CDBF4EEE70AAD
:10441000F1EE10FA67D89FED3A7A9FED3AAA60EE76
:10442000076A20EE877AC6EEA7CA87EE27CAB0EEE3
:104430006C0A07F02FFAF0EE409AB0EE4C0A07F043
:1044400029FAF5EEC09AB0EE409AF1EE10FA48BFA4
:10445000F1EE699AF4EECA9AF1EE10FA0FDDB0EEC1
:104460006C0A07F04FFAB5EEC00AF1EE10FA48BF39
:10447000B1EE400AB4EECA0AF1EE10FA2FDCB5EE46
:10448000C09AF1EE10FA48BFB1EE499AB4EECA9A5A
:10449000F1EE10FA25DDB0EE4C0A07F033FAB5EE76
:1044A000C00AF1EE10FA48BFB1EE400AB4EECA0AF3
:1044B000F1EE10FACCBF06220522B0EE6B2A294697
:1044C000F0EE4B1A2046B0EE6A1AF0EE680AB0EE33
:1044D000480ABDEC0A8BBDE83840FFF71FBC062236
:1044E000EBE70522E9E7084BE3221A701878BDECE8
:1044F0000A8BC0B238BD00BF000034C30000344393
:10450000DA0F494017B7D138CE070020B5EEC00A00
:104510002DE9F04FF1EE10FA924D2DED048BF0EEF7
:10452000408A85B00CD408D9F0EE407A9FED8E7A9F
:10453000F4EEC77AF1EE10FA05DDE3232B704EE0BE
:10454000F1EE407AF2E74FF4FA7000F0A1FA08B900
:10455000E123F3E700F0C6FA07239FED848A4FF0CA
:104560007E522B700023DFF838A2DFF83892DFF894
:1045700038B27F4C7F4EDFF83482CAED008A89ED75
:10458000008ACBED008A84ED008A3370C8F80030D1
:10459000794B7A4F83ED008A794B9FED7A9A83EDC0
:1045A000008A794BDFED798A83ED008A784B87EDBD
:1045B000008A83ED008A774B1A6000F0EDFA0190D3
:1045C000029000F0E9FA4FF07E530393019BC01A6A
:1045D000C8F80000FFF746FB40B184ED008A287858
:1045E000C0B205B0BDEC048BBDE8F08F4FF4FA709B
:1045F00000F04EFA48B9E12084ED008A05B0BDEC28
:10460000048BBDE8F04FFFF763BBD8F80030B3F57B
:10461000FA5F03D3E42084ED008AEFE700F07AFA32
:1046200089ED000ADAED006AD9ED007A76EEE76AE4
:10463000F5EEC06ACBED006AF1EE10FA4CBFB1EEB8
:10464000667AB0EE667AB4EEC97AF1EE10FA23D843
:10465000DFED460AB0EE481A03A884ED008AB0EEFA
:10466000600AFFF781FA08B1E220C7E7494B039AD5
:104670001A6033780133DBB233703378042B6DD991
:1046800000F030FADAF8003087ED008AC9F800301F
:1046900004238BED008A51E7F3EE0E7A002333708A
:1046A000B4EEE77AF1EE10FA4FDAB2EE046AF2EE07
:1046B0000E7AB4EEC67AF1EE10FAA5BF37EE467A5E
:1046C000F3EE045AC7EE065A87EE256AAABF9FED9D
:1046D000327A65EEA77A46EE077AD8F80030F92BE1
:1046E00036D898ED006ADFED2D5AB8EE466A86EEB0
:1046F000257A27EE287AF4EEC77AB2EE006AF1EE58
:1047000010FAB4EEC67A77FE277AF1EE10FA06DBDD
:10471000F4EEC67AF1EE10FA48BFF0EE467AF5EE06
:10472000C06A03A8F0EE480A9FED100AF1EE10FAF5
:10473000D8BFF1EE677AC4ED007A94ED001AFFF766
:1047400013FA40B184ED008A8EE7F0EE687AC4E790
:10475000B0EE687ACFE7039A0E4B1A6002A8FFF713
:10476000EBF92EE7CE0700200000B4430000000064
:10477000800700207C070020C80700207407002065
:10478000C4070020CDCC4C3FAC0700200000704295
:10479000A80700200C0000200000344200007A43EB
:1047A0008C0700208807002084070020780700205D
:1047B00038B54FF4FA60114C00F07CF930B9D023D1
:1047C0002370FEF7E5FF2078C0B238BD0C4D012301
:1047D0002B70FEF7C1FF10B1E2232370F3E74FF413
:1047E000FA7000F0DFF92B780BB100F07BF9054B84
:1047F000002264201A6000F0D5F9E4E7CE0700201B
:10480000C0070020740700200023174A174910B47E
:104810001370174A08601370EFF3108072B600220D
:10482000144C2260144C2260144C2260144C226000
:10483000144C2260144A1370144A1370144A136003
:10484000144A1360144A1360144A136000B962B624
:10485000086828B1012212495DF8044B01F05EBFDF
:104860005DF8044B704700BFFD0700200C080020D6
:10487000FC070020F0070020EC070020E8070020DC
:10488000E4070020F8070020F4070020E0070020DC
:10489000DC070020D8070020D4070020D007002024
:1048A000090800200C4B1B6810B48BB183420FD158
:1048B00000220A4908240A7009490A7019680C6222
:1048C000C3F88420012207495DF8044B01F026BF9C
:1048D0005DF8044B704700BF0C080020FD07002066
:1048E000FC070020090800204C4A136870B501330A
:1048F0004B4D13602B7843B9552805D1494B4A4A93
:104900001870012313702B7070BD012B464C0CD115
:10491000532804D1434B587002232370F3E75528E2
:1049200052D1404A10702370EEE721783D4B4A1C6B
:104930005854D2B20A2A2270E6D918460A21002217
:1049400010F8016B0139324411F0FF01D2B2F7D1F6
:10495000997A91425FD1B3F904209FED346A07EE52
:10496000902AB3F90620B3F9023007EE102AF8EEC8
:10497000E77A06EE903A2E4BB8EEC77A2D49F8EE5C
:10498000E66A2D4A67EE867A087827EE067A66EEA2
:10499000866AC3ED006A294BC3ED007A284B83ED8C
:1049A000007A284B98B983ED007A00231360012325
:1049B0000B70254B01221A7000F0EEF8234B244AAD
:1049C000186013680133136000232B70ABE7D3ED3D
:1049D000007ADFED206A77EE677AF4EEE67AF1EEA0
:1049E00010FA0CDDDFED1C6A77EEE67AD2ED006A94
:1049F00083ED007A76EEA77AC2ED007AD9E7DFED93
:104A0000176AF4EEE67AF1EE10FA44BFDFED126AAF
:104A100077EEA67AEAE7124AD3E700BFD407002070
:104A2000FD070020FE070020FC0700200000B43B2B
:104A3000F0070020F4070020E4070020EC07002026
:104A4000E8070020F8070020E0070020DC0700202E
:104A5000D8070020000034430000B443000034C3F2
:104A6000D007002038B5084C236863B183420AD1CF
:104A7000064D2878FFF738FF294620680122BDE857
:104A8000384001F04BBE38BD0C080020090800205A
:104A900038B5074B05461C683CB100F07DF8001B9B
:104AA000A8428CBF0020012038BD2046FCE700BF93
:104AB000DC07002070B50446094E00F06DF805468D
:104AC00000F06AF8431BA34201D3002070BD336895
:104AD0001BB9052000F066F8F2E70120F6E700BFF9
:104AE000DC070020EFF3108372B6064A1168064A0D
:104AF00011600021054A11600121054A117003B9B6
:104B000062B67047E8070020F8070020E40700209D
:104B1000F4070020EFF3108372B6034A92ED000A07
:104B200003B962B6704700BFE407002010B5044621
:104B3000FFF798FF2046FDF7DBFF2046FDF79AF9C7
:104B40002046BDE81040FDF7CBBE10B50446FFF788
:104B5000A9FE2046FEF71EF82046FDF701FA204682
:104B6000BDE81040FDF714BF08B5032000F02CF895
:104B70000F20FCF7FBFDFCF7DBFD002008BD00006B
:104B8000034A044B11681B780B441360704700BF45
:104B90001008002010000020014B1868704700BF6B
:104BA0001008002038B50446FFF7F6FF0546631CE1
:104BB0001EBF044B1B78E418FFF7EEFF431BA34214
:104BC000FAD338BD1000002007490302CA6803F475
:104BD000E06322F4E0621204120C134343F0BF635B
:104BE00043F40033CB60704700ED00E0164B30B566
:104BF000DC68C4F30224C4F10703251D042B28BF7D
:104C00000423062D4FF0FF358CBF033C002405FA2A
:104C100003F3002805FA04F521EA030322EA05025A
:104C200003FA04F343EA02034FEA0313DBB206DBA1
:104C300000F1604000F5614080F8003330BD00F0C5
:104C40000F00024A1354F9E700ED00E014ED00E014
:104C5000002807DB4109012300F01F00024A8340BE
:104C600042F82130704700BF00E100E0BFF35F8FE2
:104C7000044B5A6A22F480325A620022C3F894200C
:104C8000704700BF00ED00E0064B40F00100C3F8A4
:104C900094005A6A42F480325A62BFF34F8FBFF3D6
:104CA0006F8F704700ED00E04378144AC2F89830E7
:104CB000D2F8A03023F00103C2F8A0304368C2F854
:104CC0009C30C37A017B1B0643EA017301780B43D6
:104CD000817A43EAC143417B43EA8143817B43EAD2
:104CE0004143C17B43EA0143417A43EA0123017A0C
:104CF00043EA4103C2F8A030704700BF00ED00E076
:104D000070B50446866DFFF747FF054694F83530C9
:104D1000022B06D0802301206365002384F8343001
:104D200070BD23681A6822F016021A605A6922F0D0
:104D300080025A61226C0AB9A26C1AB11A6822F078
:104D400008021A601A6822F001021A6023681868C3
:104D500010F0010007D1E26D3F239340B3600123BF
:104D600084F83530D9E7FFF717FF401B0528EDD948
:104D700020230320636584F83500CEE790F83530B2
:104D8000022B03D08023436501207047026805236E
:104D900080F835300020136823F00103136070475A
:104DA0002DE9F74F0023DFF8BC916C4A01240D6810
:104DB0009C4004EA0506AC4340F0B7804D680327E9
:104DC0004FEA430E05F0030407FA0EFC671E6FEA74
:104DD0000C0C012F34D8876807EA0C08CF6807FA53
:104DE0000EF747EA08078760476827EA0608C5F311
:104DF00000179F4047EA08074760C768022C07EA88
:104E00000C088F6807FA0EF747EA0807C76019D140
:104E10004FEAD30803F0070A4FF00F0B00EB8808A6
:104E20004FEA8A0AD8F820700BFA0AFB27EA0B0B24
:104E30000F6907FA0AF747EA0B07C8F8207001E084
:104E4000032CDAD1076804FA0EF415F4403F07EAA0
:104E50000C0744EA0704046067D0D9F8444023F003
:104E6000030703F0030C4FF00F0E44F4804407F1E6
:104E700080474FEA8C0CC9F8444007F59C37D9F8B5
:104E800044400EFA0CFE04F480440194019CBC687A
:104E900024EA0E0E324CA0424ED004F58064A042AB
:104EA0004CD004F58064A0424AD004F58064A0424E
:104EB00048D004F58064A04246D004F58064A04246
:104EC00044D004F58064A04242D004F58064A0423E
:104ED00040D004F58064A0423ED004F58064A04236
:104EE00014BF0A24092404FA0CF415F4801F44EAC0
:104EF0000E04BC606FEA060794680CBF3C40344364
:104F000015F4001F9460D4680CBF3C40344315F482
:104F1000003FD46054680CBF3C403443ED03546000
:104F2000146854BF3C40344314600133102B7FF4A9
:104F30003DAF03B0BDE8F08F0024D4E70124D2E7F1
:104F40000224D0E70324CEE70424CCE70524CAE7F3
:104F50000624C8E70724C6E70824C4E7003C01404C
:104F6000000002400038024000690840003818BFC5
:104F700001207047194B37B51A6C194C42F080521A
:104F80001A641B6C03F080530193019B236843F464
:104F900080332360FFF700FE05466368DA030CD513
:104FA00023680F4D43F400332360FFF7F5FD0446FB
:104FB0006B689B030AD5002006E0FFF7EDFD401B60
:104FC000B0F57A7FE9D9032003B030BDFFF7E4FDE7
:104FD000001BB0F57A7FEBD9F5E700BF003802403F
:104FE000007000402DE9F341044640B30368DE073A
:104FF00010D423689D0761D42368190700F1A680A7
:1050000023685A0700F1C780A269002A40F0308166
:1050100000202CE0944B9A6802F00C02042A07D07E
:105020009A6802F00C02082A0BD15B68590208D575
:105030008D4B1B689A03DCD56368002BD9D1012006
:1050400015E06368884DB3F5803F13D12B6843F4B6
:1050500080332B60FFF7A0FD834E054633689B032A
:10506000C7D4FFF799FD401B6428F7D9032002B08D
:10507000BDE8F0819BB92B6823F480332B602B684B
:1050800023F480232B60FFF787FD06462B689F03E0
:10509000AFD5FFF781FD801B6428F7D9E6E7B3F5AC
:1050A000A02F2B6803D143F480232B60CEE723F499
:1050B00080332B602B6823F48023CAE76A4B9A68FD
:1050C00012F00C0F07D09A6802F00C02082A11D1D6
:1050D0005B685D020ED4644A1368990702D5E368E1
:1050E000012BACD11368216923F0F80343EAC10313
:1050F000136081E7E3685C4DBBB12B6843F00103AB
:105100002B60FFF749FD06462B689B0707D52B68E8
:10511000226923F0F80343EAC2032B606CE7FFF730
:105120003BFD801B0228EFD9A0E72B6823F0010389
:105130002B60FFF731FD06462B689F077FF55CAFBC
:10514000FFF72AFD801B0228F6D98FE76369464DD9
:1051500083B16B6F43F001036B67FFF71DFD0646DC
:105160006B6F9B073FF54CAFFFF716FD801B0228C6
:10517000F6D97BE76B6F23F001036B67FFF70CFD3C
:1051800006466B6F9F077FF53BAFFFF705FD801B62
:105190000228F6D96AE7344B1A6CD50027D41A6C6A
:1051A000012742F080521A641B6C03F08053019374
:1051B000019B2E4D2B68D8051BD5A3682A4D012BCA
:1051C00027D12B6F43F001032B6741F28838FFF79B
:1051D000E3FC254E0546336F9A073FD5002F3FF479
:1051E00013AF214A136C23F0805313640CE700279C
:1051F000DFE72B6843F480732B60FFF7CDFC064696
:105200002B68D905D9D4FFF7C7FC801B6428F7D9D0
:105210002CE7ABB92B6F41F2883823F001032B67E1
:105220002B6F23F004032B67FFF7B6FC06462B6FAA
:105230009B07D3D5FFF7B0FC801B4045F7D915E796
:10524000052B2B6F03D143F004032B67B9E723F041
:1052500001032B672B6F23F00403B5E7FFF79CFCDA
:10526000401B4045B7D901E70038024000700040BC
:10527000384DAB6803F00C03082B41D02B68022A91
:1052800023F080732B602ED1FFF786FC06462B6837
:10529000990122D4A36A5B085A1ED4E907310B4353
:1052A00043EA0243626A43EA8213E26A43EA026320
:1052B00043F000536B602B6843F080732B60FFF763
:1052C0006BFC244D04462B689A013FF5A1AEFFF715
:1052D00063FC001B0228F6D9C8E6FFF75DFC801BC3
:1052E0000228D4D9C2E6FFF757FC04462B689B017D
:1052F0007FF58EAEFFF750FC001B0228F6D9B5E60D
:10530000012A6B683FF49BAE03F48002E1698A4294
:105310007FF495AE03F03F02216A8A427FF48FAE9C
:1053200047F6C072616A1A40B2EB811F7FF487AE04
:10533000A26A03F440315208013AB1EB024F7FF404
:105340007EAEE26A03F07063B3EB026F14BF01201C
:1053500000208CE600380240134908B58B6803F042
:105360000C03042B1BD0082B1BD14A684B684968DF
:1053700002F03F0213F48003C1F388111ABF0B48F7
:1053800000230B48A1FB0001FBF7DEF8064B5B682E
:10539000C3F3014301335B00B0FBF3F008BD0348E6
:1053A000FCE70348FAE700BF0038024000127A0029
:1053B0000024F4002DE9F0410D46044610B9012007
:1053C000BDE8F081454A136803F00F038B4228D3F0
:1053D00021688F0730D4C80743D4404A136803F0CC
:1053E0000F03AB4266D8226851076FD4130707D565
:1053F0003B4A2169936823F4604343EAC103936005
:10540000FFF7AAFF364B374A9B68C3F30313D35CFD
:10541000D840354B1860354B1868FCF7A7F90020C9
:10542000CEE7136823F00F030B431360136803F0F8
:105430000F038B42C3D1CBE711F0040F284B03D0ED
:105440009A6842F4E0529A600E0703D59A6842F4D3
:1054500060429A609A68A06822F0F00202439A6063
:10546000B9E761681E4B01291A681BD112F4003F8D
:10547000A5D09A6841F28838194F22F003020A43F6
:105480009A60FFF789FB0646BB68626803F00C036D
:10549000B3EB820FA1D0FFF77FFB801B4045F3D910
:1054A00003208DE7022902D112F0007FE0E712F01D
:1054B000020FDDE7136823F00F032B43136013681B
:1054C00003F00F03AB427FF47AAF8CE70449E06846
:1054D0008B6823F4E05303438B6087E7003C024072
:1054E000003802403CCE00080000002014000020DC
:1054F000044B054A9B68C3F38223D35C034A1068BC
:10550000D84070470038024034CE00080000002028
:10551000044B054A9B68C3F34233D35C034A1068CB
:10552000D84070470038024034CE00080000002008
:105530000F2303600B4B9A6802F0030242609A68E3
:1055400002F0F00282609A6802F4E052C2609B6846
:10555000DB0803F4E0530361034B1B6803F00F0304
:105560000B60704700380240003C02402DE9F743D1
:105570000268044612F001030BD0AD498B6823F496
:1055800000038B60636B88681843B3FA83F35B098D
:10559000886012F4002612D0A548E66BD0F88C1073
:1055A000B6F5801F21F4401108BF012341EA06012E
:1055B00016BFB6FA86F600267609C0F88C10D5021A
:1055C00011D59B4D206CD5F88C10B0F5800F21F4CF
:1055D000400141EA0001C5F88C1000F086810028E6
:1055E00008BF46F00106C2F30067900647EA0307CA
:1055F00031D58F4B8F4D1A6C42F080521A641B6C60
:1056000003F080530193019B2B6843F480732B605C
:10561000FFF7C2FA80462B68D90540F16881844DB6
:105620002B6F13F4407340F06D81236B03F44072D1
:10563000B2F5407F7E4A40F08B81916823F0704044
:1056400021F4F81120F4407001439160C3F30B037F
:10565000116F0B4313672568E8060CD5744BD3F81C
:105660008C2022F08072C3F88C20D3F88C20A16BA0
:105670000A43C3F88C20690408D56D4A616ED2F8DC
:10568000903023F440330B43C2F890302A0408D5FD
:10569000674AA16ED2F8903023F440230B43C2F83E
:1056A0009030EB0308D5624AE16ED2F8903023F4D3
:1056B00040130B43C2F89030A80308D55C4A216F11
:1056C000D2F8903023F440030B43C2F890306906BF
:1056D00008D5574A616CD2F8903023F003030B438E
:1056E000C2F890302A0608D5514AA16CD2F8903001
:1056F00023F00C030B43C2F89030EB0508D54C4A5D
:10570000E16CD2F8903023F030030B43C2F89030B4
:10571000A80508D5464A216DD2F8903023F0C00381
:105720000B43C2F89030690508D5414A616DD2F843
:10573000903023F440730B43C2F890302A0508D50B
:105740003B4AA16DD2F8903023F440630B43C2F87A
:105750009030EB0408D5364AE16DD2F8903023F44E
:1057600040530B43C2F89030A80408D5304A216E4C
:10577000D2F8903023F440430B43C2F890306902D2
:1057800008D52B4AA16FD2F8903023F080630B43E9
:10579000C2F89030AA020DD52549E26FD1F89030B9
:1057A000B2F1006F08BF46F0010623F00063134317
:1057B000C1F890306B0308D51D4A616FD2F8903064
:1057C00023F040730B43C2F89030280209D5184AE1
:1057D000D4F88010D2F8903023F080530B43C2F8F5
:1057E0009030002F40F0B880A90100F1B580C5F3DA
:1057F000C0053543012D76D10D4D2B6823F0805324
:105800002B60FFF7C9F906462B689F0000F12A813B
:1058100021680E0301D5E36B1BB1CD0223D5236CA8
:105820000BBB034AD2F88830D2F8880004E000BFEE
:10583000003802400070004003F4403300F0E040C4
:105840000343606943EA8013A06943EA0063C2F836
:105850008830D2F88C30A06A23F4F853013843EA38
:105860000023C2F88C30880215D5E36FB3F1006FC6
:1058700011D1834AD2F88830D2F8880003F07063DF
:1058800000F0E0400343606943EA8013206A43EA82
:105890000043C2F888300A0719D57949D1F8882021
:1058A000D1F8883002F0706203F440331343626928
:1058B00043EA8213E26943EA0273C1F88830D1F8FF
:1058C0008C30E26A23F440331343C1F88C306C4CC3
:1058D000236843F080532360FFF75EF90546236891
:1058E0009B0040F1C680002009E001237BE6FFF722
:1058F00053F9A0EB080064287FF68DAE032003B0B7
:10590000BDE8F083226B02F4407293423FF48DAE07
:105910002B6F2A6F23F4407342F480322A672A6F78
:1059200022F480322A672B672B6FDA077FF57DAE72
:10593000FFF732F941F2883980462B6F9B073FF51C
:1059400074AEFFF729F9A0EB08004845F5D9D5E773
:10595000916821F4F81178E6494F3B6823F08063A1
:105960003B60FFF719F980463B681A0173D422683F
:10597000D30712D5636B83B9D7F88430D7F8841076
:1059800003F4403301F070610B43616843EA811313
:10599000A16843EA0173C7F88430170303D5E36BAA
:1059A000B3F5801F05D0D0021ED5236CB3F5800F50
:1059B0001AD13349D1F88430D1F8840003F440334C
:1059C00000F0E0400343606843EA8013E06843EA84
:1059D0000063C1F88430D1F88C00636A20F01F00A6
:1059E000013B0343C1F88C30D10111D52449D1F8D2
:1059F0008430D1F8840003F0706300F0E04003438A
:105A0000606843EA8013206943EA0043C1F88430A8
:105A100092010DD5236962681B0443EA8213E26890
:105A200043EA0263A26843EA0273154AC2F884306B
:105A3000134F3B6843F080633B60FFF7ADF880464F
:105A40003B681B013FF5D3AEFFF7A6F8A0EB0800BB
:105A50006428F5D952E7FFF79FF8A0EB0800642807
:105A600082D94BE7FFF798F8801B64287FF6CCAE0D
:105A700044E7FFF791F8401B64287FF630AF3DE71D
:105A8000003802407047000090F83D30012B33D1C0
:105A9000022380F83D300368DA6842F00102DA60E0
:105AA000164A93421AD0B3F1804F17D0A2F57C4228
:105AB000934213D002F5806293420FD002F58062C8
:105AC00093420BD002F57842934207D002F5705210
:105AD000934203D0A2F59432934207D19968084AC1
