:020000040800F2
:1000000000000520190D00083515000837150008F7
:10001000391500083B1500083D15000800000000D8
:10002000000000000000000000000000918A0008AD
:100030003F15000800000000318B0008958B000878
:10004000690D0008690D0008690D0008690D0008B8
:10005000690D0008690D0008690D0008690D0008A8
:10006000690D0008690D0008690D0008690D000898
:10007000690D0008690D0008690D0008690D000888
:10008000690D0008690D0008690D0008690D000878
:10009000690D0008690D0008690D0008690D000868
:1000A000690D0008690D0008690D0008690D000858
:1000B000690D0008690D0008690D0008690D000848
:1000C000690D0008690D0008690D0008690D000838
:1000D000690D0008690D000841150008690D000848
:1000E000690D0008690D0008690D0008690D000818
:1000F000690D0008690D0008690D0008690D000808
:10010000690D0008690D0008690D0008690D0008F7
:100110004D150008591500087D150008690D0008E7
:10012000690D0008690D0008690D0008690D0008D7
:10013000690D0008690D0008690D0008690D0008C7
:10014000690D0008690D0008690D0008690D0008B7
:10015000690D0008690D0008690D0008690D0008A7
:10016000690D0008690D0008690D0008690D000897
:10017000690D0008690D0008690D0008690D000887
:10018000690D0008690D0008651500087115000863
:10019000690D0008690D0008690D0008690D000867
:1001A000690D0008690D0008690D0008690D000857
:1001B000690D0008690D0008690D0008690D000847
:0801C000690D0008690D00083B
:1001D00081F0004102E000BF83F0004330B54FEAF8
:1001E00041044FEA430594EA050F08BF90EA020F65
:1001F0001FBF54EA000C55EA020C7FEA645C7FEAF8
:10020000655C00F0E2804FEA5454D4EB5555B8BF1A
:100210006D420CDD2C4480EA020281EA030382EA8B
:10022000000083EA010180EA020281EA0303362D1D
:1002300088BF30BD11F0004F4FEA01314FF4801CF0
:100240004CEA113102D0404261EB410113F0004F02
:100250004FEA03334CEA133302D0524263EB4303B9
:1002600094EA050F00F0A780A4F10104D5F1200E57
:100270000DDB02FA0EFC22FA05F2801841F10001B2
:1002800003FA0EF2801843FA05F359410EE0A5F186
:1002900020050EF1200E012A03FA0EFC28BF4CF0B7
:1002A000020C43FA05F3C01851EBE37101F000456D
:1002B00007D54FF0000EDCF1000C7EEB00006EEB7A
:1002C0000101B1F5801F1BD3B1F5001F0CD3490804
:1002D0005FEA30004FEA3C0C04F101044FEA44525B
:1002E00012F5800F80F09A80BCF1004F08BF5FEAE2
:1002F000500C50F1000041EB045141EA050130BDC2
:100300005FEA4C0C404141EB0101013C28BFB1F5D3
:10031000801FE9D291F0000F04BF01460020B1FA1E
:1003200081F308BF2033A3F10B03B3F120020CDAF1
:100330000C3208DD02F1140CC2F10C0201FA0CF0CF
:1003400021FA02F10CE002F11402D8BFC2F1200C34
:1003500001FA02F120FA0CFCDCBF41EA0C019040EA
:10036000E41AA2BF01EB0451294330BD6FEA040433
:100370001F3C1CDA0C340EDC04F11404C4F120021E
:1003800020FA04F001FA02F340EA030021FA04F330
:1003900045EA030130BDC4F10C04C4F1200220FA87
:1003A00002F001FA04F340EA0300294630BD21FAC5
:1003B00004F0294630BD94F0000F83F4801306BF8B
:1003C00081F480110134013D4EE77FEA645C18BF7F
:1003D0007FEA655C29D094EA050F08BF90EA020F16
:1003E00005D054EA000C04BF1946104630BD91EA0E
:1003F000030F1EBF0021002030BD5FEA545C05D111
:100400004000494128BF41F0004130BD14F580044F
:100410003CBF01F5801130BD01F0004545F0FE41C3
:1004200041F470014FF0000030BD7FEA645C1ABFF8
:10043000194610467FEA655C1CBF0B46024650EA2F
:10044000013406BF52EA033591EA030F41F400215B
:1004500030BD00BF90F0000F04BF0021704730B5E1
:100460004FF4806404F132044FF000054FF00001B6
:1004700050E700BF90F0000F04BF0021704730B577
:100480004FF4806404F1320410F0004548BF40424C
:100490004FF000013EE700BF42004FEAE2014FEAA1
:1004A00031014FEA02701FBF12F07F4393F07F4F7C
:1004B00081F06051704732F07F4208BF704793F07F
:1004C0007F4F04BF41F40021704730B54FF4607492
:1004D00001F0004521F000411CE700BF50EA010295
:1004E00008BF704730B54FF000050AE050EA01023E
:1004F00008BF704730B511F0004502D5404261EBAE
:1005000041014FF4806404F132045FEA915C3FF4EE
:10051000D8AE4FF003025FEADC0C18BF03325FEA8B
:10052000DC0C18BF033202EBDC02C2F1200300FA3C
:1005300003FC20FA02F001FA03FE40EA0E0021FA61
:1005400002F11444BDE600BF70B54FF0FF0C4CF44F
:10055000E06C1CEA11541DBF1CEA135594EA0C0F01
:1005600095EA0C0F00F0DEF82C4481EA030621EA3C
:100570004C5123EA4C5350EA013518BF52EA033577
:1005800041F4801143F4801338D0A0FB02CE4FF029
:100590000005E1FB02E506F00042E0FB03E54FF059
:1005A0000006E1FB03569CF0000F18BF4EF0010E51
:1005B000A4F1FF04B6F5007F64F5407404D25FEA4D
:1005C0004E0E6D4146EB060642EAC62141EA555100
:1005D0004FEAC52040EA5E504FEACE2EB4F1FD0C42
:1005E00088BFBCF5E06F1ED8BEF1004F08BF5FEAC0
:1005F000500E50F1000041EB045170BD06F0004672
:1006000046EA010140EA020081EA0301B4EB5C041E
:10061000C2BFD4EB0C0541EA045170BD41F4801116
:100620004FF0000E013C00F3AB8014F1360FDEBF3B
:10063000002001F0004170BDC4F10004203C35DA17
:100640000C341BDC04F11404C4F1200500FA05F39A
:1006500020FA04F001FA05F240EA020001F000423B
:1006600021F0004110EBD37021FA04F642EB0601B1
:100670005EEA430E08BF20EAD37070BDC4F10C04DB
:10068000C4F1200500FA04F320FA05F001FA04F29F
:1006900040EA020001F0004110EBD37041F100018B
:1006A0005EEA430E08BF20EAD37070BDC4F1200596
:1006B00000FA05F24EEA020E20FA04F301FA05F2FE
:1006C00043EA020321FA04F001F0004121FA04F2A6
:1006D00020EA020000EBD3705EEA430E08BF20EA76
:1006E000D37070BD94F0000F0FD101F000464000B0
:1006F00041EB010111F4801F08BF013CF7D041EA32
:10070000060195F0000F18BF704703F00046520035
:1007100043EB030313F4801F08BF013DF7D043EA06
:100720000603704794EA0C0F0CEA135518BF95EABC
:100730000C0F0CD050EA410618BF52EA4306D1D143
:1007400081EA030101F000414FF0000070BD50EA62
:10075000410606BF1046194652EA430619D094EAEC
:100760000C0F02D150EA013613D195EA0C0F05D1D6
:1007700052EA03361CBF104619460AD181EA03012A
:1007800001F0004141F0FE4141F470014FF00000E2
:1007900070BD41F0FE4141F4780170BD70B54FF07D
:1007A000FF0C4CF4E06C1CEA11541DBF1CEA1355FD
:1007B00094EA0C0F95EA0C0F00F0A7F8A4EB0504DF
:1007C00081EA030E52EA03354FEA013100F08880D6
:1007D0004FEA03334FF0805545EA131343EA12639F
:1007E0004FEA022245EA111545EA10654FEA002654
:1007F0000EF000419D4208BF964244F1FD0404F50D
:10080000407402D25B084FEA3202B61A65EB030568
:100810005B084FEA32024FF480104FF4002CB6EB25
:10082000020E75EB030E22BFB61A754640EA0C00A5
:100830005B084FEA3202B6EB020E75EB030E22BFE5
:10084000B61A754640EA5C005B084FEA3202B6EB26
:10085000020E75EB030E22BFB61A754640EA9C00E5
:100860005B084FEA3202B6EB020E75EB030E22BFB5
:10087000B61A754640EADC0055EA060E18D04FEA73
:10088000051545EA16754FEA06164FEAC30343EA13
:1008900052734FEAC2025FEA1C1CC0D111F4801FE0
:1008A0000BD141EA00014FF000004FF0004CB6E7D9
:1008B00011F4801F04BF01430020B4F1FD0C88BF78
:1008C000BCF5E06F3FF6AFAEB5EB030C04BFB6EB83
:1008D000020C5FEA500C50F1000041EB045170BD76
:1008E0000EF0004E4EEA113114EB5C04C2BFD4EBA3
:1008F0000C0541EA045170BD41F480114FF0000E27
:10090000013C90E645EA060E8DE60CEA135594EAA2
:100910000C0F08BF95EA0C0F3FF43BAF94EA0C0FA5
:100920000AD150EA01347FF434AF95EA0C0F7FF41A
:1009300025AF104619462CE795EA0C0F06D152EA6E
:1009400003353FF4FDAE1046194622E750EA410652
:1009500018BF52EA43067FF4C5AE50EA41047FF463
:100960000DAF52EA43057FF4EBAE12E74FF0FF3CC8
:1009700006E000BF4FF0010C02E000BF4FF0010C99
:100980004DF804CD4FEA410C7FEA6C5C4FEA430C12
:1009900018BF7FEA6C5C1BD001B050EA410C0CBF61
:1009A00052EA430C91EA030F02BF90EA020F0020C3
:1009B000704710F1000F91EA030F58BF994208BF2A
:1009C00090422CBFD8176FEAE37040F001007047E7
:1009D0004FEA410C7FEA6C5C02D150EA013C07D13E
:1009E0004FEA430C7FEA6C5CD6D152EA033CD3D089
:1009F0005DF8040B704700BF8446104662468C4683
:100A00001946634600E000BF01B5FFF7B7FF0028B5
:100A100048BF10F1000F01BD4DF808EDFFF7F4FFDE
:100A20000CBF012000205DF808FB00BF4DF808ED69
:100A3000FFF7EAFF34BF012000205DF808FB00BF8C
:100A40004DF808EDFFF7E0FF94BF012000205DF8AE
:100A500008FB00BF4DF808EDFFF7CEFF94BF012063
:100A600000205DF808FB00BF4DF808EDFFF7C4FF5C
:100A700034BF012000205DF808FB00BF4A0011D2FE
:100A800012F5001211D20DD56FF47873B3EB6252E8
:100A90000ED44FEAC12343F0004343EA505323FAF4
:100AA00002F070474FF00000704750EA013002D169
:100AB0004FF0FF3070474FF00000704753B94AB90C
:100AC000002908BF00281CBF4FF0FF314FF0FF3056
:100AD00000F00CB8ADF1080C6DE904CE08F018F97F
:100AE000DDF804E0DDE9022304B07047704700BF81
:100AF00010F8012B11F8013B012A28BF9A42F7D0C8
:100B0000D01A7047034613F8012B002AFBD1181A9C
:100B100001387047000000000000000000000000E5
:100B200001F0FF01102A2BDB10F0070F08D010F89E
:100B3000013B013A8B422DD010F0070F42B3F6D1A2
:100B4000F0B441EA012141EA014122F007047FF0BB
:100B500000070023F0E80256083C85EA010586EA12
:100B6000010685FA47F5A3FA87F586FA47F6A5FA4E
:100B700087F68EB9EED1F0BC01F0FF0102F007025A
:100B800032B110F8013B013A83EA010313B1F8D105
:100B90000020704701387047002D06BF35460338E6
:100BA000073815F0010F07D1013015F4807F02BF1F
:100BB000013015F4C03F0130F0BC0138704700BF70
:100BC0004FEA410C7FEA6C5C02D150EA013C0AD149
:100BD0004FEA430C7FEA6C5C02D152EA033C02D13B
:100BE0004FF0000070474FF0010070474FEA41029C
:100BF000B2F1E04324BFB3F5001CDCF1FE5C0DD97B
:100C000001F0004C4FEAC0024CEA5070B2F1004FC4
:100C100040EB830008BF20F00100704711F0804FC7
:100C200021D113F13872BCBF01F00040704741F48C
:100C300080114FEA5252C2F11802C2F1200C10FA90
:100C40000CF320FA02F018BF40F001004FEAC12374
:100C50004FEAD32303FA0CFC40EA0C0023FA02F318
:100C60004FEA4303CCE77FEA625307D150EA0133EE
:100C70001EBF4FF0FE4040F44000704701F00040BE
:100C800040F0FE4040F40000704700BF0348044BB2
:100C9000834202D0034B03B118477047E4010020A0
:100CA000E4010020000000000548064B1B1AD90F84
:100CB00001EBA301491002D0034B03B11847704761
:100CC000E4010020E40100200000000010B5064C03
:100CD000237843B9FFF7DAFF044B13B10448AFF3AD
:100CE00000800123237010BDE401002000000000FB
:100CF00064D3000808B5054B1BB105490548AFF39F
:100D00000080BDE80840FFF7CFBF00BF0000000033
:100D1000E801002064D30008DFF834D00D480E4904
:100D20000E4A002302E0D458C4500433C4188C4245
:100D3000F9D30B4A0B4C002301E013600432A242AA
:100D4000FBD300F08DFC09F037FA00F061F8FEE704
:100D50000000052000000020E401002088E50008D4
:100D6000E4010020309D0020FEE7000010B594B0A3
:100D70001022002102240AA809F05CF914220021A3
:100D800003A809F057F9204B012104201A6C42F006
:100D900080521A641B6C03F080530193019B1B4B20
:100DA0001A6842F440421A601B6803F440430293FD
:100DB000029B4FF48033CDE908134FF48003CDE953
:100DC0000E43D823CDE9100308A8CDE9124404F05E
:100DD00069FE08B172B6FEE704F02CFE08B172B6E7
:100DE000FEE70F234FF4A0520590072103A8CDE999
:100DF00003344FF48053CDE9062305F03BF808B1E6
:100E000072B6FEE714B010BD00380240007000401A
:100E10001FB500211022684609F00CF904F086FC89
:100E2000012300226846ADF8003048F21F73CDE977
:100E3000012340F20113039304F096FC042004F014
:100E400083FC04F0F1FBFFF791FF00F023F800F0C2
:100E50009DF800F0B9F800F0F3F800F0D3F800F0D6
:100E60000DF900F029F900F045F900F061F907F0FB
:100E700007FC00F05DF807F01DFCFEE70268034B7D
:100E80009A4201D104F0DCBB704700BF0010004063
:100E900072B6FEE7214B00211A6B42F0800200B5CA
:100EA0008BB01A631A6B06A802F080020192019AB5
:100EB0001A6B42F002021A631A6B02F002020292EB
:100EC000029A1A6B42F001021A631A6B02F00102D5
:100ED0000392039A1A6B42F008021A6310221B6BEA
:100EE00003F008030493049B09F0A4F840F20B13E9
:100EF00005A90B4805930123079304F0B1FC1022C8
:100F0000002106A809F096F84FF4806305A904486B
:100F1000059304F0A5FC0BB05DF804FB003802401B
:100F2000000C024008B54FF47A7007F035FCFAE780
:100F300008B501F06FFA00F075FC0B4A00210B4870
:100F400007F0D8FB0A4B0B4A002118600A4807F04B
:100F5000D1FB0A4B0A4A002118600A4807F0CAFB75
:100F6000094B186008BD00BF3CDC0008250F0008D5
:100F70000802002018DC0008C52000080402002038
:100F8000F4DB0008FD2300080002002008B50C492E
:100F90004FF4E1320B4B08460B600023C1E90123FB
:100FA0000C224B62C1E90333C1E90523C1E90733D0
:100FB00006F089F818B1BDE80840FFF769BF08BD21
:100FC0003C0500200010014008B50C494FF4E13207
:100FD0000B4B08460B600023C1E901230C224B6236
:100FE000C1E90333C1E90523C1E9073306F06BF812
:100FF00018B1BDE80840FFF74BBF08BDB40400209E
:101000000014014008B50C494FF416520B4B08462A
:101010000B600023C1E901230C224B62C1E90333B9
:10102000C1E90523C1E9073306F04DF818B1BDE861
:101030000840FFF72DBF08BDC40500200044004054
:1010400008B50C494FF4E1320B4B08460B60002306
:10105000C1E901230C224B62C1E90333C1E9052335
:10106000C1E9073306F02FF818B1BDE80840FFF7D3
:101070000FBF08BD2C0400200048004008B50C49F3
:101080004FF4E1320B4B08460B600023C1E901230A
:101090000C224B62C1E90333C1E90523C1E90733DF
:1010A00006F011F818B1BDE80840FFF7F1BE08BD21
:1010B000A4030020004C004008B50C494FF4E13275
:1010C0000B4B08460B600023C1E901230C224B6245
:1010D000C1E90333C1E90523C1E9073305F0F3FF93
:1010E00018B1BDE80840FFF7D3BE08BD1C030020BF
:1010F0000050004008B50C494FF416520B4B0846FF
:101100000B600023C1E901230C224B62C1E90333C8
:10111000C1E90523C1E9073305F0D5FF18B1BDE8E2
:101120000840FFF7B5BE08BD9402002000780040DB
:1011300008B50C494FF416520B4B08460B600023C0
:10114000C1E901230C224B62C1E90333C1E9052344
:10115000C1E9073305F0B7FF18B1BDE80840FFF754
:1011600097BE08BD0C020020007C004030B5D9B00D
:1011700004461422002111A808F05CFF84220021FB
:1011800016A808F057FF2368A14A93422BD14023A9
:1011900016A8169304F04AFF08B1FFF779FE9D4B9D
:1011A0004FF4C06100205A6C42F010025A645A6C2D
:1011B00002F010020192019A1A6B42F001021A63C6
:1011C0001B6B03F001030293029B0223CDE9111371
:1011D000032311A9CDE9130307238F48159304F0C6
:1011E0003FFB59B030BD8D4A934229D14FF4006383
:1011F00016A8169304F01AFF08B1FFF749FE854BB5
:101200004FF0C00E11A986485A6C42F020025A6471
:101210005A6C02F020020392039A1A6B42F0040205
:101220001A6300221B6B03F004030493049B022344
:10123000CDE911E30323CDE9132308231593CEE76A
:10124000784A934232D1802316A8169304F0EEFE1A
:1012500008B1FFF71DFE6F4B4FF0600C002411A981
:101260001A6C714842F400321A641A6C02F40032AB
:101270000592059A1A6B42F008021A631B6B03F081
:1012800008030693069B0223CDE911C30323CDE98E
:1012900013430723159304F0E3FA26202246052181
:1012A00004F004FA262004F033FA9AE75F4A9342E6
:1012B00029D14FF4807316A8169304F0B7FE08B135
:1012C000FFF7E6FD534B4FF44064002511A91A6C5B
:1012D000574842F480221A641A6C02F48022079262
:1012E000079A1A6B42F002021A631B6B03F00203A7
:1012F0003793379B0223CDE911430323CDE91353E1
:10130000072315936BE74B4A934236D18022002185
:1013100038A808F08FFE4FF4007337A8379304F015
:1013200085FE08B1FFF7B4FD3A4B4FF4406000244E
:1013300011A91A6C42F400221A641A6C02F40022F9
:101340000892089A1A6B42F004021A631B6B03F0AE
:1013500004030993099B0223CDE9110303233048B9
:10136000CDE913430823159304F07AFA342022467A
:10137000062104F09BF9342095E72F4A93425DD172
:101380008022002138A808F055FE4FF4806337A86A
:10139000379304F04BFE08B1FFF77AFD1D4B4FF475
:1013A0008051002408251A6C1D4842F480121A64EA
:1013B0001A6C02F480120A920A9A1A6B42F0040222
:1013C0001A631A6B02F004020B920B9A1A6B42F02A
:1013D00008021A631B6B159503F008030C930C9B12
:1013E0000223CDE91113032311A9CDE9134304F01E
:1013F00037FA042311A90C481193159504F030FA1B
:1014000035202246062104F051F935204BE700BF74
:10141000001001400038024000000240001401406A
:101420000008024000440040000C02400048004018
:1014300000040240004C004000500040394A9342F2
:1014400036D18022002138A808F0F4FD4FF48053F3
:1014500037A8379304F0EAFD08B1FFF719FD324BC6
:10146000002411A931481A6C42F080421A641A6CA7
:1014700002F080420D920D9A1A6B42F010021A632C
:101480004FF4C0721B6B03F010030E930E9B0223EC
:10149000CDE911230323CDE913430823159304F069
:1014A000DFF952202246052104F000F95220FAE625
:1014B0001F4A93427FF495AE8022002138A808F09D
:1014C000B9FD4FF4005337A8379304F0AFFD08B1CE
:1014D000FFF7DEFC144B002411A914481A6C42F0EB
:1014E00000421A641A6C02F000420F920F9A1A6BB3
:1014F00042F010021A6302221B6B03F010031093D8
:10150000109B0323CDE91132CDE913430823159332
:1015100004F0A6F953202246062104F0C7F8532010
:10152000C1E600BF007800400038024000100240D1
:10153000007C0040FEE7FEE7FEE7FEE7FEE77047BF
:10154000014805F09DB900BFC4050020014805F021
:1015500097B900BFA4030020014805F091B900BF6E
:101560001C030020014805F08BB900BF9402002045
:10157000014805F085B900BF0C020020014805F0C4
:1015800025B800BF4C0600200D4B82B00F216FF034
:1015900001001A6C42F080521A641A6C02F08052F8
:1015A0000092009A5A6C42F480425A6400225B6CAA
:1015B00003F480430193019B02B004F077B800BFAD
:1015C00000380240214B1A6C42F0100230B589B04D
:1015D0001A641B6C054601A903A803F010030293CB
:1015E000029B04F005FD069B4BBB04F0E1FC184A8E
:1015F000184B136040F2E733D360174BB0FBF3F3A3
:10160000013B10465360002313619360936105F022
:10161000D1F8044680B90E4804F096FF044658B944
:10162000362004F075F80F2D0DD8224629463620B5
:1016300004F03CF8094B1D60204609B030BD04F0B1
:10164000B7FC4000D3E70124F6E700BF00380240B2
:101650004C0600200010004040420F001400002003
:10166000034AD2F8883043F47003C2F888307047D8
:1016700000ED00E030B585B088B10B4B1C6884B13B
:101680000FC88DE80F00094B694620461B6803937D
:1016900000231A4605F051FF431E5842584105B039
:1016A00030BD2046FBE700BFA8060020AC060020A6
:1016B000074B70B51D6804464DB1FFF723FA21466C
:1016C00082B264232846BDE8704005F07CBC70BD42
:1016D0001C070020000000002DE9F04F2DED028BCB
:1016E000B0EE408A83B08A46064610EE100AFEF736
:1016F000D3FEB5EEC08ABAF1000F04460D460CBF0A
:101700004FF0010B4FF0640BF1EE10FA44BF0246AC
:1017100001F10043584643BF274F14461D46274F4B
:10172000FEF798FE02460B468046894620A1D1E985
:101730000001FFF733F822462B46FFF78BF940B93B
:101740001F49304603B0BDEC028BBDE8F04F08F0F6
:101750005ABD22462B4640464946FEF7F5FE194B38
:101760000022FEF73BFDFFF789F9144B002808BF64
:101770001F46BAF1000F10D0134A1821B0FBFBF33B
:101780000BFB1300CDE900303B46304608F0D8FB98
:1017900003B0BDEC028BBDE8F08F00903B460B4AD6
:1017A0001821304608F0CCFBF2E700BFAFF3008011
:1017B00000000070FCFFEF41ADD300081ED400080C
:1017C000AFD300080000E03FB7D30008C3D3000840
:1017D000F8B5054608B90020F8BD0F4E3368002B58
:1017E000F9D00E4F4FF0FF322946306805F0C3FFA5
:1017F00001280446EFD107F05DF93B68EA689A4298
:1018000007D1074B1C7003F0DFF807F077F920468B
:10181000E2E707F073F9E5E7A8060020AC06002030
:101820000400002008B500226121042005F05CFEC0
:10183000044B002210211860042005F055FE024BD5
:10184000186008BDB0060020A8060020064A074917
:10185000106000220A8006490A7006490A7010B119
:10186000012205F0BBBC70471C070020B606002013
:10187000B4060020180700202DE9F04100239AB09B
:10188000304E00933368002B3FD083423DD12E4A27
:101890002E4D13682C78013313602D4B1F780D2FBC
:1018A00001D00A2F3CD12B4FB7F80080B8F1000FC0
:1018B00000D1A4B1602200210DF1050008F0BAFBAF
:1018C000424625490DF105008DF8044008F0A3FCBF
:1018D000224B1868E0B9224A1368013313600023D1
:1018E0001D4A3B802B70137001221949306805F0A6
:1018F00075FC009B4BB14FF0E0234FF08052C3F8D2
:10190000042DBFF34F8FBFF36F8F1AB0BDE8F08186
:1019100000236A4601A905F0CAFE0128DBD1DEE7F3
:10192000002CE1D10B490C4A08885E2805D8431CDD
:1019300017549BB20B80D454D6E701230C8014704B
:101940002B70D1E71C070020A4060020B40600205D
:1019500018070020B6060020B8060020B0060020B8
:101960009C0600200C4B1B6810B48BB183420FD136
:1019700000220A4908240A8009490A7019680C6281
:10198000C3F88420012207495DF8044B05F026BC0A
:101990005DF8044B704700BF1C070020B60600200E
:1019A000B4060020180700202DE98048ADF56B7DB6
:1019B00027AC01F06BF8874B18680028F9D0142287
:1019C000214605F0D8FE0128F3D11EAD10220021DA
:1019D000284608F02FFB26783EB17F4A7F481368DF
:1019E00001331360FFF764FEE2E77D490DF19D00CE
:1019F00008F03AFB04460028DAD07A4A7A4913689C
:101A000001331360FFF774F8D8B9754908F02CFB5F
:101A1000044620B1704A136801331360D8E007F020
:101A200049F8724A13680133136002F0C7FF704B24
:101A3000186810B1214605F0B6FC07F05FF86D4854
:101A4000D0E76D492046FFF753F8002840F0B380F7
:101A5000634908F009FB04460028DBD103F0D2FDFE
:101A6000022140A8654DFFF737FE654B022146A8CD
:101A700093ED000AFFF730FE624B02214CA893ED74
:101A8000000AFFF729FE604B214652A893ED000A99
:101A9000FFF722FE5D4B214658A893ED000AFFF7A1
:101AA0001BFE5B4B1B78002B7ED05A4B5A4C1B788D
:101AB0005A4A072B08BF14464FF4FA7003F060FD32
:101AC000574B584A002818BF1A462B78DBB21A9297
:101AD0001693554B187800F0C1FF544B17901B78A4
:101AE000DBB21893524B187801F006FB514B19905A
:101AF0001D78514BEDB2187801F00AFB4F4B0646AA
:101B0000187800F0B7FF4E4B0746187802F078F8C7
:101B10004C4B804693F800904B4B5FFA89F993F851
:101B200000A002F05BFF494B83465FFA8AFA1878FF
:101B300001F066FD464A1D90107801F06DFD4549A3
:101B40001C90087801F0AAFF1B904348007801F030
:101B5000B1FF1D9B1B991C9A14905EA813914FF422
:101B60000C7112923D4ACDE910B3199B0993189B51
:101B70000893179B0793169B069358AB059352AB9C
:101B800004934CAB039346AB029340AB01931A9B77
:101B900000932346CDE90E9ACDE90C78CDE90A569B
:101BA00008F0CEF95EA81DE72B782D4C2D4ACF2BDF
:101BB00088BF144680E72C492046FEF799FF00288D
:101BC00040F0B180064908F04FFA054600284FD092
:101BD000264807E7B00600209C06002008D400082D
:101BE0001CD40008A00600201FD40008AC0600206A
:101BF000A806002031D400083BD400089806002035
:101C0000500800204C0800201C0800201808002064
:101C10000400002056080020D2D30008C9D30008D1
:101C2000E5D30008ECD3000862070020600700201D
:101C3000B4070020B3070020B2070020B10700203E
:101C4000BD070020BE07002055080020B707002070
:101C5000B6070020BC0700200700002042D400087F
:101C6000E0D30008DAD30008FED7000824D4000827
:101C700040AC22AF204600F01DFF06F01BFF924B48
:101C8000DFF8BCC21E78BCE80F000FC7DCF80030DC
:101C90003B6006F033FF409B8C484599439A19936B
:101CA000429B0078419F449C9DF819819DF81AA1A0
:101CB0009DF81BB19DF8189118911693179200F09A
:101CC000D9FE179A169B189906920097804ACDF86C
:101CD0000CA0804FCDE90906CDE90794CDE904B306
:101CE000CDE90181199BDC215EA822AC08F028F91E
:101CF0005EA8FFF7DDFCEBB29E4201D9052D01D1B4
:101D000075486FE654F8043BDC21744A5EA80093E2
:101D1000734B002D08BF3B46013508F011F95EA852
:101D2000FFF7C6FCE7E76F492046FEF7E1FE38B94A
:101D30006D4908F099F900287FF46CAE6B4851E6C4
:101D40006B492046FEF7D4FE78B9674908F08CF954
:101D500000287FF45FAE0A2328462B70FFF78AFC29
:101D600008B964483EE664483CE664492046FEF70C
:101D7000BFFE70B95C4908F077F900287FF44AAEDD
:101D80000D2328462B70FFF775FC0028E9D05C482E
:101D900028E65C492046FEF7ABFE20B15A492046B2
:101DA000FEF7A6FED0B95049002008F05DF90028E2
:101DB0007FF430AE20465349FEF79AFE00282846AD
:101DC00014BF0C240B242C70FFF754FC0028C8D03F
:101DD0004E484F4B0B2C18BF184603E64D49204682
:101DE000FEF786FE70B9404908F03EF900287FF4FE
:101DF00011AE0E2328462B70FFF73CFC0028B0D014
:101E00004548EFE545492046FEF772FE70B9364970
:101E100008F02AF900287FF4FDAD0F2328462B7027
:101E2000FFF728FC00289CD03D48DBE53D492046D3
:101E3000FEF75EFE2C490746002840F0838008F03C
:101E400013F904462849384608F00EF9064654B3FB
:101E500048B35EAF394607F0D3FE5E9BB0EE408AD2
:101E60009E4220D01B78F3B9B5EEC00AF1EE10FA0D
:101E700019DDDFED2D7AB4EEE70AF1EE10FA12D893
:101E80002A492046FEF734FE30B129492046FEF7A4
:101E90002FFE40B9B1EE488A1349002085ED028A31
:101EA00008F0E2F828B1234A23481368013313608D
:101EB00098E5092328462B70FFF7DCFB00283FF448
:101EC00050AF1E488EE500BF480700206107002084
:101ED00073D500081ED4000827D70008FDD50008D8
:101EE000F4D3000805D600081CD400080AD6000860
:101EF0000AD700080FD7000820D700082AD7000803
:101F000030D700083BD7000840D70008F6D30008B8
:101F100000D4000843D7000848D7000852D700086B
:101F200059D7000865D700080000B44369D70008F6
:101F30006AD700089C0600206DD7000879D70008F2
:101F40004C070020002008F08FF853490746204630
:101F5000FEF7CEFD00286AD050492046FEF7C8FDA6
:101F6000002866D04E492046FEF7C2FD002862D008
:101F70004C492046FEF7BCFD00285ED04A49204669
:101F8000FEF7B6FD00285AD048492046FEF7B0FDBE
:101F9000002856D046492046FEF7AAFD002852D018
:101FA00044492046FEF7A4FD00287FF433AD082401
:101FB000002F3FF42FAD3B78002B3FF42BAD7A1E62
:101FC00012F8013F002B40D1002E3FF423AD5EAE4E
:101FD0000A2233603846314607F0E4FE336893F84E
:101FE0000080B8F1000F7FF415AD421E42F20F736E
:101FF0009A423FF60FAD686040462F4908F034F82A
:10200000631F0746032B25D900287FF403AD2A4917
:10201000002008F029F800287FF4FCAC28462C703A
:10202000FFF728FB00283FF49CAE2448DAE40124A3
:10203000BEE70224BCE70324BAE70424B8E705247A
:10204000B6E70624B4E70724B2E7303B0126092BA4
:10205000B6D9DFE400283FF426AF3146C6F8008049
:1020600007F0CEFD33689F423FF41DAF1B78002B75
:102070007FF419AFB5EEC00AF1EE10FA7FF713AF97
:10208000DFED0F7AB4EEE70AF1EE10FA3FF60BAF90
:1020900085ED020ABBE700BFE0DB00080DD70008B2
:1020A0003ED700082ED7000882D7000885D7000841
:1020B00088D700088BD700081CD400088ED70008EA
:1020C0000000B4422DE9F04FA54B00264FF0010966
:1020D000A44DA54C85B0A54F85F800901E702670C4
:1020E0003E7001F0F3FDA249A24802F0DBFB642040
:1020F00006F052FBA04801F0F1FC49463046DFF8FB
:102100008CA200F0EBF9B04214BF05224A463A70A7
:1021100003F0BAF8924BCF28207088BF4FF0000828
:1021200083F8009098BF4FF001082E70934E6846D8
:10213000FFF74EFB0028FAD0B8F1000F0BD19DF845
:1021400000300A2B09D003F09FF8CF2803D9207064
:1021500085F80080EBE74FF00108894B1B7823B12D
:1021600000232B7004232370E1E79DF80030A3F1D6
:102170000902062A00F2B780DFE802F004B0646BBF
:10218000860D9E009DED020A02F016FFCF282070FA
:1021900040F2A6804AE000F089FE082831D8DFE846
:1021A00000F09D9D0505093021132300754B18781B
:1021B000C0B2EBE7744B1B78072BDAB201D9E523E9
:1021C00033E0724B985CE1E7714B1A78022A01D137
:1021D000E7232AE01A78032A01D1E12325E01B78BE
:1021E000072BECD0E22320E06A4B1A78022AF4D0C5
:1021F0001A78032A01D1E42317E01B78042BF1D1CC
:10220000E6E7654B1A78022AE7D01A78032AE9D064
:102210001A78052AE6D01A78062AE3D01A78072A0F
:10222000CDD01B78082B2DD1E623237002F0D6FBEE
:10223000002855D19DF800300A2B00F0BB80002308
:102240002B7074E700F01CFB0728B8D81AF80000C0
:102250009CE701F033FA082814D801A353F820F0C2
:10226000DD220008DD220008DB210008E52100084E
:1022700085220008E5210008E5210008BF210008AB
:1022800029220008E823D0E701F094F80728A9D80C
:1022900001A353F820F000BFDD220008DD22000872
:1022A000D1210008DB210008E5210008E521000814
:1022B000E5210008BF21000801F012FD042891D893
:1022C00001A353F820F000BFDD220008DD22000842
:1022D000DB210008F7210008D12100080423237026
:1022E00000233370A6E7023B062B05D8DFE803F096
:1022F0003210151A1F242B009FED281A9FED280A73
:10230000DFED271A0198F0EE610A02F051FE3DE779
:102310009FED221A9FED230AF2E79FED201A9FED11
:10232000220AEDE79DED020A9FED201AE8E79DEDF8
:10233000020AB1EE400AF7E79FED1D0ADDED027AD1
:1023400030EE670AF0E79FED1A0ADDED027A30EE13
:10235000670AEEE79FED111A9FED150AD0E700BF5F
:102360009906002004000020980600202007002085
:10237000C40500202C040020B404002056080020CE
:1023800055080020AD070020B107002078DC0008C8
:10239000AF070020AE070020B00700200000E14397
:1023A000000000000000B4420000B4C200009643E8
:1023B000000034434FF00109022043F698224946B9
:1023C000387085F8009000F0B3F890B901F0B0FBD8
:1023D0000323834643F69822494648463B7000F063
:1023E000A7F830B904231BF0FD0F3B7003D1237015
:1023F00025E705233B70E223F9E700BF10B504464B
:102400000348FFF723FA2046BDE81040FFF7CCBA97
:102410001C03002008B5064800F040F8054800F00D
:1024200031F900F07DFBBDE8084000F00FBA00BFB5
:1024300094020020A403002010B5044603F08AF89B
:10244000204600F073F92046FFF716FA204600F008
:102450009DF82046BDE8104000F08CBB10B5044646
:1024600002F098FF204600F0A7F92046FFF77AFA1D
:10247000204600F0DFF82046BDE8104000F022BC06
:102480000023034A1370034A1370034A1370704702
:102490002307002022070020210700200A4BFF22EB
:1024A00010B51860094B0A4C1A70022300222370E1
:1024B000084B1A70FFF7E4FF28B10122064904F027
:1024C0008DFE00B9207010BD3007002006000020EE
:1024D00005000020200700202C07002037B5104AF7
:1024E0000346104C106828B9012323702078C0B22D
:1024F00003B030BD0C4AFF258DF80510090A157090
:102500000A4A8DF804306423009207228DF80610E1
:10251000694604F058FD08B10223E6E72070E5E7BC
:102520003007002005000020060000205555050654
:10253000F8B5134B064614461B6803B11AB9114B84
:1025400001221A7003E0FFF7C9FF18B10D4B18788C
:10255000C0B2F8BD03F080F80B4F054603F07CF8DD
:10256000431BA34202D3074B0322EAE73B78B34263
:1025700002D1044B0022E4E70A2006F00DF9EDE752
:10258000300700200500002006000020224A0346F4
:10259000106810B500283DD098423BD11F4A204B0F
:1025A00011781B78032932D8DFE801F0020C121CE5
:1025B000552B01D10123137001221949BDE81040A8
:1025C00004F00CBE552B01D10223F4E70023F2E7FF
:1025D000991E07291BD813490B700021124B197043
:1025E0000323E8E710490C78621CD2B20A700F4945
:1025F0000B550C4B1C78631EDBB29A42DCD3052CC6
:1026000005D10B78082B02D14A78094B1A70FFF7D5
:1026100037FFD1E710BD00BF3007002021070020A1
:102620002C07002023070020220700202407002079
:10263000060000200A4A116808B579B181420DD11F
:10264000FFF71EFF0B6808221A6200230122C1F85F
:1026500084300449BDE8084004F0C0BD08BD00BF97
:10266000300700202C0700200023034A1370034A80
:102670001370034A13707047370700203607002095
:102680003807002008B5094B094A18600023137069
:10269000084A1370084A1370FFF7E6FF28B10122B9
:1026A0000349BDE8084004F099BD08BD4407002077
:1026B000400700203507002034070020114A034658
:1026C00013B51068D0B1012B16D0022B16D13223CE
:1026D0000D4A0DF107018DF8073000230B4C1370E4
:1026E0002370FFF7C1FF6423012204F06CFC38B9AA
:1026F0000123237002B010BD3123E9E70120F9E77F
:102700000220F7E7440700203507002034070020A7
:10271000EFF3108272B6044B002118781970C0B222
:1027200002B962B6704700BF350700201B4A38B5B2
:1027300003461068002830D098422ED1184B1C78E0
:102740000D2C14D0174B0A2C1A7816D16AB9164BD7
:102750001978012909D1154B1B78312B05D1144B60
:102760001C7814B1134C21701A70FFF77DFF012201
:102770000B49BDE8384004F031BD002AF7D10A4DBD
:102780002978062995BF4B1C0122DBB21A709FBF26
:102790002B70064D6C54EA54E9E738BD440700201D
:1027A00040070020360700203707002038070020A8
:1027B00034070020350700200A4A116808B579B1AE
:1027C00081420DD1FFF750FF0B6808221A620023E7
:1027D0000122C1F884300449BDE8084004F0FEBC81
:1027E00008BD00BF4407002040070020074B1870B9
:1027F00000F0FB03032B064B04D0012804D1082270
:102800001A7070470722FBE70922F9E761070020E9
:102810006207002002280B4A4FF0030310B50ED1C7
:1028200013700346084C43F6982201212370FFF7EA
:102830007FFE002814BF05230423237010BD05214B
:102840001170EFE762070020200700200023074AED
:10285000C2E90033C2E902331361054A1370054A25
:102860001370054A1370054A137070474C07002017
:102870004807002062070020610700206007002051
:102880002DE9F04F00236F4A6F4D85B0DFF8C4810A
:102890002B70137098F800206C4C042A04D92B700C
:1028A0000623002023700EE001F09CF998F8003018
:1028B0000746C3F10503984288BFDFB237B9052048
:1028C00009232870237005B0BDE8F08FDFF88891E8
:1028D000012699F8003023B12E70082301202370BF
:1028E000F1E7267000F0AAFA38B1012818BF0620D7
:1028F00005B0BDE8F04FFFF779BF3046FFF78AFF1C
:10290000064608B1042338E099F8003013B10123DA
:102910002B70E2E798F8003001204A4A0133DBB21D
:1029200013704FF002032370FFF7C8FE30B14FF071
:10293000020302202B7009232370C4E702F08CFEEF
:1029400042F20F7B824602F087FEA0EB0A00584558
:1029500001D90320CCE799F80030002B6CD1FFF7A8
:10296000D7FE18B9012005F017FFECE700F0C4F816
:102970000220FFF74FFF042320B12B70092304200E
:102980002370A0E7237042F20F7B02F065FE8246BF
:1029900002F062FEA0EB0A0058450BD94FF0070A7F
:1029A0000120FFF737FF0028ACD1BAF1000F36D075
:1029B00050469DE799F8003003F0FF01002B3DD110
:1029C00003A80391019100F0BDF8D8B1039B98F8DA
:1029D00000C01F4801995FFA81FEF4450DD80193AC
:1029E00001F0A6F8019B824680B1BAF1020F14BF34
:1029F0004FF0050A4FF0010AD2E750F8042B0131DD
:102A00009342E8D1012005F0C7FEC1E798F8001015
:102A10000F4A481C42F8213088F80000C0E799F8B6
:102A20000030002B7FF473AF0136F3B29F423FF6C4
:102A30006BAF85F800A033E7012059E74FF0010A9A
:102A4000AEE700BF6007002061070020620700209A
:102A50004C070020480700205508002009289ABF8D
:102A6000024B53F820000248704700BFA0DC00086A
:102A700093D7000807289ABF024B53F8200002485A
:102A8000704700BF80DC000893D7000810B5EFF353
:102A9000108472B60548D0F88030202B03D1012273
:102AA000034904F09BFB04B962B610BD0C02002080
:102AB000AC070020F0B50646B8B1EFF3108772B648
:102AC0000A4D04460FCD0FC4094B95E807001B784B
:102AD00084E80700B376074BD3F88030A3F12202D5
:102AE00053425341F37607B962B6F0BD8807002020
:102AF000A40700200C020020EFF3108272B600231E
:102B000004490B6004490B7004490B7002B962B6AA
:102B1000704700BFA8070020A40700206807002016
:102B200008B5064A002306481370FFF7E5FF0122A7
:102B30000249BDE8084004F051BB00BFAC070020CB
:102B40000C020020034610B578B1EFF3108472B682
:102B5000064A117801F0FF0029B1054901200968F2
:102B600019600023137004B962B610BDA4070020D9
:102B7000A8070020F8B578B1494B98420CD1494CD0
:102B8000236801332360484B1D786576D0F8846054
:102B90001EB1D0F88430A360F8BD02F05DFD434A59
:102BA000434913681060C31A642B88BF0E700A78FB
:102BB00052B9012D28D0042D26D001223A49384897
:102BC000BDE8F84004F00ABB012A16D16B1EDBB247
:102BD0001B2B10D802FA03F336481840A0B903F0B3
:102BE0000903003B18BF01230B70334B1D70636852
:102BF00001336360E1E70023F6E7032A04D1202DC7
:102C000002D000230B70F2E7501C2B4BC0B29D5436
:102C100001280870D1D95A789042CED100201F46A1
:102C200005465FFA80FC624507D8FF2D0BD063682C
:102C30000133636000230B70BFE717F801CB01304D
:102C40008CEA0505EDE7E0680130E0601879207650
:102C50000028EFD11878012804D19878A128E9D16B
:102C60000C2A07E00428E5D198780228F8D0042837
:102C7000E0D11C2ADED10722985C01320B2A40EAFF
:102C80000626F9D166612369013323610B4B1A785B
:102C9000002ACFD10A4A166001221A70CAE700BF83
:102CA0000C02002088070020AC07002064070020E9
:102CB000680700208008200869070020A40700207A
:102CC000A807002010B5A0B10A4B984211D1D0F846
:102CD0008420094B9A60FFF70FFF03680822074919
:102CE0001A6200230122C0F88430BDE8104004F0CD
:102CF00075BA10BD0C02002088070020AC07002028
:102D00009FED071A10B5F0EE410AB0EE410A01F04E
:102D1000ACFD044608B101F093F9204610BD00BF98
:102D2000000000002DE9F04F2DED028B85B08246AA
:102D3000019102F091FC80464FF4FA7002F020FC01
:102D400040B90425FFF7DCFF284605B0BDEC028B37
:102D5000BDE8F08F0027DFF8E0B0DFED358A01F045
:102D600087FD3E4602F078FC4FF4807104463148FE
:102D700002F05AFE012102902E4802F055FE022177
:102D800081462C4802F050FE08210546294802F0F1
:102D90004BFE9BF80010024629B1FFF7B1FF002857
:102DA0003CD10125D0E7019B3BB1A4EB0801514583
:102DB00003D30225FFF7A4FFC6E74FF4FA7003928E
:102DC00002F0DEFB0028BCD0029B4BB345EA0905AC
:102DD000039AEDB26DB91AB3FFF792FF002F08BF47
:102DE00026460546D0B9A41B312C1CD901F040FD64
:102DF000AAE7B3EE098A002AFBEE097A08FE278AC1
:102E0000B3EE090A01F02EFDF0EE480AB0EE401ACA
:102E1000B0EE680A01F029FD074628B1032593E7C3
:102E2000B3EE098AECE70127142005F0B5FC99E719
:102E300000000000000C024055080020012141F272
:102E40008830FFF76FBF00210846FFF76BBF000017
:102E500008B5054B1B782BB901F0C0FD003818BF31
:102E6000012008BD0120FCE7550800209FED071A4E
:102E700008B5F0EE410AB0EE410A01F0F6FC18B1D7
:102E8000BDE8084001F0DCB808BD00BF000000004C
:102E900008B5FFF7EBFF034B0F221A700122024B1C
:102EA0001A7008BDB4070020B20700202DE9F04FCA
:102EB0000023864A864C874D874FDFF830A2DFF823
:102EC00030B2DFF830922DED028B83B02370137097
:102ED000824A2B703B7013708AF800308BF80030F8
:102EE00089F8003000F072FE002800F081807C4BF1
:102EF0001A78012A02D01B78042B79D1794E4FF031
:102F000000089FED798A5FFA88F3704A137008F120
:102F1000FF330A2B07D8DFE803F0131517191B1D21
:102F2000231F2123250001232370FFF791FFD8B130
:102F3000FFF7AEFF012003B0BDEC028BBDE8F08FC0
:102F40000223F1E70323EFE70423EDE70523EBE793
:102F50000623E9E70723E7E70923E5E70B23E3E790
:102F60000823E1E70C23DFE73378062B1AD8DFE8E4
:102F700003F0042136477B576900F0EE481A96EDBE
:102F8000031ADFED590A96ED020A706802F010F894
:102F900089F8000001F022FD0028C9D199F800301D
:102FA000CF2B7FD9FFF762FF10230220237002236B
:102FB0002B70C0E796ED020A01F0FEFF89F80000D1
:102FC00001F00CFD0028B3D199F80030CF2B69D95E
:102FD000FFF74CFF1023032023702870ABE7FFF7A7
:102FE0004FFC38703B78012BA2D03B78002B59D096
:102FF000FFF73CFF10230420237004232B709AE773
:1030000000F05CFB354A10701378012B90D01378D8
:10301000002B47D0FFF72AFF102305202370DCE7A1
:1030200000F0C8F98AF800009AF80030012B3FF44C
:103030007FAF9AF80030ABB3FFF718FF10230720DB
:103040002370CAE700F04CFE8BF800009BF80030BC
:10305000012B3FF46DAF9BF800301BB3FFF706FF69
:10306000102308202370B8E71D4B4FF00302012105
:10307000307C1A7040F6B832FFF75AFA0190FFF729
:10308000E7FE00287FF454AF019B43B10523144AA7
:103090001370FFF7EBFE1023062023709DE7042337
:1030A0000F4A1370FFF7D4FE00287FF441AF08F1F8
:1030B00001081436B8F10C0F7FF425AF0190FFF72B
:1030C000D5FE0E230198237087E700BFB3070020C9
:1030D000B4070020B2070020B1070020B00700208D
:1030E0002007002030DD000800000000AF070020AE
:1030F000AE070020AD07002010289ABF024B53F8FE
:1031000020000248704700BFECDC000893D700089D
:1031100008289ABF024B53F820000248704700BFAE
:10312000C8DC000893D70008D02807D0E12805D0D4
:10313000CF2894BF002001208000704703207047F3
:10314000024B1878003818BF01207047550800203E
:103150000238024BC0B2185C704700BFCCDE0008DA
:1031600070B50E4E337813B10124204670BD012195
:10317000FFF7B4F9044678B902F06EFA054602F09A
:103180006BFA431BB3F5FA7FEFD23378002BEBD108
:103190000A2005F001FBF2E70524E6E755080020C8
:1031A00008B5FFF7B5FA10B10120014B187008BD42
:1031B000B50700209FED061A08B5F0EE410AB0EE03
:1031C000410A01F052FB10B100F03AFF042008BDA3
:1031D0000000000038B5FFF7EDFF00BB134C23786B
:1031E000A3B90120FFF76AFAD8B902F035FA05460B
:1031F00002F032FA431BB3F57A7F237803D303F04E
:10320000FF0023B100E01BB1FFF7D4FF022038BD5F
:10321000FFF77EFA38B9012005F0BEFAE8E703208F
:10322000F5E70420F3E70120F1E700BF550800208F
:10323000F8B51D4E0C461D4F30703B780BB1022087
:10324000F8BDDFED1B1A5A209FED1A1AF0EE610A45
:103250009FED190A01F0ACFE054601F0BFFB002806
:10326000EDD12846FFF760FF032819D0B0B9FFF76A
:10327000A1FF98B93B78002BE1D13470FFF7AAFF8A
:10328000431E032B0ED801A252F823F0413200084E
:103290003F3200089D320008413200080320CFE78A
:1032A0000520CDE70020CBE7B70700205508002018
:1032B000000000000000204200003443054B18705D
:1032C000054B10B920221A70704701280CBF21222B
:1032D0002222F8E7B6070020B707002008B5064B02
:1032E0001B7803F0FF002BB1FFF764FF002814BF29
:1032F0000420012008BD00BF55080020104BDFED61
:10330000111A9FED111AF0EE610A9FED100A10B527
:103310001870752001F04CFE044601F05FFB50B9B7
:103320002046FFF701FF38B9FFF744FF28B9BDE891
:103330001040FFF7D3BF012010BD0420FCE700BF01
:10334000B7070020000000000000204200003443C6
:1033500008B5084B1B784BB944F620620121FFF7F2
:10336000E7F828B9BDE80840FFF7B8BF012008BD5D
:103370000520FCE75508002038B50C4D144629708F
:10338000FFF7E6FF70B92C70FFF7A8FF50B90848A7
:1033900000F04EFB042804D028B9BDE83840FFF700
:1033A0009DBF012038BD0620FCE700BFB707002005
:1033B000413100082DE9F7430023884D884C2B70DC
:1033C000237000F063FB18B90620222320700CE064
:1033D00001262E70FFF737FD04280ED8DFE800F035
:1033E0000F030D0B0900212326702B7003B0BDE8DD
:1033F000F0830320E9E70420E7E70220E5E718234C
:103400000B202B70FFF7ACFE044668B919232B7014
:10341000FFF7E0FE01280DD11D221C210C20FFF733
:10342000ABFF0446002836D0204603B0BDE8F04389
:10343000FFF744BF78B3FFF78BFE04460028F3D1B3
:103440000B2308202B70FFF78BFE0028EDD1654E73
:10345000654FDFF8A881002C3AD163000C33DBB252
:103460002B70FFF7B7FE012803467ED114221321EB
:103470000920FFF781FF0028D7D10134042CEAD1BD
:10348000172307202B70FFF763FF0028CDD11620EC
:10349000FFF734FF6DE01B211A20FFF7C9FE01285A
:1034A00013D11D221C210C20FFF766FF04460028C3
:1034B000BAD11E230A202B70FFF74AFF04460028CA
:1034C000B2D11F20FFF71AFFB7E70028F1D0B2E70B
:1034D000012C13D0022C0CBF0F2311232B700023BF
:1034E0008DF8073033703B7853B1022318F803008E
:1034F00000289AD1032CB0D11223B1E70D23EDE7B8
:103500000120FFF7DBF860BBDFED381A0DF1070291
:1035100037495A20F0EE610A9FED361A9FED360AC0
:1035200001F062FA814601F059FA0028DDD14846DF
:10353000FFF7FAFD032816D008B10323D6E7FFF7FB
:1035400039FE0028F9D13B78002BCED19DF8073009
:103550002BB93378003B18BF0123DBB2C6E7012348
:10356000FBE70423C2E70523C0E7002885D0FFF767
:10357000EFFD00287FF459AF022305202B70FFF7E1
:10358000EFFD00287FF451AF03232B70FFF722FEDD
:1035900001281BD1062205211046FFF7EDFE002869
:1035A0007FF443AF07210420FFF742FE012812D128
:1035B000062205211046FFF7DFFE00287FF435AF15
:1035C0000A2300202B70FFF7C3FE2EE70028E9D066
:1035D000FFF7BEFD29E70028F2D0F9E7B707002082
:1035E000B6070020B50700205508002000000000A5
:1035F000A13100080000204200003443D2DE000860
:1036000022289ABF024B53F820000248704700BF9F
:1036100040DE000893D7000807289ABF024B53F8F2
:1036200020000248704700BF20DE000893D7000842
:10363000024B1878003818BF012070475508002049
:103640009FED071A10B5F0EE410AB0EE410A01F005
:103650000CF9044608B100F0F3FC204610BD00BF91
:10366000000000000A4B10B51B7803F0FF0423B1E3
:103670000124FFF7E5FF204610BD4FF4FA7001F07A
:103680007FFF0028F7D10224FFF7DAFFF3E700BF3E
:103690005508002010B501F0DFFF044601F0DCFF03
:1036A000031B4F2B01D9002010BDFFF7DBFF0028C3
:1036B000FAD1142005F070F8F0E700002DE9F0478A
:1036C0004FF4FA702DED048B01F05AFF38B9022443
:1036D000FFF7B6FF2046BDEC048BBDE8F0874FF046
:1036E000000801F0C5F841F2873901F0B5FF4746FF
:1036F00006469FED7E8A01F0AFFF0546FFF7B2FF59
:10370000044628B9AB1B4B4505D90424FFF798FFA5
:10371000FFF796FFDEE74FF48061754802F084F909
:1037200030B9B8F1000F14D0ED1B1D2D19D8444647
:10373000B3EE090A01F096F8FBEE090AB0EE401A62
:10374000B0EE480A01F091F830B10324FFF778FF9A
:10375000DEE72F460124EBE71420A04605F01CF815
:10376000C9E7FFF76DFF08B10324B3E7FFF792FF46
:1037700004460028AED103205E4E01213070FEF7D2
:10378000ADFE044610B105243470A3E701F064FFD8
:10379000594F054601F060FF431BB3F57A7F30D3E4
:1037A00004233370002C95D1544F072401F060F8A6
:1037B00001F052FF814601203C70FEF77FFF054675
:1037C000002887D101F01EFFB0EE408ADFED4C8A61
:1037D0009FED4C9AB4EEE88AF1EE10FA65D5FFF74A
:1037E00041FF044600287FF475AF01F035FF43F632
:1037F0009723A0EB090098420BD90924FFF720FF7B
:1038000068E73B781BB9142004F0C6FFC2E74446C2
:10381000C6E701F0F7FE032DB0EE408A40D8FEF770
:1038200077FF00283CD001F017FF8246FFF708FF22
:1038300080BBFFF72FFF044650B9022344F62062F5
:10384000012104203370FEF773FE58B10524347053
:1038500001F002FF002C7FF43DAFA9EB0A0A0AEB4E
:103860000009B7E7284800F0E3F8042816D098B913
:10387000042301353370EDB21F4B1B7803F0FF04B6
:1038800063B9042DE4D00120FEF718FF041E18BF11
:103890000724DDE70324DBE70624D9E74446D7E71E
:1038A000B4EEE88AF1EE10FA0FDBFFF7C9FE00284C
:1038B0007FF45AAFFFF7EEFE044600287FF40AAF0C
:1038C00000F0D6FF04233B7004E7B0EE491ADFEDA9
:1038D000070A9FED0E0A00F0C8FF10B1FFF7B0FE17
:1038E00042E7142004F058FF74E700BF0000000016
:1038F000000C024020070020550800205608002038
:103900000000B0430000444231360008000078C295
:1039100038B50E4D0E4C2B78012B04D001232370AB
:103920002078C0B238BD4FF4A0630022642100F0BB
:1039300045FC003818BF012040002070237813B9DF
:1039400002232B70ECE70323FBE700BFBC0700203A
:103950000700002038B5094D094C30B903232B70FE
:10396000012323702078C0B238BD00F0E1FB054B85
:103970004FF452721A6000232B70F2E7BC0700204C
:1039800007000020B807002008B500F0E3FB00386E
:10399000064B18BF0120400018701A78002A044A0C
:1039A00014BF032101211170187808BD0700002001
:1039B000BC0700200020FFF7ABBF00002DE9F84353
:1039C000184D04462B78022B06D0174B01221A7093
:1039D0001878C0B2BDE8F88301F03EFEDFF84C80F5
:1039E000074640F2DB5901F037FEC61B3CB1A04749
:1039F00028B100F0C9FB04220B4B2A70E7E7D8F886
:103A000000309E4204D3012300222B70064BDEE7D8
:103A10004E4503D900F0B8FB0322EDE70A2004F07D
:103A2000BBFEE0E7BC07002007000020B80700202D
:103A300010B50446FFF7BEFF20B92046BDE8104090
:103A4000FFF7BCBF10BD10B504460120FFF760FFB3
:103A500020B92046BDE81040FFF7B0BF10BD000000
:103A600008B500F091FB0038064B18BF012040005C
:103A700018701A78002A044A14BF0321012111701A
:103A8000187808BD07000020BC070020024B1878FA
:103A9000431E584258417047BC07002004289ABF73
:103AA000024B53F820000248704700BFECDE0008CC
:103AB00093D7000804289ABF024B53F8200002480D
:103AC000704700BFD8DE000893D70008024B187873
:103AD000003818BF012070475508002038B5114A3A
:103AE0000023114C1370114D237003232B70FFF72B
:103AF00031FF10B9FFF748FF28B104280BD0032885
:103B00000CBF0520042028702B7833B105232370C7
:103B10002878C0B238BD0220F5E7C82004F03CFE8A
:103B20000123F4E7BE070020BD07002008000020A5
:103B3000F8B5224D224C2B78012B0BD02B78032B80
:103B400008D02B78042B14BF032301232370207883
:103B5000C0B2F8BD1B4E3378052B03D904232B705C
:103B60000123F3E7FFF7B2FF18B106232B700223FE
:103B7000ECE7022714482F70FFF75AFF28B10428FA
:103B800011D003280CBF052004202070237863B9CE
:103B900033780133DBB233703378052B94BF0323C2
:103BA00004232B70D3E73846EFE72378022B01D1AB
:103BB0000623F6E7FFF754FF0523F2E7BD070020D1
:103BC00008000020BE070020CD3A0008044B1A78F8
:103BD000012AD0B203D01878C31E5842584170470A
:103BE000BD070020054B1A78052A04D81878C0F1C3
:103BF0000600C0B270470020704700BFBE0700201B
:103C000006289ABF024B53F820000248704700BFB5
:103C100000DF000893D70008024B1878003818BF5F
:103C2000012070475508002038B50446FFF7F4FF1F
:103C300060B9094D022344F62062012120462B7011
:103C4000FEF776FC18B1052306202B7038BDBDE8C1
:103C50003840FFF7E1BF00BF2007002008B5FFF79D
:103C6000DBFF08B1012008BD0448FFF7ECFE042883
:103C7000F8D0002818BF0720F5E700BF193C00085E
:103C800010B50246FFF7C8FF08B1012010BDDFEDF7
:103C90000D1A10469FED0C1AF0EE610A01F088F93A
:103CA000044600F09BFE0028EFD1E12C05D0E42C67
:103CB00005D0042C18BF0520E8E70220E6E7032022
:103CC000E4E700BF000000000000E1430023024AD7
:103CD0001370024A13707047C0070020BF0700200E
:103CE000F8B500237F4E804D337001239FED7F0A8E
:103CF0002B7001F061F90446074600F06FFE0028C2
:103D000040F0DD80E12C00F0C580E42C00F0CF8095
:103D1000042C40F0CE8002232B70FFF77DFF00289B
:103D200040F0CD80FFF78AF8012800F0C880042811
:103D300000F0B080002840F0AE8003239FED6C0AB5
:103D400032202B70FFF79CFF0446002840F0B5801E
:103D50009FED660AC8202F70FFF792FF04460028E7
:103D600040F0AB800D20FFF75FFF0446002840F0D5
:103D7000A4800E20FFF758FF0446002840F09D80E5
:103D8000FFF76CFF0446002840F0978005239FED65
:103D9000570AC8202B70FFF773FF0446002840F035
:103DA0008C800E20FFF740FF0446002840F08580FD
:103DB0000D20FFF739FF044600287ED1FFF74EFFA4
:103DC0000446002879D106239FED480AC8202B70AD
:103DD000FFF756FF044600286FD10E20FFF724FF9F
:103DE0000446002869D10D20FFF71EFF0446002875
:103DF00063D1FFF733FF044600285ED107230F206D
:103E00002B70FFF711FF0446002856D10D20FFF755
:103E10000BFF0446002850D1FFF720FF044600287E
:103E20004BD108239FED330AC8202B70FFF728FFE2
:103E30000446002841D10F20FFF7F6FE0446E0BB00
:103E40000D20FFF7F1FE0446B8BBFFF707FF04465D
:103E500098BB09239FED270AC8202B70FFF710FF9E
:103E6000044650BB0F20FFF7DFFE044628BB0D20A1
:103E7000FFF7DAFE044600BBFFF7F0FE01281ED074
:103E8000C8B90A2204212A701B4A30701170307898
:103E9000C0B2F8BD02249FED171AF0EE410AB0EE51
:103EA000410A00F0E2FC0C232B70347018E003246C
:103EB000F1E70524EFE70724EDE7012CEBD19FEDB7
:103EC0000D1AF0EE410AB0EE410A00F0CEFCFFF709
:103ED000C7FD094B04221A700B232B70012333708A
:103EE0003078D5E7BF070020C0070020000034432A
:103EF0000000B44200000000200700200F4B70B506
:103F00000446186815460E4E18B901243470204630
:103F100070BD0A466423214603F055F8044630700C
:103F200038B9084A13680133136015B101F094FBE6
:103F30002860022001F096FBE9E700BFD0070020CF
:103F4000C8070020CC070020F32307B58DF8013007
:103F500040F2AB1300220621ADF8023046F60133E1
:103F60008DF800006846ADF80430FFF7C7FF03B0D6
:103F70005DF804FB93B2002AB8BF5B4207B5B8BF37
:103F80009BB241F2F812B8BF81F001018DF8000038
:103F9000934268468DF802104FF0080128BF13467F
:103FA000F6228DF801201A0A8DF8043046F6013306
:103FB0008DF803200022ADF806308DF80520FFF7BC
:103FC0009DFF03B05DF804FB08B5064B064A186078
:103FD00000231360054A137001F03EFB044B186088
:103FE00008BD00BFD0070020CC070020C807002074
:103FF000C4070020F7B50220FFF7A6FF0646012000
:10400000FFF7A2FF07460320FFF79EFF3E4305464A
:104010000420FFF799FF044635430421074B002293
:104020002C430DEB01000193FFF768FF2043C0B262
:10403000003818BF012003B0F0BD00BF00FF666B61
:1040400007B5074A052110681279009068468DF877
:104050000420044AFFF752FF03B05DF804FB00BFE1
:1040600080D30008C407002013B5044610B901200E
:1040700002B010BDB0F9002001210220FFF77AFF45
:1040800001460028F3D1B4F902200120FFF772FFA6
:104090000028ECD10121B4F904200320FFF76AFFC6
:1040A00001460028E3D1B4F906200420FFF762FF9F
:1040B0000028DCD10421044B044A0DEB01000193DC
:1040C000FFF71CFFD4E700BF00FF666BC4070020AA
:1040D00038B50D4B04460A460C4D186818B9012432
:1040E0002C70204638BD2146642302F06CFF044644
:1040F00028700028F5D1064A0220136801331360A6
:1041000001F0B0FAEDE700BFD80700200900002059
:10411000D407002007B50421044B0DEB01000193E7
:10412000FFF7D6FF03B05DF804FB00BF00FF666B2E
:10413000054B00221860B0FA80F0044B40091A6069
:10414000034B1870704700BFD8070020D407002029
:10415000090000200A4B07B5186806219B880090CB
:104160006846ADF80430FFF7B3FF28B1054B187867
:10417000C0B203B05DF804FBFFF7CCFFF9E700BF66
:1041800016DA00080900002007B50A4A0521106860
:104190001279009068468DF80420FFF799FF28B146
:1041A000054B1878C0B203B05DF804FBFFF7B2FF0F
:1041B000F9E700BF1DDA00080900002001281FB53B
:1041C00001D801B12BB91A4B012201201A7004B099
:1041D00010BD0A246143B1F5803FF4D28DF805206B
:1041E0001A0E8DF80200080A8DF806201A0C5BBA28
:1041F0004FF605548DF803006846ADF808304FF4CB
:1042000080738DF804100D21ADF80A306B23ADF8E2
:1042100000408DF807208DF80C30FFF759FF18B1DA
:10422000034B1878C0B2D2E7FFF774FFCFE700BFA7
:104230000900002098B170EE607A30EE200A37EE67
:10424000C17A77EE817A80ED007A30EE017A30EE35
:10425000410AC0ED037A80ED017A80ED020A7047D1
:10426000F0EE404A002861D0B5EEC00AF1EE10FA37
:104270005CD990ED006AD0ED016AB5EEC06AF1EE4E
:1042800010FAF5EEC06A4CBFB1EE467AB0EE467A4F
:10429000F1EE10FA4CBFF1EE667AF0EE667AB4EE0B
:1042A000E77AF1EE10FA54BFF0EE475AF0EE675A93
:1042B00090ED027AB5EEC07AF1EE10FA4CBFF1EE55
:1042C000477AF0EE477AF4EEE75AF1EE10FA54BF6F
:1042D000B0EE655AB0EE675AD0ED037AF5EEC07ACB
:1042E000F1EE10FA4CBFF1EE675AF0EE675AB4EEF9
:1042F000E55AF1EE10FA58BFF0EE455AB4EEE50A71
:10430000F1EE10FA12D584EEA50A26EE006A66EEEA
:10431000806A27EE007A67EE807A80ED006AC0ED51
:10432000016A80ED027AC0ED037A7047B7EE000AA9
:1043300070470000134B1B7813B3134B134A93EDD4
:10434000006A134B1349D3ED007A134BD1ED006A89
:1043500093ED007A114BD3ED005A136867EEA57AFE
:104360001060C31A46EE077A9FED0D7A67EE877AE2
:1043700007EE103AB8EE477A47EE876AC1ED006A59
:10438000704700BFE00700203C080020DC07002049
:10439000380800201C080020EC070020E807002057
:1043A000FCAD803B70B505462DED068BB0EE408A26
:1043B000EFF3108672B601F025F9B0EE409AF1EEF7
:1043C000408A01F02BF9044606B962B6002D00F0D0
:1043D0008780F2EE009ADFED47AA9FED47AAB5EE7F
:1043E000C08A464AF5EE007A45491378F1EE10FA94
:1043F000444D48BFB1EE488A28EE278A002B76D07C
:104400000B689C4228D0E31A581EC7286FD807EEC5
:10441000903A3D4B9FED3D6AD3ED006AF8EEE77AA6
:1044200095ED007A78EEE66A66EE866A86EEA76A11
:1044300076EE476A9FED366A37EE866AC7EE865A91
:10444000F0EE477A46EEA57A2F4BC5ED007AC3ED24
:10445000008A01230C60137001F0FEF8001BB5EE1A
:10446000C09ADFED2C7AC828DFED2B6A84BF0023C9
:104470002B60F1EE10FA39FE289AB4EE679ADFED60
:10448000277AF1EE10FAB4EEE98A98BFF0EE678A67
:10449000D5ED007AF1EE10FAB0EE687A54BFB0EEC6
:1044A000690AB0EE480A07EEA67A67EEAA7A47EEE6
:1044B0000A7AF4EEC07AF1EE10FA08DCB1EE400AA6
:1044C000F4EEC07AF1EE10FA58BFB0EE670A144B62
:1044D000C3ED008A134BBDEC068B83ED000A70BD63
:1044E000DFED11AA9FED11AADFED119A77E7DFED5D
:1044F0000B7AA9E79A99593F33333340F0070020EC
:10450000F4070020F8070020FC07002000007A4490
:10451000000020429A99193ECDCC4C3D000000008D
:10452000500800204C0800200AD7A33DCDCCEC3F1A
:104530006666A640B5EE400A30B5F1EE10FA87B0D7
:10454000054635D1F5EE400AF1EE10FA30D1B5EE60
:10455000401AF1EE10FA2BD1FFF772FD044600BBB2
:104560007F4B1868FFF7E6FE00237E4A13607E4A01
:1045700013607E4A13607E4A13607E4A13607E4A4F
:1045800013607E4A13607E4A13607E4A13607E4A3F
:1045900013604FF07E537D4A13603DB9204607B04B
:1045A00030BDFFF74DFD0028DAD0F7E72B60F5E7C7
:1045B000774B93ED007A774BB5EEC07AD3ED007A66
:1045C000F1EE10FAF5EEC07A48BFB1EE477AF1EE9F
:1045D00010FA48BFF1EE677AB4EEE77AF1EE10FA1E
:1045E00013D5D3ED007A9FED6C7AF5EEC07AF1EE3B
:1045F00010FA48BFF1EE677AF4EEC77AF1EE10FADE
:10460000C4BFDFED667A21EE271A02A8B1EE411A87
:10461000FFF710FE9FED620A02A8002D00F09C80BB
:10462000FFF71EFE85ED000AB2EE045A9DED026A08
:10463000504BF6EE005ADDED036A684683ED006AE2
:1046400026EE056A4A4B9DED047AB5EEC06AC3EDCD
:10465000006A66EE856A494BDDED057AF1EE10FAE7
:1046600083ED007AF5EEC06A434B27EE057AA8BFCA
:1046700036EE256AC3ED007AB8BF36EE656A67EE9E
:10468000857AF1EE10FAB5EEC07ABDEEC66AACBF1F
:1046900076EEA56A76EEE56AF1EE10FA16EE103ABD
:1046A000F5EEC07AFDEEE66AADF80030ACBF37EE4D
:1046B000257A37EE657AF1EE10FA16EE903ABDEEF5
:1046C000C77AADF80230ACBF77EEA57A77EEE57A1F
:1046D00017EE103AFDEEE77AADF8043017EE903A97
:1046E000ADF80630FFF7C0FC044600287FF456AF53
:1046F0001B4B1868FFF71EFEBDF90050BDF90230D4
:10470000BDF90400EA18BDF906109FED267A5B1B7F
:1047100002440A4407EE902A144AF8EEE77AC7EEFC
:10472000876AC2ED006AC2181B1A521A0B4407EEC0
:10473000902A0D4AF8EEE77AC7EE876A07EE903ABC
:10474000084BF8EEE77AC2ED006ADFED176A87EEF4
:10475000A67A83ED007A21E7FFF782FD64E700BFC8
:10476000C4070020E4070020E8070020EC07002031
:10477000280800202C080020200800202408002001
:1047800030080020340800204C0800200C000020D5
:104790003C0800203808002017B7D1383333333FA6
:1047A0000000E64300002042000020C2144B10B578
:1047B0002DED028B1A7802F0FF0092B19FED118A65
:1047C0000020114CB0EE481A1870F0EE480AB0EE16
:1047D000480AFFF7AFFE38B1FFF732FCE2230220B0
:1047E0002370BDEC028B10BD084B01201870042310
:1047F0002370074B83ED008A064B83ED008AF0E7B8
:104800005508002000000000560800205408002031
:10481000340800203008002010B52DED028B9FEDEC
:104820000D8A04460020B0EE481AF0EE480AB0EEB9
:10483000480AFFF77FFEFFF703FC074B074A1C708F
:1048400082ED008A064A82ED008A1878BDEC028B60
:1048500010BD00BF000000005608002034080020F2
:10486000300800200020FFF79DBD0020FFF762BE4A
:1048700008B500F0AFFE0023054A00211360054A89
:104880001360054A1170054A1360054A136008BD9C
:10489000FC070020F8070020F00700205008002047
:1048A0004C08002070B5254B002500240E461D70D5
:1048B000234B1C60234B1C60234B1C60FFF784FBC5
:1048C000304600F019FD214B4FF07E521C60204B0A
:1048D0001C60204B1D70204B1C60204B1C60204B2B
:1048E0001D70204B1D60204B1C60204B1C60204B1A
:1048F0001C60204B1C60204B1C60204B1C60204B1C
:104900001C60204B1C60204B1C60204B1A60204B0D
:104910001C60204B1C60204B1C60204B1C60204BFB
:104920001C60204B1C60204B1D70204B1D60204BD9
:104930001D70204B1D70204B1D7070BDE0070020C6
:10494000EC070020E8070020E4070020FC07002017
:10495000F8070020F0070020500800204C08002035
:104960004808002044080020400800203C0800209F
:104970003808002034080020300800202C080020CF
:104980002808002024080020200800200C00002017
:104990001C0800201808002014080020100800201F
:1049A0000C0800200808002004080020000800204F
:1049B000560800205508002054080020014B012211
:1049C0001A707047550800200023024A1370024AEB
:1049D000137070475508002054080020014B1878C8
:1049E000704700BF540800202DE9F04F2DED108BCB
:1049F00085B0F0EE609AB0EE41BA08EE900AB0EEE3
:104A0000619A154601910AB100231370DFEDCB7A4C
:104A1000CB4CB4EEE70AF1EE10FA2FDBDFEDC9DA8A
:104A2000B4EEED0AF1EE10FA28D89FEDC7CA20EED9
:104A30000C0A80EE2DAAB0EE4A0A07F09FFCB0EEF9
:104A4000408AB0EE4A0A07F0D1FCF8EE687A9FED92
:104A5000BF7A60EE27BA28EE278A6BEE87BA28EE77
:104A6000078A2BEEAB0A08EE080A07F065FCB5EEE4
:104A7000C00AF0EE40AAF1EE10FA09D8E323237041
:104A80002078C4B2204605B0BDEC108BBDE8F08F95
:104A900088EE00AACBEE808ADFEDADBAB5EEC0AAF3
:104AA000F1EE10FA4CBFF1EE4ACAF0EE4ACAF4EE4B
:104AB000EBCAF1EE10FA52DDF5EEC08AF1EE10FA13
:104AC0004CBFF1EE687AF0EE687AF4EEEB7AF1EE34
:104AD00010FACCBF06230523F5EEC0AAB7EE00DA24
:104AE000F1EE10FA8DED02DA36DD68EEA87A4AEEC4
:104AF0000A7AF4EEEB7AF1EE10FA2DD9F5EEC09ABF
:104B0000F1EE10FA28DBDFED937AB4EEE7BAF1EEBE
:104B100010FA21DBDFED907AB4EEE7BAF1EE10FA8D
:104B20001AD8DFED8E7AF4EEE79AF1EE10FA13D888
:104B3000B4EEE79AF1EE10FA0ED8B5EEC09AF1EEA7
:104B400010FA09DBF4EECB9AF1EE10FA04DCB4EEC5
:104B5000C9BAF1EE10FA04D5E323237051E005231E
:104B6000BAE77F4AF0EE4A0AB0EE680A237092ED87
:104B7000008A07F0DFFB20EE2D0A7A4BDFF824A233
:104B8000F3EE04EA784AC0EE0C7ADFF81C82774E26
:104B9000774FDFED78DAB1EE68CAB0EE6EEAC3EDBA
:104BA000007A754B8AED00AAC3ED008A0023C8ED98
:104BB000009AC6ED009A87ED00DA13606F4BC3EDE3
:104BC00000AA00F049FDF5EEC08A6D4B6D4A8346A0
:104BD00018608146F1EE10FA4FF00103137058BFD0
:104BE000B0EE68CA00F038FDA0EB0B0300900FEEAA
:104BF000903A8DED03DAFFF79DFBFFF7D7FD834673
:104C000010B12078C4B28EE0019BDBB19847C8B1E7
:104C10009FED5D8A5846B0EE481AF0EE480AB0EEB5
:104C2000480AFFF787FC40B1FFF70AFAE223237036
:104C300088ED008A86ED008AE3E70DB101232B7031
:104C40000423F4E7484BF6EE007A93ED007A3AEE4F
:104C5000C77AB4EEE77AF1EE10FA40F25081F2EE44
:104C6000047ADFED4A6A29EE090AF4EEE7EAF1EE8A
:104C700010FAB4EEEB9A7EFEA77A77EEAEEAF1EE8A
:104C800010FAC7EE267A0ED89FED417AF0EE476A09
:104C90004EEE8E6AF4EEE67AF1EE10FA4BDD77EE28
:104CA000C77A9FED3C0A9FED3CFA2FEE0F7ADFF8B2
:104CB000FCB027EE2E7A07EE2E0A3FEE0F7A07EEB3
:104CC000270A07F039FB0EEECF0AF8EE6FEA9FEDE8
:104CD000337A9BF800302EEE877AB4EEC09AC7EE96
:104CE0002D7AF1EE10FA39FE000A77EEA97AB4EEC9
:104CF000E7BAF1EE10FA48BFF0EE4B7AB4EEE70AED
:104D0000F1EE10FA54BFF0EE679AF0EE409A002BE5
:104D100050D04FF4FA7000F033FC00284AD1E12063
:104D2000FFF77AFD044600F097FCFFF703FB002332
:104D3000144A1370A6E69FED1AFAB6E7000034C3D2
:104D40005608002000003443DA0F4940B81E853F62
:104D500017B7D138CDCCCC3DFFFF7F7F0000E643B5
:104D6000E4070020400800201C0800203008002034
:104D70000C00002000007A443808002018080020A9
:104D8000DC070020E007002000000000FCAD803BB5
:104D900000409C450000C8438FC2F53D000016440A
:104DA0000AD7233D3C080020340800204808002092
:104DB0000000F0429BF80030002B53D0F4EECCCA38
:104DC000B0EE690AF1EE10FA4CBF01200020FFF7A7
:104DD000E9FA60EE087AF5EEC07AF1EE10FA55D9EC
:104DE000B5EEC00AF1EE10FAB5EEC08A4CBFF1EE96
:104DF000407AF0EE407AF1EE10FA4CBFB1EE487A0C
:104E0000B0EE487AB4EE677AF1EE10FA30FE088A16
:104E1000B4EEC80A5FED1A7A6EEEA7EAF1EE10FA68
:104E2000CEEEAD7A35DD77EE887AB4EEE70AF1EEB4
:104E300010FA37FE800AB5EE008A564B29EE888AB2
:104E4000B4EEC08AF1EE10FA48BFB0EE480AB1EEF7
:104E5000488AB4EEC80AF1EE10FA58BFB0EE408AA4
:104E600083ED008A00F0F8FB4B4B9AED000A834675
:104E7000D3ED000AB0EE481A29EE800A03A869EEC5
:104E8000A00AFFF757FB70B1E22049E79FED438A84
:104E9000BEE778EE677AB4EEE70AF1EE10FA48BFA3
:104EA000B0EE670AC7E700F0D7FB039BC8ED009A96
:104EB000A0EB0B003B6009F10A09394B07EE900AA1
:104EC00093ED007AF8EE67EA364BD3ED007A68EEA0
:104ED000A77A4AEE077AC6ED007A00F0BDFB0346DA
:104EE000A9EB0000002804DD00F0BCFBDDF800B0F9
:104EF00078E62D4999460A6801320A60F6E7FFF71D
:104F000055FC00287FF47DAEB4EEEB9AF1EE10FA7A
:104F10000BD89FED221AF0EE410AB0EE410AFFF7DE
:104F200009FB0028B0D1042317E6204D2B7833B1BC
:104F30004FF4FA7000F024FB00283FF4F0AE2B7819
:104F400023B3B0EE490AFFF78DFCB0EE401A124BC6
:104F500002A89AED000AD3ED000A29EE000A69EED4
:104F6000200AFFF7E7FA00288ED1029B88ED009A0D
:104F70003B600B4BD3ED007A0A4B93ED007A68EE61
:104F8000878A4AEE278AC6ED008A3AE69FED031A21
:104F9000DDE700BF4C0800203808002000000000BA
:104FA000EC070020E8070020440800204808002003
:104FB00000221146FFF718BDB5EEC00A2DE9F04FEB
:104FC000F1EE10FA9F4D2DED048BF0EE408A85B086
:104FD0000CD408D9F0EE407A9FED9B7AF4EEC77AB4
:104FE000F1EE10FA05DDE3232B7052E0F1EE407A8A
:104FF000F2E74FF4FA7000F0C3FA08B9E123F3E7DF
:1050000007239FED928ADFF874922B700023DFF85C
:105010007082DFF870A28E4C8E4F8F4EC9ED008AE1
:1050200088ED008ACAED008A84ED008A3B70336007
:10503000FFF71EFC894B4FF07E529FED899A83ED5E
:10504000008A884BDFED888A83ED008A874B1A60DF
:1050500000F002FB8346019000F0FEFA4FF07E5311
:105060000393019BC01A3060FFF7A0FBC0B14FF45F
:10507000FA7000F085FA08B1FFF7FAFB002389ED1A
:10508000008A88ED008A8AED008A84ED008A3B70F0
:1050900033602878C0B205B0BDEC048BBDE8F08F5A
:1050A0004FF4FA7000F06CFA48B9E12084ED008A00
:1050B00005B0BDEC048BBDE8F04FFFF7ADBB326827
:1050C00042F20F739A4206D9E42084ED008AFFF77A
:1050D000A3FB2870CBE700F095FA88ED000AD9ED24
:1050E000006AD8ED007A76EEE76AF5EEC06ACAED9E
:1050F000006AF1EE10FA4CBFB1EE667AB0EE667A55
:10510000B4EEC97AF1EE10FA29D89FED501A03A82F
:1051100084ED008AF0EE410AB0EE410AFFF70AFA88
:1051200008B1E220C4E7039A504B1A60494A137849
:105130000133DBB213701378042B71D90190FFF7A0
:1051400097FB01980423434A89ED008A88ED008A81
:105150008AED008A84ED008A1070306044E7F3EE37
:105160000E7A00233B70B4EEE77AF1EE10FA4EDAD5
:10517000B2EE046AF1EE047AB4EEC67AF1EE10FAF9
:10518000A5BF37EE467AF3EE045AC7EE065A87EE0D
:10519000256AAABF9FED367A65EEA77A46EE077AB2
:1051A0003368F92B36D896ED006ADFED325AB8EE47
:1051B000466A86EE257A27EE287AF4EEC77AB3EEB1
:1051C000006AF1EE10FAB4EEC67A77FE277AF1EEB5
:1051D00010FA06DBF4EEC67AF1EE10FA48BFF0EEF4
:1051E000467AF5EEC06ADFED190A03A8B0EE600A50
:1051F000F1EE10FAD8BFF1EE677AC4ED007A94EDC3
:10520000001AFFF797F940B184ED008A89E7F0EEC4
:10521000687AC5E7B0EE687ACFE7039A134B1A6055
:105220000BF10A0B00F018FA0346ABEB0000002864
:1052300002DD00F017FA0FE70F499B460A680132BA
:105240000A6009E7560800200000B443000000008F
:10525000080800200408002000080020340800206E
:10526000CDCC4C3F300800200000C8420C0000208C
:105270000000BE4200007A434408002014080020C9
:10528000100800200C08002038B54FF4FA60154CC7
:1052900000F088F930B9D0232370FEF7D1FE2078D2
:1052A000C0B238BD104D01232B70FEF7A3FE10B124
:1052B000E2232370F3E74FF4FA7000F0D3F92B7870
:1052C00003F0FF022BB1FFF7D3FA642000F0CAF914
:1052D000E5E7002305490B6005490B60054B1A7093
:1052E000F3E700BF5608002048080020FC07002014
:1052F000F8070020F00700200023174A174910B4D0
:105300001370174A08601370EFF3108072B6002212
:10531000144C2260144C2260144C2260144C226005
:10532000144C2260144A1370144A1370144A136008
:10533000144A1360144A1360144A136000B962B629
:10534000086828B1012212495DF8044B01F046BFFC
:105350005DF8044B704700BF8508002094080020CA
:1053600084080020780800207408002070080020BD
:105370006C080020800800207C08002068080020BD
:1053800064080020600800205C0800205808002005
:10539000910800200C4B1B6810B48BB183420FD1D5
:1053A00000220A4908240A7009490A7019680C6227
:1053B000C3F88420012207495DF8044B01F00EBFB9
:1053C0005DF8044B704700BF94080020850800205A
:1053D00084080020910800204C4A136870B50133FE
:1053E0004B4D13602B7843B9552805D1494B4A4A98
:1053F0001870012313702B7070BD012B464C0CD11B
:10540000532804D1434B587002232370F3E75528E7
:1054100052D1404A10702370EEE721783D4B4A1C70
:105420005854D2B20A2A2270E6D918460A2100221C
:1054300010F8016B0139324411F0FF01D2B2F7D1FB
:10544000997A91425FD1B3F904209FED346A07EE57
:10545000902AB3F90620B3F9023007EE102AF8EECD
:10546000E77A06EE903A2E4BB8EEC77A2D49F8EE61
:10547000E66A2D4A67EE867A087827EE067A66EEA7
:10548000866AC3ED006A294BC3ED007A284B83ED91
:10549000007A284B98B983ED007A0023136001232A
:1054A0000B70254B01221A7000F0D6F8234B244ACA
:1054B000186013680133136000232B70ABE7D3ED42
:1054C000007ADFED206A77EE677AF4EEE67AF1EEA5
:1054D00010FA0CDDDFED1C6A77EEE67AD2ED006A99
:1054E00083ED007A76EEA77AC2ED007AD9E7DFED98
:1054F000176AF4EEE67AF1EE10FA44BFDFED126AB5
:1055000077EEA67AEAE7124AD3E700BF5C080020EC
:105510008508002086080020840800200000B43B95
:10552000780800207C0800206C0800207408002007
:10553000700800208008002068080020640800200F
:1055400060080020000034430000B443000034C36E
:105550005808002038B5084C236863B183420AD14B
:10556000064D2878FFF738FF294620680122BDE85C
:10557000384001F033BE38BD940800209108002067
:1055800038B5074B05461C683CB100F065F8001BB8
:10559000A8428CBF0020012038BD2046FCE700BF98
:1055A0006408002070B50446094E00F055F8054621
:1055B00000F052F8431BA34201D3002070BD3368B2
:1055C0001BB9052000F04EF8F2E70120F6E700BF16
:1055D00064080020EFF3108372B6064A1168064A89
:1055E00011600021054A11600121054A117003B9BB
:1055F00062B6704770080020800800206C08002008
:105600007C080020EFF3108372B6034A92ED000A83
:1056100003B962B6704700BF6C080020014B1868E0
:10562000704700BF6408002008B5032000F02CF884
:105630000F20FBF7C7FFFBF7A7FF002008BD000006
:10564000034A044B11681B780B441360704700BF7A
:105650009808002010000020014B1868704700BF18
:105660009808002038B50446FFF7F6FF0546631C8E
:105670001EBF044B1B78E418FFF7EEFF431BA34249
:10568000FAD338BD1000002007490302CA6803F4AA
:10569000E06322F4E0621204120C134343F0BF6390
:1056A00043F40033CB60704700ED00E0164B30B59B
:1056B000DC68C4F30224C4F10703251D042B28BFB2
:1056C0000423062D4FF0FF358CBF033C002405FA60
:1056D00003F3002805FA04F521EA030322EA050290
:1056E00003FA04F343EA02034FEA0313DBB206DBD7
:1056F00000F1604000F5614080F8003330BD00F0FB
:105700000F00024A1354F9E700ED00E014ED00E049
:10571000002807DB4109012300F01F00024A8340F3
:1057200042F82130704700BF00E100E0BFF35F8F17
:10573000044B5A6A22F480325A620022C3F8942041
:10574000704700BF00ED00E0064B40F00100C3F8D9
:1057500094005A6A42F480325A62BFF34F8FBFF30B
:105760006F8F704700ED00E04378144AC2F898301C
:10577000D2F8A03023F00103C2F8A0304368C2F889
:105780009C30C37A017B1B0643EA017301780B430B
:10579000817A43EAC143417B43EA8143817B43EA07
:1057A0004143C17B43EA0143417A43EA0123017A41
:1057B00043EA4103C2F8A030704700BF00ED00E0AB
:1057C00070B50446866DFFF747FF054694F83530FF
:1057D000022B06D0802301206365002384F8343037
:1057E00070BD23681A6822F016021A605A6922F006
:1057F00080025A61226C0AB9A26C1AB11A6822F0AE
:1058000008021A601A6822F001021A6023681868F8
:1058100010F0010007D1E26D3F239340B3600123F4
:1058200084F83530D9E7FFF717FF401B0528EDD97D
:1058300020230320636584F83500CEE790F83530E7
:10584000022B03D0802343650120704702680523A3
:1058500080F835300020136823F00103136070478F
:105860002DE9F74F0023DFF8BC916C4A01240D6845
:105870009C4004EA0506AC4340F0B7804D6803271E
:105880004FEA430E05F0030407FA0EFC671E6FEAA9
:105890000C0C012F34D8876807EA0C08CF6807FA88
:1058A0000EF747EA08078760476827EA0608C5F346
:1058B00000179F4047EA08074760C768022C07EABD
:1058C0000C088F6807FA0EF747EA0807C76019D176
:1058D0004FEAD30803F0070A4FF00F0B00EB8808DC
:1058E0004FEA8A0AD8F820700BFA0AFB27EA0B0B5A
:1058F0000F6907FA0AF747EA0B07C8F8207001E0BA
:10590000032CDAD1076804FA0EF415F4403F07EAD5
:105910000C0744EA0704046067D0D9F8444023F038
:10592000030703F0030C4FF00F0E44F4804407F11B
:1059300080474FEA8C0CC9F8444007F59C37D9F8EA
:1059400044400EFA0CFE04F480440194019CBC68AF
:1059500024EA0E0E324CA0424ED004F58064A042E0
:105960004CD004F58064A0424AD004F58064A04283
:1059700048D004F58064A04246D004F58064A0427B
:1059800044D004F58064A04242D004F58064A04273
:1059900040D004F58064A0423ED004F58064A0426B
:1059A00014BF0A24092404FA0CF415F4801F44EAF5
:1059B0000E04BC606FEA060794680CBF3C40344399
:1059C00015F4001F9460D4680CBF3C40344315F4B8
:1059D000003FD46054680CBF3C403443ED03546036
:1059E000146854BF3C40344314600133102B7FF4DF
:1059F0003DAF03B0BDE8F08F0024D4E70124D2E727
:105A00000224D0E70324CEE70424CCE70524CAE728
:105A10000624C8E70724C6E70824C4E7003C014081
:105A2000000002400038024000690840003818BFFA
:105A300001207047194B37B51A6C194C42F080524F
:105A40001A641B6C03F080530193019B236843F499
:105A500080332360FFF700FE05466368DA030CD548
:105A600023680F4D43F400332360FFF7F5FD044630
:105A70006B689B030AD5002006E0FFF7EDFD401B95
:105A8000B0F57A7FE9D9032003B030BDFFF7E4FD1C
:105A9000001BB0F57A7FEBD9F5E700BF0038024074
:105AA000007000402DE9F341044640B30368DE076F
:105AB00010D423689D0761D42368190700F1A680DC
:105AC00023685A0700F1C780A269002A40F030819C
:105AD00000202CE0944B9A6802F00C02042A07D0B4
