:020000040800F2
:10000000000005200D0D00086516000867160008A1
:10001000691600086B1600086D1600080000000045
:100020000000000000000000000000001172000845
:100030006F16000800000000B17200081573000878
:100040005D0D00085D0D00085D0D00085D0D0008E8
:100050005D0D00085D0D00085D0D00085D0D0008D8
:100060005D0D00085D0D00085D0D00085D0D0008C8
:100070005D0D00085D0D00085D0D00085D0D0008B8
:100080005D0D00085D0D00085D0D00085D0D0008A8
:100090005D0D00085D0D00085D0D00085D0D000898
:1000A0005D0D00085D0D00085D0D00085D0D000888
:1000B0005D0D00085D0D00085D0D00085D0D000878
:1000C0005D0D00085D0D00085D0D00085D0D000868
:1000D0005D0D00085D0D0008711600085D0D00083B
:1000E0005D0D00085D0D00085D0D00085D0D000848
:1000F0005D0D00085D0D00085D0D00085D0D000838
:100100005D0D00085D0D00085D0D00085D0D000827
:100110007D16000889160008A11600085D0D00086C
:100120005D0D00085D0D00085D0D00085D0D000807
:100130005D0D00085D0D00085D0D00085D0D0008F7
:100140005D0D00085D0D00085D0D00085D0D0008E7
:100150005D0D00085D0D00085D0D00085D0D0008D7
:100160005D0D00085D0D00085D0D00085D0D0008C7
:100170005D0D00085D0D00085D0D00085D0D0008B7
:100180005D0D00085D0D0008951600085D0D000866
:100190005D0D00085D0D00085D0D00085D0D000897
:1001A0005D0D00085D0D00085D0D00085D0D000887
:1001B0005D0D00085D0D00085D0D00085D0D000877
:0801C0005D0D00085D0D000853
:1001D00081F0004102E000BF83F0004330B54FEAF8
:1001E00041044FEA430594EA050F08BF90EA020F65
:1001F0001FBF54EA000C55EA020C7FEA645C7FEAF8
:10020000655C00F0E2804FEA5454D4EB5555B8BF1A
:100210006D420CDD2C4480EA020281EA030382EA8B
:10022000000083EA010180EA020281EA0303362D1D
:1002300088BF30BD11F0004F4FEA01314FF4801CF0
:100240004CEA113102D0404261EB410113F0004F02
:100250004FEA03334CEA133302D0524263EB4303B9
:1002600094EA050F00F0A780A4F10104D5F1200E57
:100270000DDB02FA0EFC22FA05F2801841F10001B2
:1002800003FA0EF2801843FA05F359410EE0A5F186
:1002900020050EF1200E012A03FA0EFC28BF4CF0B7
:1002A000020C43FA05F3C01851EBE37101F000456D
:1002B00007D54FF0000EDCF1000C7EEB00006EEB7A
:1002C0000101B1F5801F1BD3B1F5001F0CD3490804
:1002D0005FEA30004FEA3C0C04F101044FEA44525B
:1002E00012F5800F80F09A80BCF1004F08BF5FEAE2
:1002F000500C50F1000041EB045141EA050130BDC2
:100300005FEA4C0C404141EB0101013C28BFB1F5D3
:10031000801FE9D291F0000F04BF01460020B1FA1E
:1003200081F308BF2033A3F10B03B3F120020CDAF1
:100330000C3208DD02F1140CC2F10C0201FA0CF0CF
:1003400021FA02F10CE002F11402D8BFC2F1200C34
:1003500001FA02F120FA0CFCDCBF41EA0C019040EA
:10036000E41AA2BF01EB0451294330BD6FEA040433
:100370001F3C1CDA0C340EDC04F11404C4F120021E
:1003800020FA04F001FA02F340EA030021FA04F330
:1003900045EA030130BDC4F10C04C4F1200220FA87
:1003A00002F001FA04F340EA0300294630BD21FAC5
:1003B00004F0294630BD94F0000F83F4801306BF8B
:1003C00081F480110134013D4EE77FEA645C18BF7F
:1003D0007FEA655C29D094EA050F08BF90EA020F16
:1003E00005D054EA000C04BF1946104630BD91EA0E
:1003F000030F1EBF0021002030BD5FEA545C05D111
:100400004000494128BF41F0004130BD14F580044F
:100410003CBF01F5801130BD01F0004545F0FE41C3
:1004200041F470014FF0000030BD7FEA645C1ABFF8
:10043000194610467FEA655C1CBF0B46024650EA2F
:10044000013406BF52EA033591EA030F41F400215B
:1004500030BD00BF90F0000F04BF0021704730B5E1
:100460004FF4806404F132044FF000054FF00001B6
:1004700050E700BF90F0000F04BF0021704730B577
:100480004FF4806404F1320410F0004548BF40424C
:100490004FF000013EE700BF42004FEAE2014FEAA1
:1004A00031014FEA02701FBF12F07F4393F07F4F7C
:1004B00081F06051704732F07F4208BF704793F07F
:1004C0007F4F04BF41F40021704730B54FF4607492
:1004D00001F0004521F000411CE700BF50EA010295
:1004E00008BF704730B54FF000050AE050EA01023E
:1004F00008BF704730B511F0004502D5404261EBAE
:1005000041014FF4806404F132045FEA915C3FF4EE
:10051000D8AE4FF003025FEADC0C18BF03325FEA8B
:10052000DC0C18BF033202EBDC02C2F1200300FA3C
:1005300003FC20FA02F001FA03FE40EA0E0021FA61
:1005400002F11444BDE600BF53B94AB9002908BFFF
:1005500000281CBF4FF0FF314FF0FF3000F00CB807
:10056000ADF1080C6DE904CE06F092FFDDF804E071
:10057000DDE9022304B07047704700BF10F8012B7B
:1005800011F8013B012A28BF9A42F7D0D01A7047D0
:10059000034613F8012B002AFBD1181A01387047C3
:1005A00001F0FF01102A2BDB10F0070F08D010F824
:1005B000013B013A8B422DD010F0070F42B3F6D128
:1005C000F0B441EA012141EA014122F007047FF041
:1005D00000070023F0E80256083C85EA010586EA98
:1005E000010685FA47F5A3FA87F586FA47F6A5FAD4
:1005F00087F68EB9EED1F0BC01F0FF0102F00702E0
:1006000032B110F8013B013A83EA010313B1F8D18A
:100610000020704701387047002D06BF354603386B
:10062000073815F0010F07D1013015F4807F02BFA4
:10063000013015F4C03F0130F0BC0138704700BFF5
:1006400070B54FF0FF0C4CF4E06C1CEA11541DBF68
:100650001CEA135594EA0C0F95EA0C0F00F0DEF833
:100660002C4481EA030621EA4C5123EA4C5350EA18
:10067000013518BF52EA033541F4801143F4801369
:1006800038D0A0FB02CE4FF00005E1FB02E506F0FA
:100690000042E0FB03E54FF00006E1FB03569CF04F
:1006A000000F18BF4EF0010EA4F1FF04B6F5007F55
:1006B00064F5407404D25FEA4E0E6D4146EB0606C7
:1006C00042EAC62141EA55514FEAC52040EA5E5050
:1006D0004FEACE2EB4F1FD0C88BFBCF5E06F1ED8FA
:1006E000BEF1004F08BF5FEA500E50F1000041EB31
:1006F000045170BD06F0004646EA010140EA0200DE
:1007000081EA0301B4EB5C04C2BFD4EB0C0541EAFF
:10071000045170BD41F480114FF0000E013C00F314
:10072000AB8014F1360FDEBF002001F0004170BD38
:10073000C4F10004203C35DA0C341BDC04F1140451
:10074000C4F1200500FA05F320FA04F001FA05F2DD
:1007500040EA020001F0004221F0004110EBD370AA
:1007600021FA04F642EB06015EEA430E08BF20EAD6
:10077000D37070BDC4F10C04C4F1200500FA04F379
:1007800020FA05F001FA04F240EA020001F000410B
:1007900010EBD37041F100015EEA430E08BF20EA7E
:1007A000D37070BDC4F1200500FA05F24EEA020EC6
:1007B00020FA04F301FA05F243EA020321FA04F0F5
:1007C00001F0004121FA04F220EA020000EBD370AC
:1007D0005EEA430E08BF20EAD37070BD94F0000FAC
:1007E0000FD101F00046400041EB010111F4801FE0
:1007F00008BF013CF7D041EA060195F0000F18BF91
:10080000704703F00046520043EB030313F4801FCC
:1008100008BF013DF7D043EA0603704794EA0C0F86
:100820000CEA135518BF95EA0C0F0CD050EA41069C
:1008300018BF52EA4306D1D181EA030101F0004119
:100840004FF0000070BD50EA410606BF1046194641
:1008500052EA430619D094EA0C0F02D150EA01364D
:1008600013D195EA0C0F05D152EA03361CBF10468E
:1008700019460AD181EA030101F0004141F0FE412D
:1008800041F470014FF0000070BD41F0FE4141F4B1
:10089000780170BD70B54FF0FF0C4CF4E06C1CEAB1
:1008A00011541DBF1CEA135594EA0C0F95EA0C0F66
:1008B00000F0A7F8A4EB050481EA030E52EA033521
:1008C0004FEA013100F088804FEA03334FF0805542
:1008D00045EA131343EA12634FEA022245EA11156F
:1008E00045EA10654FEA00260EF000419D4208BF20
:1008F000964244F1FD0404F5407402D25B084FEACD
:100900003202B61A65EB03055B084FEA32024FF478
:1009100080104FF4002CB6EB020E75EB030E22BFD5
:10092000B61A754640EA0C005B084FEA3202B6EB95
:10093000020E75EB030E22BFB61A754640EA5C0044
:100940005B084FEA3202B6EB020E75EB030E22BFD4
:10095000B61A754640EA9C005B084FEA3202B6EBD5
:10096000020E75EB030E22BFB61A754640EADC0094
:1009700055EA060E18D04FEA051545EA16754FEAF6
:1009800006164FEAC30343EA52734FEAC2025FEA14
:100990001C1CC0D111F4801F0BD141EA00014FF0A3
:1009A00000004FF0004CB6E711F4801F04BF014374
:1009B0000020B4F1FD0C88BFBCF5E06F3FF6AFAE90
:1009C000B5EB030C04BFB6EB020C5FEA500C50F120
:1009D000000041EB045170BD0EF0004E4EEA1131A3
:1009E00014EB5C04C2BFD4EB0C0541EA045170BDAA
:1009F00041F480114FF0000E013C90E645EA060EEE
:100A00008DE60CEA135594EA0C0F08BF95EA0C0F1B
:100A10003FF43BAF94EA0C0F0AD150EA01347FF463
:100A200034AF95EA0C0F7FF425AF104619462CE73A
:100A300095EA0C0F06D152EA03353FF4FDAE10469D
:100A4000194622E750EA410618BF52EA43067FF4EE
:100A5000C5AE50EA41047FF40DAF52EA43057FF47E
:100A6000EBAE12E74FF0FF3C06E000BF4FF0010C89
:100A700002E000BF4FF0010C4DF804CD4FEA410CED
:100A80007FEA6C5C4FEA430C18BF7FEA6C5C1BD0BA
:100A900001B050EA410C0CBF52EA430C91EA030F3B
:100AA00002BF90EA020F0020704710F1000F91EA98
:100AB000030F58BF994208BF90422CBFD8176FEA66
:100AC000E37040F0010070474FEA410C7FEA6C5C34
:100AD00002D150EA013C07D14FEA430C7FEA6C5C3B
:100AE000D6D152EA033CD3D05DF8040B704700BF67
:100AF0008446104662468C461946634600E000BFB5
:100B000001B5FFF7B7FF002848BF10F1000F01BD86
:100B10004DF808EDFFF7F4FF0CBF012000205DF851
:100B200008FB00BF4DF808EDFFF7EAFF34BF0120D6
:100B300000205DF808FB00BF4DF808EDFFF7E0FF6F
:100B400094BF012000205DF808FB00BF4DF808EDC0
:100B5000FFF7CEFF94BF012000205DF808FB00BF27
:100B60004DF808EDFFF7C4FF34BF012000205DF809
:100B700008FB00BF4FEA410C7FEA6C5C02D150EAEF
:100B8000013C0AD14FEA430C7FEA6C5C02D152EA85
:100B9000033C02D14FF0000070474FF00100704756
:100BA0004A0011D212F5001211D20DD56FF47873EC
:100BB000B3EB62520ED44FEAC12343F0004343EA41
:100BC000505323FA02F070474FF00000704750EA8C
:100BD000013002D14FF0FF3070474FF000007047F6
:100BE0004FEA4102B2F1E04324BFB3F5001CDCF14F
:100BF000FE5C0DD901F0004C4FEAC0024CEA507087
:100C0000B2F1004F40EB830008BF20F001007047B5
:100C100011F0804F21D113F13872BCBF01F00040B8
:100C2000704741F480114FEA5252C2F11802C2F1EA
:100C3000200C10FA0CF320FA02F018BF40F001006B
:100C40004FEAC1234FEAD32303FA0CFC40EA0C001D
:100C500023FA02F34FEA4303CCE77FEA625307D15A
:100C600050EA01331EBF4FF0FE4040F44000704791
:100C700001F0004040F0FE4040F40000704700BF2B
:100C80000348044B834202D0034B03B1184770471B
:100C9000E4010020E4010020000000000548064BAC
:100CA0001B1AD90F01EBA301491002D0034B03B16A
:100CB00018477047E4010020E40100200000000014
:100CC00010B5064C237843B9FFF7DAFF044B13B194
:100CD0000448AFF300800123237010BDE40100201D
:100CE00000000000D4BA000808B5054B1BB1054947
:100CF0000548AFF30080BDE80840FFF7CFBF00BF55
:100D000000000000E8010020D4BA0008DFF834D069
:100D10000D480E490E4A002302E0D458C450043353
:100D2000C4188C42F9D30B4A0B4C002301E013602A
:100D30000432A242FBD300F025FD07F0FDFD00F0D8
:100D400061F8FEE70000052000000020E40100201B
:100D5000C8C60008E4010020849B0020FEE70000D4
:100D600010B594B01022002102240AA807F022FD39
:100D70001422002103A807F01DFD204B01210420AF
:100D80001A6C42F080521A641B6C03F0805301937A
:100D9000019B1B4B1A6842F440421A601B6803F423
:100DA00040430293029B4FF48033CDE908134FF484
:100DB0008003CDE90E43D823CDE9100308A8CDE97F
:100DC000124403F01BFA08B172B6FEE703F0DEF935
:100DD00008B172B6FEE70F234FF4A0520590072129
:100DE00003A8CDE903344FF48053CDE9062303F083
:100DF000EDFB08B172B6FEE714B010BD003802403A
:100E0000007000401FB500211022684607F0D2FC98
:100E100003F038F8012300226846ADF8003048F2AC
:100E20001F73CDE9012340F20113039303F048F847
:100E3000042003F035F802F0A3FFFFF791FF00F064
:100E40002BF800F0E3F900F01DFA00F0FDF900F0D6
:100E500037FA00F053FA00F06FFA074801F040F853
:100E6000064801F031F901F0E3F905F0CBFF00F09D
:100E7000A1F905F0E1FFFEE70C0200201C030020B1
:100E80000268034B9A4201D102F086BF704700BF4F
:100E90000010004072B6FEE7214B00211A6B42F0B1
:100EA000800200B58BB01A631A6B06A802F08002AC
:100EB0000192019A1A6B42F002021A631A6B02F055
:100EC00002020292029A1A6B42F001021A631A6B32
:100ED00002F001020392039A1A6B42F008021A63AD
:100EE00010221B6B03F008030493049B07F062FCC1
:100EF00040F20B1305A90B4805930123079303F058
:100F00005BF81022002106A807F054FC4FF4806320
:100F100005A90448059303F04FF80BB05DF804FBF6
:100F200000380240000C024008B54FF47A7005F01A
:100F3000F5FFFAE72DE9F04F4FF000094FF0010AF5
:100F4000874E85B0874D884C884F8949894886F8F7
:100F500000A085F8009084F8009087F8009002F0D7
:100F6000DBF8642005F0DAFF834801F0D3FC51463A
:100F7000484600F0D5FF804660B105233B70E22370
:100F800085F8009086F8009023704FF47A7005F091
:100F9000C5FFFAE702F016FDCF2820700ED8774B78
:100FA00087F800A085F800A086F8008083F800800C
:100FB000DFF8E481D8F8000018B9FEE786F8008071
:100FC000F6E74FF0FF3201A904F081FF0128F1D1CB
:100FD0002B7803F0FF022BB9684B32701B78DBB221
:100FE0002370E7E79DF80430A3F10902032A6BD8C8
:100FF000DFE802F002160A5B9DED030A02F07AFBBD
:10100000CF2820700ED919E001F020F9062848D821
:10101000DFE800F0040447100C41430001232B706B
:1010200004232370554B00221A700BE000232B7011
:10103000E22302E001232B70E623237002F0F0F894
:101040000028EFD19DF804300A2B7FD14FF0010B1F
:10105000022043F698225946387086F800B000F016
:1010600089FF8146002874D101F07EFC032382466B
:1010700043F69822594658463B7000F07BFF002803
:101080005ED104231AF0FD0F3B7018BFE2232370DA
:1010900001232B705AE00123C9E701232B70E723BA
:1010A000CBE701232B70E523C7E701F073FA012892
:1010B0004FF00103B3D902282B7001D1E123BCE723
:1010C0000328B5D0E823B8E7023B062B05D8DFE8B4
:1010D00003F03210151A1F242B009FED291A9FEDE3
:1010E000290ADFED281A0298F0EE610A02F09EF854
:1010F00086E79FED231A9FED240AF2E79FED201A61
:101100009FED220AEDE79DED030A9FED211AE8E726
:101110009DED030AB1EE400AF7E79FED1E0ADDEDF3
:10112000037A30EE670AF0E79FED1A0ADDED037AE5
:1011300030EE670AEEE79FED121A9FED160AD0E730
:1011400005233B70E223237085F800900023337061
:1011500030E705233B70E2232370002399E700BFAB
:101160000400002089050020880500200C060020CE
:10117000B4040020A40300202C040020AA060020B0
:101180000000C842000000000000B4420000B4C2E9
:101190000000AA42000034439805002010B5044620
:1011A000034800F057FB2046BDE8104000F000BCAB
:1011B0009402002008B500F039FB0B4A00210B48CF
:1011C00005F05AFE0A4B0B4A002118600A4805F048
:1011D00053FE0A4B0A4A002118600A4805F04CFEEB
:1011E000094B186008BD00BF00C00008290F0008A7
:1011F00008020020DCBF0008350F000804020020B0
:10120000B8BF00089D1100080002002008B50C4975
:101210004FF4E1320B4B08460B600023C1E9012378
:101220000C224B62C1E90333C1E90523C1E907334D
:1012300004F0F5FA18B1BDE80840FFF72BBE08BD71
:101240002C0400200010014008B50C494FF4165240
:101250000B4B08460B600023C1E901230C224B62B3
:10126000C1E90333C1E90523C1E9073304F0D7FA23
:1012700018B1BDE80840FFF70DBE08BDB40400205A
:101280000044004008B50C494FF4E1320B4B0846CE
:101290000B600023C1E901230C224B62C1E9033337
:1012A000C1E90523C1E9073304F0B9FA18B1BDE873
:1012B0000840FFF7EFBD08BDA40300200048004030
:1012C00008B50C494FF4E1320B4B08460B60002384
:1012D000C1E901230C224B62C1E90333C1E90523B3
:1012E000C1E9073304F09BFA18B1BDE80840FFF7E5
:1012F000D1BD08BD1C030020004C004008B50C49BE
:101300004FF4E1320B4B08460B600023C1E9012387
:101310000C224B62C1E90333C1E90523C1E907335C
:1013200004F07DFA18B1BDE80840FFF7B3BD08BD71
:10133000940200200050004008B50C494FF41652AA
:101340000B4B08460B600023C1E901230C224B62C2
:10135000C1E90333C1E90523C1E9073304F05FFAAA
:1013600018B1BDE80840FFF795BD08BD0C0200208C
:101370000078004030B5D5B00446142200210DA8F5
:1013800007F018FA8422002112A807F013FA236844
:10139000A84A93422BD1402312A8129303F0F2F9EA
:1013A00008B1FFF777FDA44B4FF4C06E0DA9A34819
:1013B0005A6C42F010025A645A6C02F01002019208
:1013C000019A1A6B42F001021A6300221B6B03F0B0
:1013D00001030293029B0223CDE90DE30323CDE930
:1013E0000F230723119302F0E7FD55B030BD944A57
:1013F000934232D1802312A8129303F0C3F908B1AB
:10140000FFF748FD8C4B4FF0600C00240DA91A6CBF
:101410008C4842F400321A641A6C02F400320392CF
:10142000039A1A6B42F008021A631B6B03F008035D
:101430000493049B0223CDE90DC30323CDE90F439D
:101440000723119302F0B8FD26202246052102F061
:10145000D9FC262002F008FDC7E77B4A934229D138
:101460004FF4807312A8129303F08CF908B1FFF7C0
:1014700011FD714B4FF4406400250DA91A6C73489F
:1014800042F480221A641A6C02F480220592059AB2
:101490001A6B42F002021A631B6B03F002033393D0
:1014A000339B0223CDE90D430323CDE90F530723DB
:1014B000119398E7664A934236D18022002134A8DE
:1014C00007F078F94FF4007333A8339303F05AF917
:1014D00008B1FFF7DFFC584B4FF4406000240DA922
:1014E0001A6C42F400221A641A6C02F4002206926A
:1014F000069A1A6B42F004021A631B6B03F0040392
:101500000793079B0223CDE90D0303235148CDE93F
:101510000F430823119302F04FFD34202246062189
:1015200002F070FC342095E74B4A934246D180226A
:10153000002134A807F03EF94FF4806333A83393B9
:1015400003F020F908B1FFF7A5FC3B4B4FF48051A5
:10155000002408251A6C3F4842F480121A641A6C61
:1015600002F480120892089A1A6B42F004021A637D
:101570001A6B02F004020992099A1A6B42F00802EF
:101580001A631B6B119503F008030A930A9B02234D
:10159000CDE90D1303230DA9CDE90F4302F00CFD96
:1015A00004230DA927480D93119502F005FD352060
:1015B0002246062102F026FC35204BE7274A9342BB
:1015C0007FF413AF8022002134A807F0F3F84FF422
:1015D000805333A8339303F0D5F808B1FFF75AFCD2
:1015E000154B00240DA91E481A6C42F080421A6463
:1015F0001A6C02F080420B920B9A1A6B42F01002A6
:101600001A634FF4C0721B6B03F010030C930C9B16
:101610000223CDE90D230323CDE90F4308231193C2
:1016200002F0CAFC52202246052102F0EBFB5220B8
:1016300010E700BF001001400038024000000240E7
:1016400000440040000C02400048004000040240FA
:10165000004C00400008024000500040007800406C
:1016600000100240FEE7FEE7FEE7FEE7FEE77047F8
:10167000014803F0B1BC00BFB4040020014803F0EE
:10168000ABBC00BF1C030020014803F0A5BC00BF99
:1016900094020020014803F09FBC00BF0C02002010
:1016A000014803F03FBB00BF3C0500200D4B82B05A
:1016B0000F216FF001001A6C42F080521A641A6C0C
:1016C00002F080520092009A5A6C42F480425A64AE
:1016D00000225B6C03F480430193019B02B002F093
:1016E00091BB00BF00380240214B1A6C42F010023F
:1016F00030B589B01A641B6C054601A903A803F034
:1017000010030293029B03F01FF8069B4BBB02F0F1
:10171000FBFF184A184B136040F2E733D360174BB6
:10172000B0FBF3F3013B1046536000231361936059
:10173000936103F0EBFB044680B90E4803F0B0FA66
:10174000044658B9362002F08FFB0F2D0DD82246E3
:101750002946362002F056FB094B1D60204609B091
:1017600030BD02F0D1FF4000D3E70124F6E700BF0F
:10177000003802403C0500200010004040420F00AD
:1017800014000020034AD2F8883043F47003C2F8F2
:101790008830704700ED00E070B5044630B3164B5A
:1017A0001B781BB3154D2B7803BB154E3068E8B181
:1017B00004F032FCD0B923780A3B012B12D9114B2B
:1017C0001A78012A14D101F021FD01232146306845
:1017D0002B7000231A4604F05CFA012807D000237E
:1017E0002B7003E001F012F90028E8D1002070BD51
:1017F0001B78042BFAD1E6E78905002004000020BD
:10180000980500200C060020074B70B51D680446A3
:101810004DB1FEF7BDFE214682B264232846BDE8E5
:10182000704003F07CBF70BD0806002008B50022A0
:101830006121042004F004FA044B00220C211860FA
:10184000042004F0FDF9024B186008BD9C0500203F
:1018500098050020064A0749106000220A800649C0
:101860000A7006490A7010B1012204F063B870478B
:1018700008060020A2050020A00500200406002084
:101880002DE9F04100239AB0304E00933368002BCD
:101890003FD083423DD12E4A2E4D13682C78013320
:1018A00013602D4B1F780D2F01D00A2F3CD12B4FE9
:1018B000B7F80080B8F1000F00D1A4B16022002178
:1018C0000DF1050006F076FF424625490DF10500B1
:1018D0008DF8044007F057F8224B1868E0B9224A07
:1018E00013680133136000231D4A3B802B70137073
:1018F00001221949306804F01DF8009B4BB14FF0EC
:10190000E0234FF08052C3F8042DBFF34F8FBFF395
:101910006F8F1AB0BDE8F08100236A4601A904F078
:1019200072FA0128DBD1DEE7002CE1D10B490C4A29
:1019300008885E2805D8431C17549BB20B80D454EA
:10194000D6E701230C8014702B70D1E70806002025
:1019500094050020A005002004060020A205002018
:10196000A40500209C0500208C0500200C4B1B6862
:1019700010B48BB183420FD100220A4908240A8097
:1019800009490A7019680C62C3F8842001220749CA
:101990005DF8044B03F0CEBF5DF8044B704700BF09
:1019A00008060020A2050020A00500200406002053
:1019B0002DE98048DFF8C8A2ADF5057DDFF8C4B297
:1019C0001BACDBF8000000B9FEE74FF0FF32214608
:1019D00004F07DFA0128F4D125783DB1834A84488A
:1019E000136801331360FFF70FFFE9E781490DF139
:1019F0006D0006F0F9FE04460028E1D07E4A7F49DA
:101A0000136801331360FEF7B9FDD0B9794906F0C8
:101A1000EBFE044628B1754A794813680133136018
:101A2000E1E7784D01F0ECFB286840B104F0F4FAEE
:101A300028B12146286804F062F8734B1C70734883
:101A4000D1E773492046FEF799FD00286ED1694918
:101A500006F0CAFE0028DED16B4B1B78002B5DD050
:101A60006C4B6D4C1A786D4B072A08BF1C464FF41F
:101A7000FA706B4D02F018F96A4B002818BF1D462A
:101A800002F054F910EE100AFEF706FD664BCDE9A0
:101A900012011868FEF700FD644BCDE914011868C7
:101AA000FEF7FAFC624BCDE916011868FEF7F4FC6C
:101AB000604B06460F461868FEF7EEFC5E4B5F4A29
:101AC00080461B7889461078DBB2199300F07CFCC5
:101AD0005B4A5C495C4B127809781B7800959DED58
:101AE000167BCDE90F13199B4FF4A0718DED067B8A
:101AF0009DED147BCDE90D020C9334A82346534A87
:101B00008DED047B9DED127BCDE90A89CDE9086757
:101B10008DED027B06F0D4FD34A864E7464B4C4CB7
:101B20001A784C4BCF2A88BF1C46A0E74A4920466A
:101B3000FEF724FD38B92F4906F056FE00287FF441
:101B40006AAF46484FE746492046FEF717FDF0B911
:101B5000284906F049FE00287FF45DAF9AF800306E
:101B6000012B05D09AF80030042B01D03D483AE70C
:101B70000A2334A88DF8D030002335930023369300
:101B8000FFF70AFE08B938482DE738482BE73849EF
:101B90002046FEF7F3FC28B136492046FEF7EEFC5E
:101BA000002871D11349002006F01EFE05460028CA
:101BB0007FF431AF20462E49FEF7E0FC002834AC1C
:101BC000359514BF0C230B2320468DF8D03000230D
:101BD0003693FFF7E1FD0028D5D09DF8D000264BC5
:101BE000264A0B2808BF1A461046FCE68C05002042
:101BF00055BB000869BB0008900500206CBB0008BD
:101C000071BB000898050020040000207EBB00087E
:101C100088BB0008AA06002021BB000818BB0008EA
:101C20003BBB000834BB0008A4060020A00600202F
:101C3000700600206C060020880500203606002073
:101C4000340600203E060020A90600208FBB0008B5
:101C50002FBB000829BB000826BC00082BBC0008CD
:101C60000CBD000811BD000826BD000831BD0008EC
:101C70003BBD000840BD000843BB00084DBB000849
:101C80000C0600209C0500207C492046FEF776FCCF
:101C90000646002846D10923794934AD2B7006F059
:101CA000A3FD04467649304606F09EFD064654B331
:101CB00048B31AAF394606F063FB1A9BB0EE408A70
:101CC0009E4220D01B78F3B9B5EEC00AF1EE10FAAF
:101CD00019DDDFED6C7AB4EEE70AF1EE10FA12D8F6
:101CE00069492046FEF74AFC30B168492046FEF7B4
:101CF00045FC40B9B1EE488A6149002085ED028A71
:101D000006F072FD28B1624A62481368013313601D
:101D100069E668602846FFF73FFD00283FF433AFCF
:101D20005D4860E65649002006F05EFD5B490646C8
:101D30002046FEF723FC00282CD059492046FEF708
:101D40001DFC002868D057492046FEF717FC0028E4
:101D500064D055492046FEF711FC002860D0534955
:101D60002046FEF70BFC00285CD051492046FEF7C8
:101D700005FC002858D04F492046FEF7FFFB0028FD
:101D800054D04D492046FEF7F9FB00287FF443AEBE
:101D9000082300E0012334AC2370002E3FF43BAE57
:101DA0003378002B3FF437AE721E12F8013F002B40
:101DB0003ED1002D3FF42FAE1AAD0A222B603046E3
:101DC000294606F0AFFB2B681F78002F7FF423AE67
:101DD000421E42F20F739A423FF61DAE002360602E
:101DE00027493846A36006F0FFFC23780646053BEA
:101DF000032B22D900287FF40EAE2149002006F0E3
:101E0000F3FC00287FF407AE2046FFF7C5FC00284E
:101E10003FF4B9AE2948E6E50223BCE70323BAE75D
:101E20000423B8E70523B6E70623B4E70723B2E7A0
:101E3000303B0125092BB8D9EDE500283FF463AF0D
:101E400029462F6006F09CFA2B689E423FF45BAF58
:101E50001B78002B7FF457AFB5EEC00AF1EE10FAF5
:101E60007FF751AFDFED167AB4EEE70AF1EE10FA24
:101E70003FF649AF84ED020ABFE700BF43BD00084B
:101E800069BB00080000B44347BD000848BD000816
:101E90008C0500204BBD000857BD0008A4BF0008FA
:101EA0000FBD00083EBD000867BD000860BD00080A
:101EB00063BD000866BD000869BD00086CBD000870
:101EC0000000B4420023034A1370034A1370034A0C
:101ED000137070470F0600200E0600200D0600202C
:101EE0000A4BFF2210B51860094B0A4C1A700223E6
:101EF00000222370084B1A70FFF7E4FF28B101227B
:101F0000064903F017FD00B9207010BD1C06002023
:101F100006000020050000200C0600201806002006
:101F200037B5104A0346104C106828B901232370B6
:101F30002078C0B203B030BD0C4AFF258DF80510E3
:101F4000090A15700A4A8DF80430642300920722AA
:101F50008DF80610694603F0E2FB08B10223E6E7BC
:101F60002070E5E71C060020050000200600002088
:101F700055550506F8B5134B064614461B6803B1C4
:101F80001AB9114B01221A7003E0FFF7C9FF18B10B
:101F90000D4B1878C0B2F8BD01F00AFF0B4F054693
:101FA00001F006FF431BA34202D3074B0322EAE7DB
:101FB0003B78B34202D1044B0022E4E70A2004F04C
:101FC000ADFFEDE71C060020050000200600002004
:101FD000224A0346106810B500283DD098423BD1F4
:101FE0001F4A204B11781B78032932D8DFE801F013
:101FF000020C121C552B01D1012313700122194927
:10200000BDE8104003F096BC552B01D10223F4E744
:102010000023F2E7991E07291BD813490B700021F2
:10202000124B19700323E8E710490C78621CD2B2F6
:102030000A700F490B550C4B1C78631EDBB29A4299
:10204000DCD3052C05D10B78082B02D14A78094B3B
:102050001A70FFF737FFD1E710BD00BF1C06002044
:102060000D060020180600200F0600200E06002096
:1020700010060020060000200A4A116808B579B150
:1020800081420DD1FFF71EFF0B6808221A62002360
:102090000122C1F884300449BDE8084003F04ABC7D
:1020A00008BD00BF1C060020180600200023034ABC
:1020B0001370034A1370034A1370704723060020FD
:1020C000220600202406002008B5094B094A1860A2
:1020D00000231370084A1370084A1370FFF7E6FFD5
:1020E00028B101220349BDE8084003F023BC08BD24
:1020F000300600202C0600202106002020060020AB
:10210000114A034613B51068D0B1012B16D0022B2B
:1021100016D132230D4A0DF107018DF80730002347
:102120000B4C13702370FFF7C1FF6423012203F0EF
:10213000F6FA38B90123237002B010BD3123E9E764
:102140000120F9E70220F7E73006002021060020F1
:1021500020060020EFF3108272B6044B002118789D
:102160001970C0B202B962B6704700BF21060020E4
:102170001B4A38B503461068002830D098422ED14B
:10218000184B1C780D2C14D0174B0A2C1A7816D12A
:102190006AB9164B1978012909D1154B1B78312BD7
:1021A00005D1144B1C7814B1134C21701A70FFF731
:1021B0007DFF01220B49BDE8384003F0BBBB002A7C
:1021C000F7D10A4D2978062995BF4B1C0122DBB2B5
:1021D0001A709FBF2B70064D6C54EA54E9E738BD66
:1021E000300600202C0600202206002023060020B6
:1021F0002406002020060020210600200A4A11683B
:1022000008B579B181420DD1FFF750FF0B68082264
:102210001A6200230122C1F884300449BDE8084055
:1022200003F088BB08BD00BF300600202C0600204C
:102230000023034A1370034A1370034A1370704754
:102240003606002035060020340600202DE9F74F21
:102250000023584A584C594D2370137000F0E2FB8C
:10226000431E0090DBB2052B03D908232B700523F6
:1022700011E001262E7000F0C5F8B04207D1072307
:102280002B7020702078C0B203B0BDE8F08F20B171
:1022900008232B7006232370F4E74FF00408484FFF
:1022A000032343F698223146304685F800803B7080
:1022B000FFF760FE30B108232B70052384F80080FF
:1022C0003B70DFE7DFF8FC9099F800301BB1072383
:1022D0002B702670D6E74FF0020A364B01201E7095
:1022E00085F800A0FFF70CFF20B108232B7084F8BD
:1022F00000A0C7E701F05CFD804601F059FD42F205
:102300000F73A0EB0800984206D9062303202B7018
:10231000012320703B70B7E799F80030002B43D1C0
:10232000FFF718FF18B90A2004F0F8FDE5E74FF0B1
:10233000030B43F698220121022085F800B04FF0EC
:10234000040887F800A0FFF715FE0028B3D100F0BD
:102350000BFB0121019043F69822084685F8008086
:1023600087F800B0FFF706FE019B0028A3D113F009
:10237000FD0F87F800807FF478AF022B03D107238D
:102380002B70012387E799F8003003F0FF02002B40
:10239000F5D10136009BF6B2B3429ED205232B70D5
:1023A000227087F800806DE7012007232B702070D2
:1023B000387069E734060020350600203606002014
:1023C0000C060020A906002008289ABF024B53F8EB
:1023D00020000248704700BF3CC0000871BD0008E3
:1023E0009FED071A10B5F0EE410AB0EE410A00F079
:1023F0007DFE044608B100F0CFFB204610BD00BFB3
:10240000000000002DE9F04F2DED028B83B001F0AC
:10241000CFFC80464FF4FA7001F046FC40B904242A
:10242000FFF7DEFF204603B0BDEC028BBDE8F08F66
:102430000024DFF8E090DFED358A00F05BFE2746F0
:1024400001F0B6FC4FF480710546314801F098FE6A
:10245000012183462E4801F093FE022182462C483A
:1024600001F08EFE08210646294801F089FE99F800
:1024700000202AB1FFF7B4FF00283DD10124D1E7A5
:10248000A5EB080141F28732914203D90224FFF7FC
:10249000A7FFC7E701904FF4FA7001F005FC002890
:1024A000BDD0BBF1000F29D046EA0A06019BF6B267
:1024B0006EB91BB3002C08BF2F46FFF791FF0446EF
:1024C000D0B9ED1B312D1CD900F014FEAAE7B3EEF4
:1024D000098A002BFBEE097A08FE278AB3EE090A67
:1024E00000F0A8FDF0EE480AB0EE401AB0EE680A1F
:1024F00000F0FCFD044628B1032493E7B3EE098AFB
:10250000ECE70124142004F009FD99E70000000025
:10251000000C0240A90600209FED071A10B5F0EE4E
:10252000410AB0EE410A00F0E1FD044608B100F0B6
:1025300033FB204610BD00BF000000000A4B10B561
:102540001B7803F0FF0423B10124FFF7E5FF2046C9
:1025500010BD4FF4FA7001F0A7FB0028F7D1022458
:10256000FFF7DAFFF3E700BFA906002010B501F07E
:102570001FFC044601F01CFC031B4F2B01D900205B
:1025800010BDFFF7DBFF0028FAD1142004F0C6FCD1
:10259000F0E700002DE9F8434FF4FA702DED048BBD
:1025A00001F082FB38B9FFF7B7FF02242046BDECEB
:1025B000048BBDE8F883002600F09CFD41F28739CA
:1025C00001F0F6FBB04607469FED738A01F0F0FB81
:1025D0000546FFF7B3FF044628B9EB1B4B4505D969
:1025E0000424FFF799FFFFF797FFDFE74FF48061BF
:1025F0006A4801F0C5FD28B9AEB1A5EB08051D2D4F
:1026000019D83446B3EE090A00F014FDFBEE090AAE
:10261000B0EE401AB0EE480A00F068FD30B1032475
:10262000FFF77AFFDFE7A8460124EBE714202646F0
:1026300004F074FCCAE7FFF76FFF08B10324B5E7A5
:10264000FFF794FF04460028B0D1DFED531AB3EE34
:10265000041A9FED530AC820F0EE610A00F0E6FD6F
:10266000CF280BD9E128A0D0D0289ED0E228E5D0F1
:1026700000F0D6FD0028E1D0344697E700F0D0FD09
:1026800010B1FFF749FFF7E7FFF746FF0028D5D164
:10269000FFF76CFF0446002888D100F02BFD414D68
:1026A00001F086FB9FED408A07230646DFED3F8A57
:1026B0009FED399A2B70FFF741FF044600287FF405
:1026C00075AF01F075FB43F69722831B934203D944
:1026D0000524FFF721FF69E701F028FBB4EEC80AE3
:1026E000F1EE10FA0FD9B0EE681A9FED310AF0EE54
:1026F000490A00F0FBFC10B1FFF70EFF9EE7142023
:1027000004F00CFCD7E7FFF707FF002896D1FFF78E
:102710002DFF044600287FF449AF01F007FBDFEDF1
:10272000257ADFED258A30EE278A9FED1B9ADFEDB3
:10273000239AFFF703FF044600287FF437AF01F028
:1027400037FB43F69722831B9342C1D801F0EEFA80
:10275000B4EEC08AF1EE10FA0DD9B0EE681AF0EEC0
:10276000490AB0EE690A00F0C1FC0028C4D1142067
:1027700004F0D4FBDDE7FFF7CFFE00287FF45EAF67
:10278000FFF7F4FE044600287FF410AF00F0B2FC1F
:1027900004232B700AE700BF00000000000C024079
:1027A0000000B4C2AA0600200000B4C3000030C27A
:1027B00000005C420000B4420000304200005CC2F5
:1027C00038B5094D094C30B903232B700123237010
:1027D0002078C0B238BD00F051FA054B4FF4527268
:1027E0001A6000232B70F2E73C060020070000204F
:1027F0003806002008B500F053FA0038064B18BF21
:102800000120400018701A78002A044A14BF0321DE
:1028100001211170187808BD070000203C06002037
:1028200038B50E4D0E4C2B78012B04D001232370AC
:102830002078C0B238BD00224FF4A0636421104656
:1028400000F062FA003818BF0120400020702378A1
:1028500013B902232B70EBE70323FBE73C060020B0
:10286000070000202DE9F843184D04462B78022B71
:1028700006D0174B01221A701878C0B2BDE8F88351
:1028800001F096FADFF84C80074640F2DB5901F080
:102890008FFAC61B3CB1A04728B100F01BFA0422F6
:1028A0000B4B2A70E7E7D8F80030B34204D8012375
:1028B00000222B70064BDEE74E4503D900F00AFAE2
:1028C0000322EDE70A2004F029FBE0E73C060020A4
:1028D000070000203806002008B500F0FBF900389A
:1028E000064B18BF0120400018701A78002A044ACD
:1028F00014BF032101211170187808BD07000020C2
:102900003C060020024B1878003818BF01207047A1
:10291000A906002038B5114A0023114C1370114D3F
:10292000237003232B70FFF74BFF10B9FFF762FFF3
:1029300028B104280BD003280CBF052004202870E0
:102940002B7833B1052323702878C0B238BD02201C
:10295000F5E7C82004F0E2FA0123F4E73E06002080
:102960003D0600200800002070B5244D244C2B7833
:10297000012B0BD02B78032B08D02B78042B14BF02
:102980000323012323702078C0B270BD1D4E33781D
:10299000052B03D904232B700123F3E7FFF7B2FFC4
:1029A00018B106232B700223ECE702232B70FFF7EC
:1029B00037FF18B91448FFF755FF28B1042811D084
:1029C00003280CBF052004202070237863B93378D6
:1029D0000133DBB233703378052B94BF0323042318
:1029E0002B70D0E70220EFE72378022B01D10623DA
:1029F000F6E7FFF771FF0523F2E700BF3D06002071
:102A0000080000203E06002005290008044B1A7823
:102A1000012AD0B203D01878C31E584258417047DB
:102A20003D060020054B1A78052A04D81878C0F115
:102A30000600C0B270470020704700BF3E0600206D
:102A400038B50C4B04460A460B4D186818B90124DA
:102A50002C70204638BD2146642302F060FE0446F7
:102A6000287018B9054A136801331360022001F079
:102A7000A5F9EEE7440600203F06002040060020AE
:102A8000F32307B58DF8013040F2AB1306218DF822
:102A90000000ADF8023046F601336846ADF8043068
:102AA000FFF7CEFF03B05DF804FB000007B504217B
:102AB000044B0DEB01000193FFF7C2FF03B05DF87B
:102AC00004FB00BF00FF666BFE2307B58DF80130E5
:102AD0004FF4CC7305218DF80000ADF802306B2364
:102AE00068468DF80430FFF7ABFF03B05DF804FBD8
:102AF00093B2002AB8BF5B4207B5B8BF9BB240F2A1
:102B0000DC52B8BF81F001018DF8000093426846A5
:102B10008DF802104FF0080128BF1346F6228DF8F9
:102B200004308DF801201A0A00238DF803208DF857
:102B3000053046F60133ADF80630FFF781FF03B0EC
:102B40005DF804FB034B044A186000231360034A3A
:102B50001370704744060020400600203F06002006
:102B6000F8B50120FFF78CFF06460220FFF788FF2B
:102B700007460320FFF784FF3E4305460420FFF786
:102B80007FFF04463543FFF791FF2C432043C0B23B
:102B9000003818BF0120F8BDF8B50120FFF794FFF9
:102BA00006460220FFF790FF07460320FFF78CFF41
:102BB0003E4305460420FFF787FF04463543FFF7F1
:102BC00075FF2C432043C0B2003818BF0120F8BD68
:102BD00010B50446F8B10121B0F900200846FFF70E
:102BE00087FF0146B8B9B4F902200220FFF780FF41
:102BF00088B90121B4F904200320FFF779FF0146C9
:102C000048B9B4F906200420FFF772FF18B9BDE8EF
:102C10001040FFF74BBF012010BD000038B50D4B31
:102C200004460A460C4D186818B901242C70204639
:102C300038BD2146642302F072FD04462870002846
:102C4000F5D1064A022013680133136001F0B6F88B
:102C5000EDE700BF4C0600200900002048060020D8
:102C600007B50421044B0DEB01000193FFF7D6FFDC
:102C700003B05DF804FB00BF00FF666B054B00224C
:102C80001860B0FA80F0044B40091A60034B1870CA
:102C9000704700BF4C0600204806002009000020B5
:102CA0000A4B07B5186806219B8800906846ADF866
:102CB0000430FFF7B3FF28B1054B1878C0B203B05A
:102CC0005DF804FBFFF7CCFFF9E700BFDABD0008B1
:102CD0000900002007B50A4A052110681279009002
:102CE00068468DF80420FFF799FF28B1054B187846
:102CF000C0B203B05DF804FBFFF7B2FFF9E700BF15
:102D0000E1BD00080900002001281FB501D801B16C
:102D10002BB91A4B012201201A7004B010BD0A24ED
:102D20006143B1F5803FF4D28DF805201A0E8DF87D
:102D30000200080A8DF806201A0C5BBA4FF60554FB
:102D40008DF803006846ADF808304FF480738DF8B5
:102D500004100D21ADF80A306B23ADF800408DF85A
:102D600007208DF80C30FFF759FF18B1034B187886
:102D7000C0B2D2E7FFF774FFCFE700BF0900002021
:102D800098B170EE607A30EE200A37EEC17A77EEB5
:102D9000817A80ED007A30EE017A30EE410AC0EDA2
:102DA000037A80ED017A80ED020A7047F0EE404A26
:102DB000002861D0B5EEC00AF1EE10FA5CD990EDB2
:102DC000006AD0ED016AB5EEC06AF1EE10FAF5EED8
:102DD000C06A4CBFB1EE467AB0EE467AF1EE10FA18
:102DE0004CBFF1EE667AF0EE667AB4EEE77AF1EE79
:102DF00010FA54BFF0EE475AF0EE675A90ED027A9F
:102E0000B5EEC07AF1EE10FA4CBFF1EE477AF0EE73
:102E1000477AF4EEE75AF1EE10FA54BFB0EE655A75
:102E2000B0EE675AD0ED037AF5EEC07AF1EE10FA03
:102E30004CBFF1EE675AF0EE675AB4EEE55AF1EE88
:102E400010FA58BFF0EE455AB4EEE50AF1EE10FA6A
:102E500012D584EEA50A26EE006A66EE806A27EE99
:102E6000007A67EE807A80ED006AC0ED016A80ED3D
:102E7000027AC0ED037A7047B7EE000A704700008F
:102E800010B586B0044602A8FFF77AFF9FED360A18
:102E900002A8002C65D0FFF789FF84ED000AB2EE8E
:102EA000045A9DED026A314BF6EE005ADDED036ADD
:102EB000684683ED006A26EE056A2D4B9DED047A87
:102EC000B5EEC06AC3ED006A66EE856A294BDDED9A
:102ED000057AF1EE10FA83ED007AF5EEC06A264B22
:102EE00027EE057AA8BF36EE256AC3ED007AB8BF93
:102EF00036EE656A67EE857AF1EE10FAB5EEC07AC5
:102F0000BDEEC66AACBF76EEA56A76EEE56AF1EE76
:102F100010FA16EE103AF5EEC07AFDEEE66AADF85C
:102F20000030ACBF37EE257A37EE657AF1EE10FA55
:102F300016EE903ABDEEC77AADF80230ACBF77EE30
:102F4000A57A77EEE57A17EE103AFDEEE77AADF85E
:102F5000043017EE903AADF80630FFF739FE06B0B0
:102F600010BDFFF723FF9AE70000164380060020FC
:102F70007C0600207806002074060020144B10B553
:102F80002DED028B1A7802F0FF0092B19FED118AAD
:102F90000020114CB0EE481A1870F0EE480AB0EE5E
:102FA000480AFFF76DFF38B1FFF7F6FDE223022074
:102FB0002370BDEC028B10BD084B01201870042358
:102FC0002370074B83ED008A064B83ED008AF0E700
:102FD000A906002000000000AA060020A806002084
:102FE000880600208406002010B52DED028B9FED91
:102FF0000D8A04460020B0EE481AF0EE480AB0EE02
:10300000480AFFF73DFFFFF7C7FD074B074A1C7053
:1030100082ED008A064A82ED008A1878BDEC028BA8
:1030200010BD00BF00000000AA0600208806002096
:103030008406002008B52DED028BB0EE408A00F02A
:1030400075FEF1EE407A9FED246AB5EE007A234BCF
:10305000B5EEC08AD3ED006AF1EE10FAB5EEC00A03
:1030600048BFB1EE488AF1EE10FA28EE078A9FEDCC
:103070001C7A30FE270AB4EE460AF1EE10FA98BF29
:10308000F0EE477A77EEE66AC3ED007A37EEA77A7C
:1030900006EE867AF2EE006AB4EEE68AF1EE10FAF7
:1030A00054BFB0EE660AB0EE480AB4EEC07AF1EE54
:1030B00010FA07DCB1EE400AB4EEC70AF1EE10FADE
:1030C00030FE070A074BC3ED007A074BBDEC028BBD
:1030D00083ED000A08BD00BF9A99193E50060020F2
:1030E00000000000A4060020A00600200020FFF73A
:1030F000C7BE000008B500F001FE0023034A1360BC
:10310000034A1360034A136008BD00BF5006002045
:10311000A4060020A006002010B50C46FFF712FD03
:10312000204600F07DFC00231B4A4FF07E501B49D7
:1031300013601B4A13601B4A136000220A701A496D
:103140000A601A490B601A490B601A490B601A4948
:103150000B601A490B601A490B601A490B601A4937
:103160000B601A490B601A4908601A490B601A492A
:103170000B601A490B601A490B601A490B601A4917
:103180000B601A4B1A701A4B1A601A4B1A701A4BB2
:103190001A701A4B1A7010BD500600209C060020B1
:1031A000A4060020A0060020980600209406002017
:1031B000900600208C06002088060020840600204F
:1031C000800600207C06002078060020740600207F
:1031D0000C000020700600206C060020680600200D
:1031E00064060020600600205C06002058060020CF
:1031F00054060020AA060020A9060020A8060020E8
:10320000014B01221A707047A90600200023024AD0
:103210001370024A13707047A9060020A806002008
:10322000014B1878704700BFA8060020DFEDC87A70
:10323000B4EEE70A2DE9F04FF1EE10FAC54C2DED92
:103240000E8BF0EE609A85B0B0EE418A0AEE100A5D
:10325000F0EE618A29DBDFEDC0EAB4EEEE0AF1EEB2
:1032600010FA22D89FEDBDEA20EE0E0AC0EE2EAA7B
:10327000B0EE6A0A07F03AFCB0EE409AB0EE6A0A85
:1032800007F06CFCF8EE4A7A20EE27BA29EE279A6E
:103290002BEE0B0A09EE090A07F006FCB5EEC00A90
:1032A000B0EE40AAF1EE10FA08D8E323237020789C
:1032B000C0B205B0BDEC0E8BBDE8F08FC9EE00BA10
:1032C0009FEDA7DACBEE00AAF5EEC0BAF1EE10FA48
:1032D0004CBFF1EE6B7AF0EE6B7AF4EECD7AF1EE54
:1032E00010FA40F32381F5EEC0AAF1EE10FA4CBFBC
:1032F000F1EE6A7AF0EE6A7AF4EECD7AF1EE10FA37
:10330000CCBF06230523B5EEC0AA4FF07E5A9FED31
:1033100095CACDF808A0F1EE10FAC6DD6AEEAA7AD9
:103320004BEEAB7AF4EECD7AF1EE10FABDD9F4EEB5
:10333000CC9AF1EE10FAB8DBB4EECC8AF1EE10FACA
:10334000B3DDF4EECC8AF1EE10FAAEDBF4EEC89AFF
:10335000F1EE10FAA9DCB4EEE88AF1EE10FAA4D48A
:10336000F4EEC89ADFED806AB6EE006ADFED7FCA40
:1033700038EE289AF1EE10FAB4EEE88A29EE069AB1
:1033800054BFF0EE4CDAF0EE66DA79EE887AF1EEC0
:1033900010FA29EE2C9A67EE867A36FE8CBA29EE60
:1033A0000B9A67EEAC7AB0EE497A07EEAD7AB4EEDE
:1033B000C7AAF1EE10FA3DD57DEE8B5AF5EEC05A54
:1033C000F1EE10FA36DD7AEE0A7A87EEAC7A09EE83
:1033D000ED7A08EECB7AC7EE257AF4EEE79AF1EEB5
:1033E00010FA79FEA77AF4EEE78AF1EE10FA78FE89
:1033F000A77AB4EEE78AF1EE10FA58BFB0EE678A0A
:10340000F4EEC89A38EE889AF1EE10FAF4EEC88A13
:1034100029EE069A54BFF0EE4CDAF0EE66DAF1EEE1
:1034200010FA29EE2C9A54BFB0EE4CBAB0EE66BA40
:1034300029EE0B9AF0EE6B0A2370B0EE6A0ADFF801
:10344000508107F02FFB20EE2E0A494B0027DFF8B2
:103450003CB1C0EE0E7AC3ED007A464BC3ED00BA24
:10346000454BDFED40BAC3ED00AA444BC3ED009AD3
:10347000434BC3ED009A434BC3F800A0424B88ED89
:1034800000CA83ED00AA00F093FC0546814603467E
:10349000019300F08DFC019B0646CDF80CA0C31AE9
:1034A0000EEE103A431B0AEE903AFFF767FD002834
:1034B0007FF4FDAEF5EEC0BAD8ED007AB8EE4EEA74
:1034C000F1EE10FA48BFF1EE6BBA6BEEACBA4BEE10
:1034D0008E7AC8ED007A5FBBF5EE40DAF1EE10FAB5
:1034E00000F0B580F8EE6AAAF4EEEADAF1EE10FA2E
:1034F00040F2AD808AEEAD7A78EE697AF0EE69AA94
:1035000047EE87AA9BF80030002B00F0A4804FF410
:10351000FA7000F0C9FB002840F09D80E12005B062
:10352000BDEC0E8BBDE8F04FFFF75EBD0523EAE66C
:10353000012F2FD13AEE497AD8ED007AF0EE48AA61
:10354000B4EEE77AF1EE10FADCD835467DE000BF44
:10355000000034C3AA06002000003443DA0F4940BB
:1035600017B7D1380000000000009643FCAD803B47
:1035700094060020900600208C060020880600207B
:10358000840600200C0000206C0600209C06002011
:1035900070060020B5EE40BAF1EE10FA0DD0F8EE4C
:1035A0006AAAB4EEEABAF1EE10FA06D9D8ED007ABA
:1035B000B4EEE7AAF1EE10FA3FD8FFF7DFFC0028DF
:1035C0007FF475AE434D2B782BB14FF4FA7000F0B9
:1035D0006BFB0028A2D02B78002B78D0B0EE680AC5
:1035E000FFF728FDB0EE401A3B4B02A893ED000A0E
:1035F0003A4B28EE800AD3ED000A68EEA00AFFF7E6
:103600003FFC00283ED1F4EECD8ADDED027A344B4A
:10361000344AF1EE10FAC2ED008AC3ED007A68EE8A
:10362000A77A314BC3ED007A3FF641AE04212170F9
:1036300082ED00CA83ED00CA39E68AEE8B7A78EE15
:10364000C87AF0EE48AA47EE87AA02275AE7F0EEBA
:1036500048AA012756E79BF80030ABB1B0EE6A0AE2
:10366000FFF7E8FCB0EE401A1B4B03A893ED000AED
:103670001A4B2AEE800AD3ED000A6AEEA00AFFF781
:10368000FFFB20B1E2204AE79FED181AECE7154B4B
:1036900009F11409DDED037AC3ED00AA104B6AEEBF
:1036A000A7BAC3ED007A104BC3ED00BA00F080FB5F
:1036B0000346A9EB0000002803DD00F07FFB334642
:1036C000E6E60B4999460A6801320A60F7E79FED82
:1036D000071A89E79C060020900600208C0600202F
:1036E0000C00002088060020840600200000000056
:1036F00098060020B5EEC00A2DE9F04FF1EE10FA61
:103700009F4D2DED048BF0EE408A85B00CD408D986
:10371000F0EE407A9FED9B7AF4EEC77AF1EE10FA64
:1037200005DDE3232B7052E0F1EE407AF2E74FF42F
:10373000FA7000F0B9FA08B9E123F3E707239FED27
:10374000928ADFF874922B700023DFF87082DFF822
:1037500070A28E4C8E4F8F4EC9ED008A88ED008A84
:10376000CAED008A84ED008A3B703360FFF7C2FC2B
:10377000894B4FF07E529FED899A83ED008A884BEA
:10378000DFED888A83ED008A874B1A6000F010FB1A
:103790008346019000F00CFB4FF07E530393019B96
:1037A000C01A3060FFF7EAFBC0B14FF4FA7000F0C6
:1037B0007BFA08B1FFF79EFC002389ED008A88EDB3
:1037C000008A8AED008A84ED008A3B703360287895
:1037D000C0B205B0BDEC048BBDE8F08F4FF4FA70B9
:1037E00000F062FA48B9E12084ED008A05B0BDEC32
:1037F000048BBDE8F04FFFF7F7BB3368B3F5FA5F12
:1038000006D3E42084ED008AFFF7EEFB2870CCE7B6
:1038100000F08CFA88ED000AD9ED006AD8ED007A44
:1038200076EEE76AF5EEC06ACAED006AF1EE10FACC
:103830004CBFB1EE667AB0EE667AB4EEC97AF1EEBC
:1038400010FA29D89FED501A03A884ED008AF0EEF3
:10385000410AB0EE410AFFF713FB08B1E220C5E7C9
:10386000039A514B1A604A4A13780133DBB2137042
:103870001378042B71D90190FFF73CFC01980423C5
:10388000434A89ED008A88ED008A8AED008A84ED3A
:10389000008A1070306045E7F3EE0E7A00233B702B
:1038A000B4EEE77AF1EE10FA4EDAB2EE046AF2EE16
:1038B0000E7AB4EEC67AF1EE10FAA5BF37EE467A6C
:1038C000F3EE045AC7EE065A87EE256AAABF9FEDAB
:1038D000377A65EEA77A46EE077A3368F92B36D841
:1038E00096ED006ADFED325AB8EE466A86EE257A2A
:1038F00027EE287AF4EEC77AB2EE006AF1EE10FAFB
:10390000B4EEC67A77FE277AF1EE10FA06DBF4EE13
:10391000C67AF1EE10FA48BFF0EE467AF5EEC06ACC
:10392000DFED190A03A8B0EE600AF1EE10FAD8BF75
:10393000F1EE677AC4ED007A94ED001AFFF7A0FA71
:1039400040B184ED008A89E7F0EE687AC5E7B0EE11
:10395000687ACFE7039A144B1A600BF1140B00F04E
:1039600027FA0346ABEB0000002802DD00F026FA40
:1039700010E710499B460A6801320A600AE700BF57
:10398000AA0600200000B443000000005C060020EE
:10399000580600205406002088060020CDCC4C3F5D
:1039A00084060020000070420C0000200000344219
:1039B00000007A4398060020680600206406002074
:1039C0006006002038B54FF4FA60124C00F07EF922
:1039D00030B9D0232370FFF7DFF82078C0B238BDAC
:1039E0000D4D01232B70FFF7BBF810B1E2232370BC
:1039F000F3E74FF4FA7000F0E1F92B782BB1FFF701
:103A000079FB642000F0DAF9E7E7044B00221A6042
:103A1000F7E700BFAA0600209C0600205006002001
:103A20000023174A174910B41370174A086013701F
:103A3000EFF3108072B60022144C2260144C226006
:103A4000144C2260144C2260144C2260144A1370EF
:103A5000144A1370144A1360144A1360144A136012
:103A6000144A136000B962B6086828B101221249ED
:103A70005DF8044B01F05EBF5DF8044B704700BF7A
:103A8000D9060020E8060020D8060020CC06002039
:103A9000C8060020C4060020C0060020D40600206E
:103AA000D0060020BC060020B8060020B406002086
:103AB000B0060020AC060020E50600200C4B1B6879
:103AC00010B48BB183420FD100220A4908240A7036
:103AD00009490A7019680C62C3F884200122074959
:103AE0005DF8044B01F026BF5DF8044B704700BF42
:103AF000E8060020D9060020D8060020E5060020B0
:103B00004C4A136870B501334B4D13602B7843B9A1
:103B1000552805D1494B4A4A1870012313702B7060
:103B200070BD012B464C0CD1532804D1434B587027
:103B300002232370F3E7552852D1404A10702370B6
:103B4000EEE721783D4B4A1C5854D2B20A2A227023
:103B5000E6D918460A21002210F8016B01393244D7
:103B600011F0FF01D2B2F7D1997A91425FD1B3F946
:103B700004209FED346A07EE902AB3F90620B3F9CA
:103B8000023007EE102AF8EEE77A06EE903A2E4B56
:103B9000B8EEC77A2D49F8EEE66A2D4A67EE867AC6
:103BA000087827EE067A66EE866AC3ED006A294B2E
:103BB000C3ED007A284B83ED007A284B98B983ED4A
:103BC000007A0023136001230B70254B01221A7029
:103BD00000F0EEF8234B244A186013680133136099
:103BE00000232B70ABE7D3ED007ADFED206A77EE90
:103BF000677AF4EEE67AF1EE10FA0CDDDFED1C6A7E
:103C000077EEE67AD2ED006A83ED007A76EEA77A57
:103C1000C2ED007AD9E7DFED176AF4EEE67AF1EE4D
:103C200010FA44BFDFED126A77EEA67AEAE7124A8D
:103C3000D3E700BFB0060020D9060020DA06002036
:103C4000D80600200000B43BCC060020D00600209F
:103C5000C0060020C8060020C4060020D4060020AC
:103C6000BC060020B8060020B40600200000344343
:103C70000000B443000034C3AC06002038B5084C43
:103C8000236863B183420AD1064D2878FFF738FFD5
:103C9000294620680122BDE8384001F04BBE38BDFE
:103CA000E8060020E506002038B5074B05461C68ED
:103CB0003CB100F07DF8001BA8428CBF0020012021
:103CC00038BD2046FCE700BFB806002070B50446AA
:103CD000094E00F06DF8054600F06AF8431BA34258
:103CE00001D3002070BD33681BB9052000F066F8D1
:103CF000F2E70120F6E700BFB8060020EFF31083DB
:103D000072B6064A1168064A11600021054A116020
:103D10000121054A117003B962B67047C40600203C
:103D2000D4060020C0060020D0060020EFF3108348
:103D300072B6034A92ED000A03B962B6704700BF3B
:103D4000C006002010B50446FFF798FF2046FEF796
:103D50000FFA2046FDF794FD2046BDE81040FEF71F
:103D600037B910B50446FFF7A9FE2046FEF746FA1C
:103D70002046FDF7FBFD2046BDE81040FEF77CB96C
:103D800008B5032000F02CF80F20FDF7ADFCFDF77F
:103D90008DFC002008BD0000034A044B11681B780D
:103DA0000B441360704700BFEC0600201000002099
:103DB000014B1868704700BFEC06002038B5044678
:103DC000FFF7F6FF0546631C1EBF044B1B78E41883
:103DD000FFF7EEFF431BA342FAD338BD10000020CB
:103DE00007490302CA6803F4E06322F4E0621204A4
:103DF000120C134343F0BF6343F40033CB607047AE
:103E000000ED00E0164B30B5DC68C4F30224C4F1C9
:103E10000703251D042B28BF0423062D4FF0FF3573
:103E20008CBF033C002405FA03F3002805FA04F5CF
:103E300021EA030322EA050203FA04F343EA020338
:103E40004FEA0313DBB206DB00F1604000F561408E
:103E500080F8003330BD00F00F00024A1354F9E738
:103E600000ED00E014ED00E0002807DB410901232C
:103E700000F01F00024A834042F82130704700BF23
:103E800000E100E0BFF35F8F044B5A6A22F48032F6
:103E90005A620022C3F89420704700BF00ED00E092
:103EA000064B40F00100C3F894005A6A42F4803295
:103EB0005A62BFF34F8FBFF36F8F704700ED00E082
:103EC0004378144AC2F89830D2F8A03023F00103A6
:103ED000C2F8A0304368C2F89C30C37A017B1B064D
:103EE00043EA017301780B43817A43EAC143417B82
:103EF00043EA8143817B43EA4143C17B43EA014377
:103F0000417A43EA0123017A43EA4103C2F8A0302F
:103F1000704700BF00ED00E070B50446866DFFF706
:103F200047FF054694F83530022B06D08023012048
:103F30006365002384F8343070BD23681A6822F06A
:103F400016021A605A6922F080025A61226C0AB97C
:103F5000A26C1AB11A6822F008021A601A6822F0DC
:103F600001021A602368186810F0010007D1E26DA1
:103F70003F239340B360012384F83530D9E7FFF73E
:103F800017FF401B0528EDD920230320636584F823
:103F90003500CEE790F83530022B03D080234365FF
:103FA000012070470268052380F83530002013682F
:103FB00023F00103136070472DE9F74F0023DFF86A
:103FC000BC916C4A01240D689C4004EA0506AC4390
:103FD00040F0B7804D6803274FEA430E05F0030415
:103FE00007FA0EFC671E6FEA0C0C012F34D88768A5
:103FF00007EA0C08CF6807FA0EF747EA0807876058
:10400000476827EA0608C5F300179F4047EA0807F4
:104010004760C768022C07EA0C088F6807FA0EF79A
:1040200047EA0807C76019D14FEAD30803F0070A27
:104030004FF00F0B00EB88084FEA8A0AD8F820707F
:104040000BFA0AFB27EA0B0B0F6907FA0AF747EA94
:104050000B07C8F8207001E0032CDAD1076804FAD6
:104060000EF415F4403F07EA0C0744EA0704046025
:1040700067D0D9F8444023F0030703F0030C4FF056
:104080000F0E44F4804407F180474FEA8C0CC9F8C6
:10409000444007F59C37D9F844400EFA0CFE04F46E
:1040A00080440194019CBC6824EA0E0E324CA0426C
:1040B0004ED004F58064A0424CD004F58064A04248
:1040C0004AD004F58064A04248D004F58064A04240
:1040D00046D004F58064A04244D004F58064A04238
:1040E00042D004F58064A04240D004F58064A04230
:1040F0003ED004F58064A04214BF0A24092404FAC7
:104100000CF415F4801F44EA0E04BC606FEA060745
:1041100094680CBF3C40344315F4001F9460D4688D
:104120000CBF3C40344315F4003FD46054680CBFCE
:104130003C403443ED035460146854BF3C40344366
:1041400014600133102B7FF43DAF03B0BDE8F08F56
:104150000024D4E70124D2E70224D0E70324CEE7E9
:104160000424CCE70524CAE70624C8E70724C6E7E9
:104170000824C4E7003C014000000240003802402F
:1041800000690840003818BF01207047194B37B547
:104190001A6C194C42F080521A641B6C03F0805365
:1041A0000193019B236843F480332360FFF700FEF3
:1041B00005466368DA030CD523680F4D43F40033DA
:1041C0002360FFF7F5FD04466B689B030AD50020CA
:1041D00006E0FFF7EDFD401BB0F57A7FE9D903203B
:1041E00003B030BDFFF7E4FD001BB0F57A7FEBD9DB
:1041F000F5E700BF00380240007000402DE9F341B0
:10420000044640B30368DE0710D423689D0761D4D9
:104210002368190700F1A68023685A0700F1C780B8
:10422000A269002A40F0308100202CE0944B9A686B
:1042300002F00C02042A07D09A6802F00C02082A45
:104240000BD15B68590208D58D4B1B689A03DCD5EE
:104250006368002BD9D1012015E06368884DB3F560
:10426000803F13D12B6843F480332B60FFF7A0FD10
:10427000834E054633689B03C7D4FFF799FD401B67
:104280006428F7D9032002B0BDE8F0819BB92B6800
:1042900023F480332B602B6823F480232B60FFF7FB
:1042A00087FD06462B689F03AFD5FFF781FD801B76
:1042B0006428F7D9E6E7B3F5A02F2B6803D143F4C0
:1042C00080232B60CEE723F480332B602B6823F40C
:1042D0008023CAE76A4B9A6812F00C0F07D09A68DD
:1042E00002F00C02082A11D15B685D020ED4644A08
:1042F0001368990702D5E368012BACD113682169D3
:1043000023F0F80343EAC103136081E7E3685C4DDF
:10431000BBB12B6843F001032B60FFF749FD064654
:104320002B689B0707D52B68226923F0F80343EA23
:10433000C2032B606CE7FFF73BFD801B0228EFD91F
:10434000A0E72B6823F001032B60FFF731FD064641
:104350002B689F077FF55CAFFFF72AFD801B0228C3
:10436000F6D98FE76369464D83B16B6F43F0010364
:104370006B67FFF71DFD06466B6F9B073FF54CAF64
:10438000FFF716FD801B0228F6D97BE76B6F23F041
:1043900001036B67FFF70CFD06466B6F9F077FF508
:1043A0003BAFFFF705FD801B0228F6D96AE7344BC7
:1043B0001A6CD50027D41A6C012742F080521A6477
:1043C0001B6C03F080530193019B2E4D2B68D80585
:1043D0001BD5A3682A4D012B27D12B6F43F0010376
:1043E0002B6741F28838FFF7E3FC254E0546336F13
:1043F0009A073FD5002F3FF413AF214A136C23F0E7
:10440000805313640CE70027DFE72B6843F48073C5
:104410002B60FFF7CDFC06462B68D905D9D4FFF7F2
:10442000C7FC801B6428F7D92CE7ABB92B6F41F28E
:10443000883823F001032B672B6F23F004032B67CD
:10444000FFF7B6FC06462B6F9B07D3D5FFF7B0FCF2
:10445000801B4045F7D915E7052B2B6F03D143F09F
:1044600004032B67B9E723F001032B672B6F23F0BD
:104470000403B5E7FFF79CFC401B4045B7D901E7B3
:104480000038024000700040384DAB6803F00C0368
:10449000082B41D02B68022A23F080732B602ED189
:1044A000FFF786FC06462B68990122D4A36A5B08B5
:1044B0005A1ED4E907310B4343EA0243626A43EAD6
:1044C0008213E26A43EA026343F000536B602B6895
:1044D00043F080732B60FFF76BFC244D04462B6880
:1044E0009A013FF5A1AEFFF763FC001B0228F6D945
:1044F000C8E6FFF75DFC801B0228D4D9C2E6FFF7AF
:1045000057FC04462B689B017FF58EAEFFF750FCED
:10451000001B0228F6D9B5E6012A6B683FF49BAE72
:1045200003F48002E1698A427FF495AE03F03F0212
:10453000216A8A427FF48FAE47F6C072616A1A40E0
:10454000B2EB811F7FF487AEA26A03F440315208B8
:10455000013AB1EB024F7FF47EAEE26A03F0706382
:10456000B3EB026F14BF012000208CE6003802403C
:10457000134908B58B6803F00C03042B1BD0082BE0
:104580001BD14A684B68496802F03F0213F480036C
:10459000C1F388111ABF0B4800230B48A1FB00018F
:1045A000FBF7D2FF064B5B68C3F3014301335B00AB
:1045B000B0FBF3F008BD0348FCE70348FAE700BF8F
:1045C0000038024000127A000024F4002DE9F04186
:1045D0000D46044610B90120BDE8F081454A136834
:1045E00003F00F038B4228D321688F0730D4C8070C
:1045F00043D4404A136803F00F03AB4266D82268E5
:1046000051076FD4130707D53B4A2169936823F4F8
:10461000604343EAC1039360FFF7AAFF364B374A72
:104620009B68C3F30313D35CD840354B1860354BFC
:104630001868FDF759F80020CEE7136823F00F0340
:104640000B431360136803F00F038B42C3D1CBE716
:1046500011F0040F284B03D09A6842F4E0529A609C
:104660000E0703D59A6842F460429A609A68A0687F
:1046700022F0F00202439A60B9E761681E4B0129FB
:104680001A681BD112F4003FA5D09A6841F288380D
:10469000194F22F003020A439A60FFF789FB06468E
:1046A000BB68626803F00C03B3EB820FA1D0FFF785
:1046B0007FFB801B4045F3D903208DE7022902D1FF
:1046C00012F0007FE0E712F0020FDDE7136823F03D
:1046D0000F032B431360136803F00F03AB427FF407
:1046E0007AAF8CE70449E0688B6823F4E053034316
:1046F0008B6087E7003C0240003802402CC0000875
:104700000000002014000020044B054A9B68C3F3FE
:104710008223D35C034A1068D840704700380240B7
:1047200024C0000800000020044B054A9B68C3F326
:104730004233D35C034A1068D840704700380240C7
:1047400024C00008000000200F2303600B4B9A6870
:1047500002F0030242609A6802F0F00282609A68F6
:1047600002F4E052C2609B68DB0803F4E05303618B
:10477000034B1B6803F00F030B60704700380240C7
:10478000003C02402DE9F7430268044612F00103A1
:104790000BD0AD498B6823F400038B60636B886892
:1047A0001843B3FA83F35B09886012F4002612D031
:1047B000A548E66BD0F88C10B6F5801F21F44011A7
:1047C00008BF012341EA060116BFB6FA86F60026A5
:1047D0007609C0F88C10D50211D59B4D206CD5F808
:1047E0008C10B0F5800F21F4400141EA0001C5F8BA
:1047F0008C1000F08681002808BF46F00106C2F345
:104800000067900647EA030731D58F4B8F4D1A6C2E
:1048100042F080521A641B6C03F080530193019B99
:104820002B6843F480732B60FFF7C2FA80462B6835
:10483000D90540F16881844D2B6F13F4407340F02B
:104840006D81236B03F44072B2F5407F7E4A40F0E5
:104850008B81916823F0704021F4F81120F44070AE
:1048600001439160C3F30B03116F0B43136725687A
:10487000E8060CD5744BD3F88C2022F08072C3F874
:104880008C20D3F88C20A16B0A43C3F88C206904D8
:1048900008D56D4A616ED2F8903023F440330B4353
:1048A000C2F890302A0408D5674AA16ED2F8903039
:1048B00023F440230B43C2F89030EB0308D5624A3F
:1048C000E16ED2F8903023F440130B43C2F89030DD
:1048D000A80308D55C4A216FD2F8903023F4400336
:1048E0000B43C2F89030690608D5574A616CD2F87C
:1048F000903023F003030B43C2F890302A0608D50A
:10490000514AA16CD2F8903023F00C030B43C2F84B
:104910009030EB0508D54C4AE16CD2F8903023F08A
:1049200030030B43C2F89030A80508D5464A216DE4
:10493000D2F8903023F0C0030B43C2F890306905E1
:1049400008D5414A616DD2F8903023F440730B438F
:10495000C2F890302A0508D53B4AA16DD2F89030B4
:1049600023F440630B43C2F89030EB0408D5364A79
:10497000E16DD2F8903023F440530B43C2F89030ED
:10498000A80408D5304A216ED2F8903023F4404371
:104990000B43C2F89030690208D52B4AA16FD2F8B8
:1049A000903023F080630B43C2F89030AA020DD5FB
:1049B0002549E26FD1F89030B2F1006F08BF46F0A0
:1049C000010623F000631343C1F890306B0308D550
:1049D0001D4A616FD2F8903023F040730B43C2F848
:1049E0009030280209D5184AD4F88010D2F89030B7
:1049F00023F080530B43C2F89030002F40F0B88072
:104A0000A90100F1B580C5F3C0053543012D76D16C
:104A10000D4D2B6823F080532B60FFF7C9F9064634
:104A20002B689F0000F12A8121680E0301D5E36BFA
:104A30001BB1CD0223D5236C0BBB034AD2F88830BF
:104A4000D2F8880004E000BF003802400070004047
:104A500003F4403300F0E0400343606943EA80130D
:104A6000A06943EA0063C2F88830D2F88C30A06AAB
:104A700023F4F853013843EA0023C2F88C3088024B
:104A800015D5E36FB3F1006F11D1834AD2F88830A6
:104A9000D2F8880003F0706300F0E04003436069DF
:104AA00043EA8013206A43EA0043C2F888300A07C9
:104AB00019D57949D1F88820D1F8883002F0706290
:104AC00003F440331343626943EA8213E26943EA21
:104AD0000273C1F88830D1F88C30E26A23F4403395
:104AE0001343C1F88C306C4C236843F0805323602F
:104AF000FFF75EF9054623689B0040F1C680002061
:104B000009E001237BE6FFF753F9A0EB08006428D6
:104B10007FF68DAE032003B0BDE8F083226B02F474
:104B2000407293423FF48DAE2B6F2A6F23F4407393
:104B300042F480322A672A6F22F480322A672B6778
:104B40002B6FDA077FF57DAEFFF732F941F2883936
:104B500080462B6F9B073FF574AEFFF729F9A0EB5A
:104B600008004845F5D9D5E7916821F4F81178E6B1
:104B7000494F3B6823F080633B60FFF719F980469B
:104B80003B681A0173D42268D30712D5636B83B9CB
:104B9000D7F88430D7F8841003F4403301F0706103
:104BA0000B43616843EA8113A16843EA0173C7F8C4
:104BB0008430170303D5E36BB3F5801F05D0D00213
:104BC0001ED5236CB3F5800F1AD13349D1F8843048
:104BD000D1F8840003F4403300F0E0400343606800
:104BE00043EA8013E06843EA0063C1F88430D1F8F7
:104BF0008C00636A20F01F00013B0343C1F88C3036
:104C0000D10111D52449D1F88430D1F8840003F0C2
:104C1000706300F0E0400343606843EA801320695A
:104C200043EA0043C1F8843092010DD523696268DC
:104C30001B0443EA8213E26843EA0263A26843EA80
:104C40000273154AC2F88430134F3B6843F0806307
:104C50003B60FFF7ADF880463B681B013FF5D3AEE4
:104C6000FFF7A6F8A0EB08006428F5D952E7FFF794
:104C70009FF8A0EB0800642882D94BE7FFF798F86B
:104C8000801B64287FF6CCAE44E7FFF791F8401B09
:104C900064287FF630AF3DE70038024070470000DF
:104CA00090F83D30012B33D1022380F83D3003686A
:104CB000DA6842F00102DA60164A93421AD0B3F180
:104CC000804F17D0A2F57C42934213D002F5806248
:104CD00093420FD002F5806293420BD002F57842E6
:104CE000934207D002F57052934203D0A2F594325A
:104CF000934207D19968084A0A40062A06D0B2F5BD
:104D0000803F03D01A6842F001021A600020704709
:104D10000120704700000140070001007047704704
:104D200070477047036870B5DD6804461E69B207B6
:104D30000DD5A9070BD56FF002021A610122027787
:104D40009B699A0775D0FFF7EAFF00232377730763
:104D500010D568070ED523686FF0040220461A614B
:104D6000022222779B6913F4407F68D0FFF7D7FFB8
:104D70000023237731070FD52A070DD523686FF05D
:104D8000080220461A6104222277DB699B075CD067
:104D9000FFF7C5FF00232377F10610D5EA060ED5ED
:104DA00023686FF0100220461A6108222277DB691F
:104DB00013F4407F4FD0FFF7B2FF00232377F307B0
:104DC00008D5E80706D523686FF0010220461A616E
:104DD000FCF756F816F4025F08D0290606D52368BA
:104DE0006FF4025220461A6100F0C1F8F20508D5AE
:104DF0002B0606D523686FF4807220461A6100F0F6
:104E0000B7F8700608D5690606D523686FF040022A
:104E100020461A61FFF785FFB20622D5AB0620D5E2
:104E200023686FF0200220461A61BDE8704000F050
:104E30009DB8FFF773FF2046FFF772FF85E7FFF786
:104E40006DFF2046FFF76CFF92E7FFF767FF2046F4
:104E5000FFF766FF9EE7FFF761FF2046FFF760FF61
:104E6000ABE770BD274A0368904212D0B0F1804F83
:104E70000FD0A2F57C4290420BD002F580629042A6
:104E800007D002F58062904203D002F5784290424A
:104E900008D123F070034A68134323F44073CA68AF
:104EA000134316E0184A9042F7D002F58062904210
:104EB000F3D002F580629042EFD0A2F59832904292
:104EC000EBD002F580629042E7D002F5806290421A
:104ED000E3D04A6923F0800313438A68C2620A68F8
:104EE0008262084A904203D002F58062904201D16A
:104EF0000A690263026842F0040202600122426110
:104F000003607047000001400040014010B50446B6
:104F100050B390F83D3003F0FF021BB980F83C20FD
:104F2000FFF7BCFE02232068211D84F83D30FFF707
:104F300099FF0123002084F8483084F83E3084F83B
:104F40003F3084F8403084F8413084F8423084F8AF
:104F5000433084F8443084F8453084F8463084F88F
:104F6000473084F83D3010BD0120FCE770477047A2
:104F70007047026852E8003F23F4907342E8003122
:104F800002680029F5D102F1080353E8003F23F03D
:104F9000010302F1080C4CE800310029F3D1036E43
:104FA000012B07D152E8003F23F0100342E8003103
:104FB0000029F7D12023C0F88030002303668366E0
:104FC0007047704708B5806B0023A0F85A30FEF791
:104FD000C8FE08BD70470000036870B5DA6940F686
:104FE0000F061968044632429D680BD1960640F1BF
:104FF00088808D0640F18580836E002B7BD0BDE8D4
:105000007040184705F00100964D0D40054378D0DB
:10501000D60709D5CD0507D501251D62D4F88450E2
:1050200045F00105C4F88450960708D538B102252B
:105030001D62D4F8845045F00405C4F88450550727
:1050400008D538B104251D62D4F8845045F0020516
:10505000C4F8845016070BD501F02005054307D08E
:1050600008201862D4F8840040F00800C4F88400D6
:1050700015050AD5480108D54FF400601862D4F828
:10508000843043F02003C4F88430D4F88430002BFB
:1050900031D0920605D58B0603D5A36E0BB1204601
:1050A000984726682046D4F88420B36802F0280286
:1050B00003F0400353EA02051ED0FFF75AFFB3681E
:1050C0005E0615D5226802F1080353E8003F23F07D
:1050D0004003083242E800310029F3D1606F38B153
:1050E000614B0365FEF756FF28B1606F036D86E7DD
:1050F0002046FEF736FE70BDFEF733FEC4F884503E
:10510000F9E7206E012840F08D80D50640F18A80B5
:10511000C80640F187801022B4F858101A629A68C5
:10512000520651D5606F0268526892B2002A42D08E
:10513000914240D9A4F85A20C269B2F5807F2ED09E
:1051400053E8002F22F4807243E800210029F7D1B0
:1051500003F1080252E8002F22F0010203F10800D7
:1051600040E800210029F3D103F1080252E8002FA2
:1051700022F0400203F1080040E800210029F3D1A9
:105180002022C4F88020216653E8002F22F010026C
:1051900043E800210029F7D1606FFEF7BDFE02232E
:1051A000B4F858106366B4F85A30C91A89B2204668
:1051B000FFF710FF9FE791429DD1C369B3F5807F50
:1051C00099D102236366F2E7B4F85A20B4F85A0082
:1051D00092B280B200288ED0891A89B200298AD072
:1051E00053E8002F22F4907243E800200028F7D102
:1051F00003F1080252E8002F22F0010203F1080532
:1052000045E800200028F3D12022A066C4F88020C1
:10521000206653E8002F22F0100243E80020002807
:10522000F7D1CEE7160607D50D0605D5E36E002BA0
:105230003FF461AF2046E2E650067FF55CAF4A06D8
:105240007FF559AF53E8002F22F0400243E80021D8
:105250000029F7D120232046E166E367FFF7B1FE7E
:1052600049E700BF20010004C54F0008D0F88020A6
:10527000222A08B5036854D15B6AB0F85C10426D0D
:105280000B401370436D01334365B0F85A30013B56
:105290009BB2A0F85A30B0F85A309BB2002B3FD1E5
:1052A000026852E8003F23F4907342E8003103683B
:1052B0000029F5D103F1080252E8002F22F0010283
:1052C00003F1080C4CE800210029F3D1202281666B
:1052D000C0F8802041665A68110205D4026E012A86
:1052E0000BD0FEF72FFD1BE053E8002F22F0806269
:1052F00043E800210029F7D1F0E70022026653E8D5
:10530000002F22F0100243E800210029F7D1DA69CA
:10531000D20601D510221A62B0F85810FFF75AFED3
:1053200008BD9A6942F008029A61F9E7D0F8802036
:10533000222A08B5036851D1596AB0F85C2011409F
:10534000426D22F8021B4265B0F85A20013A92B22F
:10535000A0F85A20B0F85A2092B2002A3DD153E862
:10536000002F22F4907243E800210029F7D103F1C5
:10537000080252E8002F22F0010203F1080C4CE869
:1053800000210029F3D120228166C0F880204166E7
:105390005A68110205D4026E012A0BD0FEF7D2FC26
:1053A0001BE053E8002F22F0806243E8002100292F
:1053B000F7D1F0E70022026653E8002F22F0100236
:1053C00043E800210029F7D1DA69D20601D510227D
:1053D0001A62B0F85810FFF7FDFD08BD9A6942F057
:1053E00008029A61F9E7000038B50446C0692169EE
:1053F000A26823680A4361691D680A436E49024333
:105400002940256A0A43E1681A605A6822F440522A
:105410000A435A60A26999682A4321F430610A4319
:105420009A60664A934213D1654BD3F8903003F0EB
:105430000303022B00F0A580032B00F09C80012BBE
:1054400067D0B0F5004F00F09080FFF76DF912E0E3
:105450005C4A934226D15A4BD3F8903003F00C03A8
:10546000082B00F08E8016D8002B52D1B0F5004FDB
:1054700076D0FFF749F9002875D0626800EB520337
:10548000B3FBF2F34FF6EF72A3F11001914204D88F
:105490002268D36067E00C2B6DD001200023C4E9A3
:1054A0001A3338BD484A934209D1454BD3F890305E
:1054B00003F03003202B64D0D6D9302BECE7434ADD
:1054C000934209D13E4BD3F8903003F0C003802BB8
:1054D00057D0C9D9C02BDFE73D4A93420BD1384B97
:1054E000D3F8903003F44073B3F5007F49D0BBD9B3
:1054F000B3F5407FD0E7374A934213D1304BD3F80E
:10550000903003F44063B3F5006F3AD007D8002B16
:1055100097D0B0F5004F2BD1FFF72AF822E0B3F572
:10552000406FB9E72C4A93420BD1254BD3F890300A
:1055300003F44053B3F5005F23D095D9B3F5405F32
:10554000AAE7264A9342A8D11D4BD3F8903003F422
:105550004043B3F5004F14D086D9B3F5404F9BE7D5
:10556000FFF7D2F890B9002098E7FFF7DDF8F9E7E8
:10557000FEF7FEFF7FE7B0F5004F07D04FF4004085
:105580007BE7B0F5004F16487FF477AF62685308A9
:1055900003EB4003B3FBF2F34FF6EF72A3F11001FC
:1055A00091423FF67AAF23F00F02C3F34203216822
:1055B00092B21343CB60D6E7F369FFEF00100140CE
:1055C000003802400044004000480040004C0040C9
:1055D000005000400014014000780040007C004072
:1055E0000024F400436A1A0710B506D50168446B1D
:1055F0004A6822F4004222434A60DC0706D501686B
:10560000846A4A6822F4003222434A60990706D528
:105610000168C46A4A6822F4803222434A605A0709
:1056200006D50168046B4A6822F4802222434A604E
:10563000DC0606D50168846B8A6822F48052224316
:105640008A60990606D50168C46B8A6822F4005204
:1056500022438A605A0610D50168046C4A68B4F582
:10566000801F22F4801242EA04024A6005D14A688F
:10567000446C22F4C00222434A601B0606D502682D
:10568000816C536823F400230B43536010BD2DE954
:10569000F843DDF8209004460D46174698462268E8
:1056A000D36935EA03030CBF01230023BB4201D0B9
:1056B000002022E0B9F1FF3FF2D0FEF779FBA0EB2A
:1056C0000800484529D8B9F1000F26D021680B6899
:1056D0005A07E4D5802DE2D0402DE0D0CE6916F0F7
:1056E00008060CD0082520460D62FFF742FC002377
:1056F0000120C4F8845084F87830BDE8F883CB6981
:105700001B05CCD54FF4006320460B62FFF731FC3C
:10571000202384F87860C4F884300320EDE72DE975
:10572000F7439846C36F04460E46202B174643D1D5
:10573000002943D0002A41D021230025C0F88450FD
:10574000C367FEF735FBA3688146A4F85070B3F534
:10575000805FA4F8527003D123690BB935461E4609
:10576000B4F852204B46CDF8008092B23AB94021AD
:105770002046FFF78CFF202340B9E36708E00022B2
:1057800080212046FFF783FF28B120230320E36711
:1057900003B0BDE8F08322685EB935F8023BC3F37D
:1057A00008039362B4F85220013A92B2A4F852204E
:1057B000D6E716F8013BF4E70220E9E70120E7E726
:1057C00037B500250446C0F88450FEF7F1FA226888
:1057D0000346126812071AD56FF07E424FF400118B
:1057E000204600922A46FFF752FF80B1226852E815
:1057F000003F23F0800342E800310029F6D1202346
:105800000320E367002384F8783003B030BD202301
:105810000020E367C4F8803020666066F2E710B5C8
:10582000044640B3C36F1BB980F87830FBF7A2FD84
:1058300024232268E367136823F001031360636A7B
:1058400013B12046FFF7CEFE2046FFF7CDFD01281D
:1058500011D0236820465A6822F490425A609A6810
:1058600022F02A029A601A6842F00102BDE8104054
:105870001A60FFF7A5BF012010BD0000A0F8582056
:105880000023A0F85A2082684165B2F5805F8366E4
:105890002CD10369002B40F2FF1318BFFF23A0F89F
:1058A0005C300023C0F884302223C0F880300268C6
:1058B00002F1080353E8003F43F00103083242E8D5
:1058C000003102680029F2D181680369B1F5805F77
:1058D00027D1DBB1154B836652E8003F43F4907348
:1058E00042E800310029F7D1002070472AB9036946
:1058F000002B0CBFFF237F23D1E7B2F1805FCED115
:105900000369002B0CBF7F233F23C8E7084B836646
:1059100052E8003F43F0200342E800310029F7D16C
:10592000E2E702498166002BF2D0D5E76D5200080C
:105930002D53000838B5D0F88030202B13D1A1B1F9
:105940009AB100230468036663681B0207D554E814
:10595000003F43F0806344E80035002DF7D1FFF7A6
:105960008DFF002038BD0220FCE70120FAE700F19E
:1059700008034FF0FF3243600361C0E902230023B4
:105980000360704700230361704743689A684B6067
:105990008A60516099600368086101330360704751
:1059A00030B50C68631C0AD103695A684A6091607B
:1059B0008B605960036808610133036030BD00F1FA
:1059C0000802134652681568A542FAD9EDE7036943
:1059D000D0E901128A6051605968814208BF5A605B
:1059E000002202611A68013A1A601868704710B5FF
:1059F000044601F01FFCA46B01F040FCB4FA84F0F3
:105A0000400910BD70B51646026C0446856B42B95C
:105A100006689EB9806800F0C1FFA6600135A563E5
:105A200070BD6EB9406802F0AEFF6368226C13442B
:105A3000A2689342636024BF236863600020EDE79F
:105A4000C06802F0A0FF226CE36851429B1A2268F2
:105A50009342E3603EBFA3685B18E360022EEDD182
:105A60000DB1013DEAE72846D8E7034608461A6C1F
:105A700010B45AB1DC68A1189C68A142D9605DF8E5
:105A8000044B24BF1968D96002F07DBF5DF8044B58
:105A9000704770B5044601F0CDFB94F8455004F111
:105AA00024066DB2002D01DD636AB3B9FF2304F152
:105AB000100684F8453001F0E1FB01F0BBFB94F8DF
:105AC00044506DB2002D01DD23697BB9FF2384F8BA
:105AD0004430BDE8704001F0D1BB304600F0B8FE64
